:020000040000FA
:100000000080002091180000991800009B18000043
:1000100000000000000000000000000000000000E0
:100020000000000000000000000000009B1800001D
:1000300000000000000000009D1800009F18000054
:10004000A1180000A1180000A1180000A1180000CC
:1000500089320000CD620000A1180000A118000044
:10006000A1180000A1180000A1180000A1180000AC
:10007000DD240000A1180000A1180000A118000054
:10008000A1180000A1180000A1180000A11800008C
:100090000348854602F0C8FA00480047C90300003B
:1000A0000080002010B588B00446A14804700121EA
:1000B0000791642106910121059108210491039182
:1000C00032210291FF21F531019107AA01219948BE
:1000D00004F032F806AA02219648401C04F02CF8DD
:1000E000954A0D219348801C04F026F8934A172165
:1000F0006120C00004F020F805AA01213120000190
:1001000004F01AF804AA02218A480C3004F014F80A
:1001100003AA022187480D3004F00EF802AA02213A
:1001200084480E3004F008F801AA0221C52080009E
:1001300004F002F8824A1521002005F0B3FA0020ED
:1001400007900121069100210591032104910121CD
:10015000039107AA04218120C00003F0DBFC06AA5A
:100160000121880203F0D6FC05AA01217148FD3067
:1001700003F0D0FC04AA01216E48FE3003F0CAFC53
:1001800003AA01216F4803F0C5FC0621079107AAC5
:100190000121084600F083F901F0B6F96A496B487D
:1001A00000F09AFD01216248007813F077FD08B055
:1001B00010BD1CB504460021684601704170847072
:1001C000C170017141718171C1716B4608220121B9
:1001D000002000F04FFE1CBD00BF00BF00BF7047F5
:1001E00070B506460C460120C0032040002810D000
:1001F0004F48007813F056FC051E05D02846FFF73F
:10020000EBFF284613F02CFC20460121C90348408F
:1002100070BDE007C00F002803D0204601214840F0
:10022000F6E702202040002840D049480078FFF738
:10023000C0FF47480078401C4549087008460078D0
:100240001D2801DB042008700020FFF7B2FF4048A2
:100250000078FFF7AEFF3E480078401C3C4908702C
:10026000084600781D2801DB042008700020FFF7F5
:10027000A0FF37480078FFF79CFF35480078401C06
:1002800033490870084600781D2801DB04200870F7
:100290000020FFF78EFF7D22120102212448007802
:1002A00013F0A6FE204602214840B1E70020AFE748
:1002B0000246012A01D1002070470D20FCE7FFB55E
:1002C00083B00F461C460D9E0C9D00200290002C12
:1002D00016D120490598884206D1022F04D12878EA
:1002E0003146FFF7E5FF0290029800281CD10096E6
:1002F0002B783946059A039801F083F9029013E0B0
:10030000012C08D12B4600963946059A039801F036
:10031000A3F9029008E0022C06D1FF22F532022157
:100320000348007813F064FE029807B0F0BD7047F0
:10033000004000200503000018400020014000207C
:100340007A410100060400003040002028400020CF
:100350003C4000204D2A000010B500242046641CBB
:100360000AF016F82046641C02F032F82046641C9D
:1003700006F02EFE2046641C05F0DAFD2046641CC3
:1003800004F04AF92046641C04F05EFF2046641C19
:1003900009F0B0FD2046621CD4B203F0F9F8204603
:1003A000621CD4B204F0F4FB2046621CD4B203F009
:1003B00049FD2046621CD4B200F03CFB2046621C82
:1003C000D4B2FFF76FFE10BD0C48806A01214902CC
:1003D00008430A49886203210120400201F02EFDF2
:1003E00001F013FF064907A00AF07CF801F060FF56
:1003F000FFF7B2FF01E009F0F7FFFCE780100040D3
:10040000A042010025730A0010B50024B449B54884
:1004100004F0E8FBB44B10220521B44804F066FD5B
:100420000446204610BDB249086070473EB50446F8
:100430002079C007C00F00282BD06088A84904F09D
:1004400047FD0546E807C00F002821D00020009096
:100450006088002301221B2105F0C6F80290029853
:10046000002814D0A148418D684681800121C180B7
:10047000A0480078029908706088002201A904F061
:100480001FFF002803D01B2101A805F0F3F800BFCF
:1004900000BF3EBD10B598480EF03EFF10BDF8B548
:1004A00004460F4615460026012C0AD128789349A8
:1004B0000870904800780978884201DAFFF7EAFF6F
:1004C00001E0022600BF00BF3046F8BD10B502466D
:1004D0000023002A06D0012A08D0022A0AD0032AC3
:1004E0001CD10BE083480078087019E0834800783D
:1004F000087015E07D484089088011E00846804C6E
:10050000247804717E4C64784471784C648D048046
:10051000764C648F44800124847101E0022300BF83
:1005200000BF184610BD70B576480068002802D09C
:10053000744800688047FF242D3473480068002801
:1005400002D071480068804770480088844201DB0F
:10055000642523E06E480088844201DC00251DE00C
:100560006C480068002805D020466A490968884719
:10057000054613E06548008865490988401A401C13
:1005800086B2B61062490988611A19225143721E57
:100590008818314601F0D4FFC5B200BF284670BDAF
:1005A00010B5FFF7C0FF044652480078844203DAD2
:1005B00050480470FFF76EFF002010BD70B5059D18
:1005C000049C534E3180514E32804E4E33604E4E1D
:1005D0003460504E356070BDFEB50C4615461E4663
:1005E000002001900898002801DD0B20FEBD606806
:1005F00007786168497809020F434748874210D15C
:10060000FFF791FF00903B4909780098884202DA91
:1006100038490098087001203080364800782870EA
:100620000CE03E48874207D1022030800222284653
:10063000E16813F041F901E00A2001900198D5E743
:10064000FFB583B00C4615460C9F00266068007805
:1006500061684978090208430290314902984018BC
:10066000002820D10120009701902A462146069BB0
:10067000039804F0CFFA0646002E13D12878697843
:100680000902084301901A480068002809D001991E
:10069000002901D1022100E001210846144909681E
:1006A000884700BF01E00A2600BF00BF304607B000
:1006B000F0BD70B505460C460A48401E85420DD077
:1006C000012C07D0022C09D1012128460EF072FE20
:1006D000002803D10249284604F084FA70BD0000C6
:1006E00084480020FFFF0000E040002090400020F0
:1006F000744000208A4000202D0400008840002023
:100700008B400020784000207C4000208640002064
:100710008440002080400020192A000008290000A1
:10072000FED6FFFF10B5AA4B10221321A94804F0F2
:10073000DDFB10BDF8B504460D4616460027002C1B
:1007400005D12A463146A44813F0B6F801E0022745
:1007500000BF00BF3846F8BD70B504460D46002600
:10076000230009F0E7FE09060C12181E242A303671
:100770003C0008229849284613F09EF831E00D22EB
:100780009649284613F098F82BE00E229449284603
:1007900013F092F825E012229249284613F08CF8C3
:1007A0001FE012229049284613F086F819E0122221
:1007B0008E49284613F080F813E012228C4928460F
:1007C00013F07AF80DE00E228A49284613F074F8E7
:1007D00007E007228849284613F06EF801E0022658
:1007E00000BF00BF304670BDFFB583B00F461D4649
:1007F0000D9E0C9C002002907868007879684978FA
:100800000902084301907D4A0198811A904268D0FC
:100810000ADC7B49401800280FD0012822D002288A
:1008200035D0032872D147E0012973D002296FD057
:1008300003296ED02929F5D1ABE0082C02D307207B
:1008400002900EE00820001BB04201D9304601E0C2
:100850000820001B28802A885F480119059813F09A
:100860002BF8B0E00C2C02D3072002900EE00C20F5
:10087000001BB04201D9304601E00C20001B28804B
:100880002A8856480119059813F016F89BE00D2C9C
:1008900002D3072002900EE00D20001BB04201D9C8
:1008A000304601E00D20001B28802A884C480119A1
:1008B000059813F001F886E0112C02D3072002906E
:1008C0000EE01120001BB04201D9304601E011209A
:1008D000001B28802A8843480119059812F0ECFF74
:1008E00071E0112C02D3072002900EE01120001BB2
:1008F000B04201D9304601E01120001B28802A882F
:1009000039480119059812F0D7FF5CE056E001E084
:1009100015E029E0112C02D3072002900EE01120EF
:10092000001BB04201D9304601E01120001B288095
:100930002A882E480119059812F0BEFF43E0112CB9
:1009400002D3072002900EE01120001BB04201D913
:10095000304601E01120001B28802A882448011914
:10096000059812F0A9FF2EE00E2C02D3072002906A
:100970000EE00E20001BB04201D9304601E00E20EF
:10098000001B28802A881B480119059812F094FF43
:1009900019E0072C02D3072002900EE00720001B6D
:1009A000B04201D9304601E00720001B28802A8888
:1009B00011480119059812F07FFF04E000202880FB
:1009C0000A20029000BF00BF029807B0F0BD0000EF
:1009D0003442002004410020ED400020B8410100D5
:1009E000C5410100D3410100E5410100F74101008B
:1009F000094201001B420100FD400020272A00009F
:100A0000DDD5FFFF704710B50446012C0AD1FE4822
:100A1000007805280DD1FD4A0221FD48007813F029
:100A2000E7FA06E0022C04D10221F948007813F01D
:100A300027FB10BD38B50446F5480470012000902E
:100A40006A460121F34803F065F80020C04304F032
:100A500019FE0020C04304F08BF8FFF763FEFFF798
:100A6000D3FC00F03DFEEC48FFF7DDFCEB4800F066
:100A700046FE0121E648007813F010F938BD7047B2
:100A8000FEB506460D461746002003462A461B21A2
:100A90000090E348008804F0A7FD02900298002827
:100AA00015D068468680C5802A463946029812F0DD
:100AB00003FF002201A9DA48008804F001FC044683
:100AC000002C05D01B2101A804F0D4FD00E0132464
:100AD0002046FEBD30B502460B46D2480168D248DA
:100AE00004780FE00879904209D14879984206D1FC
:100AF0008879CE4D2D78A84201D1084630BD601EC0
:100B0000C4B20831002CEDDC0020F7E7FFB583B05C
:100B1000074614461D4638460499FFF7DBFF02904E
:100B2000002835D00299488801A904F0B1FA061EC0
:100B30002ED0BB480088F16804F0CAF900900098F4
:100B4000C007C00F002822D0B9480078002808D07C
:100B5000B74A0121AF48F43803F0EEFA0020B44957
:100B60000870029908882A462146FFF789FF002865
:100B70000BD1B0480770AF4904984870084684709C
:100B800022462946C01C12F097FEFFF778FF00BFEF
:100B900007B0F0BD10B5A8480078A8490978884288
:100BA00001D1002010BD0B21A3480078401C01F0AA
:100BB000C7FCC8B2A0490870084600780B2148431A
:100BC0009F494018EEE710B58F480078052807D1F7
:100BD000FFF7E6FC8D4A02218D48007813F008FAF1
:100BE00010BD704710B504462078B02803D12046C8
:100BF000FFF7F7FF00E000BF00BF10BD70B506466D
:100C00000C460120C0032040002810D08048007806
:100C100012F048FF051E05D02846FFF7E3FF2846DF
:100C200012F01EFF20460121C903484070BDE007B5
:100C3000C00F002809D0834803F040FA824802F030
:100C4000C9FE204601214840F0E70420204000284A
:100C500013D06D48007805280BD17CA009F042FC28
:100C60007F480078002802D0FFF709FF01E003F079
:100C70004DFA204604214840D8E7022020400028B1
:100C800005D0FFF7A0FF204602214840CEE708200C
:100C9000204000281ED073480078002816D0FFF7A7
:100CA00079FF0546002D05D0AA7869782878EB1CD5
:100CB000FFF72CFF6048007860490978884203D12B
:100CC000204608214840B1E72046AFE720460821EA
:100CD0004840ABE70020A9E7634A1160634A10600F
:100CE0007047504A1160504A1070704708B5002193
:100CF000009169464748401C02F004FC68460078B1
:100D000008BDF8B504460D4616461F46FFF7EEFF30
:100D100000283FDD0B2149480078401C01F010FC01
:100D2000C8B24649087008460078434909788842A5
:100D300008D10B2140480078401C01F001FCC8B2EA
:100D40003D4908703D4800780B2148433C490C540C
:100D50003A4800780B2148433949401845703748D4
:100D600000780B214843364940188670334909788A
:100D70000B225143324A8918C81C3246394612F0B8
:100D80009BFD38480078002804D0082120480078CE
:100D900012F084FFF8BD08B53021062003F012FEE2
:100DA0005021072003F00EFE3C21012003F00AFE33
:100DB000002100916A4601212D4803F0BDF901216F
:100DC00000916A462A48083803F0B6F908BD08B50C
:100DD0002021062003F0F6FD3021072003F0F2FD6C
:100DE0000521012003F0EEFD032100916A46012157
:100DF0001F4803F0A1F9012100916A461C480838F8
:100E000003F09AF908BD000041420020983A000022
:100E1000404200200D040000070A0000050A0000FF
:100E200044420020484200204C4200206F420020F3
:100E3000584200200D490020594200205A4200200B
:100E4000944800205C4200202C4201006869642024
:100E500069646C65206576656E742E2E0A0000004C
:100E600046420020424200205042002054420020CE
:100E70000D030000F8B504460D4616461F46FA4815
:100E80000078052810D1F9480078002819D0F848D2
:100E90000078F8490978884213D13B463246294602
:100EA0002046FFF733FEF8BDEF480078022808D04F
:100EB000FFF71CFF002802DDFFF789FF01E0FFF7C5
:100EC0006AFF3B46324629462046FFF71AFF00BF1D
:100ED000E9E708B5E4480078052802D103F016F9DF
:100EE00006E0002000906A460121E34803F024F95F
:100EF00008BD10B503460C46002B01D0082A01DDC1
:100F0000002010BD002106E0585CA04201D0002066
:100F1000F7E7481CC1B29142F6DB0120F1E7F8B5D2
:100F200004460D460026002C34D1002D30D1D34A82
:100F300051781078FFF7CEFD071E18D0CF48827881
:100F40000021C01CFFF7D5FF00280BD1CB488278C9
:100F50000021C01C12F068FDC84A91783888D21C64
:100F6000FFF78EFD0B220021C44812F05DFDBE4844
:100F70000078052801D103F0C9F80020BD490870A8
:100F8000BB49087000221146BD4802F0C3FD00E0D5
:100F9000182601E0022600BF00BF3046F8BD024619
:100FA000002000BF022000BF00BF704770B504469C
:100FB0000D462A462146B348008802F0B1FB70BDB9
:100FC00010B50246B0480168B04803780CE00888C4
:100FD000904206D18879AE4C2478A04201D10846CF
:100FE00010BD581EC3B20831002BF0DC0020F7E71B
:100FF000FFB585B00D461E46002004906868007855
:10100000696849780902084304460E98002805DDFE
:10101000A048844202D00B2009B0F0BD9D48801C3E
:1010200084420AD09B482938844206D0994819380E
:10103000844202D0401C844218D16889FFF7C0FF67
:10104000039000280FD007980096019003984179EB
:1010500000790290904800680123224607680298B0
:10106000B847049050E0002030804DE08948844229
:101070001DD18A4909880E98884202DB0720049016
:1010800042E0864801880E98091A0F98814201DDD6
:101090000F9803E0814801880E98081A3080328842
:1010A000EB680E981918079812F006FC2CE07948A6
:1010B000401E844207D1042030800422E96807984A
:1010C00012F0FAFB20E07648844207D102203080FB
:1010D0000222E968079812F0EFFB15E06D48C01C8A
:1010E000844206D101203080E868017807980170B9
:1010F0000AE06B48401E844206D102203080022262
:10110000E968079812F0D8FB0498002801D1FFF78E
:10111000B6FC049880E702465B4801685B480378A8
:1011200007E04888904201D108467047581EC3B274
:101130000831002BF5DC0020F7E7FFB585B0144639
:10114000002004900E98002802DD0B2009B0F0BDAD
:1011500006984068057806994968497809020D4360
:101160004C48801C854203D04A481938854214D126
:1011700006994889FFF724FF061E0DD008A80194A0
:1011800000907179307903904348006800232A4623
:1011900007680398B847049090E03E48401C854299
:1011A0001BD16846008C012814D12078002802D079
:1011B000207801280BD12278002A01D0012200E0FA
:1011C00000221046344A12685168884776E0802031
:1011D000049073E00D20049070E03148801F854238
:1011E0002BD101210E98019100906846038C224674
:1011F0000699059803F00EFD0490049800285DD12F
:101200002078617809020843039006994889FFF71E
:1012100082FF061E10D008A801940090039A012AAC
:1012200001D1022200E003221346717930791A4A73
:10123000126817682A46B84740E01648C01C854225
:101240003CD16846008C012836D12078002802D095
:10125000207801282DD121780698C0680170227865
:10126000002A1FD102221EE04142002042420020FB
:10127000594200205A420020050300000D49002079
:101280000904000044420020484200204C42002053
:101290006F4200204B2A0000504200206442002090
:1012A0000829000003221046864A126851688847C0
:1012B00004E08020049001E00D20049004980028B0
:1012C00001D1FFF7DCFB049840E7F3B581B00C4691
:1012D0007D4806687D49019888421ED0012C07D0C0
:1012E000022C1AD1012101980EF064F8002814D1C3
:1012F000774805780FE07088002809D07088694623
:1013000003F0C6FE071E03D0F968019803F06AFCDB
:10131000681EC5B20836002DEDDCFEBD08B51921EA
:101320008901062003F04EFB19218901072003F0F3
:1013300049FB0021012003F045FB032100916A468F
:101340000121644802F0F8FE012100916A466148DB
:10135000083802F0F1FE08BD10B504215E4800789F
:1013600012F08EFE10BD10B5FFF7F6FF01215B48AD
:101370000088FFF79EF901215848008800F062FAC2
:10138000012156480088FFF7A0FF0020544908704B
:101390000120544908700020534908700B22002195
:1013A000524812F041FBFFF7A1FC002808DD50482D
:1013B0000068007902210840002801D0FFF7AEFF45
:1013C00010BD38B50446052C11D144494148401C94
:1013D00002F0C4FC00204249087000906A460121D6
:1013E0003C48083802F0A8FEFFF749FB15E04148E9
:1013F0000078052810D1052C0ED0FFF7B4FF01208E
:101400003D4908703D480078042806D1FFF7C3FC29
:1014100000203A49087000E000BF3648047038BD2B
:1014200070B506460C461546002C03D101202E4906
:10143000087019E0012C0AD100202B490870002DFA
:1014400002D10120264908702C4805700CE0022CBE
:1014500009D1002D08D10120214908701F480088BA
:1014600000F074F900E000BF2548007825490978AC
:10147000884208D01A480078002804D0082116486D
:10148000007812F00BFC70BDFFB581B005460C462C
:1014900016460C48006800280DD00A48006880688D
:1014A000002808D007480068876832462146284649
:1014B000049BB84704E000221146204602F030F9B0
:1014C00005B0F0BD5042002048420020FEFF000061
:1014D0004C4200200D030000404200204442002006
:1014E000424200206F420020464200200D49002069
:1014F0005442002041420020584200204742002030
:10150000594200205A42002010B50024664967481D
:1015100003F068FB6649654803F064FB654B1022E5
:101520001A21654803F0E2FC04466348C1690220C1
:10153000FEF7CCFF61480078614908715F48407848
:1015400048715D48C030408908805B48D030408990
:101550004880012088715B480178594801735948D7
:1015600041785748417358484089554908810021BE
:1015700053484181012181735048017850480175D9
:101580004E4841784E4841754F48303040894C496B
:1015900008824D4840304189494841820021817587
:1015A00048480178464801774648417844484177A1
:1015B00045486030408942490883002140484183C2
:1015C0008177424801783E48203001713F48417898
:1015D0003B48203041713C4880304089384908847C
:1015E00000213748418401212030817101460831B2
:1015F0000320FEF76BFF32490720FFF772FB2046FE
:1016000010BDF0B50546059C0020314E9619002E00
:1016100017D01B2E1DD1022907D1012B03D126780B
:101620002C4F3E700CE00D200AE0032907D1012B5E
:1016300003D12678284F3E7002E00D2000E00A20FA
:1016400008E0012B03D12678244F3E7000E00D20E6
:1016500000E000BF00BFF0BD30B50546039C1C484C
:101660001018002814D01B2818D1022905D11948B8
:10167000007820700120188009E0032905D1164860
:10168000007820700120188001E00020188008E018
:101690001248007820700120188002E00020188095
:1016A00000BF00BF002030BD50490020FFFF0000F8
:1016B0006049002020440020804200207242002027
:1016C0001849002076420020804300207E420020FE
:1016D000CED5FFFF754200207D4200207B420020D6
:1016E00010B500246249634803F07CFA624B102273
:1016F0000621624803F0FAFB0446204610BD60490B
:101700000860704710B50346002000BF022000BFEC
:1017100000BF10BD10B502460020002A02D0012AE9
:1017200010D107E0574B1B78564C647824022343B2
:101730000B8009E0534B9B78524CE47824022343FE
:101740000B8001E0022000BF00BF10BD3EB5044683
:101750004749204603F0BCFB0546E807C00F0028B8
:1017600021D00020034601221B210090204603F0D7
:101770003BFF02900298002814D040485030418925
:10178000684681800121C1800020029908700022F2
:1017900001A9204603F094FD002803D01B2101A8D5
:1017A00003F068FF00BF3EBDF0B505AC70CC002073
:1017B000F0BDFFB583B00D4614461E4600200290D2
:1017C0000C98002802DD0B2007B0F0BD6868077890
:1017D0006968497809020F432B4887421FD1042EBC
:1017E0001AD1207861780902084301902078617845
:1017F00009020843009001990098884209DC3246AA
:101800002146E86812F058F801201D490968884708
:1018100001E08020029013E00D20029010E01B48B0
:1018200087420BD101210C9833462246019100904A
:101830002946039803F0EEF9029001E00A20029095
:101840000298C1E770B505460C460A48401E85421D
:101850000DD0012C07D0022C09D1012128460DF012
:10186000A9FD002803D10249284603F0BBF970BD49
:1018700070490020FFFF00009844002038440020F9
:101880002C440020314400204F2A0000022900008F
:101890000448804704480047FEE7FEE7FEE7FEE70E
:1018A000FEE70000AD180000910000005720FA4943
:1018B0000870A82008708820F749403908817047CF
:1018C00000B5030008F036FE0D081A2C37414C56BF
:1018D000606A75808B96A1005721EF4A1170A8218C
:1018E0001170ED492039C97B04229143EA4A203A1C
:1018F000D173C821E84A403A118187E05721E64A6E
:101900001170A8211170E4492039C97B04221143C8
:10191000E14A203AD173C821DF4A403A118175E08B
:101920005721DD4A1170A82111705121C900DA4AEE
:10193000403A11816AE05721D74A1170A8211170ED
:10194000D649D54A403A118160E05721D24A1170F8
:10195000A821117081218900CF4A403A118155E0B8
:101960005721CD4A1170A82111708821CA4A403AE6
:1019700011814BE05721C84A1170A8211170022132
:10198000C54A403A118141E05721C34A1170A8214C
:1019900011700421C04A403A118137E05721BE4AF4
:1019A0001170A821117093218900BB4A403A11811E
:1019B0002CE05721B84A1170A8211170B7494D3158
:1019C000B54A403A118121E05721B34A1170A8214C
:1019D000117095218900B04A403A118116E05721D3
:1019E000AD4A1170A82111704B21C900AA4A403A92
:1019F00011810BE05721A84A1170A8211170A74945
:101A00005C31A54A403A118100E000BF00BF00BD33
:101A10005721A14A1170A8211170002808D19E49B0
:101A200040390989521591439B4A403A118108E097
:101A3000994940390989012252021143964A403A94
:101A4000118170475721944A1170A8211170002804
:101A500008D191492039C97B042291438E4A203A0A
:101A6000D17307E08C492039C97B042211438A4A8B
:101A7000203AD1737047F8B504462246864E403E60
:101A80003689009686495726834F3E70A8263E70B9
:101A9000824E814F403F3E8157267F4F3E70A826A1
:101AA0003E700126BE747F4B4DE000BF7A4EB67C7F
:101AB00002273E40002EF9D0774E308A00BF764E86
:101AC000B67C02273E40002EF9D100BF724EB67C94
:101AD00002273E40002EF9D06F4E308A57266E4FB7
:101AE0003E70A8263E7088420ADD6B4E203EB689C5
:101AF000B618694F203FBE811D46461AB3B209E0B1
:101B0000654E203EB689B61A634F203FBE811D4602
:101B10000E1AB3B29D4216DA57265F4F3E70A826C2
:101B20003E70884207DD5C4E203EB689B61A5A4F99
:101B3000203FBE8106E0584E203EB689B618564F6B
:101B4000203FBE8100E0B0E700BF5726524F3E70F5
:101B5000A8263E70504F403F009E3E8100264E4FCB
:101B6000BE74F8BDF0B500270026002422E0781CE2
:101B700087B225460320FFF77EFF47482038848937
:101B8000A54206DD281B032801DC012007E0002018
:101B900005E0601B032801DC012000E00020002894
:101BA00002D0701C86B200E00026032E01DC052F57
:101BB00000DD00E0DBE700BF002722E0781C87B2F1
:101BC00025460120FFF757FF334820388489A54276
:101BD00006DD281B012801DC012007E0002005E0CC
:101BE000601B012801DC012000E00020002802D059
:101BF000701C86B200E00026022E01DC052F00DDFD
:101C000000E0DBE700BFF0BDF7B584B00D46144639
:101C10001821049800F07EFC80B2039018210498EB
:101C200000F078FCE120C00041431E206843081802
:101C3000E10F09194910401887B20194E007C00F5D
:101C4000002802D00120C00300E0002002903E46A0
:101C50003104029801430E4657200F490870A8200E
:101C600008700D494039039848630B482038407C80
:101C700080210843084920394874074840384663A2
:101C80000846407C4021084303492039487400201D
:101C90000149087007B0F0BD40100040020200008A
:101CA000C4090000FFFF0000F0B585B004460D46F2
:101CB00016466048C06B8004800C03905D4820305D
:101CC000408B02905B482030008B019002984100CD
:101CD0000122D2030198904201DB012000E00020A4
:101CE0000F18E1210901384600F014FC01461822C2
:101CF0000398504308182060E1210901384600F09C
:101D000009FC00913C21009800F004FC28803C2153
:101D1000384600F0FFFB318005B0F0BD5721454A41
:101D200040321170A8211170424948634149203165
:101D3000497C402211433F4A20325174704700BF12
:101D40003C49886B896B8142FAD170475721394AE7
:101D500040321170A821117036492031497C172278
:101D60009143344A203251741146497C1022024377
:101D70001143304A20325174704700B50346FFF7D3
:101D8000DEFFC21890B2002802D001200004121811
:101D90002948824200D3121A572026494031087040
:101DA000A82008702348426322482030407C20212C
:101DB000084320492031487400BD0146002000221C
:101DC000002A01D020221043CA07D20F002A01D0D6
:101DD000102210435722174B40331A70A8221A7052
:101DE000144A2032527C8243124B20335A7470477B
:101DF0000146002905D10F482030007C8022104088
:101E000070470C482030007C40221040F8E7002842
:101E100002D001280AD104E02021064A20321174A0
:101E200005E01021034A2032117400E000BF00BF1A
:101E300070470000001000400000C0A800B50B0073
:101E400008F078FB050412202E3842009B4A526BA2
:101E500082439A4B5A631A46126B82431A631A469C
:101E6000126A82431A6230E0944A526B8243934B67
:101E70005A631A46126B02431A631A46126A824365
:101E80001A6222E08D4A526B02438C4B5A631A4607
:101E9000126B82431A631A46126A82431A6214E072
:101EA000864A526B8243854B5A631A46126A024332
:101EB0001A620AE0814A526B0243804B5A631A4607
:101EC000126A02431A6200E000BF00BF00BD00B505
:101ED0000B0008F02FFB0504142434404C00774A13
:101EE000403252698243754B40335A611A46126937
:101EF00082431A611A46126882431A6038E06F4AB8
:101F00004032526982436D4B40335A611A4612691E
:101F100002431A611A46126882431A6028E0674A2F
:101F2000403252690243654B40335A611A46126986
:101F300082431A611A46126882431A6018E05F4AA7
:101F40004032526982435D4B40335A611A461268EF
:101F500002431A600CE0594A403252690243574B1F
:101F600040335A611A46126802431A6000E000BF0B
:101F700000BF00BD002906D001290ED0022916D0CD
:101F8000032928D11DE04D4A928A82434B4B9A8205
:101F90001A46D26A0243DA621EE0484A928A8243B3
:101FA000464B9A821A46926A02439A6214E0434A66
:101FB000928A0243414B9A821A46D26A0243DA62FB
:101FC0000AE03E4A928A02433C4B9A821A46926A3F
:101FD00002439A6200E000BF00BF384B98831A4664
:101FE000128A02431A827047002906D0012911D0B3
:101FF00002291CD0032934D126E0304AD28A8243F8
:102000002E4BDA822D4A4032D26802432B4B4033AA
:10201000DA6027E0294AD28A8243284BDA82274AAB
:10202000403292680243254B40339A601AE0234ABB
:10203000D28A0243214BDA82204A4032D2680243DC
:102040001E4B4033DA600DE01C4AD28A02431B4B20
:10205000DA821A4A403292680243184B40339A603F
:1020600000E000BF00BF154BD8831A46528A0243D6
:102070005A827047002807D0104A803A128B0A43D0
:102080000E4B803B1A8306E00C4A803A128B8A433F
:102090000A4B803B1A837047002807D0074A803AD2
:1020A000528B8A43054B803B5A8306E0034A803AB1
:1020B000528B0A43014B803B5A837047801000408B
:1020C0000146062904D1454800780822104070478F
:1020D0004248407901228A401040F8E757203F49A2
:1020E0000870A820087008468079012108433B4900
:1020F000887170473A49096801600021C943384A2C
:1021000080321160704736490860704735488069F1
:1021100070475721314A1170A8211170002806D14B
:1021200011468979042291432C4A917105E02B498B
:10213000897904221143294A91710021274A11709B
:1021400070475721254A1170A8211170002806D127
:102150001146897902229143204A917105E01F4975
:102160008979022211431D4A917100211B4A117085
:102170007047572019490870A820087008468079D0
:10218000102108431549887100200870704710B568
:1021900000210AE0022201E000BF00BF1346541EE6
:1021A000A2B2002BF8D14B1C99B28142F2DB10BDD8
:1021B00030B50446002505E07D20C000FFF7E7FFAD
:1021C000681C85B2A542F7DB30BD00BF064AD27A53
:1021D000082AFBD0044B18727047000040100040E2
:1021E00000E100E000E000E00034004070B504468B
:1021F00021462D4800F08EF905460A21681D00F0A1
:1022000089F9054629498D8170BD10B5E12040024C
:10221000FFF7ECFF8720254988700320C870402015
:1022200048700120887310BD20498978C0229143ED
:10223000820111431D4A9170704700280BD01B4A40
:1022400052780A43194B5A701A46127808231A43D7
:10225000164B1A7004E0154A52788A43134B5A7091
:102260007047802011494870704710B50A4609E050
:102270000E4BDB7A082B05D003780C4C2372401CE4
:10228000531E9AB2002AF3D110BD0146002005E08A
:10229000064A127A0A70491C421C90B2034A927A8A
:1022A000002AF5D170470000005A62020034004055
:1022B00030B593B0122266A16A4811F0EFFA0028F7
:1022C00004D169A008F00EF900BFFEE757206B4962
:1022D0000870A82008705120C00068494039088162
:1022E0000020664908704822002101A811F09CFBDB
:1022F0006348019001200003029062480390019816
:10230000002804D0012109030298884201D200BFAD
:10231000FEE701A800F0DEFFC5B2002D04D05AA0F0
:1023200008F0E0F800BFFEE75C4C601E411C8842EC
:1023300000D90DE0601E5A4948610F210020C043BA
:1023400000F04EF80020564988610720086100BF60
:10235000534800690221884351490861514808F0F7
:1023600033F813B030BD70B506460C460120C003EB
:10237000204000280DD0304611F094FB0546002D7A
:1023800002D0284611F06CFB20460121C9034840C9
:1023900070BDE007C00F002803D02046012148404F
:1023A000F6E701208003204000280FD03EA008F06F
:1023B00099F87D22D201012189033C48007811F06F
:1023C00017FE2046012189034840E1E70020DFE7AE
:1023D00010B504463548047000F088F862B610BDA8
:1023E00010B5002819DA324A03071B0F083B9B0877
:1023F0009B00D2588307DC0EFF23A3409A430B07B0
:102400001B0E8407E40EA3401A43294B0407240F34
:10241000083CA408A4001A5118E0264A03231B0212
:10242000D21883089B00D2588307DC0EFF23A340F9
:102430009A430B071B0E8407E40EA3401A431D4B5F
:10244000032424021B198408A4001A5110BD0000A3
:1024500043483537785F424C455F4C49425F5631BF
:102460002E320000A0420100686561642066696C3C
:1024700065206572726F722E2E2E0A004010004089
:102480008049002000EE03004C494220696E6974C7
:10249000206572726F722E2E2E0A0000FFFFFF0061
:1024A00000E000E00D2100002A200000A4440020EC
:1024B0001CED00E000E100E081B2002902D0012122
:1024C000090440185721104A1170A82111700E49B3
:1024D0004039486300210D4A1160704730200A4995
:1024E00020390874012009490860704710B5FFF7CA
:1024F00039FB074807F06EFF002211461046FFF730
:1025000083FB07F0B1FF10BD40100040A84400203D
:10251000651B000030B50B46014600202022012437
:1025200009E00D46D5409D4205D31D469540491B07
:102530002546954040191546521E002DF1DC30BD50
:1025400070B500242546002801DA01244042002904
:1025500001DA01254942FFF7DDFFAC4200D04042DD
:10256000002C00D0494270BDF0B51FB486B00020E9
:102570000090019002900698069980B20490079806
:10258000090C02040014114307900027089D0998C4
:1025900006913E463C4603900398A9B20204000C03
:1025A000039004982D0C154348430021224600F067
:1025B00018F8C719714110340E46402CECDB384630
:1025C000029A00F00EF8009A019B80180090594181
:1025D00002980191103002904028CCDB00980BB09B
:1025E000F0BD10B5202A04DB0146203A91400020BE
:1025F00010BD914020239C1A0346E34019439040AC
:1026000010BD03460B439B0703D009E008C9121F06
:1026100008C0042AFAD203E00B780370401C491C5E
:10262000521EF9D270470000064C0125064E05E007
:10263000E36807CC2B430C3C98471034B442F7D3E3
:10264000FDF72AFDF84201001843010070B58C180F
:102650000578401C6B075B0F01D10378401C2A11E1
:1026600006D10278401C03E006780E70401C491C1D
:102670005B1EF9D12B0705D40023521E0DD40B701D
:10268000491CFAE70378401CCB1A921C03E01D7822
:102690000D70491C5B1C521EF9D5A142D8D30020F5
:1026A00070BD0000F0B5504C23681D680626B54388
:1026B0001D60467805783602AD198678C7783604ED
:1026C0003F06F619AD199D62467905793602AD19B6
:1026D0008679C77936043F06F619AD19DD62467A68
:1026E000057A3602AD19867AC77A36043F06F6199E
:1026F000AD191D63467B057B3602AD19867BC07B19
:10270000360400063018281858634D7808782D02D2
:1027100040198D78CE782D043606AD194019986190
:102720004D7908792D0240198D79CE792D04360620
:10273000AD194019D8614D7A087A2D0240198D7A69
:10274000CE7A2D043606AD19401918624D7B087BF0
:102750002D0240198D7BC97B2D040906691840188C
:1027600058625868022188435860586801252843F8
:10277000586018682843186058688007FCD5586866
:10278000884358609869107020688069000A50700A
:1027900020688069000C907020688069000ED070FD
:1027A0002068C1691171C169090A5171C169090CB7
:1027B0009171C169090ED171016A1172016A090A28
:1027C0005172016A090C9172016A090ED172416A53
:1027D0001173416A090A5173416A090C9173406A85
:1027E000000ED0730020F0BD0448002002490148CB
:1027F0000860704700C300400448002030B5264BF5
:102800001968C90517D50321196001210825491C3C
:102810001C68C9B22C431C6006E01C68A40508D4DF
:10282000491CC9B2202904D81C68E405F5D5002943
:10283000EDD1002119601949136809680B615268CC
:102840004A61174A13688B615368CB6193680B62C6
:10285000D2684A62124B10331A688A625C68CC6292
:102860009C680C63DB684B630D4B20331C688C60E9
:102870005B68CB600B682024C007A343800E034332
:102880000B600868402318430860886A904201D0B2
:10289000012030BD002030BD80C30040044800202E
:1028A000B8660020F0B5454B00241B681C601C6115
:1028B0005C618578C4782D026419457806782D040A
:1028C0003606AD1965193E4CAE46E5608679C57988
:1028D0003602AD194679077936043F06F619AD1967
:1028E000A560AC46867AC57A3602AD19467A077A73
:1028F00036043F06F619AD196560877BC67B3F023B
:10290000F619477B007B3F0400063818301820601A
:102910009861DD6165461D6275465D624C78087898
:10292000240200198C78CD7824042D066419061928
:102930002348B446103006604D790C792D02641995
:102940008D79CE792D043606AD19651945604E7A1C
:102950000C7A3602A4198E7ACF7A36043F06F6191D
:10296000A41984604F7B0E7B3F02F6198F7BC97BD5
:102970003F040906791871186646C1609E62DD62DF
:102980001C63596351781078090240189178D47803
:102990000904240609190A4C40182034206055798E
:1029A00011792D0249199579D2792D041206AA18A8
:1029B000891861609860D960F0BD0000044800206B
:1029C000B866002010B504F0D9F9024902F0B9FE4A
:1029D000002010BD0604000008B5002808D000291A
:1029E00006D0002A04D01088002801D0002008BD9D
:1029F0001220694608706A460121034802F09DFED4
:102A00006946087808BD0000350C000008B503F0E1
:102A1000CFFC694608706A460121034802F08DFE2A
:102A20006946087808BD00001120000008B503F0D1
:102A300047FF694608706A460121034802F07DFE9F
:102A40006946087808BD000010200000FEB508AFF8
:102A500070CF6F4670C703F059FF0446024902F079
:102A600070FE2046FEBD00001320000008B504F0F3
:102A700075F9694608706A460121024802F05DFE58
:102A8000002008BD0E20000038B5044604F068FCA4
:102A9000694608704C70200A88706A460321024813
:102AA00002F04BFE002038BD1B20000038B5044664
:102AB00004F06CFC694608704C70200A88706A4605
:102AC0000321024802F039FE002038BD1A20000020
:102AD0000EB500A8013005F040F9694608706A4655
:102AE0000921024802F029FE00200EBD1820000036
:102AF00008B500A8013004F0BFFB694608706A46BB
:102B00000421034802F019FE6946087808BD000058
:102B1000022000007FB5044608A861C80090029614
:102B20000195204605F080F9694608734C73200A28
:102B3000887303AA0321034802F0FFFD002004B0BC
:102B400070BD00002020000008B505F08DFD69462D
:102B500008706A460121034802F0EFFD69460878D3
:102B600008BD00000820000008B505F007FD694613
:102B700008706A460121034802F0DFFD69460878C3
:102B800008BD00000A200000F0B585B00AACF0CC0A
:102B900003976F4670C705F083FD6946087404AA61
:102BA0000121034802F0C9FD6946087C05B0F0BD6B
:102BB0000620000008B505F0C9FD694608706A46A0
:102BC0000121034802F0B9FD6946087808BD0000FC
:102BD0000520000008B505F0F9FD694608706A4651
:102BE0000121034802F0A9FD6946087808BD0000EC
:102BF0000C20000008B505F029FE694608706A46F9
:102C00000121034802F099FD6946087808BD0000DB
:102C10000920000010B505F0E9FF024902F091FD1E
:102C2000002010BD192000001CB500A8013005F0DF
:102C3000A3F8694608706A460721034802F07DFD43
:102C4000694608781CBD00000910000038B500A9CD
:102C50000446033105F0A0F8694608704C70200A5C
:102C600088706A460421024802F067FD002038BDE2
:102C70000514000010B5D2B205F007FC10BD0A78AB
:102C800002708A7842704A88120A82700979C1708B
:102C9000042070470A7802700988090A41700220EE
:102CA000704708888004000C70478A780270887822
:102CB0000128088804D012214843401C80B2704784
:102CC0008000FAE70A7802700A88120A427048887F
:102CD000801C80B270470A7802700A88120A42701B
:102CE0008A7882704A88120AC2708888001D80B271
:102CF0007047088870478A78027008884988484376
:102D0000401C80B270478A7802700888498848431E
:102D1000401C80B2704708887047088870477FB5AC
:102D200015460446022901D0102903D1022B04D0F4
:102D3000102B02D0002004B070BD994202D10A4687
:102D4000294607E01029694607D000F00DF8102247
:102D50006946284610F0A2FDEDE7104600F004F8A1
:102D6000102269462046F5E770B50C4605000CD0E8
:102D7000002C0AD010220649204610F09DFD28782C
:102D8000207368786073012070BD002070BD000062
:102D9000E842010008B500220B46009201220249D8
:102DA00007F092FC08BD00007F2C000008B50A88DF
:102DB000172A07D300220B4600920322024907F08C
:102DC00083FC08BD022008BD952C000008B5002139
:102DD0000B461922009107F077FC08BD38B505466F
:102DE00008880C4600280DD0606800280AD0012110
:102DF00010F010FD0090234607220349284607F0F3
:102E000063FC38BD022038BDA32C000038B5054650
:102E100088780C46012801D0022810D1208800288B
:102E20000DD0606800280AD0022110F0F3FC009059
:102E3000234605220349284607F046FC38BD0220F8
:102E400038BD0000AB2C0000064910B5884202D105
:102E500003F05CF810BD0CF03FFA0028FAD11720FF
:102E600010BD0000FEFF000038B505464A6800208E
:102E70000C46002A03D00321104610F0CBFC009032
:102E800023461D220249284607F0D9FB38BD000021
:102E9000C52C000038B505464A6800200C46002ABB
:102EA00003D00321104610F0B5FC009023461B22EE
:102EB0000249284607F0C3FB38BD0000C52C0000BE
:102EC0000098022B01D00420704751781278090233
:102ED00011430180002070470098012B01D004208D
:102EE0007047117801700020704770B5049C1E4631
:102EF0001546062B1BD368782978000208432080EA
:102F0000E878A97800020843608002202071024618
:102F1000291D601D10F0D0FCB01F2081062E03D0AB
:102F2000AD1DE560002070BD0020E060FAE70420E0
:102F300070BD0098042B01D004207047517813789D
:102F4000090219430180D178927809021143418026
:102F500000207047F8B584890D46002C2BD0866878
:102F60003778390601D4002010E00D2C23D30C3C17
:102F7000A4B231190091408823463246012107F05E
:102F8000FFF8002801D0022000E001207906287017
:102F9000C90FBA066970920EAA70641E2204120C40
:102FA000AA8002D0761CAE6001E00022AA6002284E
:102FB00003D1002901D00120F8BD0020F8BD10B5D3
:102FC0000298042B14D3517814780902214301800C
:102FD000D1789478090221434180191F8180042B04
:102FE00002D0121D826001E000218160002010BD2E
:102FF000042010BD0098042B01D0042070475178A4
:103000001378090219430180D1789278090211439B
:1030100041800020704710B502981146062B03D05E
:10302000142B03D0042010BD022200E010220271F4
:103030004A780B7812021A430280CA788B781202FF
:103040001A4342800279401D091D10F035FC002012
:1030500010BD0098D90706D1022B04D059088180F1
:10306000026000207047042070470098022B01D0B6
:103070000420704751781278090211430180002022
:10308000704710B5029C022B11D3207261725078E8
:103090001178000208432080981E6080022B02D025
:1030A000921C626001E000206060002010BD0420DE
:1030B00010BD000038B5054688680C46002802D0CF
:1030C000052110F0A7FB009023461722024928464D
:1030D00007F0FAFA38BD0000D72C000038B50546D5
:1030E00048680C46002802D0012110F093FB0090A4
:1030F00023460D220249284607F0E6FA38BD0000B3
:10310000F32C000038B5054608880C4600280DD081
:10311000606800280AD0022110F07CFB0090234652
:1031200011220349284607F0CFFA38BD022038BDE6
:10313000F72C000038B5054608880C4600280DD04D
:10314000606800280AD0022110F064FB009023463A
:1031500009220349284607F0B7FA38BD022038BDD6
:10316000072D000038B5054648680C4600280AD0EF
:10317000012110F04FFB009023460F2203492846FF
:1031800007F0A2FA38BD022038BD0000172D00005C
:1031900038B505464A6800200C46002A03D00121B4
:1031A000104610F037FB009023460B2202492846B8
:1031B00007F08AFA38BD00001B2D000001490860A5
:1031C000704700002848002070B5054608480C46A6
:1031D000854205D0172C03D302F098FEA04201D2FD
:1031E000012070BD214628460CF0F4F870BD0000A7
:1031F000FEFF000008B500210B461322009107F0E6
:1032000063FA08BD0849074848600A78FF2A01D1D7
:1032100025220A70D1B2054A114301600449C162F6
:103220007047000000C100400848002080220801CB
:10323000384E010030B58006094A800E094C1070E6
:1032400021684D68FF2301339D434D6006490843C3
:1032500051680860206841681943416030BD000032
:1032600008480020184800208022080180060449F0
:10327000800E0870034A49681043086070470000D8
:1032800008480020C02208010249002049688863DC
:10329000704700000848002010B5FFF7A7FA00F0BB
:1032A000DFF802F099FF05F03BFEFFF7ABFF084C9B
:1032B0005D202168086505F0FFFE06F01BFD05F0A6
:1032C000C3FE05F095FE21680020086510BD0000D2
:1032D0001448002030B50446482200213A4810F036
:1032E000A3FB206800280BD0374D286060680028B9
:1032F00008D06860A068A860E068002804D005E0F5
:10330000012030BD022030BD01204002E86020696C
:103310000121002804D028616069002802D002E061
:103320002961F9E71B206861A069002800D10A2003
:10333000A861E069002810D0E861206A00280ED05A
:103340008006800E2862E06B00280AD0E863606A7D
:10335000002808D0E96B401807E0E961EDE7152087
:10336000F0E71E20F2E7E86B46306862A06A0028AA
:1033700000D0A862E06A00280AD0E862206B00282A
:1033800000D028633920005D8009022802D008E0BF
:103390000420F2E70C48214606223431343010F084
:1033A0008BFA216C002907D0606C002804D08000C3
:1033B00002D52964606C03E004480078286404485E
:1033C0006864002030BD0000F859002070400020E3
:1033D0004040002070B500200E210B4B0124A403B7
:1033E0005A8815462540CD405204120C0543E8B2D8
:1033F0005604D50BF60F75401543491EC9B25D80C2
:103400000629EDD870BD00001C48002070B50020D2
:1034100008210A4B4C011A8815462540CD4005432A
:103420005200E8B2550A56097540ED07ED0F1543F5
:10343000491E09061D80090EEDD170BD1C480020F3
:1034400000220AE0022101E000BF00BF0B46491E36
:1034500089B2002BF8D1521C92B28242F2D370474B
:103460000949084808600949CA6802614261096956
:103470008161C161826841140A438260C2680A4363
:10348000C260704700C0004010480020C05A0020B1
:103490000246FD2008498C234B723F231B039A42AE
:1034A00005D24A60A6200872887A402250404A7AA3
:1034B00073231A404A72704700180040F8B5002480
:1034C0000E4F26460E206043C5190622FF212846CE
:1034D00010F0AAFAA81D0622FF2110F0A5FA08484C
:1034E000AE810655641CE4B2032CEBD3002010F02F
:1034F000E7FB0349032014394873F8BD4C660020EC
:103500008447002070B50C460146012080020A1A4B
:1035100000251D48130007F00DF80F090B0D1012C0
:10352000141A1C1E2C21232527292C00007802E0C8
:10353000008A23E04078207023E08078FBE7C078A1
:10354000F9E710221149204610F0B6F919E0007988
:10355000F1E7C079EFE78069206012E04079EAE79F
:103560008079E8E7007AE6E7C07AE4E707F0FCFC58
:10357000E1E7272904D2084601F042F8208000E064
:103580000225284670BD0000704700203C660020E0
:1035900010B50249C87307F015FE10BD7047002032
:1035A000FFB58FB0054600200C900D900CAA284660
:1035B00000F01EFA434E0446032855D207F0E1FD01
:1035C00005463078022819D0002000902A4621466E
:1035D000129B119807F0A0FC1422002101A810F002
:1035E00023FA06202746474338462430C0B201AAB2
:1035F000102110F0C7FB002802D014E00120E4E7FE
:103600001022FF2101A810F03AF900280BD125372C
:10361000F8B205AA042110F0B5FBE907C90F01AA09
:10362000119801F0DFF97034E0B206AA182110F009
:10363000A9FB002811D106A807F0B5FD002406AFAC
:10364000A000C0190188002903D08278119801F0E8
:10365000ABFC641CE4B2062CF2D3A80707D5F17BBF
:10366000119801F08FFC02E01298082803D01298FC
:10367000042813D022E0307802281FD100222946E6
:10368000119807F0D5FBF069002817D04368002B8C
:1036900014D000221146119898470FE03078022884
:1036A0000CD13079119A002800D0012071780029BE
:1036B00000D004210143104601F060F9002013B04E
:1036C000F0BD00007047002070B501F01FF8002821
:1036D00022D1124C0025207B012806D00F4E002459
:1036E0001436305D01280AD00DE007F084FC0B4849
:1036F000257303220021143010F096F907E02046CC
:1037000007F086FC3555641CE4B2032CE9D3502045
:1037100010F0E2FA07F056FD70BD0000704700207F
:1037200070B50024054600290BD108491046FEF764
:10373000F1FE0846294601F009F8040003D00121F2
:10374000284601F077F9204670BD000040420F0086
:1037500070B5264D0C4608040FD5E87B10F0A2F991
:10376000050006D007F0C0FD002802D0284610F062
:1037700077F90120C003604070BDA0070BD5002180
:10378000084607F0B9FA02214C40002825D1E87B11
:1037900010F084FA1FE0E00721D0286A808807F043
:1037A000D5FD01214C40002817D0E86900280DD034
:1037B0004368002B0AD0286A002280889847E9696C
:1037C000286A00224B68808803219847062010F061
:1037D000B9FA07F083FA204670BD0121D7E76007E8
:1037E00002D50420484070BD002070BD7047002005
:1037F0007FB504468078754D801F030006F09AFE61
:103800000AE1E4E4941B06DDE469A8E4E869002821
:1038100008D00668002E05D0637B227B6189E01CFE
:10382000B047D1E06189A86900F090FF0028F8D086
:1038300060890121BBE060780026002830D1A079A2
:10384000C0072DD0286A00282AD10E220021684600
:1038500010F0EAF86169002903D0062268461031A9
:1038600007E0A0880BF0DEFC002870D0811D062246
:10387000684610F021F869468889A1794907C90F7F
:1038800008436946888107F06FFB032801D1FFF7E1
:1038900015FE2146684607F02FFA002812D015269B
:1038A000E869002853D04368002B50D06278A08884
:1038B00001219847002E4AD0E969A0884B6832461A
:1038C000032171E00221E87B10F0E8F9002004B048
:1038D00070BD6078062817D1A0880BF0A3FC060005
:1038E00012D0A87A012804D0022808D003280BD1CE
:1038F00014E07179A088002207F09AFA04E0A18808
:103900003078052201F0A6F8E86900285CD0436809
:10391000002B59D06278A088022145E00022114690
:103920002B4800F0F7F8EAE7E0780022211D00F0CC
:103930005FF8032848D20621484325302246C0B20A
:103940000C32042110F05EFA032010F0FBF93BE08A
:103950006879002802D0A088A97928E02878002872
:10396000A08823D00BF05EFC06002DD0A07AC00703
:103970000BD07079002808D0A189890505D46A4642
:10398000B11D00F035F8002814D022467179A088C6
:10399000083207F04DFAE869002815D04368002B7B
:1039A00012D00022A088114698470DE0052101F0B1
:1039B00041F809E0A0880321F9E7A08800F06EF93A
:1039C00002E0A088FFF780FE012080E7704700201A
:1039D0000904000010B5054CE061E17B262000F0F1
:1039E000F1FFE07B01F07CFA10BD00007047002081
:1039F000F0B5032485B015460F46002807D00128EE
:103A000005D00326022810D0032847D120E008461D
:103A100007F076FB0446032840D2002D3ED0062254
:103A2000394628460FF048FF38E01E4F0024009129
:103A30000E206043C0190622801D00990FF02EFF52
:103A4000002823D1641CE4B2032CF1D334461DE0DA
:103A500000242046062148432330C0B26A46102184
:103A600010F090F900280CD11022FF2168460FF0C9
:103A700006FF002805D13946684600F05BFF0028A4
:103A800004D0641CE4B2032CE3D3DFE7032C05D29B
:103A9000002D03D02946204607F058FB204605B0EC
:103AA000F0BD00004C66002070B50E461749152584
:103AB000884212D1002432460221204607F06CFAD7
:103AC000002800D00025641CE4B2032CF3D3002EA0
:103AD0001AD00F480BF020FC16E00BF0A3FB0400FB
:103AE00011D060790022A11DFFF782FF032804D2C4
:103AF0003246022107F050FA0025002E04D020465D
:103B000007F08EFB00E01425284670BDFFFF000083
:103B100021B20000FEB5154601229202821A00244D
:103B200001275B4E130006F005FD130B12171E252F
:103B30002C343B4048737A828AA896539DA4A800EF
:103B4000012973D12878022870D830709DE00229AD
:103B50006CD12888308298E0012967D12878012823
:103B600064D8707091E001297ED1287804287BD830
:103B7000B0708AE0012977D12878012874D8F070D4
:103B800083E0102970D11022294642480FF094FE9C
:103B90007BE0012968D12878012865D8307174E06C
:103BA000012961D12878F0716FE004295CD13A498C
:103BB0002868884258D8B06167E0002954D100F0E5
:103BC000A5FD002801D037735FE007F014FA19E073
:103BD000072949D10622691C684610F055F8287853
:103BE00000226946FFF704FF054603280ED200F0C5
:103BF0008DFD002803D026481430475545E028465F
:103C000007F006FA502010F067F821E002243CE0AB
:103C1000012929D12878012826D8707135E0012999
:103C200022D1287809281FD8B0712EE01CE0012984
:103C30001AD12878C11F092916D8307225E0012928
:103C400012D1F17A2878F07200291ED101281CD1F6
:103C500007F0B8FA19E0012906D12878032803D81B
:103C6000B07212E0012901D018240EE02878B07358
:103C70000BE0002010F066F807E02728C6D20229E2
:103C8000C4D1298800F09EFE04462046FEBD0000F7
:103C9000704700203C6600203F420F00FEB50646FC
:103CA00000200190029030460BF0BCFA040015D0C1
:103CB000134F3878022811D0607901AAA11DFFF7AF
:103CC00097FE054603280AD207F05BFA0246012058
:103CD000009008232946304607F01EF9FEBD3878CB
:103CE000002807D00128F9D161790022304607F079
:103CF0009FF8FEBD0521304600F09CFEFEBD000091
:103D000070470020F8B50F4613491525164688421E
:103D10000DD1002432463946204607F08BFA0028A0
:103D200000D00025641CE4B2032CF3D312E00BF0A6
:103D300079FA00280DD04379811D00221846FFF73B
:103D400057FE032806D23246394607F073FA00259B
:103D500000E014252846F8BDFFFF000070B50C46B2
:103D60000146032000020A1A00253448130006F019
:103D7000E1FB1D1012151C1F2326282C303234386D
:103D80003A3C3E40424446484A4E50525A54565895
:103D90005A00407811E01022294902E028491022F7
:103DA000103120460FF088FD45E0406A206042E077
:103DB000224906223431F4E7C07820703BE0C08904
:103DC00036E01E4982783A31EBE71D4902791F3906
:103DD000E7E7407AF1E7807AEFE7184906222831D1
:103DE000DFE7C07AE9E7007BE7E7008A20E0408A66
:103DF0001EE040791CE0808A1AE0C08A18E0008B3F
:103E000016E0408B14E00D4906222E31C9E7808B65
:103E10000EE0C08B0CE0008C0AE0007ACDE78079E0
:103E2000CBE7C079C9E7272904D2084600F0E8FBB0
:103E3000208000E00225284670BD00009847002041
:103E40009566002010B51E49002408701D491E4AC1
:103E50000C70611E118000F067FD1C490420087081
:103E6000102200211A480FF0DFFD1022002119480E
:103E70000FF0DAFD18481B4904601848144A047012
:103E8000174804700720087017481021047002209A
:103E90000FF078FF0F4A102103200FF073FF10225C
:103EA0000B4912480FF008FD104810220949103044
:103EB0000FF002FD0421084A08460FF063FF10BD11
:103EC00098470020A0470020A847002099470020DD
:103ED00095660020A5660020BC470020A147002071
:103EE000A2470020A3470020A44700201C66002012
:103EF000FEB5444D0C4608040CD528780FF0D2FDD1
:103F0000050004D008F090FA28460FF0A9FD012022
:103F1000C00373E060040AD504213B4A08460FF051
:103F200071FF02200FF00EFF0120800366E0374989
:103F3000E20701270878364E002A2FD0354A12783A
:103F4000002A24D0052825D0334869460078087017
:103F5000324806220078487000A8314902300FF03C
:103F6000ABFC30486946007808722F4800784872E8
:103F7000287800F061FB002809D024490720087048
:103F80007168002903D00968002900D088472046BD
:103F90007840FEBD032069460870E2E7A1070FD50F
:103FA00005280BD12148008801F09AFC204802889E
:103FB000002A03D00221287810F01AF802201DE010
:103FC000600704D5002008F075FA042016E02007E9
:103FD00016D53078012802D002280ED10BE0154802
:103FE0000097038814480288144801881448008800
:103FF00000F028F801E000F089F808206040FEBDDC
:104000000020FEBD98470020BC470020A0470020AC
:10401000644700209B470020A1470020A2470020C2
:10402000C0470020A3470020A4470020A847002045
:10403000AA470020B2470020B0470020AE4700202A
:10404000AC47002070B5164C049D2478052C01D097
:10405000142070BD134E841FB4421ED206291CD3F7
:10406000B41DA14219D2FF26F536B24215D20A2B51
:1040700013D3A34211D20C4C20800C4801800C4871
:1040800002800C480380284608F014FA0A480421EC
:1040900000780FF0F5FF002070BD182070BD000003
:1040A000A04700207A0C0000AC470020AE4700205B
:1040B000B0470020B2470020984700201CB50C49AB
:1040C0000978002901D011201CBD002801D0094920
:1040D00048600A48009008490A48019101780A4856
:1040E000074B0022007800F021FA00201CBD0000E0
:1040F000A047002064470020BC470020A5660020A0
:1041000095660020994700209847002010B5074881
:104110000078052801D0122010BD0548132201881F
:104120000448007800F096FC10BD0000A047002075
:10413000A847002098470020F7B50D46864900980B
:1041400016464218854F00243878397A130006F055
:10415000F1F91C0F151CF62141465A71787F8990A0
:10416000F697A3AAB5C0C9F6F6F6F6D4F6EAF1F6C4
:10417000102D76D11022314679486FE0102DF8D1FC
:10418000774810223146103068E0042D69D130683C
:104190007862DAE0012D64D1FB783278FA70002B76
:1041A0000AD0002A07D1022903D0062901D0042908
:1041B00001D100F0FBF9C8E0002A0AD0012905D09E
:1041C000032903D0052901D0042902D101210FF0D0
:1041D00065FDBAE0022D44D13088F881B5E01F2D8D
:1041E0003FD85E481F2200213A300FF01DFC5B488B
:1041F0002A4631463A300FF05FFB584BBD703A33D8
:104200002A46012112E01F2D2BD855481F220021DC
:104210001F380FF009FC52482A4631461F380FF06C
:104220004BFB4F4B3D711F3B2A460021387800F075
:1042300057FC8FE0012D74D13078042871D8787242
:1042400083E0012D6DD1307803286AD8B8727CE004
:10425000062D66D141480622314628300FF02CFB4E
:1042600073E05EE0012D5CD13078072859D8F872F0
:104270006BE0012D55D13078032852D8387364E0B3
:10428000022D4ED132887A82002A5ED005295CD177
:1042900002210FF0ADFE58E0012D42D13078012807
:1042A0003FD8787151E03088022D3AD1062838D3B2
:1042B0001921C901884234D8B88246E03088022DDD
:1042C0002FD106282DD31921C901884229D8F88277
:1042D0003BE03088022D24D1FF21F531884220D2E5
:1042E000388332E03088022D1BD10A2819D31921D6
:1042F000C901884215D8788327E03178012D10D183
:1043000001290ED108210FF0B1FA002801D016249E
:104310001BE0002008F0CEF8042138780FF0B0FE42
:1043200013E0182411E0012DFBD13078B8710CE0B6
:1043300000E004E0012DF4D13078F87105E0009838
:10434000272801D2022D02D002242046FEBD31884A
:1043500000F038FB0446F8E7FFFCFFFF9847002019
:1043600095660020F8B50E46040049D020880AF072
:1043700059FF050042D024490878022806D00128B8
:1043800004D0287B082803D1002E01D0122438E065
:104390001E4F7869002801D0112432E047212C20DB
:1043A0000FF0A6FA7861002826D02C2200210FF009
:1043B0003BFB7869218841801C22211D001D0FF0E4
:1043C0007BFA7B69022018700F4822888178287B4D
:1043D00008280FD000201B1D05F08AFE0446002E81
:1043E00003D0314628460EF09DF8002C09D007F086
:1043F00005F906E00120EEE7132402E0142400E0B2
:1044000002242046F8BD000020480020F04400208F
:10441000FFB51F4881B000781E4617460D4602289A
:1044200018D0012816D0002F30D001980AF0FAFEDB
:10443000040029D0A06A002801D00FF097FA1C21AF
:1044400038460FF045FAA062011E1BD0207B0828D9
:1044500003D00DE0122005B0F0BD002E08D0887EFC
:1044600000900B4612330A8A01980EF051FB00E0CF
:1044700000202179002D01D0062200E00422114302
:104480002171E8E71320E6E71420E4E70220E2E7E1
:104490002048002010B505480078000701D50448E1
:1044A00000E0002007F048FE10BD0000204800207A
:1044B0004448002070B51B4C05460121207807F0C8
:1044C000C7F8194801780A20014224D020462570F7
:1044D0000C3007F02BFE606800281AD120780028E5
:1044E0001DD0000107210FF003FA6060002810D0F2
:1044F00021780A0100210FF097FA0020FF2223788B
:10450000616803E00401401C0A55C0B29842F9D327
:1045100005E0132070BD0020207007F007FE00208A
:1045200070BD00003048002020480020F8B502246B
:10453000079F1D461646012906D002290BD00429E3
:1045400011D008292FD11EE000F0E4F804002AD190
:1045500000F038F927E000F0DDF8040023D1304600
:10456000FFF7A8FF1FE000F0D5F804001BD13A4682
:104570002846069900F0E2F900F024F900F00AF963
:1045800005F06CFD0FE000F0C5F804000BD13A46D1
:104590002846069900F0D2F93046FFF78BFFFFF767
:1045A00079FF05F0B5FC2046F8BD000070B5104C51
:1045B0002168002919D00978814214D10D4D0221BA
:1045C000A8780FF05DFD0C4800264680A8780421ED
:1045D0000FF056FD094846712168032048700020FD
:1045E00001F04DF970BD032070BD122070BD0000B8
:1045F00008450020204800204C4800200864002086
:10460000272801D30248704702494000085A7047E2
:10461000FFFF00001E45002010B5054AFF21D170A4
:10462000044AD1709070052101F06CFD10BD0000AE
:104630000864002020480020FEB52E4D044628685E
:104640000F46002801D01120FEBD2B4E05213078E9
:10465000084201D11220FEBD28494968002905D031
:104660000978002902D0C00702D007E01020FEBD63
:1046700000F04CF822490978884206D3387802289D
:1046800003D0032801D0122431E047210C200FF081
:104690002FF92860002829D00470002141700A22D7
:1046A0003946801C0FF008F9164DA878032806D06B
:1046B00008F0C0F804001AD006F094FF17E007F0E5
:1046C0001DF8694605F0A3FB684607F0DBFB0120F7
:1046D00028711D20FFF794FF0006000E687106D0B8
:1046E000B078094A04210FF077FC00E0132420463B
:1046F000FEBD000008450020204800204C48002056
:104700000E470020086400200077010010B50AF071
:10471000EBFD10BD70B50E4605462022002109486C
:104720000FF082F9074C0848E570067001F0CEF8EA
:10473000002803D000202070122070BD01212170BC
:1047400070BD000008640020204800207FB50446AA
:104750000D4608460AF066FD002817D00C48844232
:1047600012D21022002168460FF05EF969460C70E3
:10477000200A4870200C8870200EC87029466846B0
:1047800005F0D6FB04B070BD0220FBE71220F9E76C
:1047900040420F0010B508480078400707D5074889
:1047A00007F0D6FC00200649C043C88010BD002099
:1047B00007F0CEFC10BD0000204800205C4800201F
:1047C00008640020F8B51E4C00256068002802D05F
:1047D0000FF0CCF86560E068002802D00FF0C6F852
:1047E000E560184E05273078384224D0144814303C
:1047F00007F0A8FC307838421BD0472120200FF06A
:1048000077F86060002814D0202200210FF00CF906
:10481000472120200FF06CF8E060002805D020220E
:1048200000210FF001F90020F8BD60680FF09EF83C
:1048300065601320F8BD002007F084FCF3E700005A
:104840004C48002020480020FEB5344E344D0C4624
:1048500008041DD5B0780FF025F9070011D038787D
:10486000A22806D0F578384607F06EFB00280BD159
:1048700001E0ED78F7E7FF2D06D0394628460FF026
:1048800049F90120C00345E038460FF0E9F8F8E7A0
:10489000E0070127234A00280AD05068002804D0E6
:1048A0004168002901D00020884720467840FEBD9D
:1048B0001C48A107C06808D5002804D04168002919
:1048C00001D001208847022024E0610724D56979BE
:1048D00000291ED0491E0906090E697119D1916976
:1048E000002907D02F71002804D04168002901D089
:1048F000012088476946E86805F089FA684607F0AC
:10490000C1FA1D20FFF77CFE6871B07804210FF01A
:10491000B7FB04206040FEBD0020FEBD2048002003
:1049200008640020F04400200149C870704700006E
:104930002048002010B505F06BFB10BD70B50E4C83
:104940000B46626121610546E06010220021184695
:104950000EF095FF012803D1102120690DF0C4FB52
:104960001022002128460EF08AFF012803D11021D1
:10497000E0680DF0B9FB70BD086400207FB50C46FF
:1049800005460AF04FFC002815D0007B042802D011
:10499000122004B070BD09484069002800D0847D11
:1049A000684621460EF0DCF8054B6A46022128468F
:1049B0000EF068F8EDE71420EBE70000F04400206B
:1049C00061300100272802D2044A914201D102201D
:1049D0007047034A4000115200207047FFFF00005B
:1049E0001E45002070B50E46114915460B78022B66
:1049F00017D0012B15D0002D17D00AF013FC04009E
:104A000011D0002E03D020790221084320712046C6
:104A10001022294614300EF04FFF286960620020F2
:104A200070BD122070BD142070BD022070BD00004A
:104A30002048002038B50C4605460AF0F3FB002854
:104A400006D068460470694628460EF00BF838BD5B
:104A5000142038BDF8B50C461746204905461E4AB5
:104A600012268868944208D1002833D00268002AB0
:104A700030D0214628469047F8BD174A521C944230
:104A800019D1002808D00268144E002A04D021460B
:104A900028469047002806D03946284606F0F4F804
:104AA000060004D016E0757037700020F8BD0B4882
:104AB000457007700EE020460AF0B4FB002809D0CC
:104AC0000078A84201D00320F8BD3946204600F006
:104AD00040FEF8BD3046F8BDFEFF0000F044002067
:104AE00070B51446204A1E46127805231A4223D078
:104AF0001E4D002901D06A6800E0EA68002A1BD038
:104B0000202C2ED2002C01D0002E2AD02870002973
:104B100014D068681F220021401C0EF085FF6868D1
:104B200022463146401C0EF0C7FE696820460C70D4
:104B3000491C00F0A0FE70BD122070BDE8681F2265
:104B40000021401C0EF070FFE86822463146401CF0
:104B50000EF0B2FEE96820460C70491C00F0A6FE7B
:104B600070BD022070BD0000204800204C4800208D
:104B7000014610B50020C90706D0044B1022184684
:104B80000421403800F0B2F910BD0000E4460020D6
:104B9000F8B5104E114FB0700F49384600F022F8AA
:104BA00000220D481346D2389401075300212418DF
:104BB0000C254D436519AB80491CEB600529F7DBDB
:104BC000521C032AF0DBB078307005480AF0BEFBB7
:104BD000F8BD0000304600202A650020FFFF0000DD
:104BE000B5CF000070B50A4C0025A04208D10020C6
:104BF00082008C525218401C95700328F8DB70BD5F
:104C000008F0A9F90028FAD00480857070BD000072
:104C1000FFFF0000F8B50E460746069900240798E6
:104C2000002902D00B242046F8BD022B01D00D2410
:104C3000F9E7517812780D0215432946814301D0D6
:104C40008024F0E73846F16800F042F9A842EAD043
:104C50002A463846F16800F0EFF90446E3E7000021
:104C600070B50D4608041AD50E4880780EF01AFF6C
:104C700004000FD02078B02809D1204608F02EFB80
:104C8000002804D020462179083000F0F3FC2046AB
:104C90000EF0E6FE01212846C903484070BD002001
:104CA00070BD000030460020FFB585B000200F9F8A
:104CB0000090087A0E9D1C460E46C0060BD507983C
:104CC00008F042F903007DD00A2231460598984742
:104CD0000090002816D13078022815D0079808F0E7
:104CE00059F90028EFD0006884460028EBD01199CC
:104CF000109822460097029101902B463146644657
:104D00000598A04709B0F0BD706829224178007865
:104D1000090201431202881A91427CD00BDC6948D7
:104D2000081A13D0012811D0022817D00328D5D192
:104D3000002F53D09BE001287ED002286DD003289D
:104D400077D00428CAD1002F68D090E0002F6FD10F
:104D5000F068017829800278416884E0002F67D1EB
:104D6000F068417800780F02074304202880F0683B
:104D700004A900782070F06840786070384600F030
:104D800087F9060022D06846028A03AB4E493046B6
:104D9000F76800F0DBF900280AD1337802214B488C
:104DA0007268FDF7BCFF002802D147486946888138
:104DB000387802280CD10222201D79680EF07CFD83
:104DC000288800E07CE0801C288001E0684687811C
:104DD00068468089A070000AE0706FE0012028809A
:104DE000F0680021007820707089401C80B200F0CB
:104DF0004FF9002813D0298802788918891C298046
:104E0000817A61704189090AA17002784168E01CC9
:104E10000EF052FD52E00CE00EE026E03BE0288868
:104E20000422001D28800021601C0EF0FDFD45E0DD
:104E30001DE0002F27D01AE0F0680FF032F980B2A1
:104E4000B84201D207205DE7874201D1002006E089
:104E50001099C919814201D3C01B00E01098288025
:104E600082B2F068C1192046D2E7002F01D00B2092
:104E700048E7F168059800F02BF80221298020709E
:104E8000000A60701AE002202880F0680078207024
:104E9000F0684078F5E70721F068298001782170F3
:104EA000417861708178A1704188090AE1700179C7
:104EB000217181796171C088000AA071009821E791
:104EC0000E201FE700280000FFFF0000C242010083
:104ED00010B508F040F8002800D0807810BD000020
:104EE0000149487070470000304600207CB51E46DE
:104EF00005001CD0684601808270019500F032FAEE
:104F000004001FD1002E1DD0688900280FD0472132
:104F10000C200EF0EDFC002813D0002101606989FF
:104F20008180094A8660D168002903D107E0022008
:104F30007CBD11460A68002AFBD1086002E0D060FF
:104F400000E0132420467CBD30460020F8B50C4C10
:104F50000746607815460E46FF280FD00A200EF04F
:104F60006BFD01000AD0B12008704F80002048700E
:104F70000871CE800D8160780EF0CCFDF8BD000088
:104F80003046002070B50C4605460649FFF7A0FFE5
:104F9000800704D52146284600F03EFA70BD012066
:104FA00070BD00002A6500200EB56B461A81FE23F5
:104FB000002201930092022302AA00F001F80EBD24
:104FC000FFB583B0174602A90D9E049800F060F863
:104FD00004002AD06846008907F0DCFF002822D0B0
:104FE0004568002D1FD00C98019600903A46214646
:104FF000069B0398A847050018D1FE2E16D02078EE
:10500000022813D1606841780278080209491043E8
:1050100088420BD17878397802020A4304990398C0
:10502000FFF794FF02E00E2500E00125284607B0B7
:10503000F0BD00000229000070B514460E4605467A
:1050400007F089FF002806D13146054807F083FFA5
:10505000002803D005808470002070BD112070BD31
:10506000FFFF000010B50178B0290BD1417800296D
:1050700008D10179122906D01B2903D140880121CA
:1050800000F04AFF10BD417C0129F7D010BD00009F
:10509000F0B5104A136919E09C686589A84214D3D9
:1050A0009E887219824210D900220CE017013F1924
:1050B0007F89874205D1002900D00D801001001999
:1050C000F0BD521C92B2B242F0D31B68002BE3D168
:1050D0000020F0BD30460020FFB51B4883B0002300
:1050E00005692DE0AE68002470890190A8880090C1
:1050F00016E0210188194289039FBA420ED3049F0A
:10510000BA420BD8069A002A0FD01346715C406849
:10511000059AFDF704FE002807D10023641CA4B201
:1051200000988442E5D3002B09D00C98002802D0C7
:105130000C99019808802001801907B0F0BD2D68F6
:10514000002DCFD10020F8E730460020FEB51746ED
:1051500000256A469580044640891D4A1E469042B5
:1051600008D001AA0092401C237880B26268FFF741
:10517000B3FF05462378022116486268FDF7CFFD8C
:10518000002807D12378022113486268FDF7C7FD84
:10519000002801D060890EE0237802210F48626860
:1051A000FDF7BDFD00280DD0002D03D06846808896
:1051B000B84203D0384608F073FD04E06889401E09
:1051C00080B200E06089002E00D030802846FEBD0D
:1051D000FFFF0000C0420100C2420100C6420100C0
:1051E000FFB583B00E461D46174601A9039807F088
:1051F00075FC040022D1002F0FD06946088030884A
:10520000FFF746FF6946088800F042F9014601228F
:10521000039809F0DBFF002811D131460398FDF710
:1052200023FE04000AD1FF2D08D0019B1E2219463F
:1052300004489B1C08F03FFD0198C570204607B04C
:10524000F0BD000009DB000010B50749FF220A701D
:1052500000224A608A6005490871042100F052FF6B
:1052600000F006F810BD0000204600202048002075
:1052700070B500200D4D0E4B0446FF220621414320
:105280005D52C918CA708A70401C0C710328F5DB86
:105290000120C0431880074807F01AFE0648FDF7B2
:1052A0008DFF06480AF052F8002070BDFFFF000095
:1052B0001865002051DB000033DB000089DA0000B4
:1052C0007CB505461248164600780C46022801D2E5
:1052D00016207CBD01A9284607F000FC1728F8D04D
:1052E000002E10D00020694608802088FFF7D0FEED
:1052F0006946088800F0CCF801460122284609F0EA
:1053000065FF0028E5D121462846FDF7C3FD7CBD99
:10531000F946002008B5009313460A4601460248A4
:10532000007807F0F1FB08BD2046002070B50D465F
:10533000080412D50A4800790EF0B4FB040008D026
:105340002078A02802D1204607F046FD20460EF026
:1053500087FB0120C003684070BD002070BD0000C5
:105360002048002070B504464568008800284AD0CF
:105370002B78022125486A68FDF7D1FC002807D167
:105380002B78022122486A68FDF7C9FC00283AD030
:10539000A078C01F092834D81E4EB08800282ED00F
:1053A0002188081801210904884228D847210C20A7
:1053B0000EF09EFA050020D0002207E0110163687C
:1053C000B0880A315852401CB080521C208890424C
:1053D000F4DC0020286008222146281D0EF06CFA1B
:1053E0003069002801D105E0084601680029FBD199
:1053F000056000E03561002070BD132070BD012004
:1054000070BD182070BD022070BD0000C0420100B8
:10541000C242010030460020FEB50E460746002578
:105420000223194A194901200095FFF755FE04008F
:1054300027D023200090002304221D21384600F0AD
:10544000D3F8029000281AD0608969468880042029
:10545000C88002990120087002983346457002996D
:10546000FF20887002990022C87001A93846FFF712
:10547000B7FE040006D002980EF078FA02E0152478
:1054800000E001242046FEBDDE420100FFFF0000D7
:1054900000B507F0DFFA002801D0807800BD1020A9
:1054A00000BD00B507F0D6FA002800D0008800BD86
:1054B0007CB50C460546FDF787FE00280AD16846F4
:1054C000848001A8009004487F23002229460078A8
:1054D00007F01AFB7CBD00002046002010B50446F2
:1054E0000B4688060DD51046FFF7D2FF0146012274
:1054F000204609F06BFE052801D00F2800D10820B6
:1055000010BD882003420CD01046FFF7C1FF0146B2
:10551000180701D5012200E00022204609F056FEBE
:1055200010BD880701D5002010BD032010BD10B5A7
:105530000346C8060DD51046FFF7AAFF0146012213
:10554000184609F043FE052801D00F2800D1082095
:1055500010BD480705D51046FFF79AFF0146012206
:1055600006E0480608D51046FFF792FF01460022E4
:10557000184609F02BFE10BDC80701D0002010BD51
:10558000022010BD70B51D4603460C4688060DD599
:105590001046FFF77DFF01460122184609F016FE6E
:1055A000052801D00F2800D1082070BD88200442B2
:1055B00014D01046FFF76CFF0146200701D50122E9
:1055C00000E00022184609F001FE002808D0697AA0
:1055D0000029EAD0297A002902D170BD880701D5B7
:1055E000002070BD032070BDF8B5069F1E4615460D
:1055F000162928D00CDC09291FD004DC05291CD071
:10560000062911D11BE0112917D012290CD118E05D
:105610001D2916D004DC172915D01B2904D110E050
:1056200052290ED0D2290CD00124114A95420CD116
:10563000FDF70AFC001B85B20BE00224F5E7072406
:10564000F3E70324F1E70524EFE7D22901D10C3574
:10565000ADB2601980B2394600F0B0FD002805D027
:10566000002E00D0358061420EF0D4F8F8BD000065
:10567000FFFF000010B507F0FDF9002801D00EF083
:1056800075F910BD014610B50020C90706D0044BBE
:105690001022184609219038FFF728FC10BD0000A1
:1056A0001046002070B51646214A0D4611460024CA
:1056B0001031030004F03EFF0A0613383818382171
:1056C00028383138152D2AD81622002119480EF015
:1056D000ABF92A46314617480EF0EEF825E0022DC8
:1056E0001DD13088508020E0082D18D110480822A4
:1056F00031460830FCF785FF17E0012D0FD1CA694C
:105700000B493078383105E0012D08D1CA6B0849C2
:105710003078583108F09EFB07E0012D01D01824A5
:1057200003E03078107000E00224204670BD0000D5
:105730007045002028640020704710B500F0FAF88A
:1057400010BD10B500F016F910BD10B500F02AF923
:1057500010BD10B5FDF736F910BD10B500F036F9E3
:1057600010BD10B500F052F910BD10B500F068F989
:1057700010BD10B5FDF730F9002010BD10B5FDF7D4
:1057800045F910BD7CB5069C079DC0B201950094FB
:1057900000F06CF97CBD10B5FDF748F910BDFEB501
:1057A00008AF70CF6F4670C7FDF750F9FEBDF0B57A
:1057B00085B084460AA8F1C804976F4671C7604651
:1057C00000F084F905B0F0BD38B5049C009400F0F9
:1057D000B5F938BD10B5FDF749F910BD38B5049CD1
:1057E000009400F0C9F938BD7CB5069C079DC0B295
:1057F0000195009400F0DEF97CBDFFB587B09446BA
:105800008E4610A8F7C806976F4677C7624671465E
:10581000079800F005FA0BB0F0BD10B500F052FA91
:1058200010BD10B500F06AFA10BD10B5FDF72CF9E7
:1058300010BD10B5FDF73AF910BD10B5FDF748F9E8
:1058400010BD10B5FDF754F910BD10B500F074FA95
:1058500010BD10B500F08CFA10BDFEB508AF70CFCA
:105860006F4670C7FDF756F9FEBD38B5049C00942D
:1058700000F09CFA38BD10B5FDF766F910BD10B503
:10588000FDF772F910BDF0B585B00AACF0CC039706
:105890006F4670C7FDF778F905B0F0BD10B5FDF79C
:1058A00089F910BD10B5FDF795F910BD10B5FDF7DC
:1058B000A1F910BD70B55478157822022A43FDF77E
:1058C000A9F970BD10B500F08FFA10BD10B5FDF745
:1058D000ABF910BD38B5049C009400F09DFA38BDBA
:1058E00010B5FDF7B3F910BD10B500F0B1FA10BD59
:1058F00010B5FDF7BFF910BD10B505280ED90C4C39
:10590000A0420BD2A14209D2814207D3FF20F53039
:10591000824203D2092B01D9A34201D3002010BD3A
:10592000521C4A43D8008242F8DA012010BD000020
:10593000810C0000F8B50746084616460D460C30A7
:105940000EF07AF8040011D0912020700E206070C3
:10595000A5702046A7800C302A463146A0600DF085
:10596000ABFF0348214680780EF0D4F8F8BD000064
:105970002048002070B505460C4606200EF05CF865
:1059800001000BD0912008700F2048708D7001200D
:10599000C87003488C8080780EF0BCF870BD0000A1
:1059A0002048002010B5044603200EF045F8010001
:1059B00008D0912008701A20487003488C708078B5
:1059C0000EF0A8F810BD00002048002070B5064673
:1059D00014460D4608200EF02FF801000ED091203D
:1059E0000870052048708E708D8005488C71807815
:1059F0000EF090F803480449007E087070BD000066
:105A000020480020F8590020F946002070B50646CD
:105A100014460D4608200EF00FF801000CD092201D
:105A200008703E204870082088708D808E71034871
:105A3000CC7140790EF06EF870BD00002048002057
:105A400070B505460C4606200DF0F6FF010009D0A2
:105A500091200870302048708D7003488C808078C9
:105A60000EF058F870BD000020480020FFB581B04E
:105A70001E460F4631200DF0DFFF040022D091209A
:105A800020703E2060700220A0700120E07020464F
:105A9000083005466060019828706F700622A81CC7
:105AA00003990DF009FF2E722846324609300A99F3
:105AB0000DF002FF20350B982872034821468078AC
:105AC0000EF028F805B0F0BD20480020FFB50746CD
:105AD00081B01D46164616200DF0AEFF040029D0F9
