:020000040000FA
:1000000000800020FD02000005030000070300003F
:1000100000000000000000000000000000000000E0
:1000200000000000000000000000000007030000C6
:100030000000000000000000090300000B030000A6
:100040000D0300000D0300000D0300000D03000070
:1000500059170000E52A00000D0300000D03000001
:100060000D0300000D0300000D0300000D03000050
:10007000490F00000D0300000D0300000D030000F8
:100080000D0300000D0300000D0300000D03000030
:100090000348854601F02EF800480047BD020000E5
:1000A0000080002038B504465D48047008200090A8
:1000B0006A4601215B4801F0CBFC4B2189010220FB
:1000C00002F00CF84B218901032002F007F801210E
:1000D000534800780CF096FD38BD0178B02900D166
:1000E00000E000BF00BF704770B506460C46012017
:1000F000C0032040002810D0494800780CF086FC4E
:10010000051E05D02846FFF7E8FF28460CF05CFCEA
:1001100020460121C903484070BDE007C00F0028F8
:1001200006D0414801F06EFC204601214840F3E72B
:100130000020F1E770B505460E463C4800780828D7
:1001400027DA00240CE0E000394A8018811C0622DE
:1001500028460CF057FB002800D070BD601CC4B2CC
:10016000324800788442EEDB30490978C900304AD1
:100170008918881C062229460CF052FB2B4800786F
:10018000C0002B494018467028480078401C274979
:10019000087000BFE1E770B50446A078002804D0DD
:1001A000012810D00D2838D108E0002201210320B9
:1001B00001F040FC1FA006F04FFB2FE02179601DED
:1001C000FFF7B8FF2AE01FA006F046FBE078002802
:1001D0001ADD002514E029461FA006F03DFB00268D
:1001E00008E0EA0060688018801C815D1EA006F0AF
:1001F00033FB761C062EF4DB1CA006F02DFB6D1CD9
:10020000E078A842E7DC00BF00220121032001F0D2
:1002100011FC17A006F020FB00E000BF00BF70BD7E
:10022000014000201B0300007CCE000002400020A3
:1002300048420020446973636F766572696E672E69
:100240002E2E0A00446973636F76657279206F768B
:1002500065722E2E2E0A000044657669636520259E
:1002600064203A2000000000257820000A000000E9
:10027000446973636F766572696E672E2E2E0A204D
:100280000000000010B500242046641C06F03AFA75
:100290002046641C00F0D2FD2046641C03F044FAA2
:1002A0002046641C01F0FAFD2046641C01F06EFB40
:1002B0002046641CFFF7F6FE204610BD0C48806AFD
:1002C0000121490208430A498862032101204002B2
:1002D00000F0EAFA00F0CFFC064907A006F0BCFAED
:1002E00000F01CFDFFF7CEFF01E006F037FAFCE757
:1002F0008010004084CE000025730A000448804727
:1003000004480047FEE7FEE7FEE7FEE7FEE70000E1
:1003100019030000910000005720FA490870A82036
:1003200008708820F74940390881704700B50300FC
:1003300006F0BAFA0D081A2C37414C56606A7580DF
:100340008B96A1005721EF4A1170A8211170ED4939
:100350002039C97B04229143EA4A203AD173C8214B
:10036000E84A403A118187E05721E64A1170A821F6
:100370001170E4492039C97B04221143E14A203A33
:10038000D173C821DF4A403A118175E05721DD4A17
:100390001170A82111705121C900DA4A403A118127
:1003A0006AE05721D74A1170A8211170D649D54A61
:1003B000403A118160E05721D24A1170A821117092
:1003C00081218900CF4A403A118155E05721CD4A19
:1003D0001170A82111708821CA4A403A11814BE05E
:1003E0005721C84A1170A82111700221C54A403A0C
:1003F000118141E05721C34A1170A82111700421D5
:10040000C04A403A118137E05721BE4A1170A821F5
:10041000117093218900BB4A403A11812CE0572189
:10042000B84A1170A8211170B7494D31B54A403A08
:10043000118121E05721B34A1170A8211170952133
:100440008900B04A403A118116E05721AD4A117037
:10045000A82111704B21C900AA4A403A11810BE032
:100460005721A84A1170A8211170A7495C31A54AEB
:10047000403A118100E000BF00BF00BD5721A14AF2
:100480001170A8211170002808D19E4940390989AE
:10049000521591439B4A403A118108E099494039ED
:1004A0000989012252021143964A403A118170474C
:1004B0005721944A1170A8211170002808D1914940
:1004C0002039C97B042291438E4A203AD17307E038
:1004D0008C492039C97B042211438A4A203AD173BE
:1004E0007047F8B504462246864E403E368900964F
:1004F00086495726834F3E70A8263E70824E814F14
:10050000403F3E8157267F4F3E70A8263E70012611
:10051000BE747F4B4DE000BF7A4EB67C02273E4052
:10052000002EF9D0774E308A00BF764EB67C022777
:100530003E40002EF9D100BF724EB67C02273E40ED
:10054000002EF9D06F4E308A57266E4F3E70A82687
:100550003E7088420ADD6B4E203EB689B618694F60
:10056000203FBE811D46461AB3B209E0654E203ECB
:10057000B689B61A634F203FBE811D460E1AB3B22C
:100580009D4216DA57265F4F3E70A8263E7088427D
:1005900007DD5C4E203EB689B61A5A4F203FBE8119
:1005A00006E0584E203EB689B618564F203FBE8111
:1005B00000E0B0E700BF5726524F3E70A8263E70BD
:1005C000504F403F009E3E8100264E4FBE74F8BD06
:1005D000F0B500270026002422E0781C87B22546CB
:1005E0000320FFF77EFF474820388489A54206DDB7
:1005F000281B032801DC012007E0002005E0601B28
:10060000032801DC012000E00020002802D0701C3B
:1006100086B200E00026032E01DC052F00DD00E09D
:10062000DBE700BF002722E0781C87B225460120C7
:10063000FFF757FF334820388489A54206DD281B81
:10064000012801DC012007E0002005E0601B0128F3
:1006500001DC012000E00020002802D0701C86B2DE
:1006600000E00026022E01DC052F00DD00E0DBE7C4
:1006700000BFF0BDF7B584B00D46144618210498AC
:1006800000F07EFC80B203901821049800F078FC02
:10069000E120C00041431E2068430818E10F0919FA
:1006A0004910401887B20194E007C00F002802D01B
:1006B0000120C00300E0002002903E463104029871
:1006C00001430E4657200F490870A82008700D49B5
:1006D0004039039848630B482038407C8021084308
:1006E0000849203948740748403846630846407C2A
:1006F000402108430349203948740020014908700B
:1007000007B0F0BD4010004002020000C409000024
:10071000FFFF0000F0B585B004460D461646604860
:10072000C06B8004800C03905D482030408B0290A9
:100730005B482030008B0190029841000122D203D7
:100740000198904201DB012000E000200F18E12118
:100750000901384600F014FC014618220398504362
:1007600008182060E1210901384600F009FC0091D9
:100770003C21009800F004FC28803C21384600F021
:10078000FFFB318005B0F0BD5721454A4032117062
:10079000A82111704249486341492031497C4022D7
:1007A00011433F4A20325174704700BF3C49886B67
:1007B000896B8142FAD170475721394A4032117012
:1007C000A821117036492031497C17229143344ABF
:1007D000203251741146497C102202431143304AA1
:1007E00020325174704700B50346FFF7DEFFC21890
:1007F00090B2002802D00120000412182948824239
:1008000000D3121A5720264940310870A8200870DA
:100810002348426322482030407C2021084320495D
:100820002031487400BD014600200022002A01D07A
:1008300020221043CA07D20F002A01D010221043F1
:100840005722174B40331A70A8221A70144A2032CC
:10085000527C8243124B20335A7470470146002960
:1008600005D10F482030007C8022104070470C4892
:100870002030007C40221040F8E7002802D00128F8
:100880000AD104E02021064A2032117405E010212B
:10089000034A2032117400E000BF00BF704700001F
:1008A000001000400000C0A800B50B0005F0FCFFE0
:1008B000050412202E3842009B4A526B82439A4B09
:1008C0005A631A46126B82431A631A46126A8243AB
:1008D0001A6230E0944A526B8243934B5A631A4631
:1008E000126B02431A631A46126A82431A6222E0AA
:1008F0008D4A526B02438C4B5A631A46126B8243E9
:100900001A631A46126A82431A6214E0864A526BCC
:100910008243854B5A631A46126A02431A620AE0FE
:10092000814A526B0243804B5A631A46126A024351
:100930001A6200E000BF00BF00BD00B50B0005F06B
:10094000B3FF0504142434404C00774A4032526906
:100950008243754B40335A611A46126982431A61C9
:100960001A46126882431A6038E06F4A4032526970
:1009700082436D4B40335A611A46126902431A6131
:100980001A46126882431A6028E0674A4032526968
:100990000243654B40335A611A46126982431A6119
:1009A0001A46126882431A6018E05F4A4032526960
:1009B00082435D4B40335A611A46126802431A6003
:1009C0000CE0594A403252690243574B40335A6156
:1009D0001A46126802431A6000E000BF00BF00BD63
:1009E000002906D001290ED0022916D0032928D1CA
:1009F0001DE04D4A928A82434B4B9A821A46D26A34
:100A00000243DA621EE0484A928A8243464B9A8247
:100A10001A46926A02439A6214E0434A928A024357
:100A2000414B9A821A46D26A0243DA620AE03E4A8F
:100A3000928A02433C4B9A821A46926A02439A6215
:100A400000E000BF00BF384B98831A46128A024369
:100A50001A827047002906D0012911D002291CD022
:100A6000032934D126E0304AD28A82432E4BDA82DF
:100A70002D4A4032D26802432B4B4033DA6027E0E4
:100A8000294AD28A8243284BDA82274A4032926826
:100A90000243254B40339A601AE0234AD28A02432C
:100AA000214BDA82204A4032D26802431E4B403347
:100AB000DA600DE01C4AD28A02431B4BDA821A4AE2
:100AC000403292680243184B40339A6000E000BF06
:100AD00000BF154BD8831A46528A02435A82704788
:100AE000002807D0104A803A128B0A430E4B803BF5
:100AF0001A8306E00C4A803A128B8A430A4B803BE9
:100B00001A837047002807D0074A803A528B8A43DD
:100B1000054B803B5A8306E0034A803A528B0A43D6
:100B2000014B803B5A8370478010004001460629E4
:100B300004D1454800780822104070474248407967
:100B400001228A401040F8E757203F490870A8204A
:100B5000087008468079012108433B498871704735
:100B60003A49096801600021C943384A803211605E
:100B7000704736490860704735488069704757218B
:100B8000314A1170A8211170002806D111468979C7
:100B9000042291432C4A917105E02B498979042262
:100BA0001143294A91710021274A1170704757213A
:100BB000254A1170A8211170002806D111468979A3
:100BC00002229143204A917105E01F49897902224E
:100BD00011431D4A917100211B4A11707047572023
:100BE00019490870A8200870084680791021084328
:100BF0001549887100200870704710B500210AE07F
:100C0000022201E000BF00BF1346541EA2B2002B17
:100C1000F8D14B1C99B28142F2DB10BD30B50446CD
:100C2000002505E07D20C000FFF7E7FF681C85B2C6
:100C3000A542F7DB30BD00BF064AD27A082AFBD0B6
:100C4000044B1872704700004010004000E100E0C3
:100C500000E000E00034004070B5044621462D4815
:100C600000F08EF905460A21681D00F089F9054655
:100C700029498D8170BD10B5E1204002FFF7ECFFDE
:100C80008720254988700320C870402048700120C3
:100C9000887310BD20498978C02291438201114395
:100CA0001D4A9170704700280BD01B4A52780A43A6
:100CB000194B5A701A46127808231A43164B1A70A9
:100CC00004E0154A52788A43134B5A7070478020CB
:100CD00011494870704710B50A4609E00E4BDB7A9F
:100CE000082B05D003780C4C2372401C531E9AB27B
:100CF000002AF3D110BD0146002005E0064A127A11
:100D00000A70491C421C90B2034A927A002AF5D11B
:100D100070470000005A62020034004030B593B0C2
:100D2000122266A16A480BF06DFD002804D169A06B
:100D300005F092FD00BFFEE757206B490870A82020
:100D400008705120C0006849403908810020664978
:100D500008704822002101A80BF01AFE6348019098
:100D6000012000030290624803900198002804D0FB
:100D7000012109030298884201D200BFFEE701A8C1
:100D800000F010FDC5B2002D04D05AA005F064FD9E
:100D900000BFFEE75C4C601E411C884200D90DE09C
:100DA000601E5A4948610F210020C04300F04EF8F0
:100DB0000020564988610720086100BF5348006938
:100DC0000221884351490861514805F0B7FC13B02E
:100DD00030BD70B506460C460120C00320400028F7
:100DE0000DD030460BF012FE0546002D02D02846ED
:100DF0000BF0EAFD20460121C903484070BDE00721
:100E0000C00F002803D0204601214840F6E701200A
:100E10008003204000280FD03EA005F01DFD7D225C
:100E2000D201012189033C4800780BF075FF204670
:100E3000012189034840E1E70020DFE710B50446BF
:100E40003548047000F088F862B610BD10B500286F
:100E500019DA324A03071B0F083B9B089B00D25844
:100E60008307DC0EFF23A3409A430B071B0E840766
:100E7000E40EA3401A43294B0407240F083CA4089E
:100E8000A4001A5118E0264A03231B02D218830833
:100E90009B00D2588307DC0EFF23A3409A430B0725
:100EA0001B0E8407E40EA3401A431D4B03242402A7
:100EB0001B198408A4001A5110BD0000434835379F
:100EC000785F424C455F4C49425F56312E320000FC
:100ED00084CE0000686561642066696C6520657277
:100EE000726F722E2E2E0A004010004088420020A1
:100EF00000EE03004C494220696E697420657272ED
:100F00006F722E2E2E0A0000FFFFFF0000E000E0AF
:100F1000790B00002A2000001D4000201CED00E09D
:100F200000E100E081B2002902D00121090440184B
:100F30005721104A1170A82111700E494039486399
:100F400000210D4A1160704730200A492039087489
:100F5000012009490860704710B5FFF739FB0748C1
:100F600005F0F2FB002211461046FFF783FB05F067
:100F700035FC10BD4010004020400020D10500008D
:100F800030B50B46014600202022012409E00D4621
:100F9000D5409D4205D31D469540491B25469540A9
:100FA00040191546521E002DF1DC30BD70B50024ED
:100FB0002546002801DA01244042002901DA0125F2
:100FC0004942FFF7DDFFAC4200D04042002C00D088
:100FD000494270BDF0B51FB486B00020009001906A
:100FE00002900698069980B204900798090C0204B2
:100FF0000014114307900027089D099806913E466A
:101000003C4603900398A9B20204000C0390049894
:101010002D0C154348430021224600F018F8C7194B
:10102000714110340E46402CECDB3846029A00F039
:101030000EF8009A019B8018009059410298019186
:10104000103002904028CCDB00980BB0F0BD10B5FA
:10105000202A04DB0146203A9140002010BD914037
:1010600020239C1A0346E3401943904010BD0346D9
:101070000B439B0703D009E008C9121F08C0042ACC
:10108000FAD203E00B780370401C491C521EF9D2BF
:101090007047F0B51FB40646002082B005464024D4
:1010A000019100901BE0019922460F46304600F066
:1010B00033F8049A059B801A994110D310461946BB
:1010C0002246FFF7C4FF361A8F41019722460120BE
:1010D0000021009FFFF7BBFF38184D4100902046CC
:1010E000641E0028DFDC019B00982946324607B0C9
:1010F000F0BD0000064C0125064E05E0E36807CC74
:101100002B430C3C98471034B442F7D3FEF7C4FF8E
:1011100098CE0000B8CE000010B5202A04DB0846A7
:10112000203AD040002110BD0B46D340D0402024AF
:10113000A21A91400843194610BD70B58C18057865
:10114000401C6B075B0F01D10378401C2A1106D1AC
:101150000278401C03E006780E70401C491C5B1EA0
:10116000F9D12B0705D40023521E0DD40B70491C56
:10117000FAE70378401CCB1A921C03E01D780D702F
:10118000491C5B1C521EF9D5A142D8D3002070BD6A
:10119000F0B5504C23681D680626B5431D6046789F
:1011A00005783602AD198678C77836043F06F619F9
:1011B000AD199D62467905793602AD198679C779F0
:1011C00036043F06F619AD19DD62467A057A360215
:1011D000AD19867AC77A36043F06F619AD191D6334
:1011E000467B057B3602AD19867BC07B3604000644
:1011F0003018281858634D7808782D0240198D78DA
:10120000CE782D043606AD19401998614D790879CC
:101210002D0240198D79CE792D043606AD1940196D
:10122000D8614D7A087A2D0240198D7ACE7A2D0434
:101230003606AD19401918624D7B087B2D02401906
:101240008D7BC97B2D0409066918401858625868BF
:10125000022188435860586801252843586018685F
:101260002843186058688007FCD558688843586040
:101270009869107020688069000A50702068806941
:10128000000C907020688069000ED0702068C169E1
:101290001171C169090A5171C169090C9171C16962
:1012A000090ED171016A1172016A090A5172016A4B
:1012B000090C9172016A090ED172416A1173416A77
:1012C000090A5173416A090C9173406A000ED07388
:1012D0000020F0BD584100200249014808607047D5
:1012E00000C300405841002030B5264B1968C9059D
:1012F00017D50321196001210825491C1C68C9B2B2
:101300002C431C6006E01C68A40508D4491CC9B223
:10131000202904D81C68E405F5D50029EDD1002169
:1013200019601949136809680B6152684A61174AC4
:1013300013688B615368CB6193680B62D2684A6211
:10134000124B10331A688A625C68CC629C680C632A
:10135000DB684B630D4B20331C688C605B68CB6093
:101360000B682024C007A343800E03430B6008686A
:10137000402318430860886A904201D0012030BDA4
:10138000002030BD80C3004058410020705D002027
:10139000F0B5454B00241B681C601C615C618578BE
:1013A000C4782D026419457806782D043606AD19E7
:1013B00065193E4CAE46E5608679C5793602AD19B1
:1013C0004679077936043F06F619AD19A560AC4693
:1013D000867AC57A3602AD19467A077A36043F0610
:1013E000F619AD196560877BC67B3F02F619477B0E
:1013F000007B3F0400063818301820609861DD61DA
:1014000065461D6275465D624C78087824020019B5
:101410008C78CD7824042D06641906192348B44627
:10142000103006604D790C792D0264198D79CE79D2
:101430002D043606AD19651945604E7A0C7A3602D0
:10144000A4198E7ACF7A36043F06F619A41984605F
:101450004F7B0E7B3F02F6198F7BC97B3F04090649
:10146000791871186646C1609E62DD621C6359631B
:1014700051781078090240189178D478090424062C
:1014800009190A4C401820342060557911792D0231
:1014900049199579D2792D041206AA188918616024
:1014A0009860D960F0BD000058410020705D0020B8
:1014B00010B502F00FF8024900F06DFE002010BDDB
:1014C00006040000FEB508AF70CF6F4670C701F08C
:1014D000C9FD0446024900F05EFE2046FEBD000044
:1014E0001320000008B501F0E5FF694608706A4660
:1014F0000121024800F04BFE002008BD0E20000034
:1015000038B5044602F0D8FA694608704C70200AD3
:1015100088706A460321024800F039FE002038BD79
:101520001B20000038B5044602F0DCFA694608705A
:101530004C70200A88706A460321024800F027FE9A
:10154000002038BD1A20000008B500A8013002F0C4
:101550003FFA694608706A460421034800F017FE06
:101560006946087808BD0000022000007FB50446E7
:1015700008A861C8009002960195204602F0E4FF99
:10158000694608734C73200A887303AA0321034831
:1015900000F0FDFD002004B070BD00002020000020
:1015A00008B503F0F1FB694608706A46012103485B
:1015B00000F0EDFD6946087808BD00000820000035
:1015C00008B503F06BFB694608706A4601210348C1
:1015D00000F0DDFD6946087808BD00000A20000023
:1015E000F0B585B00AACF0CC03976F4670C703F036
:1015F000E7FB6946087404AA0121034800F0C7FD0F
:101600006946087C05B0F0BD0620000008B503F06F
:101610002DFC694608706A460121034800F0B7FDB9
:101620006946087808BD00000520000008B503F0F1
:101630005DFC694608706A460121034800F0A7FD79
:101640006946087808BD00000C2000001CB5049C09
:10165000009403F08BFC6946087101AA012103483C
:1016600000F095FD694608791CBD00000B200000C4
:1016700008B503F09DFC694608706A4601210348DD
:1016800000F085FD6946087808BD000009200000CB
:1016900010B503F05DFE024900F07DFD002010BD95
:1016A000192000001CB500A8013002F003FF6946B4
:1016B00008706A460721034800F069FD694608780A
:1016C0001CBD00000910000010B5D2B203F06DFA85
:1016D00010BD00000849074848600A78FF2A01D178
:1016E00025220A70D1B2054A114301600449C16242
:1016F0007047000000C100405C41002080220801CA
:10170000384E010030B58006094A800E094C107031
:1017100021684D68FF2301339D434D60064908430E
:1017200051680860206841681943416030BD00007D
:101730005C4100206C4100208022080180060449A1
:10174000800E0870034A4968104308607047000023
:101750005C410020C02208010249002049688863DA
:10176000704700005C41002010B5FFF7B5FD00F0A8
:10177000DFF801F03DF903F043FFFFF7ABFF084C42
:101780005D202168086504F007F804F023FE03F0EB
:10179000CBFF03F09DFF21680020086510BD00000D
:1017A0006841002030B50446482200213A480BF039
:1017B000EFF8206800280BD0374D286060680028BB
:1017C00008D06860A068A860E068002804D005E040
:1017D000012030BD022030BD01204002E8602069B8
:1017E0000121002804D028616069002802D002E0AD
:1017F0002961F9E71B206861A069002800D10A204F
:10180000A861E069002810D0E861206A00280ED0A5
:101810008006800E2862E06B00280AD0E863606AC8
:10182000002808D0E96B401807E0E961EDE71520D2
:10183000F0E71E20F2E7E86B46306862A06A0028F5
:1018400000D0A862E06A00280AD0E862206B002875
:1018500000D028633920005D8009022802D008E00A
:101860000420F2E70C4821460622343134300AF0D5
:10187000D7FF216C002907D0606C002804D08000BD
:1018800002D52964606C03E00448007828640448A9
:101890006864002030BD0000005300201C40002080
:1018A0000440002070B500200E210B4B0124A4033E
:1018B0005A8815462540CD405204120C0543E8B223
:1018C0005604D50BF60F75401543491EC9B25D800D
:1018D0000629EDD870BD00007041002070B50020D1
:1018E00008210A4B4C011A8815462540CD40054376
:1018F0005200E8B2550A56097540ED07ED0F154341
:10190000491E09061D80090EEDD170BD70410020F1
:1019100000220AE0022101E000BF00BF0B46491E81
:1019200089B2002BF8D1521C92B28242F2D3704796
:101930000949084808600949CA68026142610969A1
:101940008161C161826841140A438260C2680A43AE
:10195000C260704700C0004064410020C8530020AE
:101960000246FD2008498C234B723F231B039A42F9
:1019700005D24A60A6200872887A402250404A7AEE
:1019800073231A404A7270470018004010B502498C
:10199000087000F07DFB10BDEC40002070B50D46D6
:1019A000080426D5144800780BF030F806001CD047
:1019B0000178912916D0D02914D1B0783446002866
:1019C00007D17078002804D10622F11C0B480AF0D8
:1019D00027FF0B480068002804D04168002901D087
:1019E0002046884730460AF0EFFF0120C0036840D8
:1019F00070BD002070BD0000EC40002020410020A0
:101A0000E84000201CB5002801D0074908600020EC
:101A100000900346019005480221027804480078AE
:101A200000F0C6F91CBD0000E8400020F240002094
:101A3000EC40002038B5054B6C461B782370607075
:101A4000A170E270684600F065F938BDEC400020F6
:101A5000F7B50D468649009816464218854F002472
:101A60003878397A130004F01FFF1C0F151CF6217B
:101A700041465A71787F8990F697A3AAB5C0C9F6F6
:101A8000F6F6F6D4F6EAF1F6102D76D110223146AC
:101A900079486FE0102DF8D1774810223146103088
:101AA00068E0042D69D130687862DAE0012D64D1F4
:101AB000FB783278FA70002B0AD0002A07D102296D
:101AC00003D0062901D0042901D100F0B1F9C8E002
:101AD000002A0AD0012905D0032903D0052901D005
:101AE000042902D101210BF08DF8BAE0022D44D176
:101AF0003088F881B5E01F2D3FD85E481F220021B5
:101B00003A300AF045FF5B482A4631463A300AF03F
:101B100087FE584BBD703A332A46012112E01F2D33
:101B20002BD855481F2200211F380AF031FF524898
:101B30002A4631461F380AF073FE4F4B3D711F3B5A
:101B40002A460021387800F0D9FA8FE0012D74D1AF
:101B50003078042871D8787283E0012D6DD1307807
:101B600003286AD8B8727CE0062D66D14148062267
:101B7000314628300AF054FE73E05EE0012D5CD15E
:101B80003078072859D8F8726BE0012D55D130789C
:101B9000032852D8387364E0022D4ED132887A82FD
:101BA000002A5ED005295CD102210BF0B5F858E07F
:101BB000012D42D1307801283FD8787151E030882A
:101BC000022D3AD1062838D31921C901884234D8C8
:101BD000B88246E03088022D2FD106282DD3192156
:101BE000C901884229D8F8823BE03088022D24D1EF
:101BF000FF21F531884220D2388332E03088022D2F
:101C00001BD10A2819D31921C901884215D8788314
:101C100027E03178012D10D101290ED108210AF0D9
:101C2000D9FD002801D016241BE0002006F03CF965
:101C3000042138780BF0B8F813E0182411E0012DD6
:101C4000FBD13078B8710CE000E004E0012DF4D154
:101C50003078F87105E00098272801D2022D02D0D3
:101C600002242046FEBD318800F038FA0446F8E729
:101C7000FFFCFFFFEC4000204F5D002010B5054841
:101C80000078000701D5044800E0002006F0FAF8CB
:101C900010BD0000744100209041002070B51B4C25
:101CA00005460121207805F08FFB194801780A20AC
:101CB000014224D0204625700C3006F0DDF8606823
:101CC00000281AD1207800281DD0000107210AF031
:101CD000C3FD6060002810D021780A0100210AF0BD
:101CE00057FE0020FF222378616803E00401401CB6
:101CF0000A55C0B29842F9D305E0132070BD002008
:101D0000207006F0B9F8002070BD00007C41002072
:101D10007441002038B5234D0446A868002801D03E
:101D2000112038BD20480A210078084238D005210A
:101D300004200AF091FDA86000282FD0042221463B
:101D40000AF06EFD00F0BAF8002805D00C2000F073
:101D500099F805460D2007E06078022811D0102080
:101D600000F090F80546112000F08CF80246E0786B
:101D7000002800D001200D498978002907D00123CF
:101D800006E0122000F07EF805461320ECE7002361
:101D90000090A078294600F0A2FA38BD132038BD83
:101DA000122038BD7C41002074410020105D0020CD
:101DB000F8B50224079F1D461646012906D00229C0
:101DC0000BD0042911D008292FD11EE000F07AF899
:101DD00004002AD100F0AAF827E000F073F804000C
:101DE00023D13046FFF75AFF1FE000F06BF80400E4
:101DF0001BD13A462846069900F050F900F096F8B3
:101E000000F07CF804F0A4FB0FE000F05BF80400A5
:101E10000BD13A462846069900F040F93046FFF7C4
:101E20003DFFFFF72BFF04F083FB2046F8BD0000C9
:101E300070B5104C2168002919D00978814214D15D
:101E40000D4D0221A8780AF0AFFF0C48002646800D
:101E5000A87804210AF0A8FF0948467121680320E8
:101E60004870002000F024FA70BD032070BD1220DD
:101E700070BD000080400020744100209841002087
:101E8000105D0020272801D3024870470249400016
:101E9000085A7047FFFF00009640002010B5054A21
:101EA000FF21D170044AD1709070052100F036FDF9
:101EB00010BD0000105D00207441002010B506F038
:101EC0007BFD10BD70B50E46054620220021094855
:101ED0000AF05EFD074C0848E570067000F015FA40
:101EE000002803D000202070122070BD0121217035
:101EF00070BD0000105D00207441002010B508483E
:101F00000078400707D5074805F0C8FF00200649BC
:101F1000C043C88010BD002005F0C0FF10BD000008
:101F200074410020A8410020105D0020F8B51E4C2F
:101F300000256068002802D00AF0CCFC6560E068EB
:101F4000002802D00AF0C6FCE560184E052730785C
:101F5000384224D01448143005F09AFF30783842C3
:101F60001BD0472120200AF077FC6060002814D0A5
:101F7000202200210AF00CFD472120200AF06CFCF1
:101F8000E060002805D0202200210AF001FD002099
:101F9000F8BD60680AF09EFC65601320F8BD002063
:101FA00005F076FFF3E7000098410020744100201F
:101FB000FEB5344E344D0C4608041DD5B0780AF0F9
:101FC00025FD070011D03878A22806D0F5783846CC
:101FD00005F060FE00280BD101E0ED78F7E7FF2D5A
:101FE00006D0394628460AF049FD0120C00345E0E5
:101FF00038460AF0E9FCF8E7E0070127234A002801
:102000000AD05068002804D04168002901D000207F
:10201000884720467840FEBD1C48A107C06808D507
:10202000002804D04168002901D0012088470220FF
:1020300024E0610724D5697900291ED0491E0906CC
:10204000090E697119D19169002907D02F710028F3
:1020500004D04168002901D0012088476946E8681A
:1020600004F045FA684605F0B3FD1D20FFF70AFFAE
:102070006871B07804210AF097FE04206040FEBD2C
:102080000020FEBD74410020105D0020684000204B
:102090000149C870704700007441002070B50E4CB3
:1020A0000B46626121610546E0601022002118465E
:1020B0000AF099FB012803D11021206909F02EFBB9
:1020C0001022002128460AF08EFB012803D110219E
:1020D000E06809F023FB70BD105D0020272802D2C4
:1020E000044A914201D102207047034A4000115234
:1020F00000207047FFFF00009640002070B5144696
:10210000204A1E46127805231A4223D01E4D00296C
:1021100001D06A6800E0EA68002A1BD0202C2ED289
:10212000002C01D0002E2AD02870002914D0686815
:102130001F220021401C0AF02BFC68682246314611
:10214000401C0AF06DFB696820460C70491C00F0C9
:10215000ABF870BD122070BDE8681F220021401C42
:102160000AF016FCE86822463146401C0AF058FB8B
:10217000E96820460C70491C00F0B7F870BD0220D9
:1021800070BD00007441002098410020704710B5D8
:1021900000F0ECF810BD10B500F008F910BD10B556
:1021A00000F01CF910BD10B5FFF782F910BD10B595
:1021B00000F028F910BD10B500F044F910BD10B5BD
:1021C00000F05AF910BD7CB5069C079DC0B2019580
:1021D000009400F067F97CBDFEB508AF70CF6F4684
:1021E00070C7FFF76FF9FEBDF0B585B084460AA849
:1021F000F1C804976F4671C7604600F083F905B0D7
:10220000F0BD38B5049C009400F0B4F938BD10B5A9
:10221000FFF768F910BD38B5049C009400F0C8F9C8
:1022200038BD7CB5069C079DC0B20195009400F0B6
:10223000DDF97CBDFFB587B094468E4610A8F7C87F
:1022400006976F4677C762467146079800F004FA12
:102250000BB0F0BD10B500F051FA10BD10B500F094
:1022600069FA10BD10B5FFF74BF910BD10B5FFF7B7
:1022700059F910BD10B5FFF767F910BD10B500F0A2
:1022800077FA10BD10B500F08FFA10BDFEB508AF9B
:1022900070CF6F4670C7FFF769F9FEBD38B5049C73
:1022A000009400F09FFA38BD10B5FFF779F910BD22
:1022B00010B5FFF785F910BDF0B585B00AACF0CCCC
:1022C00003976F4670C7FFF78BF905B0F0BD10B5E7
:1022D000FFF79CF910BD10B5FFF7A8F910BD38B590
:1022E000049C0094FFF7B2F938BD10B5FFF7C0F9B0
:1022F00010BD70B55478157822022A43FFF7C8F94B
:1023000070BD10B500F08CFA10BD10B5FFF7CAF91A
:1023100010BD38B5049C009400F09AFA38BD10B591
:1023200000F0B2FA10BD10B5FFF7CEF910BD0000F5
:1023300010B505280ED90C4CA0420BD2A14209D2EF
:10234000814207D3FF20F530824203D2092B01D905
:10235000A34201D3002010BD521C4A43D800824240
:10236000F8DA012010BD0000810C0000F8B5074626
:10237000084616460D460C300AF012FB040011D038
:10238000912020700E206070A5702046A7800C3030
:102390002A463146A0600AF043FA03482146807875
:1023A0000AF06CFBF8BD00007441002070B50546D2
:1023B0000C4606200AF0F4FA01000BD091200870B8
:1023C0000F2048708D700120C87003488C80807881
:1023D0000AF054FB70BD00007441002010B50446A3
:1023E00003200AF0DDFA010008D0912008701A20BD
:1023F000487003488C7080780AF040FB10BD0000E4
:102400007441002070B5064614460D4608200AF0B7
:10241000C7FA01000ED091200870052048708E7018
:102420008D8005488C7180780AF028FB03480449A8
:10243000007E087070BD0000744100200053002031
:10244000B941002070B5064614460D4608200AF032
:10245000A7FA01000CD0922008703E204870082096
:1024600088708D808E710348CC7140790AF006FB2C
:1024700070BD00007441002070B505460C46062072
:102480000AF08EFA010009D09120087030204870BF
:102490008D7003488C8080780AF0F0FA70BD0000DF
:1024A00074410020FFB581B01E460F4631200AF06E
:1024B00077FA040022D0912020703E206070022024
:1024C000A0700120E0702046083005466060019849
:1024D00028706F700622A81C03990AF0A1F92E72C9
:1024E0002846324609300A990AF09AF920350B98A5
:1024F00028720348214680780AF0C0FA05B0F0BD82
:1025000074410020FFB5074681B01D4616461620CF
:102510000AF046FA040029D0912020703E20607015
:102520000120A070002F08D03120E0702046062244
:10253000002108300AF02CFA07E00020E070204665
:10254000062208300A990AF06BF90298A080A67159
:10255000E5710B98E0810C9820820D9860820E98AE
:1025600020750348214680780AF088FA05B0F0BD4E
:1025700074410020F8B507461C4615460E460C204F
:102580000AF00EFA01000FD0912008703E2048702A
:1025900003208870CF708E80CD800C810698488192
:1025A000024880780AF06AFAF8BD00007441002001
:1025B000F8B507461C4615460E460E200AF0F0F9FF
:1025C00001000FD0912008703E20487007208870CD
:1025D0008F80CE800D814C8106988881024880785A
:1025E0000AF04CFAF8BD000074410020FFB581B03C
:1025F0001F4618200AF0D4F9050028D09120287031
:102600003E2068700B20A87001202C460834E8702A
:1026100000266C6001982070029860700622A01C51
:1026200003990AF0FDF827722046062209300A991C
:102630000AF0F6F80B98E073761CE878F6B21034DE
:10264000B042E7D80348294680780AF017FA05B067
:10265000F0BD000074410020FFB581B01D46164654
:102660000F4622200AF09CF9040042D091202070ED
:102670003E2060700A20A0700198002814D03120FC
:10268000E07020460622002108300AF081F9204639
:10269000062200210E300AF07BF920460622002196
:1026A00014300AF075F913E00020E070204606228D
:1026B00008300A990AF0B4F8204606220E300B9929
:1026C0000AF0AEF82046062214300C990AF0A8F859
:1026D000A780A671E5710D9860830E98A0830F986E
:1026E000E0832021109808550348214680780AF09D
:1026F000C5F905B0F0BD00007441002070B5054675
:102700000E4626200AF04CF9040010D091202070CB
:102710003E2060700920A070A58020223146A01DB7
:102720000AF07EF80248214680780AF0A7F970BDC9
:1027300074410020F8B5064615460F4610200AF0F1
:102740002FF9040011D0922020703E2060700520E7
:10275000A070A68008223946A01D0AF061F803483F
:10276000E581407921460AF089F9F8BD74410020DD
:1027700070B505460E4646200AF012F9040010D046
:10278000912020703E2060700820A070A58040221B
:102790003146A01D0AF044F80248214680780AF02C
:1027A0006DF970BD74410020F8B5064617460D4618
:1027B0000E200AF0F5F8040011D0922020703E207F
:1027C00060700420A070E670A58008223946A01D24
:1027D0000AF026F80248214680780AF04FF9F8BD41
:1027E00074410020F8B507461C4615460E460E20DB
:1027F0000AF0D6F801000FD0912008703E204870F2
:10280000062088708F80CE800D814C81069888814B
:10281000024880780AF032F9F8BD000074410020C7
:1028200070B514460D4608200AF0BAF801000BD026
:102830009020087013204870012088708D80034814
:10284000CC8040780AF01AF970BD00007441002075
:10285000F8B507461C4615460E460C200AF0A0F8AF
:1028600001000DD0912008700C2048708F708E8070
:102870008D710C8106984881024880780AF0FEF834
:10288000F8BD000074410020FFB5074681B0154631
:102890000E460C200AF084F8040014D0902020701A
:1028A000FF20607067802671E5804821284609F086
:1028B000D3FFA0602A46049909F0B2FF03482146DD
:1028C00040780AF0DBF805B0F0BD0000744100204C
:1028D00008B51346034A00920A46012105F06DFF30
:1028E00008BD00005D8400003EB500230192042471
:1028F00002930A460094024B122105F089FF3EBD67
:102900009D84000008B51346034A00920A4613212D
:1029100005F053FF08BD0000C9840000042907D05A
:10292000052905D0062903D0072901D002207047C8
:102930000C22044B4A43D218403A11829074002072
:1029400070470000A05D002070B50C460988054660
:10295000042905D0052903D0062901D0072929D14A
:102960006068002826D00121284606F05FF800287C
:102970001ED0284606F018F80F498D420BD00028CB
:1029800009D12189002906D9208806280ED10B48B3
:10299000008881420AD20A480078002804D02146E3
:1029A000284605F099FD70BD162070BD1B2070BD36
:1029B000142070BD022070BDFEFF0000BE4100204B
:1029C000B9410020024A001FD080517070470000BA
:1029D000B841002010B5001D80B24C2109F03CFF29
:1029E000002803D00321C94309F0C8FE10BD000030
:1029F00010B5114900204871114C104820600A227E
:102A0000DE21002000F020F864223221012000F0B5
:102A10001BF864223221022000F016F80A22DE217F
:102A2000032000F011F8206841681F221143416023
:102A30000449C16010BD00004853002000C200409E
:102A4000684100201F03000010B5254B20241B689F
:102A5000002809D0012816D0022823D0032830D01E
:102A6000042800D1996510BD1869204318611869C0
:102A7000A043186159619869204398619869A043FF
:102A80009861DA6110BD186A20431862186AA04381
:102A900018625962986A20439862986AA0439862C3
:102AA000DA6210BD186B20431863186BA0431863DB
:102AB0005963986B20439863986BA0439863DA63DB
:102AC00010BD186C20431864186CA0431864596436
:102AD000986C20439864986CA0439864DA6410BDA5
:102AE00068410020FCB53548006881685A278B078B
:102AF000012500223249002B0DDA83680224A3430A
:102B000083604368DB0703D14B79FD2423404B717D
:102B1000CD708A7007658368DB070CD083685B081B
:102B20005B0083600A704D704368DB0703D14B790B
:102B30005B085B004B718368DB051AD58368FF2453
:102B40000134A34383600B785B060DD51D4EB36B38
:102B50000093B36B0193019C009BA342F7D11C46E9
:102B6000174B80331B6A9C660B782B430B704A70A3
:102B7000076583689B0508D5836801246402A34325
:102B800083608B782B438B70CA708368DB0604D517
:102B900083681024A34383604A7183685B0704D56C
:102BA00083680424A34383604A7183681B0704D5A8
:102BB00083680824A34383604A71FCBD68410020F8
:102BC0004853002000100040F0B51F4C89B00D465E
:102BD00006462146002004F039F80028F9D0A0422A
:102BE000F7D00021044601208005274607430091C5
:102BF00001910291039104910591069107916A4612
:102C0000D773390A9173390C5173304604AA694657
:102C100006F031FC6A46907F517F0002090440189B
:102C2000D17F40182870010A6970000CA87001213A
:102C3000200A89030843EF702871200C40210843C3
:102C4000687109B0F0BD0000FFFF3F000A4A10B5EF
:102C50001046D16C403001760B0A4376090C817620
:102C6000916CC1760A0A0277090C417706F026F8C2
:102C700005F0D8FF10BD00004853002070B518487B
:102C8000174A44695569607B27212035252802D0E1
:102C9000262822D01EE06879820715D52620607389
:102CA0000021FF20913000BF491C8142FBD3204608
:102CB00006F0F0F9687940070CD50A48228C407874
:102CC00008210AF029F805E0400703D56173204682
:102CD00006F0E0F900F0E8F870BD6879F4E700006C
:102CE000C85300205040002070B51121882009F001
:102CF000B3FD04003BD01F4D8822002120466C61AB
:102D000009F046FE01222273902060740023A37410
:102D1000E86860602869A060032117486175006A4F
:102D200015281DD008DC01280DD003280ED0072857
:102D300010D00F281BD110E01D2813D0232813D04A
:102D40003F2814D112E01320C04301E00D20C043FE
:102D500020750CE00720C043FAE70220C043F7E7E4
:102D6000237504E0227502E00220F1E72175204678
:102D700070BD0000C85300200053002010B500F0C3
:102D800033F982228021002001F042FC10BD0000B6
:102D9000F8B543484249446980390F462546803199
:102DA00060354B69687B583701266E3300280DD09B
:102DB0002239009101280CD03E39C97900296DD003
:102DC0000021022812D0032830D052E006223946D2
:102DD00005E033488038806F002802D0062218466C
:102DE00045E02F4906221C39184640E02973287D0A
:102DF000002817D02046743001F082FCA06600281D
:102E00000DD007F065FBA16E887A002807D002205C
:102E10002873204606226E300C3109F001FD287B14
:102E2000022826D02E73062239461EE02973287DFB
:102E3000002817D02046743001F062FCA0660028FC
:102E40000DD007F045FBA16E887A002807D002203C
:102E50002873204606226E300C3109F0E1FC287BF5
:102E6000022806D02E730099062220466E3009F003
:102E7000D7FC0020401CC0B20628FBD30020401C19
:102E8000C0B20628FBD3A674E08BA18B421805487C
:102E90000421407809F040FF0020F8BD1220F8BD61
:102EA000C853002050400020F8B5464892250646F9
:102EB000803E44697EE095280DD0932828D0942840
:102EC00058D096287AD1B078C0076ED0912060741F
:102ED00003F076FF6CE0F078C00713D00027F7709E
:102EE000224616323946A06803F068FE3071002889
:102EF00001D0377104E0204605F0D0FF002857D0FC
:102F00006574E5E7B079012852D10020B071F7E788
:102F1000274620377879C10701D0252006E08107B0
:102F200001D5262002E0400701D527206073228CBE
:102F3000002A04D024480821407809F0EDFE3879B1
:102F4000012804D00A21012003F08EFEE083E08BEB
:102F5000A18B42181C480421407809F0DDFE0020B6
:102F60007D21C90000BF401C8842FBD3204606F0EB
:102F700091F81DE0B078C00711D0A07B010705D003
:102F80000007000F012801D00628B9D195206074F0
:102F90000E4803F057FB80B204F0A6F808E0B079C1
:102FA0000128ADD004E009E0FFE7B079012806D0A0
:102FB00004F0AEF8607C932800D37CE7F8BD0020D5
:102FC000B07183E7C8530020504000203A0300004E
:102FD00010B50448446906F08BFA93206074FFF73B
:102FE00063FF10BDC853002010B50B48446903F0BF
:102FF000E7FE0020A07420736074084C0421607800
:1030000009F0D2FE6078082109F0CEFE6078102128
:1030100009F0CAFE10BD0000C85300205040002037
:1030200070B506460821203631734468002C17D04D
:10303000054676218035095A2A8A89180A31A986D7
:103040000121A17001460522AF31E01C09F0E8FB27
:10305000A88E2072000A60722220F075002070BDD8
:10306000012070BDF8B51E4615460C46079F00F0BE
:10307000C1F9264AA11F914246D2511D8D4243D823
:10308000A54241D3FF22F43296423DD8069A8A42A5
:103090003AD8711CD20061438A4235DD002833D012
:1030A000014620318C46097EC9072DD1826C51071B
:1030B0002AD4910728D4014680318C84CD840F8591
:1030C000089B4B854E81069B8B816346DE790223EC
:1030D000012E06D0FF21A531095C890712D41A20E0
:1030E000F8BDFF26A536365CB6070BD463195B081E
:1030F0000B811B09CB8001234B7104210A4382649D
:103100000020F8BD1A43FAE71220F8BD7B0C00003E
:10311000014680682031CA7A007853070007DB0F28
:10312000C00F834204D104204240CA72002070477D
:1031300001207047014680682031CA7A0078130761
:103140004007DB0FC00F834204D008204240CA7200
:103150000020704701207047C11DF931CA68521C18
:10316000CA6002D10A69521C0A610A7C120603D5A0
:103170000122CA6000220A61E030017E8A0702D57E
:10318000042211430176704770B51D4D044628682E
:10319000002801D002F030FAE068002806D08168EB
:1031A000E160F7E78168A16102F026FAA0690028D2
:1031B000F8D16068002801D002F01EFA696A002088
:1031C000A14203D1686203F021FB03E028620020E2
:1031D00003F022FB8120005DFF2801D009F0CAFD29
:1031E0002546E035687EFF2801D009F0C3FDA87EA2
:1031F000FF2801D009F0BEFDA08C00F0D5F870BD0D
:10320000C853002070B5044680690D46002804D0DC
:10321000A08C0022802101F0FBF95620005B0028E1
:1032200004D0A08C1322812101F0F2F9A08C052298
:10323000812101F0EDF9204600212030C171C175D6
:103240006034A577084670BDC11DF9314A68521C2B
:103250004A6002D18A68521C8A600A7A120603D533
:1032600001224A6000228A60F821095C89070BD597
:1032700076210A5A0146C031CB8FD2188A870122A3
:10328000816C9202914381647047F8B505462E46E1
:103290001820203630736868002828D00F212C466B
:1032A00081708034A18CC170090A0171E18C417177
:1032B000090A81716189C171090A0172A18941728A
:1032C000090A8172217DC172E18A0173090A417381
:1032D00029460C2298310E3009F0A2FA7D214902CC
:1032E000284606F097F89220F0750020F8BD0120DE
:1032F000F8BD70B501460C4618202034207348688C
:10330000002822D00B461022827080339A8CC27023
:10331000120A0271DA8C4271120A82715A89C271E0
:10332000120A02729A894272120A82721A7DC2725B
:10333000DA8A0273120A42730C220E30983109F0B5
:103340006FFA9720E075002070BD012070BD10B5A8
:1033500002460C21203211734168002922D07623C5
:103360001B5A8030048A1B19DB1DC38100238B701C
:103370004379CB70C3880B711B0A4B7103898B7126
:103380001B0ACB7143890B721B0A4B7283898B72A8
:103390001B0ACB72C0890873000A48731220D075CB
:1033A000002010BD012010BD70B5114C0246A06A6E
:1033B0000021034618E0FF25D9352D5A954211D139
:1033C000002904D0E26A824204D1E16204E0196873
:1033D000A16201E002680A6002F00EF9E16A0020D1
:1033E000086070BD014600680028E4D170BD00008F
:1033F000C853002001460648806A05E0FF22D93202
:10340000125A8A4202D000680028F7D170470000A3
:10341000C853002010B508220021024809F0B8FA6C
:1034200010BD0000F053002070B5FF25DD351021E0
:10343000284609F011FA04462A46002109F0A8FAA4
:10344000002C0BD01A4A956A002D09D0D06AFF30A3
:10345000C130018B2846491C89B209E0002070BDAB
:1034600001210AE0FF23D9331B5A8B4203D00068A5
:103470000028F7D101E00028ECD12046FF30C13010
:10348000018300290ED0002D10D0D16A0C600021DC
:10349000D4622160008BA084204620308171C174E9
:1034A000A08C70BD204602F0A7F8F9E79462EEE721
:1034B000C853002010B50648C069002806D0407DDA
:1034C000002803D000F03AFA002010BD0C2010BDF7
:1034D000C853002010B50C46FFF78CFF002811D010
:1034E000024620329179042901D0022010BD6030BB
:1034F000C477D079012803D03120D075002010BDC9
:103500003020FAE7122010BD70B50646172120368C
:10351000044631734068002828D003218170054695
:1035200021460822B931C01C09F07AF92046C13081
:103530004178007809020143E972090A297321469A
:1035400028460822C3310D3009F06AF92146284681
:103550000422CB31153009F063F97D214902204660
:1035600005F058FF4220F075002070BD012070BDAD
:1035700070B506460D212036044631734068002898
:1035800013D005460420A87021460822D231E81C39
:1035900009F046F9214628460422DA310B3009F0B9
:1035A0003FF94420F075002070BD012070BD10B5BA
:1035B00005F061FF002010BD70B5054609212035DA
:1035C000044629734068002812D0082181700A46F9
:1035D00021466068FF319531C01C09F021F97D2139
:1035E0004902204605F016FF6220E875002070BDF4
:1035F000012070BD014610B5203109230A460B7326
:103600004168002912D08B70D1794368012908D014
:1036100001460822FF319D31D81C09F001F9002034
:1036200010BD01460822FF319531F5E7012010BD9C
:1036300010B50179C906C90E002401712246214640
:10364000435C002B02D0521CD2B21C46022A08D284
:10365000491CC9B20529F3D3002A04D0601E0442D4
:1036600001D0012010BD002010BDFEB500252C4664
:1036700004212A0E2402431814432A0240331D7BDE
:10368000491E154349B20029F3DA01462031009161
:103690004030497D407C0818C7B2252F01D3253F13
:1036A000FFB200983A46477501200021FDF7CFFC94
:1036B00028402140084302D000980775FEBD002035
:1036C00006460190324601200021FDF7C0FC28404B
:1036D0002140084303D00198401CC0B20190761CE1
:1036E00076B2252EEEDB38460199FDF749FC00271E
:1036F0003E460191324601200021FDF7A8FC2840FA
:103700002140084307D00198874202D100980675EE
:10371000FEBD7F1C7FB2761C76B2252EEADBFEBD95
:10372000002120304175704770B53549C02248707E
:103730000021344809F02CF93349487E0C468009B1
:10374000203C022809D0314A002023181578203364
:10375000401C521C1D750628F7D3487D8A7D000247
:10376000120480180A7D2A4D8018264AD064087EEB
:103770004B7E00021B04C018C97D264B4018906484
:1037800008209085D585114613862031887493864C
:10379000C874D58613870846FF252030057400239A
:1037A00043748374C374037543758375C3750D7057
:1037B0004D708D70CD701F230B7101238B71A18A09
:1037C000D187CB0070330380418083801B205087DA
:1037D000FF204930908710481146C031906208465A
:1037E0004038C1600D49016105F04AFEFFF712FE45
:1037F00001F0F8F801F0E0FE00F060FF70BD00009D
:1038000050400020485300202053002008060400A8
:10381000D70700000380000000F91500085C0020B5
:1038200070B52B480546C469803D207DB12802D083
:10383000B3281CD045E02878C00742D022463C324D
:103840000021A06803F0BAF9002804D1204605F051
:10385000FFFF002835D003F0B3FA1E49592009684C
:103860000865E27B1C491D4803F02CFA29E06878C2
:10387000002821D00020687003F0A2FA00F066F959
:10388000FFF7B8FDE16AC163216B0164A18E80225C
:1038900011540146E28E40310A83228F4A83628CA2
:1038A0008A83A28CCA833A22125D4A7400F042FADB
:1038B000204606F011F804E0A879012801D1B120D2
:1038C000207503F025FC207DB328AED0C0B270BDBA
:1038D000C85300206841002055555500D6BE898E3A
:1038E00010B51148C46905F003FE207DBF2801D042
:1038F00003F066FAB120207525200C49E0730968B1
:1039000059200865E27B0A490A4803F0DBF9E28A9C
:10391000094C01216078C90209F0FEF901216078A3
:10392000090309F06FF910BDC85300206841002059
:1039300055555500D6BE898E5040002010B506481A
:10394000C46903F03DFA204605F0C6FFA089812234
:10395000802100F05DFE10BDC853002070B51748EF
:10396000C469A07B00281AD0E07B0125144EED022B
:10397000272815D203F024FAE07B1249401CE0739B
:10398000096859200865E27B0F49104803F09AF94D
:10399000B1202075E28A7078294609F0BDF970BD22
:1039A00003F00EFABF2020757078294609F0FCF963
:1039B00001217078090309F0F7F970BDC8530020A0
:1039C000504000206841002055555500D6BE898ED4
:1039D0000449C98F0170002141700349097E81703B
:1039E000002070474853002000530020F8B50446DB
:1039F000092120342173416800292BD00346142269
:103A0000FF338A70A4335A7D1E7D15023543CD7075
:103A10002D0ACA1C0D7116469D1E6A7E2F7E12024B
:103A20003A434A71120A8A715A7E1B7E12021A4365
:103A30003271120A72716A7F2B7F12021A434A7224
:103A4000120A8A727D21490205F0E4FCB220E07579
:103A50000020F8BD0120F8BD30B509222C210A5400
:103A60004168002926D015228A700246FF32A4320E
:103A70001346547D127D24021443CC70CA1C240AC0
:103A8000FF300C71A230447E057E24022C434C7121
:103A9000240A8C715C7E1D7E23022B43CB711B0A92
:103AA0005371427F037F100218434872000A8872E4
:103AB000002030BD012030BD10B5FFF79BFC002871
:103AC00007D001462031CA79022A02D1CA7D442A90
:103AD00001D0022010BD06226030C2774620C87592
:103AE000002010BDF8B50E46FFF784FC040004D09A
:103AF00025462035E879022801D00120F8BDE87D6F
:103B0000442821D12046FF30153010223146009044
:103B100008F086FE00210F26701A62180019FF3285
:103B2000FF3001320130137D077D491C1775C9B282
:103B300003750829F0D322462046DE32E63000998C
:103B400005F0AEFC5020E8750020F8BD70B5FFF719
:103B50006BFC050013D0FFF74DFC040011D020468C
:103B60000421203081710121C171B021C174002173
:103B7000C175204606F0B0F82046FFF7D1FD284673
:103B800070BD002070BD0000F8B50546FF3005305F
:103B90002E462F466036E0372C4620340090BAE09F
:103BA000C42802D0C22873D0B3E05D48C178C907E9
:103BB0006FD00021C170284604F048FF284603F06A
:103BC00063F8012866D1607C002802D1E07AC00643
:103BD00060D5307F80075DD4284605F097FE207BB6
:103BE00003F0D8F9B87D80070ED5207B00280BD0D4
:103BF0007A210120009A05F071FC002808D003F01A
:103C0000DFF8B020E074F8BD46485A21006801652D
:103C1000207B4549C000401802F01AFD80B203F035
:103C200063FAC220E074207B3A2872D93F480268C8
:103C30003F4881688902890E3E29FAD08168090CC3
:103C4000C94389060DD081688902890E332903D2C0
:103C50008168090C8906ECD103F0B2F8B020E07459
:103C600057E03021314BC943803319608168090C1A
:103C7000C9438906FAD081688902890E302904D3A4
:103C800081688902890E3329F0D32848026040E018
:103C90001EE017E0707F40070CD57A210120009AC2
:103CA00005F01CFC03F08CF83D212846FFF7AAFA2A
:103CB000F077F8BD03F084F8B020E074284606F0F1
:103CC00065FA26E08179012923D100218171C3E7BA
:103CD00013488178C90719D0B87DC0070BD02A4690
:103CE000FF320D327921002005F0EEFB002806D0CE
:103CF00003F066F803E00B48592100680165C42011
:103D0000E0747420405B03F0EFF902E08179002950
:103D1000DBD103F0FDF9E07CB02800D040E7F8BD2E
:103D200048530020684100201202000000E100E03A
:103D300000C2004070B50446FF202D3002F088FC20
:103D40002546403568868020005D298B4008401C50
:103D5000081802F05FFC064602F080FB1749801944
:103D6000884201D3494240182066688B02F052FC19
:103D7000E0662046FF30C430417B027B08021043DE
:103D800002F066FC698E49004018A8860C4844621F
:103D90000C4802F03BFD00217F200155204605F034
:103DA000ABFAE88B0005010C204605F027FBA08C40
:103DB0000122802100F02CFC70BD00000000C0A892
:103DC000C85300203C42002010B50146203101229A
:103DD0000C460A734168002909D00A228A707D21A5
:103DE000490205F017FB7220E075002010BD01208C
:103DF00010BD0146012220310A734068002805D019
:103E00000B2282707420C875002070470120704713
:103E1000014610B5203101230A460B734168002981
:103E200009D012238B70A221D1757D21490205F0A2
:103E3000F1FA002010BD012010BD01222C210A54EE
:103E40004068002803D013218170002070470120B2
:103E50007047000070B50C460146200412D5084694
:103E600008F0D4FD05000AD02878802801D08128E8
:103E700002D1284600F078F8284608F0A5FD012078
:103E8000C00369E0600703D5FFF7A2F8042063E0F0
:103E9000200705D5FEF7F2FE20460821484070BDF8
:103EA000E00603D5FEF76AFF102055E0200603D593
:103EB00000F040FE80204FE0600603D500F0FCFDDE
:103EC000402049E0E00506D500F092FD002837D1FA
:103ED000FF20013040E0200504D5FFF73FFD012021
:103EE000C00239E0600504D5FFF7FAFC012080022A
:103EF00032E0E00406D5FFF793FC002820D1012032
:103F0000000329E0A004164D00281BDA1548006BB9
:103F1000002801D0FEF7E6FD114880384078C00740
:103F20000ED00F48032210304178491D1143405CE8
:103F3000C00602D42889401C2881287900F0CAFADA
:103F4000204670BD600409D5EB79AA796979287992
:103F500001F08AFA01208003604070BD002070BD2E
:103F6000C853002000530020F0B5017800268DB022
:103F7000802902D081297DD034E2FF4C417825464A
:103F80008035062977D006DC0B0002F08DFC061187
:103F900038F2F1F0EFEE09296ED004DC07296CD07D
:103FA0000829E9D1EFE1812968D08229E4D107E12C
:103FB0004088FFF71FFA04007ED0A06900281AD0BD
:103FC000036882790179A08C9B1CFEF7A8F9A0698F
:103FD0008168A16101F010FB21464031888A0028E8
:103FE00001D0401E8882A069002805D0A08C002244
:103FF000802100F00DFB5AE22034667257E24088BF
:10400000FFF7F8F90700D7D02720C05D022839D084
:10401000ED69002DD0D0607E800778D53E20405DD0
:10402000022875D00622002107A808F0B1FC2C4612
:104030004034A07B02286CD00622002109A808F099
:10404000A7FC2946062250310BA808F0E9FB3846A8
:104050004030C18B828B408B059104920390069671
:1040600009A807A90BAA009201910290B98CE37BE1
:10407000603704E0A3E14CE193E15FE18DE0F87F7C
:104080000022AEE06D69002D96D0607E800741D59C
:104090002C466034207B022814D00622002107A879
:1040A00008F076FC607F022813D3294606227E3171
:1040B00009A808F0B5FB00E0EBE0A96E06220BA80A
:1040C000091D0FE0294606226E3107A808F0A8FB5B
:1040D000E8E70622002109A808F05AFC2946062232
:1040E0007E310BA808F09CFB38464030C37CC28B65
:1040F000818B408B03AD0FC509AA07A90BA86B469E
:1041000007C3B98C6037637FF87F012269E031E033
:1041100012E018E038464030C37CC28B818B408B64
:1041200001AC0FC428467E3000906035B98C6037F2
:104130006B7FF87F012263E029460622403107A801
:1041400008F06EFB73E729460622503109A808F0F3
:1041500067FB296E06220BA8091D08F061FB286E7B
:104160000221C0780843E07371E73BE1BFE0A5E0BE
:1041700093E048E038464030C18B828B408B019001
:104180002846503004960292039100904035B98C35
:104190006037EB7BF87F002232E0E869002878D0B6
:1041A000818C428C038F0391014650310292009121
:1041B0000496019340300022C37B114602201FE089
:1041C00068690028EBD0617E89070DD5002305962C
:1041D000069603960496009601961A4619463C20C8
:1041E0000296FEF727F862E10146763100910196CA
:1041F0000296039660300496437D002211463C20CF
:10420000FDF7F2FF53E1A869046B2EE02079002846
:104210000AD001280AD0022815D0062815D0042873
:1042200015D0012F03D013E0002711E00127A86962
:10423000807E80070CD5237B002B09D0A07C8009D1
:1042400001281AD004E0032702E0022700E0042737
:10425000342108572146143101900091E37C6179A3
:10426000A21D78B2FDF7AFFF2468002CCED1A8695B
:10427000817F00290ED0066319E1342108572146B9
:104280000D31019000916179A21D0120FDF7C9FF58
:10429000EAE773E006F070FA09E14088FFF7AAF850
:1042A00000286BD0014680318A8900924B890A89A7
:1042B000818C6030C07FFDF7A4FFF8E04088FFF7F5
:1042C00099F800285AD02721095C0229818C08D04E
:1042D0007F22135C0246FF329D321846FDF7D2FF63
:1042E000E5E07F22135C0246FF329532F5E7408815
:1042F000FFF780F8002841D00146C1314A7809789B
:1043000012020A43838C0146B9311846FDF7A6FF15
:10431000CDE04088FFF76EF804002FD020468030B3
:10432000818900914389C28C818CA08CFDF7B6FFF6
:104330002034207E042108432076B8E04088FFF72F
:1043400059F800281AD00146FF31C4314B7B0A4688
:104350000C7B1902214300910146FF31C2314B7B96
:104360000C7B1B022343547C157C22022A434C7C89
:104370000D7C2102294302E0485300207CE0808C20
:10438000FDF749FF93E04088FFF734F8002873D029
:10439000818CCAB20146FF3135311046FDF76EFF00
:1043A00085E04088FFF726F800287BD07F210A5C53
:1043B0000146FF3175311046FDF74CFF77E041783B
:1043C0001A295AD008DC05290FD008291DD00C293C
:1043D0002DD0132906D13EE0302958D0572963D07B
:1043E000FF2964D001200DB0F0BD4088FFF702F82E
:1043F000040057D020466030827FA18CC07FFDF73B
:10440000D6FE2046FEF7C0FE51E04088FEF7F2FFE0
:10441000002847D0F621095C002901D0012200E0E4
:104420000022818C6030C07FFDF7C5FE3FE04088F0
:10443000FEF7E0FF002835D00146FF3181314A8E7A
:1044400000920B8EFF21B0310A5C818C6030C07FFE
:10445000FDF75FFF2BE04088FEF7CCFF002821D05E
:1044600001464031CA8A0C46002A20D0818C0120A6
:10447000FDF747FFE6821AE014E04088FEF7BAFF36
:1044800000280FD06030C07FFDF789FE0FE0408824
:10449000FEF7B0FF002805D0818C6030C07FFDF7AB
:1044A0008EFE04E002209EE74088FDF76FFE0020AC
:1044B00099E70000064A0021531840331B7E037021
:1044C000491CC9B2401C0629F6D3002070470000E1
:1044D0004853002010B5002803D00B2803D8401EF5
:1044E00006E025200CE00C2804D0262804D8801EE5
:1044F000C0B205E0262003E0272801D0122010BD1D
:1045000002F03CFC002010BD02222C210A5441681C
:10451000002907D00D228A707F21095C4068C17094
:10452000002070470120704703232C221354426857
:10453000002A07D011239370D1706030C07F1071B2
:104540000020704701207047FFB581B017460E4626
:104550000B9DFEF74FFF04462B49B01F884250D2F7
:10456000491D8F424DD8B7424BD3FF220498F432F5
:10457000904246D80A98884243D8C1000498401C0B
:10458000704381423DDD002C3BD020462030017E2F
:104590004A072ED5FB2211400176C07901280AD0A6
:1045A0002046803005850C9941858684C784012189
:1045B0000903A06C1BE025468035288B13498842EF
:1045C00003D0E8805A20005B0CE0A88A0090002805
:1045D00006D001463846FCF7D3FC0099484301E079
:1045E000F0194008288101206871A06C042108435B
:1045F000A0648034049860810A98A081002005B0EE
:10460000F0BD1220FBE700007B0C0000FFFF000064
:1046100070B5064614460D46042008F0C1F90100A5
:1046200007D00D704C7004484E80407808F026FA90
:1046300070BD042070BD000050400020F7B50E484A
:1046400015466E46C46B0CE068464078E1788842B7
:1046500006D10622211DB01C08F0D4F8012804D090
:10466000E46B002CF0D10020FEBD204629461A3014
:1046700005F004FFFEBD0000C8530020F7B50E484A
:1046800015466E46C46B0CE068464078E178884277
:1046900006D10622211DB01C08F0B4F8012804D070
:1046A000E46B002CF0D10020FEBD204629462A30C4
:1046B00005F0E4FEFEBD0000C853002010B504491B
:1046C000002008762039C863FEF7C0FA10BD00004C
:1046D000E853002070B505460848C46B07E0204643
:1046E000A91C1A3005F0CAFE012804D0E46B002C86
:1046F000F5D1002070BD204670BD0000C8530020D9
:1047000070B505460B48C46B0DE06878E178C007CA
:10471000C00F884206D10622211DA81C08F072F89D
:10472000012804D0E46B002CEFD1002070BD20469E
:1047300070BD0000C853002070B505460848C46B22
:1047400007E02046A91C2A3005F098FE012804D075
:10475000E46B002CF5D1002070BD204670BD000038
:10476000C8530020F8B58168324C0A79CB78120220
:104770001A43CD1C931FA34227D28C794E79240271
:10478000344319264B1CF601B4421ED894421CD364
:104790006F792E793F023743FF26F436BE46B74283
:1047A00013D85F7A1E7A3F0237431926F601BC46BA
:1047B000B7420AD87646761C5643FF00BE4204DA5A
:1047C000CE7A002E03D0A64201D91E20F8BD0026C5
:1047D0000096064640363746768B964209D1A64269
:1047E00007D1BC8B744504D1FE8B664501D10124F1
:1047F000009404468034A2845A791E79120232430E
:10480000E2846A792D7912022A4362815A7A1B7AEC
:1048100012021A43A281CA7AA2824A7B0B7B12023D
:104820001A43E2820C2298300E3107F0F9FF00980B
:10483000F8BD00007B0C0000F8B581680A79CD78DE
:1048400013022B43264DCC1C9A1FAA4226D28D79E7
:104850004E792D02354319264A1CF601B5421DD862
:104860009D421BD3677926793F023743FF26F436F2
:10487000BC46B74212D8567A177A36023E431927F9
:10488000FF01BE420AD867467F1C5F43F600B7426D
:1048900004DCCE7A002E03D0AE4201D91E20F8BD32
:1048A00005468035AB84537916791B023343EB847C
:1048B000637924791B0223436B81537A147A1A0299
:1048C0002243AA81CA7AAA824A7B0B7B12021A432C
:1048D000EA820C2298300E3107F0A2FF0020F8BDCA
:1048E0007B0C000070B58368DA1C197914460A0243
:1048F000DD780146FF312A43C1314A805A1C9B7939
:1049000015791B022B438B80637924791B02234387
:10491000CB80537A147A1A0222430A8104F083FC72
:1049200070BD8168FF22CB78B03213544A790B797D
:104930001202FF301A4381300286CA798B79110244
:10494000194341867047000010B51221542007F02A
:1049500083FF040010D05422002108F019F8074901
:1049600000208C616076E07320752085E062206312
:10497000C86860600869A060204610BDC853002068
:1049800010B5164884693520015D144880693630B9
:10499000002902D0012904D011E01049062228394B
:1049A0000BE00E498039896F002903D00B4906229C
:1049B000223902E0094906221C3907F031FF0120A3
:1049C00060760221A173E07620770548228C40783A
:1049D000402108F0A1F9002010BD0000C8530020BC
:1049E000504000200148002181617047C8530020D9
:1049F000F8B52D48982203468469803BD258217D22
:104A000059262A4F18781532A42904D0A1291DD07F
:104A1000A3293BD044E0C00712D001250021A068A3
:104A200002F0CCF8002803D1204605F0B5FE05467B
:104A300002F0C6F9002D21D1204605F06DFD1DE0E4
:104A4000987901282CD1A120207529E0C00727D012
:104A500001250021A06802F0B1F8002803D120460A
:104A600005F09AFE0546280601D402F0A9F9680768
:104A700002D1204605F050FD280611D4386806659D
:104A8000E27B0B490B4802F01DF909E05878002839
:104A900006D0A420207500209871142002F024FB79
:104AA00002F036FB207DF8BDC8530020684100208D
:104AB00055555500D6BE898E70B51348134D84697F
:104AC0006878228C402108F027F9A28C6878802130
:104AD00008F022F9FF216878013108F093F804F01A
:104AE00007FD2520E073207DAF2801D002F068F992
:104AF0000749592009680865E27B0649064802F023
:104B0000E1F8A120207570BDC8530020504000205E
:104B10006841002055555500D6BE898E10B5044811
:104B2000846902F04DF9204605F0BAFE10BD000080
:104B3000C853002070B51248124D8469E07B2728C5
:104B40000CD2401CC0B2E073A121217504F0B8FC66
:104B5000A28C6878802108F0DFF870BD02F030F98F
:104B6000AF2020756878802108F01EF9E06A0028DF
:104B7000F3D0A08902228021FFF74AFD70BD00001A
:104B8000C8530020504000200146002220310A7303
:104B9000CA7A0123920892001A43CA724068002818
:104BA00001D00020704701207047FFB581B01F463B
:104BB0001646FEF71FFC0446FF30C2300090417CD1
:104BC000027C08021043B04201D2C5B200E0354673
:104BD00028461B210E3007F03FFE00282FD0E16849
:104BE000002922D02169886020616169491C6161C6
:104BF0000021816021690C30086020692A46C58047
:104C0000216901204871216902980871206939469B
:104C10000068801C07F004FE701B0606360E08D0E4
:104C20007F19012002900098C9E7E060012120610E
:104C3000DDE7384607F04EFE002005B0F0BD02204B
:104C4000FBE7000070B5014620310A46097B114C94
:104C5000491D114D8908E3682D6A8E009D51127A15
:104C6000002A02D0C268126800E04268491E20CAC9
:104C7000090420C3090CF9D1E26823301168090C3A
:104C800009041160437AE268047A18022043014360
:104C9000116070BDC853002000530020F8B538499A
:104CA00000284C6902D0012809D067E0002C65D0AB
:104CB000A07C002862D0FEF797F90020F8BD0127FC
:104CC000FF020025002C13D1FEF70EF8040025D0BA
:104CD00027832046678320300571072141716D20AD
:104CE000055527492046062228396E3007F098FDE1
:104CF000A07C012842D02646203630790107090FD2
:104D0000A17301280CD0208B628B801840080122EF
:104D10009203A08390420DD9A28316E00320F8BD30
:104D20000620A0831748E58340783A46102107F013
:104D3000F3FF0FE0022904D0062902D020280FD368
:104D400002E0A02800D2A020A0831021002001F0C2
:104D50006EFFE0837079072804D02584208C09E059
:104D60002020F1E7A08B53214843000A208410281B
:104D7000F4D310202084FEF70BF8F8BD1220F8BD04
:104D8000C85300205040002070B504460B480D4623
:104D90004069002803D1FDF7A7FF00280BD0E206E9
:104DA000D20E26210A54002C03D02946283007F0C1
:104DB00037FD002070BD032070BD0000C8530020E7
:104DC000FFB50746284881B044690B9D1646002C64
:104DD00003D1FDF789FF040016D027830298012133
:104DE00000226083012E12D0022E13D0032E13D086
:104DF000042E13D02420025520466030049B4373B8
:104E00002B78002B1DD10DE0032005B0F0BD242030
:104E10000155F1E7062302E0022300E011232420DC
:104E20000355E9E76B78002B0BD1AB78002B08D149
:104E3000EB78002B05D12B79002B02D16B79002B5D
:104E400009D001750A994175204606222946763017
:104E500007F0E6FC00E0027525210C9808550D9836
:104E6000E0740020D1E70000C853002010B5040012
:104E700026D01D4A5369002B02D0987C00280BD104
:104E80009369002B02D0587E002805D1D0690028F4
:104E900004D0407D002801D00C2010BD1249012013
:104EA00080398867104806222146223807F0B8FC6E
:104EB00061798809032805D0890908D001280BD019
:104EC000122010BD0848062221461C3808E006487A
:104ED00006222146163803E00348062221461038F0
:104EE00007F09EFC002010BDC853002010B50C46F2
:104EF0001D4900288A6902D0012805D00CE0002A4B
:104F00000AD0FFF70BFE2CE0002A07D01046427EA5
:104F1000012A01D0002A0FD0122010BDFFF714FD86
:104F2000002807D000210176102202844284352215
:104F30001154ECE7032010BD028C012189038A4241
:104F400000D90184428C018C8A4200D94184418C71
:104F500055225143090A8184017E01748477FFF749
:104F60000FFD002010BD0000C8530020F8B5074613
:104F70000E481E46806915460C46002804D0417E26
:104F8000002905D00C20F8BDFFF7DEFC00280BD06F
:104F900007760484A54200D22C46448435210E5461
:104FA000069981760020F8BD0320F8BDC853002083
:104FB00070B505460A480C464069002803D1FDF744
:104FC00093FE002809D0EA06D20E27210A54214672
:104FD000483007F025FC002070BD032070BD0000A4
:104FE000C853002070B5FEF71FFA050013D0FEF776
:104FF00001FA040011D020460421203081710221E1
:10500000C171B021C1740121C175204605F0BCFEFB
:105010002046FEF785FB284670BD012070BD70B5A7
:10502000054609212035044629734068002812D01E
:105030000E21817021466068FF3108229D31C01C1D
:1050400007F0EEFB7D214902204604F0E3F96220DF
:10505000E875002070BD012070BD0000F8B5054660
:105060000746E0302E46403760362C46203400900C
:10507000EAE0D12802D0D2287BD0E3E0754800785E
:10508000C00778D0284603F04FFD284605F022FCE3
:10509000207B04F00BFA207B002810D00098807D44
:1050A00080070CD5EA1DFD327A21002004F016FAA3
:1050B000002808D001F084FEB020E074F8BD6648F6
:1050C0005A2100680165207B3A2814D96348026898
:1050D000634881688902890E162911D08168890286
:1050E000890E1A2903D28168090C8906F1D101F0D1
:1050F00067FEB020E0745748017900290DD02CE0FC
:105100003021564BC9438033196081688902890E6A
:105110001A29FAD351480260EDE7007800061CD541
:10512000696EA86E401A798E4A00824202D8A27A2D
:10513000032A10D381420BD0814204D2411A286E37
:1051400001F052F903E0091A286E01F061F92866AE
:105150000020A07201E0521CA272207B5521C000E9
:10516000C900401801F071FA80B201F0BDFFD220F1
:1051700067E01EE0FFE737488179012962D100210D
:10518000817101F01DFEB020E07432480078000605
:1051900058D5788E398F4843143080B23886E96EFE
:1051A000CA08904202D94803010C398604F0A0F9DC
:1051B00048E02848417800293BD0607C002802D193
:1051C000E07AC00602D5307F40080AD001F0F8FD31
:1051D000707F400727D53D212846FEF713F8F0776A
:1051E000F8BD0098807DC00707D02A46FF320D32F7
:1051F0007921012004F068F903E01748592100687B
:105200000165D120E0742846FF30C430417B027B29
:1052100008024B211043C900401801F016FA80B271
:1052200001F062FF0EE0B020E074284605F092FF26
:1052300008E08179012905D10021817101F0C0FDCB
:10524000B020E07401F064FFE07CB02800D010E7EB
:10525000F8BD0000485300206841002000E100E054
:1052600000C2004070B50446C06E01F0F5F9254952
:105270002546898D403540186886288B401C01F0F2
:10528000B1F9698E461A01F0DBF81F49801988428E
:1052900001D3494240182066688B01F0A3F9E0660B
:1052A0002046FF30C430417B027B0802104301F0EE
:1052B000CCF9698E49004018A8868020005D01F075
:1052C00091F9A98E00264018A88620460121203099
:1052D0008176032181720D482E8604620C4801F00C
:1052E0009BFA7F200655204604F006F8E88B00055F
:1052F000010C204604F082F8A08C01228021FFF7E7
:1053000087F970BD005300200000C0A8C8530020DA
:10531000304200200146012220310A7340680028F3
:1053200005D0052282705220C875002070470120E8
:1053300070470146012220310A734068002805D0D9
:10534000062282705420C8750020704701207047E3
:10535000F8B51E4615460F46FEF74CF8040067D018
:105360002720005D012863D1204608223946B93044
:1053700007F056FA2046C1300570290A4170102204
:105380003146533007F04CFA00200F25291A221815
:105390000919FF32FF3101320131137D0E7D16757F
:1053A000401C0B750828F1D32046E030817D002990
:1053B00004D00121C1752021A06C37E007F002FC68
:1053C00002460020C3001146D9402318C033401CB8
:1053D000D9700428F6D307F0F5FB02460020C3007D
:1053E0001146D9402318C033401CD9710428F6D384
:1053F000214620460822C331E63007F011FA07F0B3
:10540000E1FB03460020C2001946D1402218C032F9
:10541000D172401C91770428F5D3214620460422FE
:10542000CB31DE3007F0FCF9A06C40210843A064CA
:105430000020F8BD10B50146203102220C460A7347
:10544000416800290DD08A707F22125CCA705E21EB
:10545000095A0905090C03F0DDFF3220E075002030
:1054600010BD072010BD0000FFB53C4C81B01646B2
:10547000051E03D00B2D03D8451E06E025250AE0A6
:105480000C2D04D0262D04D8851EEDB203E0262570
:1054900001E0272D0FD1002E10D0012E19D0022EA1
:1054A0001AD0032E1BD0042E24D0052E25D0062E74
:1054B00026D0072E27D0122005B0F0BD002704E02B
:1054C000FCF70CFAE11988707F1C02988742F7DB21
:1054D0001EE0F021029A18E0AA21029A15E00027A6
:1054E00004E0FCF7DFF9E11988707F1C029887421D
:1054F000F7DB0DE0FF21029A07E00021029A04E0A9
:105500000F21029A01E0029A5521A01C07F040FAEF
:105510003007000F207002986070029801F03AFD89
:1055200002980499401D80088000FF2908D021546A
:105530000021284601F038FD08488C38C07804E086
:10554000232121540121F4E700BF0028FCD00348A7
:105550000C380189491C01810020ADE7D45300209B
:1055600002232C2213544268002A05D0072393708B
:105570004068C17000207047012070470246062134
:10558000203211734168002912D00C20094B887019
:10559000988DC870D88D0871000A4871188E88716E
:1055A000000AC871907D4006400E9075002070473B
:1055B00007207047485300200248002141630186BC
:1055C00070470000C853002073B50A486D46446B0D
:1055D0000CE0694660784978884206D10622A91C09
:1055E000A01C07F00FF9012803D0A468002CF0D10B
:1055F00000207CBDC853002010B507F06BF910BD2A
:1056000070B53249304808600921C9018162826C55
:105610000721090703238A435B07D2188264836C3E
:105620000F2212030324934364031B198364836CC6
:10563000C40423438364C36C0C15A343C364436D48
:10564000802423434365C36B934322029A18C263A9
:10565000C36B0A119343A4041B19C363C36B840473
:10566000DB00DB081B19C363C36D0B43C365C36D4C
:105670000D122B43C365C36D0E133343C365C36D56
:105680009343C365C36AAB4365125B19C362C36AC4
:105690009343052212069A18C262C26A03231B03AF
:1056A0001A43C262C26A1B011A43C262026B120928
:1056B00012010263026BF0239A430263026B8A4376
:1056C0001119016370BD000000D000406C41002042
:1056D00014480068C268FF2101318A43C260826DAC
:1056E0000B029A43826542681A43426082681A43F9
:1056F0008260C2680A43C26001468031CA68D2052E
:10570000FCD500BF00BF00BFC968426809079A43C3
:105710004260826D0F23DB019A43490D0A43826583
:10572000704700006C41002010B51A480068016DF8
:1057300001231B049943016581685C012143816059
:10574000C26810210A43C260C2688A43C26000BFB7
:1057500000BF00BFC2680A43C26041680122120351
:105760001143416001468031CA69D205FCD500BFB2
:1057700000BF00BFC969026DC906C90E1A430265A0
:10578000026D520952010A4302658168A14381609A
:1057900010BD00006C410020F0B5FF4895B00568D1
:1057A0006868FF21013188436860A86A090188435D
:1057B000A862E86A10218843E862A8684A03104397
:1057C000A8606868084368606868400840006860CE
:1057D000A86BF24E0321304089034018A863686823
:1057E0000122104368602C46803420694001C10FBB
:1057F00020698001C00F0029F7D00028F5D020696A
:10580000830660699B0EC003400E049068684008E0
:1058100040006860A86B6321304049024018A863CB
:1058200068681043686020694001C10F20698001E9
:10583000C00F0029F7D00028F5D020698006800E1F
:1058400010906069C003400E0190686840084000F5
:105850006860A86B3321304089024018A8636868EB
:105860001043686020694001C10F20698001C00FAA
:105870000029F7D00028F5D020698006800E0E9010
:105880006069C003400E0790686840084000686087
:10589000A86BE721304009024018A86368681043EC
:1058A000686020694001C10F20698001C00F002994
:1058B000F7D00028F5D020698006800E0B90606933
:1058C000C003400E09906868400840006860A86BFB
:1058D000DD21304009024018A86368681043686001
:1058E00020694001C10F20698001C00F0029F7D055
:1058F0000028F5D020698006800E0D906069C003F5
:10590000400E13906868400840006860A86BD3217F
:10591000304009024018A863686810436860206935
:105920004001C10F20698001C00F0029F7D0002875
:10593000F5D020698006800E0A9060692721C00397
:10594000400E08900A981E1A272070430396FBF712
:105950002DFB0007216A000F090909010843206295
:10596000262070432721FBF721FB0007216A000E48
:10597000F027B94308432062252070432721FBF715
:1059800015FB0007226A000D39018A43104320628B
:10599000242070432721FBF709FB0007226A000C33
:1059A00039028A4310432062232070432721FBF7EA
:1059B000FDFA0007216A000B3A0391430843206275
:1059C000222070432721FBF7F1FA0007216A000A21
:1059D0003A04914308432062700130182721FBF7F5
:1059E000E5FA0007216A00093A059143084320625D
:1059F00070012721FBF7DAFA216A0007090109097A
:105A0000084320627001801B2721FBF7CFFA0007B3
:105A1000616A000F09090901084360621E20704392
:105A20002721FBF7C3FA0007616A000EB943084358
:105A300060621D2070432721FBF7B8FA0007616AF6
:105A4000000D3A019143084360621C2070432721F6
:105A5000FBF7ACFA0007616A000C3A029143084375
:105A600060621B2070432721FBF7A0FA0007010B9F
:105A7000606A3A0390430143616210990A98081AD8
:105A800006461A2100904843FBF790FA0007616A26
:105A9000000A3A04914308436062304619214843A2
:105AA0001A21FBF783FA0007616A00093A0591435E
:105AB000084360623046182148431A21FBF776FA02
:105AC000616A00070901090908436062304617212D
:105AD00048431A21FBF76AFA0007A16A000F090977
