:020000040000FA
:10000000008000208D0A0000950A0000970A000079
:1000100000000000000000000000000000000000E0
:10002000000000000000000000000000970A00002F
:100030000000000000000000990A00009B0A000078
:100040009D0A00009D0A00009D0A00009D0A000014
:1000500085240000D15300009D0A00009D0A000085
:100060009D0A00009D0A00009D0A00009D0A0000F4
:10007000D91600009D0A00009D0A00009D0A00009C
:100080009D0A00009D0A00009D0A00009D0A0000D4
:100090000348854601F0C6FB004800478F04000076
:1000A0000080002030B587B00446A84804700121C4
:1000B0000691642105910021049108210391029188
:1000C00000210191C821009106AA0121A04803F056
:1000D0005FF805AA02219E48401C03F059F89D4A8A
:1000E0001C216120C00003F053F89B4A0721984867
:1000F000801C03F04DF804AA01213120000103F017
:1001000047F803AA022192480C3003F041F802AAF2
:1001100002218F480D3003F03BF801AA02218C48E0
:100120000E3003F035F86A460221C520800003F046
:100130002FF88A4A1521002004F036FB5025294665
:10014000062003F06BFC2946072003F067FC2946D4
:10015000082003F063FC2946092003F05FFC00201F
:10016000069001210591049103910021029106AAB4
:1001700004218120C00002F06DFD05AA0121880242
:1001800002F068FD04AA01217148FD3002F062FD11
:1001900002AA01216E48FE3002F05CFD03AA012193
:1001A0006F4802F057FD0020C04304F0EDFA002034
:1001B000C04303F009FD00F08BF90020C04300F0BC
:1001C0000CFB0121069102210591032104910421D8
:1001D000039164A103C90291019006AA01210020A4
:1001E00000F061FB05AA0121084600F05CFB04AAAF
:1001F0000121022000F057FB03AA0121032000F097
:1002000052FB01AA0521042000F04DFB574800F0E5
:10021000FCFA01214D48007812F0FEFD07B030BD18
:1002200038B56946022000F085FB0446002C04D155
:100230006A460121032000F036FB38BD00BF00BF35
:1002400000BF704770B506460C460120C003204031
:10025000002810D03D48007812F0E2FC051E05D0C1
:100260002846FFF7EBFF284612F0B8FC2046012194
:10027000C903484070BDE007C00F002810D03C48BB
:1002800002F048FF3B4802F045FC1922920102218E
:100290002E48007812F06AFF204601214840E9E725
:1002A0000220204000280CD0192292010221274868
:1002B000007812F05BFFFFF7B3FF204602214840B1
:1002C000D8E70020D6E710B50446230009F0B4F9BA
:1002D0000821050915190D111D2127A009F084F920
:1002E00018E029A009F080F914E02BA009F07CF9AE
:1002F00010E02DA009F078F90CE032A009F074F9B3
:1003000008E034A009F070F904E036A009F06CF9B7
:1003100000E000BF00BF10BD38B50446002C02D07D
:10032000022C10D107E032A009F05EF969460020E6
:1003300000F000FB08E035A009F056F969460220FC
:1003400000F0F8FA00E000BF00BF38BD0040002018
:1003500005030000014000201D4000202440002033
:100360000604000001020304050000004C400020C8
:100370003C40002044400020496E697469616C690A
:100380007A65642E2E0A0000416476657274697382
:10039000696E672E2E0A0000436F6E6E656374658A
:1003A000642E2E0A00000000436F6E6E6563746554
:1003B00064204164766572746973696E672E2E0AD3
:1003C00000000000446973636F6E6E65637465645A
:1003D0002E2E0A0054696D6564204F75742E2E0A06
:1003E000000000004572726F722E2E0A000000009D
:1003F00070726F66696C65204368616E6765434221
:100400002043484152312E2E0A00000070726F6660
:10041000696C65204368616E6765434220434841CB
:1004200052332E2E0A00000010B500242046641C12
:1004300009F030F82046641C01F0C8F82046641C1E
:1004400005F048FE2046641C04F0F4FD2046641CC0
:1004500003F00EF92046641C03F078FF2046641C6C
:1004600008F0CAFD2046621CD4B202F049F92046C9
:10047000621CD4B203F0C8FB2046621CD4B202F066
:100480000DFD2046621CD4B2FFF70CFE10BD0D48D6
:10049000806A0121490208430A4988620321012038
:1004A000400200F0C9FD00F0AEFF074907A009F0C7
:1004B0009BF800F0FBFFFFF7B7FF01E009F016F82B
:1004C000FCE70000801000409C33010025730A0007
:1004D00010B5AA4B10221321A94803F089FD10BDC5
:1004E000F8B504460D4616460027002C05D12A46CD
:1004F0003146A44812F09EFA01E0022700BF00BF77
:100500003846F8BD70B504460D460026230009F0B4
:1005100093F809060C12181E242A30363C000822D3
:100520009849284612F086FA31E00D22964928466D
:1005300012F080FA2BE00E229449284612F07AFA43
:1005400025E012229249284612F074FA1FE0122286
:100550009049284612F06EFA19E012228E49284678
:1005600012F068FA13E012228C49284612F062FA5F
:100570000DE00E228A49284612F05CFA07E00722B5
:100580008849284612F056FA01E0022600BF00BF53
:10059000304670BDFFB583B00F461D460D9E0C9CC6
:1005A0000020029078680078796849780902084349
:1005B00001907D4A0198811A904268D00ADC7B49FB
:1005C000401800280FD0012822D0022835D0032857
:1005D00072D147E0012973D002296FD003296ED070
:1005E0002929F5D1ABE0082C02D3072002900EE0B8
:1005F0000820001BB04201D9304601E00820001B52
:1006000028802A885F480119059812F013FAB0E093
:100610000C2C02D3072002900EE00C20001BB042ED
:1006200001D9304601E00C20001B28802A8856485A
:100630000119059812F0FEF99BE00D2C02D307205A
:1006400002900EE00D20001BB04201D9304601E0BF
:100650000D20001B28802A884C480119059812F0AB
:10066000E9F986E0112C02D3072002900EE0112058
:10067000001BB04201D9304601E01120001B288048
:100680002A8843480119059812F0D4F971E0112C19
:1006900002D3072002900EE01120001BB04201D9C6
:1006A000304601E01120001B28802A8839480119B2
:1006B000059812F0BFF95CE056E001E015E029E092
:1006C000112C02D3072002900EE01120001BB04233
:1006D00001D9304601E01120001B28802A882E48CD
:1006E0000119059812F0A6F943E0112C02D3072056
:1006F00002900EE01120001BB04201D9304601E00B
:100700001120001B28802A8824480119059812F01E
:1007100091F92EE00E2C02D3072002900EE00E205D
:10072000001BB04201D9304601E00E20001B28809A
:100730002A881B480119059812F07CF919E0072C4A
:1007400002D3072002900EE00720001BB04201D91F
:10075000304601E00720001B28802A881148011933
:10076000059812F067F904E0002028800A20029022
:1007700000BF00BF029807B0F0BD0000C8410020D4
:1007800098400020814000201433010021330100F3
:100790002F33010041330100533301006533010061
:1007A0007733010091400020272A0000DDD5FFFFAC
:1007B00070B505460C46A64885420DD0012C07D0E1
:1007C000022C09D1012128460DF0B2FE002803D1E8
:1007D000A049284603F042FA70BD70B504460025D2
:1007E0009C499B48401C03F039FA9B480DF06CFE75
:1007F000E007C00F002806D0984B1022112198481E
:1008000003F0F6FB0546284670BD0146002903D0DB
:1008100094480160002070471120FCE7FEB50C46AB
:1008200016461D46089F00200190207A102108409E
:10083000002801D00820FEBD002F01DD0B20FAE7C3
:100840002078022829D16068007861684978090217
:1008500008430090844900984018002806D00128D9
:1008600005D0032804D0042810D107E000BF00BF42
:1008700001202880E068007830700CE00520288096
:1008800005223046E16812F0D5F804E00020288007
:100890000A20019000BF00BF03E000202880012053
:1008A00001900198C7E7FEB506460C46154600279D
:1008B000330008F0C1FE05040C141C303A00012C72
:1008C00003D128786949087000E018272FE0012C2F
:1008D00003D128786649087000E0182727E0012C2A
:1008E00003D128786349087000E018271FE0012C25
:1008F0000FD12878604908706048FF211122584BB9
:1009000000920191029000225B49524803F0E4F901
:1009100000E018270BE0052C05D105222946584890
:1009200012F088F800E0182701E0022700BF00BF9E
:100930003846FEBD70B505460C4600262B0008F073
:100940007BFE0504080C10141A004848007820703B
:1009500013E04748007820700FE046480078207088
:100960000BE045480078207007E005224449204606
:1009700012F060F801E0022600BF00BF304670BDF3
:10098000FFB585B00C4615461E460E9F002004900C
:10099000FF200390207A20210840002802D0082060
:1009A00009B0F0BD207802283DD160680078616808
:1009B00049780902084302903249029840180028F9
:1009C00021D031494018002802D0022826D100E069
:1009D00000BF002F04D1012E04D00D20049001E0AF
:1009E0000B200490049800280CD1E068297801704D
:1009F0001E4AE168914202D10021039101E00221E7
:100A0000039100BF0DE0012033462A46214600979E
:100A10000190059803F03AF9049002E00A2004904E
:100A200000BF00BF01E0012004900398FF280DD013
:100A30000C480068002809D00A48006800680028AF
:100A400004D0084800680168039888470498A7E71D
:100A5000FEFF000038470020B10700004C43002093
:100A60003C420020D44100200F00FFFFD94100206C
:100A7000EC410020FF410020124200201D08000030
:100A800025420020FED6FFFF1129FFFF04488047C2
:100A900004480047FEE7FEE7FEE7FEE7FEE700004A
:100AA000A90A0000910000005720FA490870A82008
:100AB00008708820F74940390881704700B5030065
:100AC00008F0BAFD0D081A2C37414C56606A758043
:100AD0008B96A1005721EF4A1170A8211170ED49A2
:100AE0002039C97B04229143EA4A203AD173C821B4
:100AF000E84A403A118187E05721E64A1170A8215F
:100B00001170E4492039C97B04221143E14A203A9B
:100B1000D173C821DF4A403A118175E05721DD4A7F
:100B20001170A82111705121C900DA4A403A11818F
:100B30006AE05721D74A1170A8211170D649D54AC9
:100B4000403A118160E05721D24A1170A8211170FA
:100B500081218900CF4A403A118155E05721CD4A81
:100B60001170A82111708821CA4A403A11814BE0C6
:100B70005721C84A1170A82111700221C54A403A74
:100B8000118141E05721C34A1170A821117004213D
:100B9000C04A403A118137E05721BE4A1170A8215E
:100BA000117093218900BB4A403A11812CE05721F2
:100BB000B84A1170A8211170B7494D31B54A403A71
:100BC000118121E05721B34A1170A821117095219C
:100BD0008900B04A403A118116E05721AD4A1170A0
:100BE000A82111704B21C900AA4A403A11810BE09B
:100BF0005721A84A1170A8211170A7495C31A54A54
:100C0000403A118100E000BF00BF00BD5721A14A5A
:100C10001170A8211170002808D19E494039098916
:100C2000521591439B4A403A118108E09949403955
:100C30000989012252021143964A403A11817047B4
:100C40005721944A1170A8211170002808D19149A8
:100C50002039C97B042291438E4A203AD17307E0A0
:100C60008C492039C97B042211438A4A203AD17326
:100C70007047F8B504462246864E403E36890096B7
:100C800086495726834F3E70A8263E70824E814F7C
:100C9000403F3E8157267F4F3E70A8263E7001267A
:100CA000BE747F4B4DE000BF7A4EB67C02273E40BB
:100CB000002EF9D0774E308A00BF764EB67C0227E0
:100CC0003E40002EF9D100BF724EB67C02273E4056
:100CD000002EF9D06F4E308A57266E4F3E70A826F0
:100CE0003E7088420ADD6B4E203EB689B618694FC9
:100CF000203FBE811D46461AB3B209E0654E203E34
:100D0000B689B61A634F203FBE811D460E1AB3B294
:100D10009D4216DA57265F4F3E70A8263E708842E5
:100D200007DD5C4E203EB689B61A5A4F203FBE8181
:100D300006E0584E203EB689B618564F203FBE8179
:100D400000E0B0E700BF5726524F3E70A8263E7025
:100D5000504F403F009E3E8100264E4FBE74F8BD6E
:100D6000F0B500270026002422E0781C87B2254633
:100D70000320FFF77EFF474820388489A54206DD1F
:100D8000281B032801DC012007E0002005E0601B90
:100D9000032801DC012000E00020002802D0701CA4
:100DA00086B200E00026032E01DC052F00DD00E006
:100DB000DBE700BF002722E0781C87B22546012030
:100DC000FFF757FF334820388489A54206DD281BEA
:100DD000012801DC012007E0002005E0601B01285C
:100DE00001DC012000E00020002802D0701C86B247
:100DF00000E00026022E01DC052F00DD00E0DBE72D
:100E000000BFF0BDF7B584B00D4614461821049814
:100E100000F07EFC80B203901821049800F078FC6A
:100E2000E120C00041431E2068430818E10F091962
:100E30004910401887B20194E007C00F002802D083
:100E40000120C00300E0002002903E4631040298D9
:100E500001430E4657200F490870A82008700D491D
:100E60004039039848630B482038407C8021084370
:100E70000849203948740748403846630846407C92
:100E80004021084303492039487400200149087073
:100E900007B0F0BD4010004002020000C40900008D
:100EA000FFFF0000F0B585B004460D4616466048C9
:100EB000C06B8004800C03905D482030408B029012
:100EC0005B482030008B0190029841000122D20340
:100ED0000198904201DB012000E000200F18E12181
:100EE0000901384600F014FC0146182203985043CB
:100EF00008182060E1210901384600F009FC009142
:100F00003C21009800F004FC28803C21384600F089
:100F1000FFFB318005B0F0BD5721454A40321170CA
:100F2000A82111704249486341492031497C40223F
:100F300011433F4A20325174704700BF3C49886BCF
:100F4000896B8142FAD170475721394A403211707A
:100F5000A821117036492031497C17229143344A27
:100F6000203251741146497C102202431143304A09
:100F700020325174704700B50346FFF7DEFFC218F8
:100F800090B2002802D001200004121829488242A1
:100F900000D3121A5720264940310870A820087043
:100FA0002348426322482030407C202108432049C6
:100FB0002031487400BD014600200022002A01D0E3
:100FC00020221043CA07D20F002A01D0102210435A
:100FD0005722174B40331A70A8221A70144A203235
:100FE000527C8243124B20335A74704701460029C9
:100FF00005D10F482030007C8022104070470C48FB
:101000002030007C40221040F8E7002802D0012860
:101010000AD104E02021064A2032117405E0102193
:10102000034A2032117400E000BF00BF7047000087
:10103000001000400000C0A800B50B0008F0FCFA4A
:10104000050412202E3842009B4A526B82439A4B71
:101050005A631A46126B82431A631A46126A824313
:101060001A6230E0944A526B8243934B5A631A4699
:10107000126B02431A631A46126A82431A6222E012
:101080008D4A526B02438C4B5A631A46126B824351
:101090001A631A46126A82431A6214E0864A526B35
:1010A0008243854B5A631A46126A02431A620AE067
:1010B000814A526B0243804B5A631A46126A0243BA
:1010C0001A6200E000BF00BF00BD00B50B0008F0D1
:1010D000B3FA0504142434404C00774A4032526974
:1010E0008243754B40335A611A46126982431A6132
:1010F0001A46126882431A6038E06F4A40325269D9
:1011000082436D4B40335A611A46126902431A6199
:101110001A46126882431A6028E0674A40325269D0
:101120000243654B40335A611A46126982431A6181
:101130001A46126882431A6018E05F4A40325269C8
:1011400082435D4B40335A611A46126802431A606B
:101150000CE0594A403252690243574B40335A61BE
:101160001A46126802431A6000E000BF00BF00BDCB
:10117000002906D001290ED0022916D0032928D132
:101180001DE04D4A928A82434B4B9A821A46D26A9C
:101190000243DA621EE0484A928A8243464B9A82B0
:1011A0001A46926A02439A6214E0434A928A0243C0
:1011B000414B9A821A46D26A0243DA620AE03E4AF8
:1011C000928A02433C4B9A821A46926A02439A627E
:1011D00000E000BF00BF384B98831A46128A0243D2
:1011E0001A827047002906D0012911D002291CD08B
:1011F000032934D126E0304AD28A82432E4BDA8248
:101200002D4A4032D26802432B4B4033DA6027E04C
:10121000294AD28A8243284BDA82274A403292688E
:101220000243254B40339A601AE0234AD28A024394
:10123000214BDA82204A4032D26802431E4B4033AF
:10124000DA600DE01C4AD28A02431B4BDA821A4A4A
:10125000403292680243184B40339A6000E000BF6E
:1012600000BF154BD8831A46528A02435A827047F0
:10127000002807D0104A803A128B0A430E4B803B5D
:101280001A8306E00C4A803A128B8A430A4B803B51
:101290001A837047002807D0074A803A528B8A4346
:1012A000054B803B5A8306E0034A803A528B0A433F
:1012B000014B803B5A83704780100040014606294D
:1012C00004D14548007808221040704742484079D0
:1012D00001228A401040F8E757203F490870A820B3
:1012E000087008468079012108433B49887170479E
:1012F0003A49096801600021C943384A80321160C7
:1013000070473649086070473548806970475721F3
:10131000314A1170A8211170002806D1114689792F
:10132000042291432C4A917105E02B4989790422CA
:101330001143294A91710021274A117070475721A2
:10134000254A1170A8211170002806D1114689790B
:1013500002229143204A917105E01F4989790222B6
:1013600011431D4A917100211B4A1170704757208B
:1013700019490870A8200870084680791021084390
:101380001549887100200870704710B500210AE0E7
:10139000022201E000BF00BF1346541EA2B2002B80
:1013A000F8D14B1C99B28142F2DB10BD30B5044636
:1013B000002505E07D20C000FFF7E7FF681C85B22F
:1013C000A542F7DB30BD00BF064AD27A082AFBD01F
:1013D000044B1872704700004010004000E100E02C
:1013E00000E000E00034004070B5044621462D487E
:1013F00000F08EF905460A21681D00F089F90546BE
:1014000029498D8170BD10B5E1204002FFF7ECFF46
:101410008720254988700320C8704020487001202B
:10142000887310BD20498978C022914382011143FD
:101430001D4A9170704700280BD01B4A52780A430E
:10144000194B5A701A46127808231A43164B1A7011
:1014500004E0154A52788A43134B5A707047802033
:1014600011494870704710B50A4609E00E4BDB7A07
:10147000082B05D003780C4C2372401C531E9AB2E3
:10148000002AF3D110BD0146002005E0064A127A79
:101490000A70491C421C90B2034A927A002AF5D184
:1014A00070470000005A62020034004030B593B02B
:1014B000122266A16A4811F0AFFA002804D169A08F
:1014C00008F092F800BFFEE757206B490870A8208B
:1014D00008705120C00068494039088100206649E1
:1014E00008704822002101A811F05CFB63480190BC
:1014F000012000030290624803900198002804D064
:10150000012109030298884201D200BFFEE701A829
:1015100000F0DEFFC5B2002D04D05AA008F064F838
:1015200000BFFEE75C4C601E411C884200D90DE004
:10153000601E5A4948610F210020C04300F04EF858
:101540000020564988610720086100BF53480069A0
:101550000221884351490861514807F0B7FF13B091
:1015600030BD70B506460C460120C003204000285F
:101570000DD0304611F054FB0546002D02D0284610
:1015800011F02CFB20460121C903484070BDE00743
:10159000C00F002803D0204601214840F6E7012073
:1015A0008003204000280FD03EA008F01DF87D22C7
:1015B000D201012189033C48007811F0D7FD204673
:1015C000012189034840E1E70020DFE710B5044628
:1015D0003548047000F088F862B610BD10B50028D8
:1015E00019DA324A03071B0F083B9B089B00D258AD
:1015F0008307DC0EFF23A3409A430B071B0E8407CF
:10160000E40EA3401A43294B0407240F083CA40806
:10161000A4001A5118E0264A03231B02D21883089B
:101620009B00D2588307DC0EFF23A3409A430B078D
:101630001B0E8407E40EA3401A431D4B032424020F
:101640001B198408A4001A5110BD00004348353707
:10165000785F424C455F4C49425F56312E32000064
:101660009C330100686561642066696C6520657261
:10167000726F722E2E2E0A00401000404847002044
:1016800000EE03004C494220696E69742065727255
:101690006F722E2E2E0A0000FFFFFF0000E000E018
:1016A000091300002A200000584300201CED00E030
:1016B00000E100E081B2002902D0012109044018B4
:1016C0005721104A1170A82111700E494039486302
:1016D00000210D4A1160704730200A4920390874F2
:1016E000012009490860704710B5FFF739FB07482A
:1016F00007F0F2FE002211461046FFF783FB07F0C9
:1017000035FF10BD401000405C430020610D00001B
:1017100030B50B46014600202022012409E00D4689
:10172000D5409D4205D31D469540491B2546954011
:1017300040191546521E002DF1DC30BD70B5002455
:101740002546002801DA01244042002901DA01255A
:101750004942FFF7DDFFAC4200D04042002C00D0F0
:10176000494270BDF0B51FB486B0002000900190D2
:1017700002900698069980B204900798090C02041A
:101780000014114307900027089D099806913E46D2
:101790003C4603900398A9B20204000C03900498FD
:1017A0002D0C154348430021224600F018F8C719B4
:1017B000714110340E46402CECDB3846029A00F0A2
:1017C0000EF8009A019B80180090594102980191EF
:1017D000103002904028CCDB00980BB0F0BD10B563
:1017E000202A04DB0146203A9140002010BD9140A0
:1017F00020239C1A0346E3401943904010BD034642
:101800000B439B0703D009E008C9121F08C0042A34
:10181000FAD203E00B780370401C491C521EF9D227
:1018200070470000064C0125064E05E0E36807CC32
:101830002B430C3C98471034B442F7D3FEF72CFCF2
:10184000F43301001434010070B58C180578401C85
:101850006B075B0F01D10378401C2A1106D1027877
:10186000401C03E006780E70401C491C5B1EF9D139
:101870002B0705D40023521E0DD40B70491CFAE728
:101880000378401CCB1A921C03E01D780D70491C94
:101890005B1C521EF9D5A142D8D3002070BD0000B8
:1018A000F0B5504C23681D680626B5431D60467888
:1018B00005783602AD198678C77836043F06F619E2
:1018C000AD199D62467905793602AD198679C779D9
:1018D00036043F06F619AD19DD62467A057A3602FE
:1018E000AD19867AC77A36043F06F619AD191D631D
:1018F000467B057B3602AD19867BC07B360400062D
:101900003018281858634D7808782D0240198D78C2
:10191000CE782D043606AD19401998614D790879B5
:101920002D0240198D79CE792D043606AD19401956
:10193000D8614D7A087A2D0240198D7ACE7A2D041D
:101940003606AD19401918624D7B087B2D024019EF
:101950008D7BC97B2D0409066918401858625868A8
:101960000221884358605868012528435860186848
:101970002843186058688007FCD558688843586029
:101980009869107020688069000A5070206880692A
:10199000000C907020688069000ED0702068C169CA
:1019A0001171C169090A5171C169090C9171C1694B
:1019B000090ED171016A1172016A090A5172016A34
:1019C000090C9172016A090ED172416A1173416A60
:1019D000090A5173416A090C9173406A000ED07371
:1019E0000020F0BDB8460020024901480860704759
:1019F00000C30040B846002030B5264B1968C90521
:101A000017D50321196001210825491C1C68C9B29A
:101A10002C431C6006E01C68A40508D4491CC9B20C
:101A2000202904D81C68E405F5D50029EDD1002152
:101A300019601949136809680B6152684A61174AAD
:101A400013688B615368CB6193680B62D2684A62FA
:101A5000124B10331A688A625C68CC629C680C6313
:101A6000DB684B630D4B20331C688C605B68CB607C
:101A70000B682024C007A343800E03430B60086853
:101A8000402318430860886A904201D0012030BD8D
:101A9000002030BD80C30040B84600208064002094
:101AA000F0B5454B00241B681C601C615C618578A7
:101AB000C4782D026419457806782D043606AD19D0
:101AC00065193E4CAE46E5608679C5793602AD199A
:101AD0004679077936043F06F619AD19A560AC467C
:101AE000867AC57A3602AD19467A077A36043F06F9
:101AF000F619AD196560877BC67B3F02F619477BF7
:101B0000007B3F0400063818301820609861DD61C2
:101B100065461D6275465D624C780878240200199E
:101B20008C78CD7824042D06641906192348B44610
:101B3000103006604D790C792D0264198D79CE79BB
:101B40002D043606AD19651945604E7A0C7A3602B9
:101B5000A4198E7ACF7A36043F06F619A419846048
:101B60004F7B0E7B3F02F6198F7BC97B3F04090632
:101B7000791871186646C1609E62DD621C63596304
:101B800051781078090240189178D4780904240615
:101B900009190A4C401820342060557911792D021A
:101BA00049199579D2792D041206AA18891861600D
:101BB0009860D960F0BD0000B84600208064002025
:101BC00010B504F05DF9024902F03DFE002010BDA1
:101BD0000604000008B5002808D0002906D0002A15
:101BE00004D01088002801D0002008BD12206946CA
:101BF00008706A460121034802F021FE6946087810
:101C000008BD0000350C000008B503F053FC694620
:101C100008706A460121034802F011FE69460878FF
:101C200008BD00001120000008B503F0CBFE694696
:101C300008706A460121034802F001FE69460878EF
:101C400008BD000010200000FEB508AF70CF6F4641
:101C500070C703F0DDFE0446024902F0F4FD2046A1
:101C6000FEBD00001320000008B504F0F9F8694635
:101C700008706A460121024802F0E1FD002008BD1B
:101C80000E20000038B5044604F0ECFB69460870ED
:101C90004C70200A88706A460321024802F0CFFD8A
:101CA000002038BD1B20000038B5044604F0F0FBCE
:101CB000694608704C70200A88706A460321024801
:101CC00002F0BDFD002038BD1A2000000EB500A8AE
:101CD000013005F0C4F8694608706A4609210248D7
:101CE00002F0ADFD00200EBD1820000008B500A8D0
:101CF000013004F043FB694608706A46042103483A
:101D000002F09DFD6946087808BD00000220000031
:101D10007FB5044608A861C8009002960195204648
:101D200005F004F9694608734C73200A887303AA06
:101D30000321034802F083FD002004B070BD0000C1
:101D40002020000008B505F011FD694608706A46BC
:101D50000121034802F073FD6946087808BD0000C0
:101D60000820000008B505F08BFC694608706A463B
:101D70000121034802F063FD6946087808BD0000B0
:101D80000A200000F0B585B00AACF0CC03976F468E
:101D900070C705F007FD6946087404AA01210348CD
:101DA00002F04DFD6946087C05B0F0BD062000003C
:101DB00008B505F04DFD694608706A4601210348E3
:101DC00002F03DFD6946087808BD000005200000CE
:101DD00008B505F07DFD694608706A460121034893
:101DE00002F02DFD6946087808BD00000C200000B7
:101DF00008B505F0ADFD694608706A460121034843
:101E000002F01DFD6946087808BD000009200000A9
:101E100010B505F06DFF024902F015FD002010BD60
:101E2000192000001CB500A8013005F027F869460C
:101E300008706A460721034802F001FD69460878E8
:101E40001CBD00000910000038B500A9044603318C
:101E500005F024F8694608704C70200A88706A46BC
:101E60000421024802F0EBFC002038BD05140000FC
:101E700010B5D2B205F08BFB10BD0A7802708A78DB
:101E800042704A88120A82700979C1700420704732
:101E90000A7802700988090A417002207047088890
:101EA0008004000C70478A780270887801280888BE
:101EB00004D012214843401C80B270478000FAE7EA
:101EC0000A7802700A88120A42704888801C80B220
:101ED00070470A7802700A88120A42708A78827003
:101EE0004A88120AC2708888001D80B2704708882C
:101EF00070478A780270088849884843401C80B23D
:101F000070478A780270088849884843401C80B22C
:101F1000704708887047088870477FB515460446A3
:101F2000022901D0102903D1022B04D0102B02D09A
:101F3000002004B070BD994202D10A46294607E04C
:101F40001029694607D000F00DF81022694628468E
:101F500010F062FDEDE7104600F004F8102269462B
:101F60002046F5E770B50C4605000CD0002C0AD0D1
:101F700010220649204610F05DFD2878207368780D
:101F80006073012070BD002070BD0000E4330100CB
:101F900008B500220B4600920122024907F016FC08
:101FA00008BD00007B1E000008B50A88172A07D369
:101FB00000220B4600920322024907F007FC08BDED
:101FC000022008BD911E000008B500210B46192211
:101FD000009107F0FBFB08BD38B5054608880C46A4
:101FE00000280DD0606800280AD0012110F0D0FC34
:101FF0000090234607220349284607F0E7FB38BD37
:10200000022038BD9F1E000038B5054688780C4672
:10201000012801D0022810D1208800280DD0606846
:1020200000280AD0022110F0B3FC009023460522BC
:102030000349284607F0CAFB38BD022038BD00001E
:10204000A71E0000064910B5884202D102F0E0FF49
:1020500010BD0CF0FFF90028FAD1172010BD0000C8
:10206000FEFF000038B505464A6800200C46002AED
:1020700003D00321104610F08BFC009023461D2254
:102080000249284607F05DFB38BD0000C11E000074
:1020900038B505464A6800200C46002A03D00321C3
:1020A000104610F075FC009023461B22024928467A
:1020B00007F047FB38BD0000C11E00000098022B4E
:1020C00001D0042070475178127809021143018031
:1020D000002070470098012B01D004207047117830
:1020E00001700020704770B5049C1E461546062BF3
:1020F0001BD368782978000208432080E878A97803
:10210000000208436080022020710246291D601DE4
:1021100010F090FCB01F2081062E03D0AD1DE560AD
:10212000002070BD0020E060FAE7042070BD009838
:10213000042B01D004207047517813780902194309
:102140000180D178927809021143418000207047C4
:10215000F8B584890D46002C2BD08668377839066F
:1021600001D4002010E00D2C23D30C3CA4B2311973
:102170000091408823463246012107F083F8002869
:1021800001D0022000E0012079062870C90FBA06AC
:102190006970920EAA70641E2204120CAA8002D0EA
:1021A000761CAE6001E00022AA60022803D100295B
:1021B00001D00120F8BD0020F8BD10B50298042B15
:1021C00014D351781478090221430180D17894788E
:1021D000090221434180191F8180042B02D0121D66
:1021E000826001E000218160002010BD042010BD4C
:1021F0000098042B01D0042070475178137809020D
:1022000019430180D178927809021143418000205E
:10221000704710B502981146062B03D0142B03D03B
:10222000042010BD022200E0102202714A780B78CF
:1022300012021A430280CA788B7812021A43428033
:102240000279401D091D10F0F5FB002010BD00981B
:10225000D90706D1022B04D05908818002600020E2
:102260007047042070470098022B01D0042070476B
:10227000517812780902114301800020704710B58F
:10228000029C022B11D320726172507811780002E7
:1022900008432080981E6080022B02D0921C62604E
:1022A00001E000206060002010BD042010BD00008F
:1022B00038B5054688680C46002802D0052110F084
:1022C00067FB0090234617220249284607F07EFA52
:1022D00038BD0000D31E000038B5054648680C46DE
:1022E000002802D0012110F053FB009023460D225C
:1022F0000249284607F06AFA38BD0000EF1E0000C8
:1023000038B5054608880C4600280DD060680028BE
:102310000AD0022110F03CFB009023461122034911
:10232000284607F053FA38BD022038BDF31E0000DE
:1023300038B5054608880C4600280DD0606800288E
:102340000AD0022110F024FB009023460922034901
:10235000284607F03BFA38BD022038BD031F0000B5
:1023600038B5054648680C4600280AD0012110F00F
:102370000FFB009023460F220349284607F026FA58
:1023800038BD022038BD0000131F000038B50546D7
:102390004A6800200C46002A03D00121104610F0A4
:1023A000F7FA009023460B220249284607F00EFA5E
:1023B00038BD0000171F0000014908607047000089
:1023C000DC46002070B5054608480C46854205D01D
:1023D000172C03D302F01CFEA04201D2012070BDD5
:1023E000214628460CF0B4F870BD0000FEFF000046
:1023F00008B500210B461322009107F0E7F908BD4C
:102400000849074848600A78FF2A01D125220A7046
:10241000D1B2054A114301600449C162704700000E
:1024200000C10040BC46002080220801384E010057
:1024300030B58006094A800E094C107021684D683D
:10244000FF2301339D434D600649084351680860EE
:10245000206841681943416030BD0000BC4600203F
:10246000CC4600208022080180060449800E0870B6
:10247000034A49681043086070470000BC460020CA
:10248000C0220801024900204968886370470000A3
:10249000BC46002010B5FFF7A7FA00F0DFF802F005
:1024A0001DFF05F0BFFDFFF7ABFF084C5D20216865
:1024B000086505F083FE06F09FFC05F047FE05F079
:1024C00019FE21680020086510BD0000C8460020E4
:1024D00030B50446482200213A4810F063FB2068DA
:1024E00000280BD0374D28606068002808D068604D
:1024F000A068A860E068002804D005E0012030BD95
:10250000022030BD01204002E8602069012100283E
:1025100004D028616069002802D002E02961F9E74F
:102520001B206861A069002800D10A20A861E06929
:10253000002810D0E861206A00280ED08006800EA6
:102540002862E06B00280AD0E863606A002808D09F
:10255000E96B401807E0E961EDE71520F0E71E2080
:10256000F2E7E86B46306862A06A002800D0A862F3
:10257000E06A00280AD0E862206B002800D02863B7
:102580003920005D8009022802D008E00420F2E72B
:102590000C48214606223431343010F04BFA216CBD
:1025A000002907D0606C002804D0800002D529647F
:1025B000606C03E0044800782864044868640020E4
:1025C00030BD0000C05700207C400020504000205B
:1025D00070B500200E210B4B0124A4035A88154628
:1025E0002540CD405204120C0543E8B25604D50BE9
:1025F000F60F75401543491EC9B25D800629EDD816
:1026000070BD0000D046002070B5002008210A4BA4
:102610004C011A8815462540CD4005435200E8B2CA
:10262000550A56097540ED07ED0F1543491E090679
:102630001D80090EEDD170BDD046002000220AE0B9
:10264000022101E000BF00BF0B46491E89B2002BEA
:10265000F8D1521C92B28242F2D37047094908481D
:1026600008600949CA680261426109698161C16102
:10267000826841140A438260C2680A43C26070479C
:1026800000C00040C4460020885800200246FD20BB
:1026900008498C234B723F231B039A4205D24A60A0
:1026A000A6200872887A402250404A7A73231A4042
:1026B0004A72704700180040F8B500240E4F2646B5
:1026C0000E206043C5190622FF21284610F06AFA41
:1026D000A81D0622FF2110F065FA0848AE810655B4
:1026E000641CE4B2032CEBD3002010F0A7FB0349D9
:1026F000032014394873F8BD1464002038460020C4
:1027000010B50249C87307F0DFFD10BD2446002054
:10271000FFB58FB0054600200C900D900CAA2846FE
:1027200000F006FA434E0446032855D207F0ABFDED
:1027300005463078022819D0002000902A4621460C
:10274000129B119807F06AFC1422002101A810F0D6
:1027500029FA06202746474338462430C0B201AA4A
:10276000102110F0CDFB002802D014E00120E4E796
:102770001022FF2101A810F040F900280BD12537C5
:10278000F8B205AA042110F0BBFBE907C90F01AAA2
:10279000119801F053F97034E0B206AA182110F034
:1027A000AFFB002811D106A807F07FFD002406AF7B
:1027B000A000C0190188002903D08278119801F087
:1027C00075FC641CE4B2062CF2D3A80707D5F17B94
:1027D000119801F059FC02E01298082803D01298D1
:1027E000042813D022E0307802281FD10022294685
:1027F000119807F09FFBF069002817D04368002B61
:1028000014D000221146119898470FE03078022822
:102810000CD13079119A002800D00120717800295C
:1028200000D004210143104601F0D4F8002013B079
:10283000F0BD00002446002070B500F093FF002892
:1028400022D1124C0025207B012806D00F4E0024F7
:102850001436305D01280AD00DE007F04EFC0B481D
:10286000257303220021143010F09CF907E0204664
:1028700007F050FC3555641CE4B2032CE9D350201A
:1028800010F0E8FA07F020FD70BD0000244600209B
:1028900070B5264D0C4608040FD5E87B10F0C0F942
:1028A000050006D007F0A2FD002802D0284610F04F
:1028B00095F90120C003604070BDA0070BD5002131
:1028C000084607F09BFA02214C40002825D1E87BFE
:1028D00010F0A2FA1FE0E00721D0286A808807F0F4
:1028E000B7FD01214C40002817D0E86900280DD021
:1028F0004368002B0AD0286A002280889847E9693B
:10290000286A00224B68808803219847062010F02F
:10291000D7FA07F065FA204670BD0121D7E76007B6
:1029200002D50420484070BD002070BD2446002020
:102930007FB504468078754D801F030006F07CFE4D
:102940000AE1E4E4941B06DDE469A8E4E8690028F0
:1029500008D00668002E05D0637B227B6189E01CCD
:10296000B047D1E06189A86900F01CFF0028F8D0C9
:1029700060890121BBE060780026002830D1A07971
:10298000C0072DD0286A00282AD10E2200216846CF
:1029900010F008F96169002903D006226846103159
:1029A00007E0A0880BF0FCFC002870D0811D0622F7
:1029B000684610F03FF869468889A1794907C90F30
:1029C00008436946888107F051FB032801D1FFF7CE
:1029D00073FE2146684607F011FA002812D015262A
:1029E000E869002853D04368002B50D06278A08853
:1029F00001219847002E4AD0E969A0884B683246E9
:102A0000032171E00221E87B10F006FA002004B0F7
:102A100070BD6078062817D1A0880BF0C1FC0600B5
:102A200012D0A87A012804D0022808D003280BD19C
:102A300014E07179A088002207F07CFA04E0A188F4
:102A40003078052201F032F8E86900285CD043684C
:102A5000002B59D06278A088022145E0002211465F
:102A60002B4800F0F7F8EAE7E0780022211D00F09B
:102A70005FF8032848D20621484325302246C0B2D9
:102A80000C32042110F07CFA032010F019FA3BE01C
:102A90006879002802D0A088A97928E02878002841
:102AA000A08823D00BF07CFC06002DD0A07AC007B4
:102AB0000BD07079002808D0A189890505D46A4611
:102AC000B11D00F035F8002814D022467179A08895
:102AD000083207F02FFAE869002815D04368002B68
:102AE00012D00022A088114698470DE0052100F081
:102AF000CDFF09E0A0880321F9E7A08800F06EF976
:102B000002E0A088FFF798FE012080E7244600201D
:102B10000904000010B5054CE061E17B262000F0BF
:102B20007DFFE07B01F05EFA10BD0000244600202E
:102B3000F0B5032485B015460F46002807D00128BC
:102B400005D00326022810D0032847D120E00846EC
:102B500007F058FB0446032840D2002D3ED0062241
:102B6000394628460FF066FF38E01E4F00240091DA
:102B70000E206043C0190622801D00990FF04CFF03
:102B8000002823D1641CE4B2032CF1D334461DE0A9
:102B900000242046062148432330C0B26A46102153
:102BA00010F0AEF900280CD11022FF2168460FF07A
:102BB00024FF002805D13946684600F0E7FE0028CA
:102BC00004D0641CE4B2032CE3D3DFE7032C05D26A
:102BD000002D03D02946204607F03AFB204605B0D9
:102BE000F0BD00001464002070B50E46174915258D
:102BF000884212D1002432460221204607F04EFAC4
:102C0000002800D00025641CE4B2032CF3D3002E6E
:102C10001AD00F480BF03EFC16E00BF0C1FB04008D
:102C200011D060790022A11DFFF782FF032804D292
:102C30003246022107F032FA0025002E04D0204649
:102C400007F070FB00E01425284670BDFFFF000070
:102C500025A30000FEB5154601229202821A002427
:102C600001275B4E130006F0E7FC130B12171E251D
:102C70002C343B4048737A828AA896539DA4A800BE
:102C8000012973D12878022870D830709DE002297C
:102C90006CD12888308298E0012967D128780128F2
:102CA00064D8707091E001297ED1287804287BD8FF
:102CB000B0708AE0012977D12878012874D8F070A3
:102CC00083E0102970D11022294642480FF0B2FE4D
:102CD0007BE0012968D12878012865D8307174E03B
:102CE000012961D12878F0716FE004295CD13A495B
:102CF0002868884258D8B06167E0002954D100F0B4
:102D000031FD002801D037735FE007F0F6F919E0D4
:102D1000072949D10622691C684610F073F8287803
:102D200000226946FFF704FF054603280ED200F093
:102D300019FD002803D026481430475545E02846A1
:102D400007F0E8F9502010F085F821E002243CE07B
:102D5000012929D12878012826D8707135E0012968
:102D600022D1287809281FD8B0712EE01CE0012953
:102D70001AD12878C11F092916D8307225E00129F7
:102D800012D1F17A2878F07200291ED101281CD1C5
:102D900007F09AFA19E0012906D12878032803D808
:102DA000B07212E0012901D018240EE02878B07327
:102DB0000BE0002010F084F807E02728C6D2022993
:102DC000C4D1298800F02AFE04462046FEBD00003A
:102DD00024460020046400203F420F00FEB5064652
:102DE00000200190029030460BF0DAFA040015D072
:102DF000134F3878022811D0607901AAA11DFFF77E
:102E000097FE054603280AD207F03DFA0246012044
:102E1000009008232946304607F000F9FEBD3878B7
:102E2000002807D00128F9D161790022304607F047
:102E300081F8FEBD0521304600F028FEFEBD0000F1
:102E400024460020F8B50F4613491525164688423A
:102E50000DD1002432463946204607F06DFA00288D
:102E600000D00025641CE4B2032CF3D312E00BF075
:102E700097FA00280DD04379811D00221846FFF7EC
:102E800057FE032806D23246394607F055FA002588
:102E900000E014252846F8BDFFFF000010B51E49CC
:102EA000002408701D491E4A0C70611E118000F03C
:102EB00067FD1C4904200870102200211A480FF0F9
:102EC00071FE1022002119480FF06CFE18481B49B2
:102ED00004601848144A04701748047007200870EA
:102EE000174810210470022010F00AF80F4A102130
:102EF000032010F005F810220B4912480FF09AFD3C
:102F000010481022094910300FF094FD0421084A9E
:102F100008460FF0F5FF10BD4C4600205446002037
:102F20005C4600204D4600205D6400206D6400205A
:102F30007046002055460020564600205746002087
:102F400058460020E4630020FEB5444D0C460804BA
:102F50000CD528780FF064FE050004D008F0E6FADE
:102F600028460FF03BFE0120C00373E060040AD541
:102F700004213B4A084610F003F802200FF0A0FF9E
:102F80000120800366E03749E20701270878364EC2
:102F9000002A2FD0354A1278002A24D0052825D0BF
:102FA0003348694600780870324806220078487035
:102FB00000A8314902300FF03DFD304869460078E5
:102FC00008722F4800784872287800F061FB0028CA
:102FD00009D02449072008707168002903D00968C6
:102FE000002900D0884720467840FEBD032069466E
:102FF0000870E2E7A1070FD505280BD1214800880A
:1030000001F0F0FC20480288002A03D00221287831
:1030100010F0ACF802201DE0600704D5002008F095
:10302000CBFA042016E0200716D53078012802D00C
:1030300002280ED10BE01548009703881448028837
:10304000144801881448008800F028F801E000F0D6
:1030500089F808206040FEBD0020FEBD4C460020DF
:103060007046002054460020184600204F4600209D
:103070005546002056460020744600205746002042
:10308000584600205C4600205E4600206646002030
:1030900064460020624600206046002070B5164C51
:1030A000049D2478052C01D0142070BD134E841F7C
:1030B000B4421ED206291CD3B41DA14219D2FF2648
:1030C000F536B24215D20A2B13D3A34211D20C4CBF
:1030D00020800C4801800C4802800C480380284660
:1030E00008F06AFA0A480421007810F087F80020F6
:1030F00070BD182070BD0000544600207A0C0000FE
:10310000604600206246002064460020664600209B
:103110004C4600201CB50C490978002901D011202B
:103120001CBD002801D0094948600A4800900849A0
:103130000A48019101780A48074B0022007800F004
:1031400021FA00201CBD0000544600201846002033
:10315000704600206D6400205D6400204D46002014
:103160004C46002010B507480078052801D01220F1
:1031700010BD0548132201880448007800F096FC31
:1031800010BD0000544600205C4600204C46002044
:10319000F7B50D468649009816464218854F00241B
:1031A0003878397A130006F047FA1C0F151CF621FF
:1031B00041465A71787F8990F697A3AAB5C0C9F69F
:1031C000F6F6F6D4F6EAF1F6102D76D11022314655
:1031D00079486FE0102DF8D1774810223146103031
:1031E00068E0042D69D130687862DAE0012D64D19D
:1031F000FB783278FA70002B0AD0002A07D1022916
:1032000003D0062901D0042901D100F0FBF9C8E060
:10321000002A0AD0012905D0032903D0052901D0AD
:10322000042902D101210FF0F7FDBAE0022D44D1AB
:103230003088F881B5E01F2D3FD85E481F2200215D
:103240003A300FF0AFFC5B482A4631463A300FF077
:10325000F1FB584BBD703A332A46012112E01F2D75
:103260002BD855481F2200211F380FF09BFC5248D5
:103270002A4631461F380FF0DDFB4F4B3D711F3B97
:103280002A460021387800F057FC8FE0012D74D1D8
:103290003078042871D8787283E0012D6DD13078B0
:1032A00003286AD8B8727CE0062D66D14148062210
:1032B000314628300FF0BEFB73E05EE0012D5CD19B
:1032C0003078072859D8F8726BE0012D55D1307845
:1032D000032852D8387364E0022D4ED132887A82A6
:1032E000002A5ED005295CD102210FF03FFF58E093
:1032F000012D42D1307801283FD8787151E03088D3
:10330000022D3AD1062838D31921C901884234D870
:10331000B88246E03088022D2FD106282DD31921FE
:10332000C901884229D8F8823BE03088022D24D197
:10333000FF21F531884220D2388332E03088022DD7
:103340001BD10A2819D31921C901884215D87883BD
:1033500027E03178012D10D101290ED108210FF07D
:1033600043FB002801D016241BE0002008F024F9BC
:10337000042138780FF042FF13E0182411E0012DEA
:10338000FBD13078B8710CE000E004E0012DF4D1FD
:103390003078F87105E00098272801D2022D02D07C
:1033A00002242046FEBD318800F038FB0446F8E7D1
:1033B000FFFCFFFF4C4600205D640020F8B50E4680
:1033C000040049D020880AF0EBFF050042D02449D0
:1033D0000878022806D0012804D0287B082803D1C9
:1033E000002E01D0122438E01E4F7869002801D049
:1033F000112432E047212C200FF038FB786100289F
:1034000026D02C2200210FF0CDFB78692188418045
:103410001C22211D001D0FF00DFB7B69022018707E
:103420000F4822888178287B08280FD000201B1D98
:1034300005F0E0FE0446002E03D0314628460EF08B
:103440002FF9002C09D007F05BF906E00120EEE728
:10345000132402E0142400E002242046F8BD0000FA
:10346000D4460020A4430020FFB51F4881B0007857
:103470001E4617460D46022818D0012816D0002FE8
:1034800030D001980AF08CFF040029D0A06A0028EF
:1034900001D00FF029FB1C2138460FF0D7FAA062AB
:1034A000011E1BD0207B082803D00DE0122005B0A0
:1034B000F0BD002E08D0887E00900B4612330A8A99
:1034C00001980EF0E3FB00E000202179002D01D0EF
:1034D000062200E0042211432171E8E71320E6E709
:1034E0001420E4E70220E2E7D446002010B50548A6
:1034F0000078000701D5044800E0002007F09EFE98
:1035000010BD0000D4460020F846002070B51B4CCA
:1035100005460121207807F01DF9194801780A2095
:10352000014224D0204625700C3007F081FE6068EF
:1035300000281AD1207800281DD0000107210FF0A3
:1035400095FA6060002810D021780A0100210FF060
:1035500029FB0020FF222378616803E00401401C5E
:103560000A55C0B29842F9D305E0132070BD00207F
:10357000207007F05DFE002070BD0000E4460020D2
:10358000D4460020F8B50224079F1D46164601299F
:1035900006D002290BD0042911D008292FD11EE012
:1035A00000F0E4F804002AD100F038F927E000F038
:1035B000DDF8040023D13046FFF7A8FF1FE000F03C
:1035C000D5F804001BD13A462846069900F0E2F9E6
:1035D00000F024F900F00AF905F0C2FD0FE000F058
:1035E000C5F804000BD13A462846069900F0D2F9F6
:1035F0003046FFF78BFFFFF779FF05F00BFD204604
:10360000F8BD000070B5104C2168002919D0097868
:10361000814214D10D4D0221A8780FF0EFFD0C4826
:1036200000264680A87804210FF0E8FD094846717D
:10363000216803204870002001F0A3F970BD032029
:1036400070BD122070BD0000BC430020D446002095
:1036500000470020D0610020272801D3024870478E
:1036600002494000085A7047FFFF0000D243002083
:1036700010B5054AFF21D170044AD1709070052120
:1036800001F0C2FD10BD0000D0610020D446002032
:10369000FEB52E4D044628680F46002801D01120A3
:1036A000FEBD2B4E05213078084201D11220FEBD0F
:1036B00028494968002905D00978002902D0C007A7
:1036C00002D007E01020FEBD00F04CF82249097836
:1036D000884206D33878022803D0032801D0122468
:1036E00031E047210C200FF0C1F92860002829D0D3
:1036F0000470002141700A223946801C0FF09AF9AB
:10370000164DA878032806D008F016F904001AD040
:1037100006F0EAFF17E007F073F8694605F0F9FBD9
:10372000684607F031FC012028711D20FFF794FF47
:103730000006000E687106D0B078094A04210FF027
:1037400009FD00E013242046FEBD0000BC4300201C
:10375000D446002000470020C2450020D061002050
:103760000077010010B50AF07DFE10BD70B50E4661
:1037700005462022002109480FF014FA074C08489A
:10378000E570067001F024F9002803D000202070B5
:10379000122070BD0121217070BD0000D061002099
:1037A000D44600207FB504460D4608460AF0F8FDD1
:1037B000002817D00C48844212D2102200216846FB
:1037C0000FF0F0F969460C70200A4870200C8870E0
:1037D000200EC8702946684605F02CFC04B070BD68
:1037E0000220FBE71220F9E740420F0010B508481D
:1037F0000078400707D5074807F02CFD0020064950
:10380000C043C88010BD002007F024FD10BD00009B
:10381000D446002010470020D0610020F8B51E4C8F
:1038200000256068002802D00FF05EF96560E0684E
:10383000002802D00FF058F9E560184E05273078BF
:10384000384224D01448143007F0FEFC3078384257
:103850001BD0472120200FF009F96060002814D008
:10386000202200210FF09EF9472120200FF0FEF8C2
:10387000E060002805D0202200210FF093F90020FD
:10388000F8BD60680FF030F965601320F8BD0020C6
:1038900007F0DAFCF3E7000000470020D4460020E0
:1038A000FEB5344E344D0C4608041DD5B0780FF0EB
:1038B000B7F9070011D03878A22806D0F578384635
:1038C00007F0C4FB00280BD101E0ED78F7E7FF2DEE
:1038D00006D0394628460FF0DBF90120C00345E049
:1038E00038460FF07BF9F8E7E0070127234A002864
:1038F0000AD05068002804D04168002901D0002077
:10390000884720467840FEBD1C48A107C06808D5FE
:10391000002804D04168002901D0012088470220F6
:1039200024E0610724D5697900291ED0491E0906C3
:10393000090E697119D19169002907D02F710028EA
:1039400004D04168002901D0012088476946E86811
:1039500005F0DFFA684607F017FB1D20FFF77CFE35
:103960006871B07804210FF049FC04206040FEBD6E
:103970000020FEBDD4460020D0610020A4430020DA
:103980000149C87070470000D446002010B505F00A
:10399000C1FB10BD70B50E4C0B466261216105463E
:1039A000E0601022002118460FF027F8012803D10B
:1039B000102120690DF056FC1022002128460FF03E
:1039C0001CF8012803D11021E0680DF04BFC70BDFC
:1039D000D06100207FB50C4605460AF0E1FC0028C6
:1039E00015D0007B042802D0122004B070BD094815
:1039F0004069002800D0847D684621460EF06EF9AB
:103A0000054B6A46022128460EF0FAF8EDE714202D
:103A1000EBE70000A4430020DD210100272802D2AB
:103A2000044A914201D102207047034A40001152DA
:103A300000207047FFFF0000D243002070B50E4603
:103A4000114915460B78022B17D0012B15D0002DEC
:103A500017D00AF0A5FC040011D0002E03D0207965
:103A600002210843207120461022294614300EF00E
:103A7000E1FF28696062002070BD122070BD142033
:103A800070BD022070BD0000D446002038B50C4641
:103A900005460AF085FC002806D068460470694691
:103AA00028460EF09DF838BD142038BDF8B50C46F8
:103AB0001746204905461E4A12268868944208D1B6
:103AC000002833D00268002A30D02146284690478B
:103AD000F8BD174A521C944219D1002808D0026838
:103AE000144E002A04D0214628469047002806D0CC
:103AF0003946284606F04AF9060004D016E07570EB
:103B000037700020F8BD0B48457007700EE0204666
:103B10000AF046FC002809D00078A84201D0032012
:103B2000F8BD3946204600F096FEF8BD3046F8BD97
:103B3000FEFF0000A443002070B51446204A1E4634
:103B4000127805231A4223D01E4D002901D06A683D
:103B500000E0EA68002A1BD0202C2ED2002C01D0D5
:103B6000002E2AD02870002914D068681F22002156
:103B7000401C0FF017F8686822463146401C0EF0D2
:103B800059FF696820460C70491C00F0F6FE70BDB4
:103B9000122070BDE8681F220021401C0FF002F8BF
:103BA000E86822463146401C0EF044FFE968204692
:103BB0000C70491C00F0FCFE70BD022070BD0000BE
:103BC000D446002000470020014610B50020C90758
:103BD00006D0044B102218460421403800F008FAA1
:103BE00010BD00009845002010B5002308E01C011E
:103BF0002418E468944202D11901081810BD5B1C16
:103C00008B42F4DB002010BDF8B5104E114FB070A0
:103C10000F49384600F022F800220D481346D238EA
:103C200094010753002124180C254D436519AB80DE
:103C3000491CEB600529F7DB521C032AF0DBB07846
:103C4000307005480AF040FCF8BD0000E444002054
:103C5000F2620020FFFF0000B9C0000070B50A4CFE
:103C60000025A04208D1002082008C525218401C2E
:103C700095700328F8DB70BD08F0EFF90028FAD042
:103C80000480857070BD0000FFFF0000F8B50E468F
:103C90000746069900240798002902D00B242046E5
:103CA000F8BD022B01D00D24F9E7517812780D02EE
:103CB00015432946814301D08024F0E73846F16856
:103CC00000F088F9A842EAD02A463846F16800F0A8
:103CD00035FA0446E3E70000FFB583B003980025FA
:103CE0000E9F00283AD00498002837D00698002864
:103CF00034D0002F32D000260398B1000C18218850
:103D00001748814224D0A078002821D0049A0C9929
:103D10000698FFF769FF0290002819D0A078C00725
:103D200009D00D980090019720880121029B059AE7
:103D300008F014FF0543A078800709D50D9800907E
:103D4000019720880221029B059A08F007FF05438E
:103D5000761C032ED0DB284607B0F0BD0220FBE71F
:103D6000FFFF000070B50D4608041AD50E48807894
:103D70000EF056FF04000FD02078B02809D120465D
:103D800008F02EFB002804D020462179083000F0EE
:103D9000F3FC20460EF022FF01212846C9034840CB
:103DA00070BD002070BD0000E4440020FFB585B068
:103DB00000200F9F0090087A0E9D1C460E46C006FC
:103DC0000BD5079808F042F903007DD00A2231464E
:103DD000059898470090002816D13078022815D011
:103DE000079808F059F90028EFD0006884460028A9
:103DF000EBD01199109822460097029101902B4622
:103E0000314664460598A04709B0F0BD7068292284
:103E100041780078090201431202881A91427CD04D
:103E20000BDC6948081A13D0012811D0022817D0DA
:103E30000328D5D1002F53D09BE001287ED0022843
:103E40006DD0032877D00428CAD1002F68D090E025
:103E5000002F6FD1F068017829800278416884E0F2
:103E6000002F67D1F068417800780F0207430420E3
:103E70002880F06804A900782070F06840786070AD
:103E8000384600F087F9060022D06846028A03AB64
:103E90004E493046F76800F0DBF900280AD1337844
:103EA00002214B487268FEF738F8002802D14748D3
:103EB00069468881387802280CD10222201D796851
:103EC0000EF0B8FD288800E07CE0801C288001E02E
:103ED0006846878168468089A070000AE0706FE0BC
:103EE00001202880F0680021007820707089401C33
:103EF00080B200F04FF9002813D029880278891881
:103F0000891C2980817A61704189090AA17002782F
:103F10004168E01C0EF08EFD52E00CE00EE026E061
:103F20003BE028880422001D28800021601C0EF040
:103F300039FE45E01DE0002F27D01AE0F0680FF0B1
:103F40006EF980B2B84201D207205DE7874201D105
:103F5000002006E01099C919814201D3C01B00E07E
:103F60001098288082B2F068C1192046D2E7002F4D
:103F700001D00B2048E7F168059800F02BF80221EA
:103F800029802070000A60701AE002202880F06802
:103F900000782070F0684078F5E70721F068298004
:103FA00001782170417861708178A1704188090A97
:103FB000E1700179217181796171C088000AA07175
:103FC000009821E70E201FE700280000FFFF0000F7
:103FD000BE33010010B508F040F8002800D080780A
:103FE00010BD00000149487070470000E444002003
:103FF0007CB51E4605001CD0684601808270019584
:1040000000F032FA04001FD1002E1DD0688900286C
:104010000FD047210C200EF029FD002813D00021DD
:10402000016069898180094A8660D168002903D1CD
:1040300007E002207CBD11460A68002AFBD1086017
:1040400002E0D06000E0132420467CBDE444002060
:10405000F8B50C4C0746607815460E46FF280FD081
:104060000A200EF0A7FD01000AD0B12008704F8091
:10407000002048700871CE800D8160780EF008FE37
:10408000F8BD0000E444002070B50C460546064922
:10409000FFF7A0FF800704D52146284600F03EFA2E
:1040A00070BD012070BD0000F26200200EB56B46AD
:1040B0001A81FE23002201930092022302AA00F03B
:1040C00001F80EBDFFB583B0174602A90D9E0498F6
:1040D00000F060F804002AD06846008907F0DCFF91
:1040E000002822D04568002D1FD00C980196009022
:1040F0003A462146069B0398A847050018D1FE2E94
:1041000016D02078022813D160684178027808021E
:104110000949104388420BD17878397802020A4362
:1041200004990398FFF794FF02E00E2500E00125B3
:10413000284607B0F0BD00000229000070B5144603
:104140000E46054607F089FF002806D1314605488E
:1041500007F083FF002803D005808470002070BD25
:10416000112070BDFFFF000010B50178B0290BD100
:104170004178002908D10179122906D01B2903D1E1
:104180004088012100F04AFF10BD417C0129F7D091
:1041900010BD0000F0B5104A136919E09C686589EC
:1041A000A84214D39E887219824210D900220CE0D2
:1041B00017013F197F89874205D1002900D00D8062
:1041C00010010019F0BD521C92B2B242F0D31B682C
:1041D000002BE3D10020F0BDE4440020FFB51B48D4
:1041E00083B0002305692DE0AE680024708901903A
:1041F000A888009016E0210188194289039FBA42DD
:104200000ED3049FBA420BD8069A002A0FD0134649
:10421000715C4068059AFDF780FE002807D10023F5
:10422000641CA4B200988442E5D3002B09D00C98FA
:10423000002802D00C99019808802001801907B04D
:10424000F0BD2D68002DCFD10020F8E7E444002018
:10425000FEB5174600256A469580044640891D4AEA
:104260001E46904208D001AA0092401C237880B2DA
:104270006268FFF7B3FF054623780221164862689B
:10428000FDF74BFE002807D123780221134862680E
:10429000FDF743FE002801D060890EE0237802215B
:1042A0000F486268FDF739FE00280DD0002D03D0BD
:1042B00068468088B84203D0384608F0AFFD04E075
:1042C0006889401E80B200E06089002E00D03080F6
:1042D0002846FEBDFFFF0000BC330100BE330100D5
:1042E000C2330100FFB583B00E461D46174601A933
:1042F000039807F075FC040022D1002F0FD0694607
:1043000008803088FFF746FF6946088800F042F9C8
:104310000146012203980AF017F8002811D131460E
:104320000398FDF79FFE04000AD1FF2D08D0019BE2
:104330001E22194604489B1C08F07BFD0198C5709D
:10434000204607B0F0BD000085CC000010B507493D
:10435000FF220A7000224A608A6005490871042120
:1043600000F052FF00F006F810BD0000D444002019
:10437000D446002070B500200D4D0E4B0446FF22A0
:10438000062141435D52C918CA708A70401C0C71E5
:104390000328F5DB0120C0431880074807F01AFE08
:1043A0000648FEF709F806480AF08EF8002070BDAE
:1043B000FFFF0000E0620020CDCC0000AFCC000089
:1043C00005CC00007CB505461248164600780C4620
:1043D000022801D216207CBD01A9284607F000FC66
:1043E0001728F8D0002E10D00020694608802088B9
:1043F000FFF7D0FE6946088800F0CCF8014601229C
:10440000284609F0A1FF0028E5D121462846FDF7FE
:104410003FFE7CBDAD45002008B5009313460A461B
:1044200001460248007807F0F1FB08BDD4440020A3
:1044300070B50D46080412D50A4800790EF0F0FB5D
:10444000040008D02078A02802D1204607F046FDBD
:1044500020460EF0C3FB0120C003684070BD002061
:1044600070BD0000D446002070B504464568008841
:1044700000284AD02B78022125486A68FDF74DFDB7
:10448000002807D12B78022122486A68FDF745FDF4
:1044900000283AD0A078C01F092834D81E4EB08812
:1044A00000282ED02188081801210904884228D824
:1044B00047210C200EF0DAFA050020D0002207E098
:1044C00011016368B0880A315852401CB080521CF8
:1044D00020889042F4DC0020286008222146281D14
:1044E0000EF0A8FA3069002801D105E008460168FD
:1044F0000029FBD1056000E03561002070BD13206C
:1045000070BD012070BD182070BD022070BD00007C
:10451000BC330100BE330100E4440020FEB50E466A
:10452000074600250223194A194901200095FFF783
:1045300055FE040027D023200090002304221D21D3
:10454000384600F0D3F8029000281AD060896946F6
:1045500088800420C88002990120087002983346A0
:1045600045700299FF20887002990022C87001A945
:104570003846FFF7B7FE040006D002980EF0B4FAF2
:1045800002E0152400E001242046FEBDDA330100DC
:10459000FFFF000000B507F0DFFA002801D08078A7
:1045A00000BD102000BD00B507F0D6FA002800D0ED
:1045B000008800BD7CB50C460546FDF703FF0028CA
:1045C0000AD16846848001A8009004487F23002215
:1045D0002946007807F01AFB7CBD0000D444002077
:1045E00010B504460B4688060DD51046FFF7D2FFDE
:1045F00001460122204609F0A7FE052801D00F2818
:1046000000D1082010BD882003420CD01046FFF7CF
:10461000C1FF0146180701D5012200E00022204613
:1046200009F092FE10BD880701D5002010BD0320BF
:1046300010BD10B50346C8060DD51046FFF7AAFFFA
:1046400001460122184609F07FFE052801D00F28F7
:1046500000D1082010BD480705D51046FFF79AFF86
:104660000146012206E0480608D51046FFF792FFF2
:1046700001460022184609F067FE10BDC80701D0A8
:10468000002010BD022010BD70B51D4603460C462B
:1046900088060DD51046FFF77DFF0146012218461A
:1046A00009F052FE052801D00F2800D1082070BD66
:1046B0008820044214D01046FFF76CFF0146200703
:1046C00001D5012200E00022184609F03DFE002835
:1046D00008D0697A0029EAD0297A002902D170BD70
:1046E000880701D5002070BD032070BDF8B5069F76
:1046F0001E461546162928D00CDC09291FD004DCDB
:1047000005291CD0062911D11BE0112917D0122927
:104710000CD118E01D2916D004DC172915D01B294F
:1047200004D110E052290ED0D2290CD00124114A14
:1047300095420CD1FDF786FC001B85B20BE00224EC
:10474000F5E70724F3E70324F1E70524EFE7D2298F
:1047500001D10C35ADB2601980B2394600F0B0FD20
:10476000002805D0002E00D0358061420EF010F9EF
:10477000F8BD0000FFFF000010B507F0FDF90028AC
:1047800001D00EF0B1F910BD014610B50020C907E7
:1047900006D0044B1022184609219038FFF728FC58
:1047A00010BD0000C444002070B51646214A0D46D5
:1047B000114600241031030004F03EFF0A061338AE
:1047C0003818382128383138152D2AD816220021DA
:1047D00019480EF0E7F92A46314617480EF02AF933
:1047E00025E0022D1DD13088508020E0082D18D101
:1047F0001048082231460830FDF701F817E0012D76
:104800000FD1CA690B493078383105E0012D08D144
:10481000CA6B08493078583108F0DAFB07E0012DFF
:1048200001D0182403E03078107000E00224204604
:1048300070BD000024440020F0610020704710B5D6
:1048400000F0FAF810BD10B500F016F910BD10B563
:1048500000F02AF910BD10B5FDF7B2F910BD10B582
:1048600000F036F910BD10B500F052F910BD10B5CA
:1048700000F068F910BD10B5FDF7ACF9002010BDCF
:1048800010B5FDF7C1F910BD7CB5069C079DC0B2FF
:104890000195009400F06CF97CBD10B5FDF7C4F9EA
:1048A00010BDFEB508AF70CF6F4670C7FDF7CCF9ED
:1048B000FEBDF0B585B084460AA8F1C804976F46DE
:1048C00071C7604600F084F905B0F0BD38B5049CAE
:1048D000009400F0B5F938BD10B5FDF7C5F910BD6D
:1048E00038B5049C009400F0C9F938BD7CB5069C2D
:1048F000079DC0B20195009400F0DEF97CBDFFB5C4
:1049000087B094468E4610A8F7C806976F4677C7BB
:1049100062467146079800F005FA0BB0F0BD10B57D
:1049200000F052FA10BD10B500F06AFA10BD10B5D3
:10493000FDF7A8F910BD10B5FDF7B6F910BD10B51B
:10494000FDF7C4F910BD10B5FDF7D0F910BD10B5D5
:1049500000F074FA10BD10B500F08CFA10BDFEB571
:1049600008AF70CF6F4670C7FDF7D2F9FEBD38B5FE
:10497000049C009400F09CFA38BD10B5FDF7E2F9F4
:1049800010BD10B5FDF7EEF910BDF0B585B00AAC5D
:10499000F0CC03976F4670C7FDF7F4F905B0F0BD92
:1049A00010B5FDF705FA10BD10B5FDF711FA10BDF1
:1049B00010B5FDF71DFA10BD70B5547815782202B8
:1049C0002A43FDF725FA70BD10B500F08FFA10BD2F
:1049D00010B5FDF727FA10BD38B5049C009400F01F
:1049E0009DFA38BD10B5FDF72FFA10BD10B500F0D7
:1049F000B1FA10BD10B5FDF73BFA10BD10B5052892
:104A00000ED90C4CA0420BD2A14209D2814207D34D
:104A1000FF20F530824203D2092B01D9A34201D3F2
:104A2000002010BD521C4A43D8008242F8DA01200F
:104A300010BD0000810C0000F8B507460846164678
:104A40000D460C300EF0B6F8040011D09120207005
:104A50000E206070A5702046A7800C302A46314693
:104A6000A0600DF0E7FF0348214680780EF010F9B2
:104A7000F8BD0000D446002070B505460C4606205F
:104A80000EF098F801000BD0912008700F204870AC
:104A90008D700120C87003488C8080780EF0F8F883
:104AA00070BD0000D446002010B5044603200EF06F
:104AB00081F8010008D0912008701A20487003483E
:104AC0008C7080780EF0E4F810BD0000D446002011
:104AD00070B5064614460D4608200EF06BF801002E
:104AE0000ED091200870052048708E708D8005488A
:104AF0008C7180780EF0CCF803480449007E087071
:104B000070BD0000D4460020C0570020AD450020F5
:104B100070B5064614460D4608200EF04BF801000D
:104B20000CD0922008703E204870082088708D803C
:104B30008E710348CC7140790EF0AAF870BD000068
:104B4000D446002070B505460C4606200EF032F81B
:104B5000010009D091200870302048708D70034802
:104B60008C8080780EF094F870BD0000D446002050
:104B7000FFB581B01E460F4631200EF01BF8040031
:104B800022D0912020703E2060700220A070012071
:104B9000E0702046083005466060019828706F700C
:104BA0000622A81C03990DF045FF2E7228463246B6
:104BB00009300A990DF03EFF20350B982872034802
:104BC000214680780EF064F805B0F0BDD446002090
:104BD000FFB5074681B01D46164616200DF0EAFFC8
:104BE000040029D0912020703E2060700120A07028
:104BF000002F08D03120E070204606220021083026
:104C00000DF0D0FF07E00020E070204606220830BB
:104C10000A990DF00FFF0298A080A671E5710B981C
:104C2000E0810C9820820D9860820E9820750348D0
:104C3000214680780EF02CF805B0F0BDD446002057
:104C4000F8B507461C4615460E460C200DF0B2FF7F
:104C500001000FD0912008703E204870032088701A
:104C6000CF708E80CD800C81069848810248807874
:104C70000EF00EF8F8BD0000D4460020F8B5074647
:104C80001C4615460E460E200DF094FF01000FD075
:104C9000912008703E204870072088708F80CE8059
:104CA0000D814C8106988881024880780DF0F0FFD4
:104CB000F8BD0000D4460020FFB581B01F46182083
:104CC0000DF078FF050028D0912028703E206870F4
:104CD0000B20A87001202C460834E87000266C6078
:104CE00001982070029860700622A01C03990DF0B4
:104CF000A1FE27722046062209300A990DF09AFE7D
:104D00000B98E073761CE878F6B21034B042E7D81E
:104D10000348294680780DF0BBFF05B0F0BD0000C8
:104D2000D4460020FFB581B01D4616460F4622200E
:104D30000DF040FF040042D0912020703E206070B2
:104D40000A20A0700198002814D03120E07020467D
:104D50000622002108300DF025FF20460622002102
:104D60000E300DF01FFF20460622002114300DF0FA
:104D700019FF13E00020E0702046062208300A994F
:104D80000DF058FE204606220E300B990DF052FE13
:104D90002046062214300C990DF04CFEA780A67117
:104DA000E5710D9860830E98A0830F98E083202111
:104DB000109808550348214680780DF069FF05B02A
:104DC000F0BD0000D446002070B505460E462620F2
:104DD0000DF0F0FE040010D0912020703E20607095
:104DE0000920A070A58020223146A01D0DF022FED2
:104DF0000248214680780DF04BFF70BDD44600205C
:104E0000F8B5064615460F4610200DF0D3FE0400F7
:104E100011D0922020703E2060700520A070A680E6
:104E200008223946A01D0DF005FE0348E5814079B2
:104E300021460DF02DFFF8BDD446002070B5054683
:104E40000E4646200DF0B6FE040010D091202070D2
:104E50003E2060700820A070A58040223146A01D31
:104E60000DF0E8FD0248214680780DF011FF70BD7D
:104E7000D4460020F8B5064617460D460E200DF024
:104E800099FE040011D0922020703E206070042012
:104E9000A070E670A58008223946A01D0DF0CAFD5D
:104EA0000248214680780DF0F3FEF8BDD44600207C
:104EB000F8B507461C4615460E460E200DF07AFE44
:104EC00001000FD0912008703E20487006208870A5
:104ED0008F80CE800D814C81069888810248807831
:104EE0000DF0D6FEF8BD0000D446002070B5144683
:104EF0000D4608200DF05EFE01000BD090200870DA
:104F000013204870012088708D800348CC80407841
:104F10000DF0BEFE70BD0000D4460020F8B5074677
:104F20001C4615460E460C200DF044FE01000DD027
:104F3000912008700C2048708F708E808D710C81CC
:104F400006984881024880780DF0A2FEF8BD000066
:104F5000D4460020FFB5074681B015460E460C200A
:104F60000DF028FE040014D090202070FF20607007
:104F700067802671E580482128460DF077FDA06006
:104F80002A4604990DF056FD0348214640780DF05D
:104F90007FFE05B0F0BD0000D446002008B51346E2
:104FA000034A00920A46012108F0C4FF08BD000030
:104FB00021D200003EB500230192042402930A4648
:104FC0000094024B122109F0B7F83EBDC7D2000091
:104FD00008B51346034A00920A46132108F0AAFFB7
:104FE00008BD0000F3D200001FB56946C881002249
:104FF000FF2103206C4607C4034B03AA0621034884
:1050000009F09AF804B010BD97D20000FFFF00002D
:105010000148C08870470000AC45002013B5044823
:105020000079012803D101AA6946FFF724FC1CBDC1
:10503000AC45002070B5224930224870002121483B
:105040000DF0B0FD09F0E6F91F4D28782C46083C1C
:1050500000280ED000014C210DF008FD2061002831
:1050600007D06978E1702978A1700A0100210DF05C
:1050700099FD1648E17800784018C0B22070000110
:105080004C210DF0F3FCE060002811D021780A01DA
:1050900000210DF087FD0020FF2105E0E3680201FB
:1050A000D218401C5172C0B222789042F6D302E06E
:1050B00000202070E070064809F006FA70BD00007C
:1050C000D446002000630020B4450020C2450020E3
:1050D00065D600000A2A01D0012070474A780B7873
:1050E00012021A430280CA788B7812021A43428055
:1050F0004A790B7912021A438280CA798B7912029B
:105100001A43C2804A7A0B7A1102194301810020A6
:105110007047042A01D0012070474A780B781202A8
:105120001A430280CA788B7811021943418000200B
:105130007047082A01D0012070474A780B78120284
:105140001A430280CA788B7812021A4342804A7945
:105150000B7912021A438280CA798B7911021943A2
:10516000C180002070470000F8B5244C244E0D4645
:10517000080433D5204640780DF052FD04000BD0D2
:105180002078902805D16078132808D0204608F0B0
:10519000D1FD20460DF022FD0120C0032CE019496D
:1051A00000208969A778CAB294460CE0420012191F
:1051B00092797378D218D2B27270914201D262465B
:1051C0007270401CC0B28742F0D870780028E0D0DE
:1051D0000A48012140780DF01FFEDAE7E8070CD0FD
:1051E00008F08AFF002806D07078002803D0607885
:1051F00001210DF011FE01206840F8BDD4460020C9
:10520000AC450020C0570020042907D0052905D04F
:10521000062903D0072901D0022070470C22044B35
:105220004A43D218403A118290740020704700001F
:105230000063002070B50C4609880546042905D096
:10524000052903D0062901D0072929D16068002843
:1052500026D00121284609F06BF900281ED02846E7
:1052600009F0F8F80F498D420BD0002809D12189A7
:10527000002906D9208806280ED10B4800888142D3
:105280000AD20A480078002804D02146284608F0AF
:1052900093F870BD162070BD1B2070BD142070BD2A
:1052A000022070BDFEFF0000B2450020AD45002089
:1052B000024A001FD080517070470000AC450020AA
:1052C00010B5001D80B24C210DF0D0FB002803D09A
:1052D0000321C9430DF05CFB10BD000010B511495E
:1052E00000204871114C104820600A22DE21002065
:1052F00000F020F864223221012000F01BF8642223
:105300003221022000F016F80A22DE21032000F0EC
:1053100011F8206841681F22114341600449C160AF
:1053200010BD00000858002000C20040C846002000
:105330001F03000010B5254B20241B68002809D04E
:10534000012816D0022823D0032830D0042800D109
:10535000996510BD1869204318611869A043186148
:1053600059619869204398619869A0439861DA610E
:1053700010BD186A20431862186AA0431862596267
:10538000986A20439862986AA0439862DA6210BDD6
:10539000186B20431863186BA04318635963986B0C
:1053A00020439863986BA0439863DA6310BD186C30
:1053B00020431864186CA04318645964986C204307
:1053C0009864986CA0439864DA6410BDC8460020C5
:1053D000FCB53548006881685A278B0701250022F3
:1053E0003249002B0DDA83680224A34383604368AB
:1053F000DB0703D14B79FD2423404B71CD708A70BC
:1054000007658368DB070CD083685B085B008360FB
:105410000A704D704368DB0703D14B795B085B0072
:105420004B718368DB051AD58368FF240134A343DD
:1054300083600B785B060DD51D4EB36B0093B36B89
:105440000193019C009BA342F7D11C46174B80336C
:105450001B6A9C660B782B430B704A700765836848
:105460009B0508D5836801246402A34383608B787D
:105470002B438B70CA708368DB0604D583681024C5
:10548000A34383604A7183685B0704D5836804245F
:10549000A34383604A7183681B0704D5836808248B
:1054A000A34383604A71FCBDC84600200858002011
:1054B000001000401CB51A4A5369002B05D09C7C93
:1054C000002C02D0DB7C002B11D19369002B05D07E
:1054D0005C7E002C02D09B7EDB0708D1D369002BB9
:1054E00007D05C7D002C04D09B8B002B01D01220B8
:1054F0001CBD0C4B128E5B681B0A9A420BD26A468B
:10550000507000A8062202300DF094FA684602F0AE
:1055100023FD012801D007201CBD00201CBD000078
:1055200088580020C0570020F0B51F4C89B00D46A8
:1055300006462146002004F0ADF90028F9D0A0422B
:10554000F7D000210446012080052746074300913B
:1055500001910291039104910591069107916A4688
:10556000D773390A9173390C5173304604AA6946CE
:1055700009F011FD6A46907F517F0002090440182E
:10558000D17F40182870010A6970000CA8700121B1
:10559000200A89030843EF702871200C402108433A
:1055A000687109B0F0BD0000FFFF3F000A4A10B566
:1055B0001046D16C403001760B0A4376090C817697
:1055C000916CC1760A0A0277090C417709F006F955
:1055D00009F0B8F810BD00000858002070B5184850
:1055E000174A44695569607B27212035252802D058
:1055F000262822D01EE06879820715D52620607300
:105600000021FF20913000BF491C8142FBD320467E
:1056100009F0D0FA687940070CD50A48228C407806
:1056200008210DF0A3FD05E0400703D56173204676
:1056300009F0C0FA00F0E8F870BD6879F4E70000FE
:10564000885800208C43002070B5112188200DF06F
:105650000DFA04003BD01F4D8822002120466C61CA
:105660000DF0A0FA01222273902060740023A3742D
:10567000E86860602869A060032117486175006AC6
:1056800015281DD008DC01280DD003280ED00728CE
:1056900010D00F281BD110E01D2813D0232813D0C1
:1056A0003F2814D112E01320C04301E00D20C04375
:1056B00020750CE00720C043FAE70220C043F7E75B
:1056C000237504E0227502E00220F1E721752046EF
:1056D00070BD000088580020C057002010B500F0B1
:1056E00033F982228021002001F084FC10BD0000EB
:1056F000F8B543484249446980390F462546803110
:1057000060354B69687B583701266E3300280DD011
:105710002239009101280CD03E39C97900296DD079
:105720000021022812D0032830D052E00622394648
:1057300005E033488038806F002802D006221846E2
:1057400045E02F4906221C39184640E02973287D80
:10575000002817D02046743001F0C4FCA066002851
:105760000DD00AF045FCA16E887A002807D00220EF
:105770002873204606226E300C310DF05BF9287B31
:10578000022826D02E73062239461EE02973287D72
:10579000002817D02046743001F0A4FCA066002831
:1057A0000DD00AF025FCA16E887A002807D00220CF
:1057B0002873204606226E300C310DF03BF9287B11
:1057C000022806D02E730099062220466E300DF076
:1057D00031F90020401CC0B20628FBD30020401C39
:1057E000C0B20628FBD3A674E08BA18B42180548F3
:1057F000042140780DF0BAFC0020F8BD1220F8BD5D
:10580000885800208C430020F8B54648922506466B
:10581000803E44697EE095280DD0932828D09428B6
:1058200058D096287AD1B078C0076ED09120607495
:1058300004F0EAF86CE0F078C00713D00027F770A6
:10584000224616323946A06803F0DCFF307100288A
:1058500001D0377104E0204609F0B0F8002857D095
:105860006574E5E7B079012852D10020B071F7E7FF
:10587000274620377879C10701D0252006E0810727
:1058800001D5262002E0400701D527206073228C35
:10589000002A04D02448082140780DF067FC3879AC
:1058A000012804D00A21012004F002F8E083E08BF3
:1058B000A18B42181C48042140780DF057FC0020B1
:1058C0007D21C90000BF401C8842FBD3204609F05F
:1058D00071F91DE0B078C00711D0A07B010705D099
:1058E0000007000F012801D00628B9D19520607467
:1058F0000E4803F06FFD80B204F01AFA08E0B079A8
:105900000128ADD004E009E0FFE7B079012806D016
:1059100004F022FA607C932800D37CE7F8BD0020D5
:10592000B07183E7885800208C4300203A030000C0
:1059300010B50448446909F06BFB93206074FFF7CD
:1059400063FF10BD8858002010B50B48446904F06F
:105950005BF80020A07420736074084C0421607808
:105960000DF04CFC607808210DF048FC60781021A7
:105970000DF044FC10BD0000885800208C4300202E
:1059800070B506460821203631734468002C17D0C4
:10599000054676218035095A2A8A89180A31A9864E
:1059A0000121A17001460522AF31E01C0DF042F843
:1059B000A88E2072000A60722220F075002070BD4F
:1059C000012070BD10B511484169002905D08A7CBD
:1059D000002A02D0C97C002911D18169002905D093
:1059E0004A7E002A02D0897EC90708D1C0690028F2
:1059F00007D0417D002904D0808B002801D01220DF
:105A000010BD02F0DBFA002010BD00008858002015
:105A1000F8B51E4615460C46079F00F0C1F9264A08
:105A2000A11F914246D2511D8D4243D8A54241D378
:105A3000FF22F43296423DD8069A8A423AD8711C27
:105A4000D20061438A4235DD002833D0014620313F
:105A50008C46097EC9072DD1826C51072AD4910743
:105A600028D4014680318C84CD840F85089B4B85DA
:105A70004E81069B8B816346DE790223012E06D080
:105A8000FF21A531095C890712D41A20F8BDFF2631
:105A9000A536365CB6070BD463195B080B811B096E
:105AA000CB8001234B7104210A4382640020F8BD9E
:105AB0001A43FAE71220F8BD7B0C0000014680680B
:105AC0002031CA7A007853070007DB0FC00F8342EA
:105AD00004D104204240CA72002070470120704760
