:020000040000FA
:1000000000800020D90D0000E10D0000E30D00008C
:1000100000000000000000000000000000000000E0
:10002000000000000000000000000000E30D0000E0
:100030000000000000000000E50D0000E70D0000DA
:10004000E90D0000E90D0000E90D0000E90D0000D8
:10005000D127000059570000E90D0000E90D00000C
:10006000E90D0000E90D0000E90D0000E90D0000B8
:10007000251A0000E90D0000E90D0000E90D00005F
:10008000E90D0000E90D0000E90D0000E90D000098
:100090000348854601F06CFD00480047C305000099
:1000A0000080002010B50446012C0AD1F8480078E1
:1000B00005280DD1F74A0421F748007813F0DEF93E
:1000C00006E0022C04D10421F348007813F01EFA54
:1000D00010BD10B50446012C0BD1ED480078052861
:1000E00014D17D2212010221EB48007813F0C6F9E9
:1000F0000CE0022C05D10221E748007813F006FA43
:1001000004E0032C02D10020E449088010BD10B5A2
:1001100088B00446E04804700121079164210691EB
:1001200000210591C8210491C90003910121029188
:100130007D21C900019107AA0121D94803F042FAA3
:1001400006AA0221D648401C03F03CFAD54A1321E6
:100150006120C00003F036FAD34A0921D048801C40
:1001600003F030FA05AA01213120000103F02AFA38
:1001700004AA0221CA480C3003F024FA03AA02217F
:10018000C7480D3003F01EFA02AA0221C4480E30FF
:1001900003F018FA01AA0221C520800003F012FA28
:1001A000C24A1521002004F0C3FC00200790012161
:1001B00006910021059104910121039107AA0421D0
:1001C0008120C00002F0ECFE06AA0121880202F0A4
:1001D000E7FE05AA0121B248FD3002F0E1FE04AAC3
:1001E0000121AF48FE3002F0DBFE03AA0121B04836
:1001F00002F0D6FE0221079107AA0121022000F099
:1002000016FD0621079107AA0121084600F045FACC
:100210000020C04304F07CFC0020C04303F0EEFE4D
:100220000020C04300F0ECFC00F07AFB00F0EAF99B
:10023000A04800F0F9FCA04800F0F3F9012196482D
:10024000007812F071FF08B010BD10B5904800782A
:10025000052807D100F0A2FA8E4A04218E480078C2
:1002600013F00CF910BD38B50020034609221B21FC
:1002700000909248008804F0FDFB914948600846D0
:100280004068002860D0084644688E488E49097846
:10029000455C2570641C8D4800782070641CE8075C
:1002A000C00F002802D000202070641C08202840C5
:1002B000002808D0794800782070641C77480088AE
:1002C00000122070641C10202840002811D08048A3
:1002D00000782070641C7E48008800122070641C26
:1002E0007C4800782070641C7A48008800122070D6
:1002F000641C73480079201AC0B2714948806F4865
:10030000008800F0BBFC002803D01B216C4804F0DF
:10031000F7FB624800880A30604908806B48007823
:10032000401CC0B269490870502801D149200870AA
:10033000664801780F20000301F0A6FB80B26549F2
:1003400008806349088000BF38BD10B55048007868
:10035000052808D1FFF787FF7D22120102214E48B0
:10036000007813F08BF810BD00BF00BF00BF7047CE
:1003700070B506460C460120C0032040002810D06E
:100380004548007812F0D4FD051E05D02846FFF739
:10039000EBFF284612F0AAFD20460121C903484080
:1003A00070BDE007C00F002809D04B4803F0CCF81F
:1003B0004A4802F055FD204601214840F0E702205E
:1003C0002040002805D0FFF7C0FF2046022148400A
:1003D000E6E704202040002805D0FFF736FF20463E
:1003E00004214840DCE70020DAE71CB50446052C70
:1003F00005D132492A48093002F0F6FEA6E0244829
:100400000078052835D1052C33D001200190022138
:100410002148007813F07AF801212848008800F07C
:10042000B3FC01212548008800F041FA042C0CD1CE
:100430002021082003F00CFD2021092003F008FDF5
:100440002749002003F004FD0DE01921890108204F
:1004500003F0FEFC19218901092003F0F9FC0021B9
:10046000084603F0F5FC01AA01210D4803F0AAF8A3
:100470006CE007480078022851D1032C4FD119486D
:100480000078002830D00020164908705EE0000097
:1004900001400020C05D00000040002042400020DC
:1004A0000503000002400020154000201E400020EF
:1004B00006040000D3000000A50000003440002026
:1004C000384000200836010048400020404000200D
:1004D00044400020464000204C40002010360100DF
:1004E0003075000049400020082003F0CFFA202892
:1004F0002CD10120019019218901082003F0A8FCCA
:1005000019218901092003F0A3FC0021084603F00A
:100510009FFC01AA01210F4803F054F816E0012CBA
:1005200014D16946C120800002F05EFE6846417920
:10053000C17101798171C178417100210171C1706E
:100540006A460821002000F0F3F900BF0248047059
:100550001CBD0000050300000140002010B5002470
:100560002046641C09F05AF92046641C01F0D4F9B5
:100570002046641C05F072FF2046641C04F01EFF38
:100580002046641C03F08EFA2046641C04F0A2F896
:100590002046641C08F0F4FE2046621CD4B202F02F
:1005A00055FA2046621CD4B203F038FD2046621C86
:1005B000D4B202F08DFE2046621CD4B2FFF7A7FD34
:1005C00010BD0D48806A0121490208430A4988622A
:1005D00003210120400200F0D5FE01F0BAF80749DE
:1005E00007A009F0C5F901F007F9FFF7B7FF01E02F
:1005F00009F040F9FCE7000080100040C43601001B
:1006000025730A0010B50024B449B54803F030FD45
:10061000B44B10220521B44803F0AEFE0446204638
:1006200010BDB249086070473EB504462079C00746
:10063000C00F00282BD06088A84903F08FFE054624
:10064000E807C00F002821D0002000906088002318
:1006500001221B2104F00EFA02900298002814D007
:10066000A148418D684681800121C180A048007861
:10067000029908706088002201A904F067F8002838
:1006800003D01B2101A804F03BFA00BF00BF3EBD10
:1006900010B598480EF086F810BDF8B504460F4620
:1006A00015460026012C0AD12878934908709048F5
:1006B00000780978884201DAFFF7EAFF01E00226B4
:1006C00000BF00BF3046F8BD10B502460023002A27
:1006D00006D0012A08D0022A0AD0032A1CD10BE036
:1006E00083480078087019E083480078087015E0A6
:1006F0007D484089088011E00846804C24780471C8
:100700007E4C64784471784C648D0480764C648FA0
:1007100044800124847101E0022300BF00BF184619
:1007200010BD70B576480068002802D07448006893
:100730008047FF242D3473480068002802D0714898
:100740000068804770480088844201DB642523E00C
:100750006E480088844201DC00251DE06C4800687A
:10076000002805D020466A4909688847054613E0F5
:100770006548008865490988401A401C86B2B61051
:1007800062490988611A19225143721E881831463C
:1007900001F07AF9C5B200BF284670BD10B5FFF769
:1007A000C0FF044652480078844203DA504804707F
:1007B000FFF76EFF002010BD70B5059D049C534EE1
:1007C0003180514E32804E4E33604E4E3460504E2A
:1007D000356070BDFEB50C4615461E4600200190E2
:1007E0000898002801DD0B20FEBD6068077861686D
:1007F000497809020F434748874210D1FFF791FF1C
:1008000000903B4909780098884202DA38490098FC
:100810000870012030803648007828700CE03E488F
:10082000874207D10220308002222846E16812F078
:1008300089FA01E00A2001900198D5E7FFB583B05D
:100840000C4615460C9F0026606800786168497860
:10085000090208430290314902984018002820D12B
:100860000120009701902A462146069B039803F039
:1008700017FC0646002E13D1287869780902084330
:1008800001901A480068002809D00199002901D177
:10089000022100E00121084614490968884700BF89
:1008A00001E00A2600BF00BF304607B0F0BD70B5BA
:1008B00005460C460A48401E85420DD0012C07D043
:1008C000022C09D1012128460DF0BAFF002803D1DE
:1008D0000249284603F0CCFB70BD0000C84600204A
:1008E000FFFF0000F0400020A040002084400020D6
:1008F0009A40002029060000984000209B400020DC
:10090000884000208C400020964000209440002029
:1009100090400020192A000008290000FED6FFFFA1
:1009200010B5AA4B10221321A94803F025FD10BDD4
:10093000F8B504460D4616460027002C05D12A4678
:100940003146A44812F0FEF901E0022700BF00BFC3
:100950003846F8BD70B504460D460026230009F060
:100960002FF809060C12181E242A30363C000822E3
:100970009849284612F0E6F931E00D2296492846BA
:1009800012F0E0F92BE00E229449284612F0DAF931
:1009900025E012229249284612F0D4F91FE01222D3
:1009A0009049284612F0CEF919E012228E492846C5
:1009B00012F0C8F913E012228C49284612F0C2F94D
:1009C0000DE00E228A49284612F0BCF907E0072202
:1009D0008849284612F0B6F901E0022600BF00BFA0
:1009E000304670BDFFB583B00F461D460D9E0C9C72
:1009F00000200290786800787968497809020843F5
:100A000001907D4A0198811A904268D00ADC7B49A6
:100A1000401800280FD0012822D0022835D0032802
:100A200072D147E0012973D002296FD003296ED01B
:100A30002929F5D1ABE0082C02D3072002900EE063
:100A40000820001BB04201D9304601E00820001BFD
:100A500028802A885F480119059812F073F9B0E0E0
:100A60000C2C02D3072002900EE00C20001BB04299
:100A700001D9304601E00C20001B28802A88564806
:100A80000119059812F05EF99BE00D2C02D30720A6
:100A900002900EE00D20001BB04201D9304601E06B
:100AA0000D20001B28802A884C480119059812F057
:100AB00049F986E0112C02D3072002900EE01120A4
:100AC000001BB04201D9304601E01120001B2880F4
:100AD0002A8843480119059812F034F971E0112C65
:100AE00002D3072002900EE01120001BB04201D972
:100AF000304601E01120001B28802A88394801195E
:100B0000059812F01FF95CE056E001E015E029E0DD
:100B1000112C02D3072002900EE01120001BB042DE
:100B200001D9304601E01120001B28802A882E4878
:100B30000119059812F006F943E0112C02D30720A1
:100B400002900EE01120001BB04201D9304601E0B6
:100B50001120001B28802A8824480119059812F0CA
:100B6000F1F82EE00E2C02D3072002900EE00E20AA
:100B7000001BB04201D9304601E00E20001B288046
:100B80002A881B480119059812F0DCF819E0072C97
:100B900002D3072002900EE00720001BB04201D9CB
:100BA000304601E00720001B28802A8811480119DF
:100BB000059812F0C7F804E0002028800A2002906F
:100BC00000BF00BF029807B0F0BD00004442002003
:100BD00014410020FD400020403601004D36010048
:100BE0005B3601006D3601007F3601009136010051
:100BF000A33601000D410020272A0000DDD5FFFFAC
:100C000070B5044600256B496B4803F031FAE007E4
:100C1000C00F002806D0694B10220821684803F055
:100C2000ABFB0546284670BD66490860704730B585
:100C300003460020012B02D0022B05D100E005E085
:100C40001478614D2C7001E0022000BF00BF30BD60
:100C500002460020012A04D0022A03D0032A09D127
:100C600004E009E0584B1B780B7005E0574B1B78EC
:100C70000B7001E0022000BF00BF704770B5054651
:100C80000C464C49284603F069FB0646F007C00FA6
:100C9000002808D04A48408D20800022214628465E
:100CA00003F054FD70BD1220FCE7F0B5059C002553
:100CB000486800784F687F783F0238430646002C2A
:100CC00001DD0B20F0BD4248864205D1012018808D
:100CD000C8680078107000E00A252846F2E7FFB5E2
:100CE00085B00D4614461E460E9F0020049068688D
:100CF00000786968497809020843039035490398E8
:100D0000401800281BD0FF383838002835D1002F74
:100D100002DD0B20049011E0012E02D00D20049082
:100D20000CE02078012802D08020049006E0207892
:100D3000E9680870032023490968884720E00120FA
:100D400033462246294600970190059803F0A8F9FA
:100D50000490049800280FD1207861780902084394
:100D600002900299002901D1022100E001210846E8
:100D700014490968884700BF02E00A20049000BFB8
:100D800000BF049809B0F0BD70B505460C460A488E
:100D9000401E85420DD0012C07D0022C09D1012123
:100DA00028460DF04DFD002803D10249284603F0E6
:100DB0005FF970BDD8460020FFFF0000DC42002034
:100DC0005C4200205042002057420020594200203F
:100DD000382A0000FED6FFFF044880470448004739
:100DE000FEE7FEE7FEE7FEE7FEE70000F50D000088
:100DF000910000005720FA490870A8200870882048
:100E0000F74940390881704700B5030008F0D8FD64
:100E10000D081A2C37414C56606A75808B96A100DC
:100E20005721EF4A1170A8211170ED492039C97B73
:100E300004229143EA4A203AD173C821E84A403A51
:100E4000118187E05721E64A1170A8211170E44909
:100E50002039C97B04221143E14A203AD173C821C9
:100E6000DF4A403A118175E05721DD4A1170A8210F
:100E700011705121C900DA4A403A11816AE05721C4
:100E8000D74A1170A8211170D649D54A403A11812C
:100E900060E05721D24A1170A82111708121890088
:100EA000CF4A403A118155E05721CD4A1170A8210F
:100EB00011708821CA4A403A11814BE05721C84A33
:100EC0001170A82111700221C54A403A118141E0F8
:100ED0005721C34A1170A82111700421C04A403A19
:100EE000118137E05721BE4A1170A821117093215A
:100EF0008900BB4A403A11812CE05721B84A117051
:100F0000A8211170B7494D31B54A403A118121E00D
:100F10005721B34A1170A821117095218900B04A58
:100F2000403A118116E05721AD4A1170A821117085
:100F30004B21C900AA4A403A11810BE05721A84A27
:100F40001170A8211170A7495C31A54A403A11815E
:100F500000E000BF00BF00BD5721A14A1170A821C9
:100F60001170002808D19E494039098952159143D2
:100F70009B4A403A118108E0994940390989012288
:100F800052021143964A403A118170475721944AC0
:100F90001170A8211170002808D191492039C97B0E
:100FA000042291438E4A203AD17307E08C492039BC
:100FB000C97B042211438A4A203AD1737047F8B59D
:100FC00004462246864E403E36890096864957267C
:100FD000834F3E70A8263E70824E814F403F3E8137
:100FE00057267F4F3E70A8263E700126BE747F4B69
:100FF0004DE000BF7A4EB67C02273E40002EF9D06D
:10100000774E308A00BF764EB67C02273E40002ED7
:10101000F9D100BF724EB67C02273E40002EF9D0B7
:101020006F4E308A57266E4F3E70A8263E7088421B
:101030000ADD6B4E203EB689B618694F203FBE814F
:101040001D46461AB3B209E0654E203EB689B61A6F
:10105000634F203FBE811D460E1AB3B29D4216DA81
:1010600057265F4F3E70A8263E70884207DD5C4ED3
:10107000203EB689B61A5A4F203FBE8106E0584E30
:10108000203EB689B618564F203FBE8100E0B0E73B
:1010900000BF5726524F3E70A8263E70504F403F2B
:1010A000009E3E8100264E4FBE74F8BDF0B500276D
:1010B0000026002422E0781C87B225460320FFF793
:1010C0007EFF474820388489A54206DD281B032877
:1010D00001DC012007E0002005E0601B032801DCA3
:1010E000012000E00020002802D0701C86B200E041
:1010F0000026032E01DC052F00DD00E0DBE700BF4A
:10110000002722E0781C87B225460120FFF757FF11
:10111000334820388489A54206DD281B012801DCDC
:10112000012007E0002005E0601B012801DC012010
:1011300000E00020002802D0701C86B200E00026EB
:10114000022E01DC052F00DD00E0DBE700BFF0BD73
:10115000F7B584B00D4614461821049800F07EFCC3
:1011600080B203901821049800F078FCE120C000C0
:1011700041431E2068430818E10F0919491040181F
:1011800087B20194E007C00F002802D00120C003FD
:1011900000E0002002903E463104029801430E46D2
:1011A00057200F490870A82008700D49403903984E
:1011B00048630B482038407C802108430849203987
:1011C00048740748403846630846407C402108433D
:1011D00003492039487400200149087007B0F0BD68
:1011E0004010004002020000C4090000FFFF0000A0
:1011F000F0B585B004460D4616466048C06B8004C5
:10120000800C03905D482030408B02905B4820307A
:10121000008B0190029841000122D2030198904274
:1012200001DB012000E000200F18E1210901384610
:1012300000F014FC0146182203985043081820605F
:10124000E1210901384600F009FC00913C21009899
:1012500000F004FC28803C21384600F0FFFB318080
:1012600005B0F0BD5721454A40321170A8211170D8
:101270004249486341492031497C402211433F4A59
:1012800020325174704700BF3C49886B896B8142A2
:10129000FAD170475721394A40321170A821117094
:1012A00036492031497C17229143344A2032517407
:1012B0001146497C102202431143304A20325174B6
:1012C000704700B50346FFF7DEFFC21890B2002852
:1012D00002D00120000412182948824200D3121AB9
:1012E0005720264940310870A820087023484263DF
:1012F00022482030407C2021084320492031487476
:1013000000BD014600200022002A01D02022104307
:10131000CA07D20F002A01D0102210435722174BC0
:1013200040331A70A8221A70144A2032527C824329
:10133000124B20335A7470470146002905D10F48DB
:101340002030007C8022104070470C482030007C08
:1013500040221040F8E7002802D001280AD104E01A
:101360002021064A2032117405E01021034A203260
:10137000117400E000BF00BF704700000010004083
:101380000000C0A800B50B0008F01AFB05041220ED
:101390002E3842009B4A526B82439A4B5A631A463C
:1013A000126B82431A631A46126A82431A6230E051
:1013B000944A526B8243934B5A631A46126B024310
:1013C0001A631A46126A82431A6222E08D4A526BED
:1013D00002438C4B5A631A46126B82431A631A46B5
:1013E000126A82431A6214E0864A526B8243854B2A
:1013F0005A631A46126A02431A620AE0814A526B21
:101400000243804B5A631A46126A02431A6200E092
:1014100000BF00BF00BD00B50B0008F0D1FA050405
:10142000142434404C00774A403252698243754B51
:1014300040335A611A46126982431A611A46126889
:1014400082431A6038E06F4A4032526982436D4BE2
:1014500040335A611A46126902431A611A461268E9
:1014600082431A6028E0674A403252690243654B62
:1014700040335A611A46126982431A611A46126849
:1014800082431A6018E05F4A4032526982435D4BE2
:1014900040335A611A46126802431A600CE0594AF6
:1014A000403252690243574B40335A611A46126820
:1014B00002431A6000E000BF00BF00BD002906D053
:1014C00001290ED0022916D0032928D11DE04D4A4A
:1014D000928A82434B4B9A821A46D26A0243DA625C
:1014E0001EE0484A928A8243464B9A821A46926A82
:1014F00002439A6214E0434A928A0243414B9A8221
:101500001A46D26A0243DA620AE03E4A928A0243EB
:101510003C4B9A821A46926A02439A6200E000BFEC
:1015200000BF384B98831A46128A02431A827047CA
:10153000002906D0012911D002291CD0032934D159
:1015400026E0304AD28A82432E4BDA822D4A40323C
:10155000D26802432B4B4033DA6027E0294AD28A13
:101560008243284BDA82274A403292680243254B55
:1015700040339A601AE0234AD28A0243214BDA822E
:10158000204A4032D26802431E4B4033DA600DE0FD
:101590001C4AD28A02431B4BDA821A4A40329268B2
:1015A0000243184B40339A6000E000BF00BF154B68
:1015B000D8831A46528A02435A827047002807D0BD
:1015C000104A803A128B0A430E4B803B1A8306E086
:1015D0000C4A803A128B8A430A4B803B1A8370472D
:1015E000002807D0074A803A528B8A43054B803B3C
:1015F0005A8306E0034A803A528B0A43014B803BF0
:101600005A837047801000400146062904D145489E
:1016100000780822104070474248407901228A40F1
:101620001040F8E757203F490870A8200870084686
:101630008079012108433B49887170473A4909681C
:1016400001600021C943384A803211607047364931
:10165000086070473548806970475721314A1170DA
:10166000A8211170002806D11146897904229143DE
:101670002C4A917105E02B49897904221143294AAA
:1016800091710021274A117070475721254A117026
:10169000A8211170002806D11146897902229143B0
:1016A000204A917105E01F498979022211431D4AA0
:1016B000917100211B4A1170704757201949087019
:1016C000A8200870084680791021084315498871C0
:1016D00000200870704710B500210AE0022201E0E6
:1016E00000BF00BF1346541EA2B2002BF8D14B1C02
:1016F00099B28142F2DB10BD30B50446002505E009
:101700007D20C000FFF7E7FF681C85B2A542F7DB2C
:1017100030BD00BF064AD27A082AFBD0044B1872AB
:10172000704700004010004000E100E000E000E0F1
:101730000034004070B5044621462D4800F08EF973
:1017400005460A21681D00F089F9054629498D8161
:1017500070BD10B5E1204002FFF7ECFF872025495E
:1017600088700320C870402048700120887310BD25
:1017700020498978C0229143820111431D4A91700A
:10178000704700280BD01B4A52780A43194B5A70F5
:101790001A46127808231A43164B1A7004E0154AA9
:1017A00052788A43134B5A70704780201149487011
:1017B000704710B50A4609E00E4BDB7A082B05D0BE
:1017C00003780C4C2372401C531E9AB2002AF3D1AA
:1017D00010BD0146002005E0064A127A0A70491C35
:1017E000421C90B2034A927A002AF5D17047000059
:1017F000005A62020034004030B593B0122266A154
:101800006A4811F091FA002804D169A008F0B0F8F4
:1018100000BFFEE757206B490870A82008705120D0
:10182000C000684940390881002066490870482294
:10183000002101A811F03EFB634801900120000344
:101840000290624803900198002804D00121090306
:101850000298884201D200BFFEE701A800F0DEFF37
:10186000C5B2002D04D05AA008F082F800BFFEE7F0
:101870005C4C601E411C884200D90DE0601E5A4934
:1018800048610F210020C04300F04EF80020564967
:1018900088610720086100BF53480069022188431E
:1018A00051490861514807F0D5FF13B030BD70B5FC
:1018B00006460C460120C003204000280DD03046CB
:1018C00011F036FB0546002D02D0284611F00EFB24
:1018D00020460121C903484070BDE007C00F002821
:1018E00003D0204601214840F6E701208003204034
:1018F00000280FD03EA008F03BF87D22D201012144
:1019000089033C48007811F0B9FD20460121890384
:101910004840E1E70020DFE710B504463548047091
:1019200000F088F862B610BD10B5002819DA324A06
:1019300003071B0F083B9B089B00D2588307DC0E54
:10194000FF23A3409A430B071B0E8407E40EA3401A
:101950001A43294B0407240F083CA408A4001A5179
:1019600018E0264A03231B02D21883089B00D25892
:101970008307DC0EFF23A3409A430B071B0E84074B
:10198000E40EA3401A431D4B032424021B198408B0
:10199000A4001A5110BD000043483537785F424C0F
:1019A000455F4C49425F56312E320000C43601007B
:1019B000686561642066696C65206572726F722E5D
:1019C0002E2E0A0040100040E846002000EE0300E2
:1019D0004C494220696E6974206572726F722E2EB6
:1019E0002E0A0000FFFFFF0000E000E05516000097
:1019F0002A200000E84200201CED00E000E100E0A9
:101A000081B2002902D00121090440185721104A4F
:101A10001170A82111700E494039486300210D4A08
:101A20001160704730200A492039087401200949A3
:101A30000860704710B5FFF739FB074807F010FF43
:101A4000002211461046FFF783FB07F053FF10BD3D
:101A500040100040EC420020AD10000030B50B46B5
:101A6000014600202022012409E00D46D5409D4278
:101A700005D31D469540491B2546954040191546FE
:101A8000521E002DF1DC30BD70B500242546002823
:101A900001DA01244042002901DA01254942FFF719
:101AA000DDFFAC4200D04042002C00D0494270BD66
:101AB000F0B51FB486B00020009001900290069807
:101AC000069980B204900798090C0204001411438F
:101AD00007900027089D099806913E463C460390D2
:101AE0000398A9B20204000C039004982D0C15432E
:101AF00048430021224600F018F8C71971411034FC
:101B00000E46402CECDB3846029A00F00EF8009AA4
:101B1000019B801800905941029801911030029069
:101B20004028CCDB00980BB0F0BD10B5202A04DBB8
:101B30000146203A9140002010BD914020239C1A7C
:101B40000346E3401943904010BD03460B439B07F7
:101B500003D009E008C9121F08C0042AFAD203E022
:101B60000B780370401C491C521EF9D270470000CC
:101B7000064C0125064E05E0E36807CC2B430C3CE0
:101B800098471034B442F7D3FEF786FA1C370100A9
:101B90003C37010070B58C180578401C6B075B0F53
:101BA00001D10378401C2A1106D10278401C03E0C1
:101BB00006780E70401C491C5B1EF9D12B0705D41A
:101BC0000023521E0DD40B70491CFAE70378401C09
:101BD000CB1A921C03E01D780D70491C5B1C521E31
:101BE000F9D5A142D8D3002070BD0000F0B5504C0B
:101BF00023681D680626B5431D60467805783602C1
:101C0000AD198678C77836043F06F619AD199D627E
:101C1000467905793602AD198679C77936043F06CB
:101C2000F619AD19DD62467A057A3602AD19867A63
:101C3000C77A36043F06F619AD191D63467B057B4E
:101C40003602AD19867BC07B360400063018281892
:101C500058634D7808782D0240198D78CE782D0480
:101C60003606AD19401998614D7908792D02401951
:101C70008D79CE792D043606AD194019D8614D7A8B
:101C8000087A2D0240198D7ACE7A2D043606AD19C8
:101C9000401918624D7B087B2D0240198D7BC97B52
:101CA0002D040906691840185862586802218843B3
:101CB0005860586801252843586018682843186000
:101CC00058688007FCD55868884358609869107038
:101CD00020688069000A507020688069000C90704C
:101CE00020688069000ED0702068C1691171C169D7
:101CF000090A5171C169090C9171C169090ED1714B
:101D0000016A1172016A090A5172016A090C917221
:101D1000016A090ED172416A1173416A090A51734D
:101D2000416A090C9173406A000ED0730020F0BD27
:101D300048460020024901480860704700C300403F
:101D40004846002030B5264B1968C90517D5032130
:101D5000196001210825491C1C68C9B22C431C606C
:101D600006E01C68A40508D4491CC9B2202904D87F
:101D70001C68E405F5D50029EDD100211960194949
:101D8000136809680B6152684A61174A13688B61CE
:101D90005368CB6193680B62D2684A62124B10336E
:101DA0001A688A625C68CC629C680C63DB684B636F
:101DB0000D4B20331C688C605B68CB600B68202463
:101DC000C007A343800E03430B60086840231843F9
:101DD0000860886A904201D0012030BD002030BDEB
:101DE00080C300404846002020640020F0B5454BE9
:101DF00000241B681C601C615C618578C4782D021E
:101E00006419457806782D043606AD1965193E4CDF
:101E1000AE46E5608679C5793602AD19467907790F
:101E200036043F06F619AD19A560AC46867AC57A28
:101E30003602AD19467A077A36043F06F619AD190F
:101E40006560877BC67B3F02F619477B007B3F04BA
:101E500000063818301820609861DD6165461D6203
:101E600075465D624C780878240200198C78CD782C
:101E700024042D06641906192348B4461030066060
:101E80004D790C792D0264198D79CE792D043606A1
:101E9000AD19651945604E7A0C7A3602A4198E7A0E
:101EA000CF7A36043F06F619A41984604F7B0E7B67
:101EB0003F02F6198F7BC97B3F0409067918711818
:101EC0006646C1609E62DD621C635963517810787A
:101ED000090240189178D4780904240609190A4C9B
:101EE000401820342060557911792D0249199579CF
:101EF000D2792D041206AA18891861609860D960F9
:101F0000F0BD0000484600202064002010B504F019
:101F10007BF9024902F05BFE002010BD06040000C0
:101F200008B5002808D0002906D0002A04D010885F
:101F3000002801D0002008BD1220694608706A46BA
:101F40000121034802F03FFE6946087808BD000001
:101F5000350C000008B503F071FC694608706A464C
:101F60000121034802F02FFE6946087808BD0000F1
:101F70001120000008B503F0E9FE694608706A46C2
:101F80000121034802F01FFE6946087808BD0000E1
:101F900010200000FEB508AF70CF6F4670C703F089
:101FA000FBFE0446024902F012FE2046FEBD000080
:101FB0001320000008B504F017F9694608706A4656
:101FC0000121024802F0FFFD002008BD0E200000A4
:101FD00038B5044604F00AFC694608704C70200AC3
:101FE00088706A460321024802F0EDFD002038BDEA
:101FF0001B20000038B5044604F00EFC694608704A
:102000004C70200A88706A460321024802F0DBFD0A
:10201000002038BD1A2000000EB500A8013005F0E0
:10202000E2F8694608706A460921024802F0CBFDD1
:1020300000200EBD1820000008B500A8013004F0F3
:1020400061FB694608706A460421034802F0BBFD43
:102050006946087808BD0000022000007FB50446EC
:1020600008A861C8009002960195204605F022F963
:10207000694608734C73200A887303AA0321034836
:1020800002F0A1FD002004B070BD0000202000007F
:1020900008B505F02FFD694608706A46012103481E
:1020A00002F091FD6946087808BD00000820000094
:1020B00008B505F0A9FC694608706A460121034885
:1020C00002F081FD6946087808BD00000A20000082
:1020D000F0B585B00AACF0CC03976F4670C705F039
:1020E00025FD6946087404AA0121034802F06BFD2E
:1020F0006946087C05B0F0BD0620000008B505F073
:102100006BFD694608706A460121034802F05BFDD9
:102110006946087808BD00000520000008B505F0F4
:102120009BFD694608706A460121034802F04BFD99
:102130006946087808BD00000C20000008B505F0CD
:10214000CBFD694608706A460121034802F03BFD59
:102150006946087808BD00000920000010B505F0A8
:102160008BFF024902F033FD002010BD1920000052
:102170001CB500A8013005F045F8694608706A46AC
:102180000721034802F01FFD694608781CBD0000C6
:102190000910000038B500A90446033105F042F8E3
:1021A000694608704C70200A88706A46042102480B
:1021B00002F009FD002038BD0514000010B5D2B2B0
:1021C00005F0A9FB10BD0A7802708A7842704A882F
:1021D000120A82700979C170042070470A7802706F
:1021E0000988090A41700220704708888004000CA1
:1021F00070478A78027088780128088804D01221F4
:102200004843401C80B270478000FAE70A780270A9
:102210000A88120A42704888801C80B270470A7887
:1022200002700A88120A42708A7882704A88120AFA
:10223000C2708888001D80B27047088870478A780D
:102240000270088849884843401C80B270478A78E9
:102250000270088849884843401C80B2704708884B
:102260007047088870477FB515460446022901D09B
:10227000102903D1022B04D0102B02D0002004B06F
:1022800070BD994202D10A46294607E010296946E5
:1022900007D000F00DF810226946284610F044FDE2
:1022A000EDE7104600F004F8102269462046F5E7F5
:1022B00070B50C4605000CD0002C0AD0102206493F
:1022C000204610F03FFD2878207368786073012065
:1022D00070BD002070BD00000C37010008B5002261
:1022E0000B4600920122024907F034FC08BD0000B1
:1022F000C721000008B50A88172A07D300220B4619
:1023000000920322024907F025FC08BD022008BD07
:10231000DD21000008B500210B461922009107F0CD
:1023200019FC08BD38B5054608880C4600280DD0B4
:10233000606800280AD0012110F0B2FC009023460A
:1023400007220349284607F005FC38BD022038BDA6
:10235000EB21000038B5054688780C46012801D0ED
:10236000022810D1208800280DD0606800280AD0EB
:10237000022110F095FC00902346052203492846CF
:1023800007F0E8FB38BD022038BD0000F321000053
:10239000064910B5884202D102F0FEFF10BD0CF0D4
:1023A000E1F90028FAD1172010BD0000FEFF00005F
:1023B00038B505464A6800200C46002A03D00321A0
:1023C000104610F06DFC009023461D22024928465D
:1023D00007F07BFB38BD00000D22000038B5054634
:1023E0004A6800200C46002A03D00321104610F052
:1023F00057FC009023461B220249284607F065FB44
:1024000038BD00000D2200000098022B01D00420EE
:1024100070475178127809021143018000207047FB
:102420000098012B01D00420704711780170002022
:10243000704770B5049C1E461546062B1BD3687862
:102440002978000208432080E878A9780002084330
:102450006080022020710246291D601D10F072FC70
:10246000B01F2081062E03D0AD1DE560002070BD99
:102470000020E060FAE7042070BD0098042B01D032
:102480000420704751781378090219430180D178EC
:10249000927809021143418000207047F8B5848981
:1024A0000D46002C2BD086683778390601D40020E1
:1024B00010E00D2C23D30C3CA4B2311900914088BC
:1024C00023463246012107F0A1F8002801D002205E
:1024D00000E0012079062870C90FBA066970920ED3
:1024E000AA70641E2204120CAA8002D0761CAE6070
:1024F00001E00022AA60022803D1002901D00120B6
:10250000F8BD0020F8BD10B50298042B14D3517803
:102510001478090221430180D1789478090221437B
:102520004180191F8180042B02D0121D826001E0BE
:1025300000218160002010BD042010BD0098042BF4
:1025400001D00420704751781378090219430180A3
:10255000D17892780902114341800020704710B56C
:1025600002981146062B03D0142B03D0042010BD73
:10257000022200E0102202714A780B7812021A43FC
:102580000280CA788B7812021A4342800279401D79
:10259000091D10F0D7FB002010BD0098D90706D107
:1025A000022B04D05908818002600020704704206B
:1025B00070470098022B01D00420704751781278A0
:1025C0000902114301800020704710B5029C022BC4
:1025D00011D3207261725078117800020843208074
:1025E000981E6080022B02D0921C626001E00020E5
:1025F0006060002010BD042010BD000038B5054605
:1026000088680C46002802D0052110F049FB009094
:10261000234617220249284607F09CFA38BD0000DD
:102620001F22000038B5054648680C46002802D035
:10263000012110F035FB009023460D220249284667
:1026400007F088FA38BD00003B22000038B5054687
:1026500008880C4600280DD0606800280AD00221A6
:1026600010F01EFB0090234611220349284607F074
:1026700071FA38BD022038BD3F22000038B505464A
:1026800008880C4600280DD0606800280AD0022176
:1026900010F006FB0090234609220349284607F064
:1026A00059FA38BD022038BD4F22000038B5054622
:1026B00048680C4600280AD0012110F0F1FA009079
:1026C00023460F220349284607F044FA38BD02206A
:1026D00038BD00005F22000038B505464A6800207A
:1026E0000C46002A03D00121104610F0D9FA0090C0
:1026F00023460B220249284607F02CFA38BD000079
:102700006322000001490860704700006C46002009
:1027100070B5054608480C46854205D0172C03D3F2
:1027200002F03AFEA04201D2012070BD21462846A7
:102730000CF096F870BD0000FEFF000008B5002107
:102740000B461322009107F005FA08BD0849074817
:1027500048600A78FF2A01D125220A70D1B2054AC1
:10276000114301600449C1627047000000C100408C
:102770004C46002080220801384E010030B580060A
:10278000094A800E094C107021684D68FF230133FF
:102790009D434D60064908435168086020684168C0
:1027A0001943416030BD00004C4600205C460020CB
:1027B0008022080180060449800E0870034A496897
:1027C00010430860704700004C460020C0220801FA
:1027D0000249002049688863704700004C46002089
:1027E00010B5FFF7A7FA00F0DFF802F03BFF05F0A5
:1027F000DDFDFFF7ABFF084C5D202168086505F0A3
:10280000A1FE06F0BDFC05F065FE05F037FE21686F
:102810000020086510BD00005846002030B5044671
:10282000482200213A4810F045FB206800280BD0D0
:10283000374D28606068002808D06860A068A860EC
:10284000E068002804D005E0012030BD022030BD42
:1028500001204002E86020690121002804D028619D
:102860006069002802D002E02961F9E71B20686155
:10287000A069002800D10A20A861E069002810D0D2
:10288000E861206A00280ED08006800E2862E06B86
:1028900000280AD0E863606A002808D0E96B401875
:1028A00007E0E961EDE71520F0E71E20F2E7E86BAD
:1028B00046306862A06A002800D0A862E06A00285A
:1028C0000AD0E862206B002800D028633920005D20
:1028D0008009022802D008E00420F2E70C482146D3
:1028E00006223431343010F02DFA216C002907D043
:1028F000606C002804D0800002D52964606C03E07D
:1029000004480078286404486864002030BD000052
:1029100060570020804000205440002070B5002007
:102920000E210B4B0124A4035A8815462540CD40A7
:102930005204120C0543E8B25604D50BF60F75404D
:102940001543491EC9B25D800629EDD870BD00004F
:102950006046002070B5002008210A4B4C011A88FF
:1029600015462540CD4005435200E8B2550A5609A8
:102970007540ED07ED0F1543491E09061D80090E30
:10298000EDD170BD6046002000220AE0022101E086
:1029900000BF00BF0B46491E89B2002BF8D1521C64
:1029A00092B28242F2D37047094908480860094947
:1029B000CA680261426109698161C161826841142A
:1029C0000A438260C2680A43C260704700C0004088
:1029D00054460020285800200246FD2008498C2338
:1029E0004B723F231B039A4205D24A60A62008720D
:1029F000887A402250404A7A73231A404A727047BC
:102A000000180040F8B500240E4F26460E20604303
:102A1000C5190622FF21284610F04CFAA81D0622EF
:102A2000FF2110F047FA0848AE810655641CE4B255
:102A3000032CEBD3002010F089FB03490320143949
:102A40004873F8BDB4630020C845002010B50249A2
:102A5000C87307F0FDFD10BDB4450020FFB58FB071
:102A6000054600200C900D900CAA284600F006FAAE
:102A7000434E0446032855D207F0C9FD0546307879
:102A8000022819D0002000902A462146129B119856
:102A900007F088FC1422002101A810F00BFA062090
:102AA0002746474338462430C0B201AA102110F00F
:102AB000AFFB002802D014E00120E4E71022FF2140
:102AC00001A810F022F900280BD12537F8B205AA89
:102AD000042110F09DFBE907C90F01AA119801F02C
:102AE000C7F97034E0B206AA182110F091FB002853
:102AF00011D106A807F09DFD002406AFA000C01963
:102B00000188002903D08278119801F093FC641C9D
:102B1000E4B2062CF2D3A80707D5F17B119801F097
:102B200077FC02E01298082803D01298042813D0EA
:102B300022E0307802281FD100222946119807F0A0
:102B4000BDFBF069002817D04368002B14D0002289
:102B50001146119898470FE0307802280CD130794F
:102B6000119A002800D001207178002900D004219A
:102B70000143104601F048F9002013B0F0BD0000F9
:102B8000B445002070B501F007F8002822D1124C9E
:102B90000025207B012806D00F4E00241436305D1E
:102BA00001280AD00DE007F06CFC0B4825730322C6
:102BB0000021143010F07EF907E0204607F06EFC8B
:102BC0003555641CE4B2032CE9D3502010F0CAFA46
:102BD00007F03EFD70BD0000B445002070B5264DE5
:102BE0000C4608040FD5E87B10F0A2F9050006D0CA
:102BF00007F0C0FD002802D0284610F077F9012028
:102C0000C003604070BDA0070BD50021084607F047
:102C1000B9FA02214C40002825D1E87B10F084FA53
:102C20001FE0E00721D0286A808807F0D5FD012148
:102C30004C40002817D0E86900280DD04368002BCD
:102C40000AD0286A002280889847E969286A002209
:102C50004B68808803219847062010F0B9FA07F0E6
:102C600083FA204670BD0121D7E7600702D5042012
:102C7000484070BD002070BDB44500207FB50446BB
:102C80008078754D801F030006F09AFE0AE1E4E4A7
:102C9000941B06DDE469A8E4E869002808D006680A
:102CA000002E05D0637B227B6189E01CB047D1E018
:102CB0006189A86900F090FF0028F8D0608901219F
:102CC000BBE060780026002830D1A079C0072DD065
:102CD000286A00282AD10E220021684610F0EAF85E
:102CE0006169002903D006226846103107E0A088F8
:102CF0000BF0DEFC002870D0811D0622684610F023
:102D000021F869468889A1794907C90F08436946AE
:102D1000888107F06FFB032801D1FFF773FE21467E
:102D2000684607F02FFA002812D01526E869002817
:102D300053D04368002B50D06278A0880121984777
:102D4000002E4AD0E969A0884B683246032171E021
:102D50000221E87B10F0E8F9002004B070BD607833
:102D6000062817D1A0880BF0A3FC060012D0A87A81
:102D7000012804D0022808D003280BD114E071796F
:102D8000A088002207F09AFA04E0A1883078052292
:102D900001F0A6F8E86900285CD04368002B59D000
:102DA0006278A088022145E0002211462B4800F0FD
:102DB000F7F8EAE7E0780022211D00F05FF8032829
:102DC00048D20621484325302246C0B20C320421A5
:102DD00010F05EFA032010F0FBF93BE06879002860
:102DE00002D0A088A97928E028780028A08823D0DC
:102DF0000BF05EFC06002DD0A07AC0070BD07079D6
:102E0000002808D0A189890505D46A46B11D00F0C3
:102E100035F8002814D022467179A088083207F0CE
:102E20004DFAE869002815D04368002B12D0002223
:102E3000A088114698470DE0052101F041F809E00E
:102E4000A0880321F9E7A08800F06EF902E0A088CD
:102E5000FFF798FE012080E7B44500200904000038
:102E600010B5054CE061E17B262000F0F1FFE07B2E
:102E700001F07CFA10BD0000B4450020F0B5032439
:102E800085B015460F46002807D0012805D0032637
:102E9000022810D0032847D120E0084607F076FB2F
:102EA0000446032840D2002D3ED00622394628464B
:102EB0000FF048FF38E01E4F002400910E206043C1
:102EC000C0190622801D00990FF02EFF002823D183
:102ED000641CE4B2032CF1D334461DE000242046E8
:102EE000062148432330C0B26A46102110F090F901
:102EF00000280CD11022FF2168460FF006FF0028A1
:102F000005D13946684600F05BFF002804D0641CF8
:102F1000E4B2032CE3D3DFE7032C05D2002D03D06A
:102F20002946204607F058FB204605B0F0BD0000BA
:102F3000B463002070B50E4617491525884212D19A
:102F4000002432460221204607F06CFA002800D007
:102F50000025641CE4B2032CF3D3002E1AD00F48D2
:102F60000BF020FC16E00BF0A3FB040011D06079FD
:102F70000022A11DFFF782FF032804D2324602215E
:102F800007F050FA0025002E04D0204607F08EFBF3
:102F900000E01425284670BDFFFF0000ADA600002C
:102FA000FEB5154601229202821A002401275B4ECB
:102FB000130006F005FD130B12171E252C343B40A1
:102FC00048737A828AA896539DA4A800012973D1D8
:102FD0002878022870D830709DE002296CD12888AA
:102FE000308298E0012967D12878012864D8707070
:102FF00091E001297ED1287804287BD8B0708AE03E
:10300000012977D12878012874D8F07083E010293D
:1030100070D11022294642480FF094FE7BE001292E
:1030200068D12878012865D8307174E0012961D110
:103030002878F0716FE004295CD13A492868884209
:1030400058D8B06167E0002954D100F0A5FD0028F0
:1030500001D037735FE007F014FA19E0072949D16E
:103060000622691C684610F055F828780022694647
:10307000FFF704FF054603280ED200F08DFD00285F
:1030800003D026481430475545E0284607F006FA95
:10309000502010F067F821E002243CE0012929D1FA
:1030A0002878012826D8707135E0012922D12878A6
:1030B00009281FD8B0712EE01CE001291AD1287808
:1030C000C11F092916D8307225E0012912D1F17AE1
:1030D0002878F07200291ED101281CD107F0B8FA17
:1030E00019E0012906D12878032803D8B07212E02C
:1030F000012901D018240EE02878B0730BE00020DD
:1031000010F066F807E02728C6D20229C4D1298822
:1031100000F09EFE04462046FEBD0000B44500209F
:10312000A46300203F420F00FEB506460020019038
:10313000029030460BF0BCFA040015D0134F3878DB
:10314000022811D0607901AAA11DFFF797FE05465C
:1031500003280AD207F05BFA0246012000900823F8
:103160002946304607F01EF9FEBD3878002807D002
:103170000128F9D161790022304607F09FF8FEBDA1
:103180000521304600F09CFEFEBD0000B445002045
:10319000F8B50F4613491525164688420DD100246F
:1031A00032463946204607F08BFA002800D0002529
:1031B000641CE4B2032CF3D312E00BF079FA00287C
:1031C0000DD04379811D00221846FFF757FE0328D2
:1031D00006D23246394607F073FA002500E014257E
:1031E0002846F8BDFFFF000070B50C4601460320DD
:1031F00000020A1A00253448130006F0E1FB1D10F6
:1032000012151C1F2326282C303234383A3C3E40FD
:10321000424446484A4E50525A5456585A004078F2
:1032200011E01022294902E02849102210312046DD
:103230000FF088FD45E0406A206042E02249062206
:103240003431F4E7C07820703BE0C08936E01E4995
:1032500082783A31EBE71D4902791F39E7E7407A76
:10326000F1E7807AEFE7184906222831DFE7C07AD4
:10327000E9E7007BE7E7008A20E0408A1EE040792A
:103280001CE0808A1AE0C08A18E0008B16E0408BB0
:1032900014E00D4906222E31C9E7808B0EE0C08B69
:1032A0000CE0008C0AE0007ACDE78079CBE7C079AA
:1032B000C9E7272904D2084600F0E8FB208000E097
:1032C0000225284670BD0000DC450020FD6300207B
:1032D00010B51E49002408701D491E4A0C70611E5D
:1032E000118000F067FD1C490420087010220021A5
:1032F0001A480FF0DFFD1022002119480FF0DAFD07
:1033000018481B4904601848144A04701748047090
:103310000720087017481021047002200FF078FF72
:103320000F4A102103200FF073FF10220B4912489F
:103330000FF008FD10481022094910300FF002FD6F
:103340000421084A08460FF063FF10BDDC45002049
:10335000E4450020EC450020DD450020FD63002011
:103360000D64002000460020E5450020E6450020D1
:10337000E7450020E845002084630020FEB5444D69
:103380000C4608040CD528780FF0D2FD050004D0B7
:1033900008F090FA28460FF0A9FD0120C00373E061
:1033A00060040AD504213B4A08460FF071FF022051
:1033B0000FF00EFF0120800366E03749E207012786
:1033C0000878364E002A2FD0354A1278002A24D0A9
:1033D000052825D03348694600780870324806220F
:1033E0000078487000A8314902300FF0ABFC30483B
:1033F0006946007808722F4800784872287800F0F3
:1034000061FB002809D02449072008707168002951
:1034100003D00968002900D0884720467840FEBDC7
:10342000032069460870E2E7A1070FD505280BD1F4
:103430002148008801F09AFC20480288002A03D025
:103440000221287810F01AF802201DE0600704D548
:10345000002008F075FA042016E0200716D5307811
:10346000012802D002280ED10BE0154800970388EE
:1034700014480288144801881448008800F028F88D
:1034800001E000F089F808206040FEBD0020FEBD8C
:10349000DC45002000460020E4450020A84500202F
:1034A000DF450020E5450020E645002004460020D9
:1034B000E7450020E8450020EC450020EE450020CF
:1034C000F6450020F4450020F2450020F04500209C
:1034D00070B5164C049D2478052C01D0142070BDC5
:1034E000134E841FB4421ED206291CD3B41DA14220
:1034F00019D2FF26F536B24215D20A2B13D3A342B6
:1035000011D20C4C20800C4801800C4802800C48E1
:103510000380284608F014FA0A48042100780FF0C6
:10352000F5FF002070BD182070BD0000E4450020AC
:103530007A0C0000F0450020F2450020F445002000
:10354000F6450020DC4500201CB50C49097800290F
:1035500001D011201CBD002801D0094948600A484B
:10356000009008490A48019101780A48074B002257
:10357000007800F021FA00201CBD0000E445002086
:10358000A8450020004600200D640020FD630020B7
:10359000DD450020DC45002010B5074800780528EF
:1035A00001D0122010BD054813220188044800787C
:1035B00000F096FC10BD0000E4450020EC45002022
:1035C000DC450020F7B50D4686490098164642189E
:1035D000854F00243878397A130006F0F1F91C0F72
:1035E000151CF62141465A71787F8990F697A3AA57
:1035F000B5C0C9F6F6F6F6D4F6EAF1F6102D76D196
:103600001022314679486FE0102DF8D1774810220A
:103610003146103068E0042D69D130687862DAE014
:10362000012D64D1FB783278FA70002B0AD0002A81
:1036300007D1022903D0062901D0042901D100F0C5
:10364000FBF9C8E0002A0AD0012905D0032903D0DC
:10365000052901D0042902D101210FF065FDBAE04E
:10366000022D44D13088F881B5E01F2D3FD85E4847
:103670001F2200213A300FF01DFC5B482A463146DC
:103680003A300FF05FFB584BBD703A332A460121A8
:1036900012E01F2D2BD855481F2200211F380FF094
:1036A00009FC52482A4631461F380FF04BFB4F4B5E
:1036B0003D711F3B2A460021387800F057FC8FE00F
:1036C000012D74D13078042871D8787283E0012DEF
:1036D0006DD1307803286AD8B8727CE0062D66D1A7
:1036E00041480622314628300FF02CFB73E05EE0A3
:1036F000012D5CD13078072859D8F8726BE0012D84
:1037000055D13078032852D8387364E0022D4ED159
:1037100032887A82002A5ED005295CD102210FF01E
:10372000ADFE58E0012D42D1307801283FD87871A4
:1037300051E03088022D3AD1062838D31921C90129
:10374000884234D8B88246E03088022D2FD106282E
:103750002DD31921C901884229D8F8823BE030884D
:10376000022D24D1FF21F531884220D2388332E066
:103770003088022D1BD10A2819D31921C90188428A
:1037800015D8788327E03178012D10D101290ED189
:1037900008210FF0B1FA002801D016241BE0002008
:1037A00008F0CEF8042138780FF0B0FE13E01824AA
:1037B00011E0012DFBD13078B8710CE000E004E09D
:1037C000012DF4D13078F87105E00098272801D256
:1037D000022D02D002242046FEBD318800F038FBC5
:1037E0000446F8E7FFFCFFFFDC450020FD630020F6
:1037F000F8B50E46040049D020880AF059FF0500AC
:1038000042D024490878022806D0012804D0287B19
:10381000082803D1002E01D0122438E01E4F786909
:10382000002801D0112432E047212C200FF0A6FA05
:103830007861002826D02C2200210FF03BFB78690C
:10384000218841801C22211D001D0FF07BFA7B691D
:10385000022018700F4822888178287B08280FD012
:1038600000201B1D05F08AFE0446002E03D03146C1
:1038700028460EF09DF8002C09D007F005F906E067
:103880000120EEE7132402E0142400E00224204685
:10389000F8BD00006446002034430020FFB51F48F7
:1038A00081B000781E4617460D46022818D0012820
:1038B00016D0002F30D001980AF0FAFE040029D06B
:1038C000A06A002801D00FF097FA1C2138460FF0AB
:1038D00045FAA062011E1BD0207B082803D00DE012
:1038E000122005B0F0BD002E08D0887E00900B4657
:1038F00012330A8A01980EF051FB00E00020217972
:10390000002D01D0062200E0042211432171E8E7D6
:103910001320E6E71420E4E70220E2E764460020F3
:1039200010B505480078000701D5044800E00020E4
:1039300007F048FE10BD00006446002088460020C5
:1039400070B51B4C05460121207807F0C7F81948CF
:1039500001780A20014224D0204625700C3007F05F
:103960002BFE606800281AD1207800281DD00001A5
:1039700007210FF003FA6060002810D021780A01B7
:1039800000210FF097FA0020FF222378616803E0FE
:103990000401401C0A55C0B29842F9D305E0132037
:1039A00070BD0020207007F007FE002070BD0000F1
:1039B0007446002064460020F8B50224079F1D4687
:1039C0001646012906D002290BD0042911D0082956
:1039D0002FD11EE000F0E4F804002AD100F038F9FD
:1039E00027E000F0DDF8040023D13046FFF7A8FF00
:1039F0001FE000F0D5F804001BD13A46284606998E
:103A000000F0E2F900F024F900F00AF905F06CFD8D
:103A10000FE000F0C5F804000BD13A46284606999D
:103A200000F0D2F93046FFF78BFFFFF779FF05F082
:103A3000B5FC2046F8BD000070B5104C2168002987
:103A400019D00978814214D10D4D0221A8780FF0C8
:103A50005DFD0C4800264680A87804210FF056FD35
:103A600009484671216803204870002001F04DF993
:103A700070BD032070BD122070BD00004C430020BB
:103A8000644600209046002070610020272801D362
:103A90000248704702494000085A7047FFFF000083
:103AA0006243002010B5054AFF21D170044AD1704D
:103AB0009070052101F06CFD10BD000070610020C8
:103AC00064460020FEB52E4D044628680F460028A7
:103AD00001D01120FEBD2B4E05213078084201D1C6
:103AE0001220FEBD28494968002905D0097800291F
:103AF00002D0C00702D007E01020FEBD00F04CF855
:103B000022490978884206D33878022803D003284E
:103B100001D0122431E047210C200FF02FF928604A
:103B2000002829D00470002141700A223946801CE7
:103B30000FF008F9164DA878032806D008F0C0F851
:103B400004001AD006F094FF17E007F01DF869464C
:103B500005F0A3FB684607F0DBFB012028711D2060
:103B6000FFF794FF0006000E687106D0B078094A8E
:103B700004210FF077FC00E013242046FEBD000076
:103B80004C4300206446002090460020524500200F
:103B9000706100200077010010B50AF0EBFD10BD48
:103BA00070B50E4605462022002109480FF082F923
:103BB000074C0848E570067001F0CEF8002803D0E5
:103BC00000202070122070BD0121217070BD000006
:103BD00070610020644600207FB504460D4608460B
:103BE0000AF066FD002817D00C48844212D2102239
:103BF000002168460FF05EF969460C70200A487093
:103C0000200C8870200EC8702946684605F0D6FB47
:103C100004B070BD0220FBE71220F9E740420F001C
:103C200010B508480078400707D5074807F0D6FCCC
:103C300000200649C043C88010BD002007F0CEFC1C
:103C400010BD000064460020A046002070610020E6
:103C5000F8B51E4C00256068002802D00FF0CCF8A3
:103C60006560E068002802D00FF0C6F8E560184EE5
:103C700005273078384224D01448143007F0A8FCC7
:103C8000307838421BD0472120200FF077F8606051
:103C9000002814D0202200210FF00CF94721202009
:103CA0000FF06CF8E060002805D0202200210FF012
:103CB00001F90020F8BD60680FF09EF865601320E0
:103CC000F8BD002007F084FCF3E7000090460020D8
:103CD00064460020FEB5344E344D0C4608041DD514
:103CE000B0780FF025F9070011D03878A22806D057
:103CF000F578384607F06EFB00280BD101E0ED782F
:103D0000F7E7FF2D06D0394628460FF049F9012084
:103D1000C00345E038460FF0E9F8F8E7E00701276F
:103D2000234A00280AD05068002804D0416800299E
:103D300001D00020884720467840FEBD1C48A107DE
:103D4000C06808D5002804D04168002901D00120AE
:103D50008847022024E0610724D5697900291ED014
:103D6000491E0906090E697119D19169002907D008
:103D70002F71002804D04168002901D00120884714
:103D80006946E86805F089FA684607F0C1FA1D201F
:103D9000FFF77CFE6871B07804210FF0B7FB0420B8
:103DA0006040FEBD0020FEBD644600207061002022
:103DB000344300200149C870704700006446002069
:103DC00010B505F06BFB10BD70B50E4C0B46626173
:103DD00021610546E0601022002118460EF095FF93
:103DE000012803D1102120690DF0C4FB102200210D
:103DF00028460EF08AFF012803D11021E0680DF05B
:103E0000B9FB70BD706100207FB50C4605460AF015
:103E10004FFC002815D0007B042802D0122004B0EB
:103E200070BD09484069002800D0847D684621465D
:103E30000EF0DCF8054B6A46022128460EF068F8C1
:103E4000EDE71420EBE7000034430020ED240100EF
:103E5000272802D2044A914201D102207047034A26
:103E60004000115200207047FFFF00006243002015
:103E700070B50E46114915460B78022B17D0012B51
:103E800015D0002D17D00AF013FC040011D0002E1D
:103E900003D02079022108432071204610222946B0
:103EA00014300EF04FFF28696062002070BD1220B0
:103EB00070BD142070BD022070BD0000644600205B
:103EC00038B50C4605460AF0F3FB002806D06846D4
:103ED0000470694628460EF00BF838BD142038BD32
:103EE000F8B50C461746204905461E4A1226886832
:103EF000944208D1002833D00268002A30D02146ED
:103F000028469047F8BD174A521C944219D1002800
:103F100008D00268144E002A04D021462846904753
:103F2000002806D03946284606F0F4F8060004D0EA
:103F300016E0757037700020F8BD0B4845700770AB
:103F40000EE020460AF0B4FB002809D00078A84211
:103F500001D00320F8BD3946204600F040FEF8BDF0
:103F60003046F8BDFEFF00003443002070B5144613
:103F7000204A1E46127805231A4223D01E4D0029DE
:103F800001D06A6800E0EA68002A1BD0202C2ED2FB
:103F9000002C01D0002E2AD02870002914D0686887
:103FA0001F220021401C0EF085FF68682246314622
:103FB000401C0EF0C7FE696820460C70491C00F0DA
:103FC000A0FE70BD122070BDE8681F220021401CB9
:103FD0000EF070FFE86822463146401C0EF0B2FE3B
:103FE000E96820460C70491C00F0A6FE70BD022056
:103FF00070BD00006446002090460020014610B5C8
:104000000020C90706D0044B10221846042140386E
:1040100000F0B2F910BD000028450020F8B5104EA0
:10402000114FB0700F49384600F022F800220D48B9
:104030001346D23894010753002124180C254D4310
:104040006519AB80491CEB600529F7DB521C032A7C
:10405000F0DBB078307005480AF0BEFBF8BD000018
:104060007444002092620020FFFF000041C4000061
:1040700070B50A4C0025A04208D1002082008C5265
:104080005218401C95700328F8DB70BD08F0A9F9A0
:104090000028FAD00480857070BD0000FFFF00008A
:1040A000F8B50E460746069900240798002902D065
:1040B0000B242046F8BD022B01D00D24F9E75178DE
:1040C00012780D0215432946814301D08024F0E780
:1040D0003846F16800F042F9A842EAD02A4638464C
:1040E000F16800F0EFF90446E3E7000070B50D4613
:1040F00008041AD50E4880780EF01AFF04000FD07D
:104100002078B02809D1204608F02EFB002804D0E2
:1041100020462179083000F0F3FC20460EF0E6FE40
:1041200001212846C903484070BD002070BD000031
:1041300074440020FFB585B000200F9F0090087ADE
:104140000E9D1C460E46C0060BD5079808F042F996
:1041500003007DD00A223146059898470090002838
:1041600016D13078022815D0079808F059F90028A0
:10417000EFD0006884460028EBD0119910982246B1
:104180000097029101902B46314664460598A0475E
:1041900009B0F0BD70682922417800780902014316
:1041A0001202881A91427CD00BDC6948081A13D09D
:1041B000012811D0022817D00328D5D1002F53D0C1
:1041C0009BE001287ED002286DD0032877D00428F8
:1041D000CAD1002F68D090E0002F6FD1F06801782D
:1041E00029800278416884E0002F67D1F068417827
:1041F00000780F02074304202880F06804A90078A3
:104200002070F06840786070384600F087F906004A
:1042100022D06846028A03AB4E493046F76800F068
:10422000DBF900280AD1337802214B487268FEF787
:104230001AF8002802D14748694688813878022850
:104240000CD10222201D79680EF07CFD288800E048
:104250007CE0801C288001E0684687816846808970
:10426000A070000AE0706FE001202880F068002153
:10427000007820707089401C80B200F04FF900284F
:1042800013D0298802788918891C2980817A617065
:104290004189090AA17002784168E01C0EF052FDC4
:1042A00052E00CE00EE026E03BE028880422001DEE
:1042B00028800021601C0EF0FDFD45E01DE0002F70
:1042C00027D01AE0F0680FF032F980B2B84201D27C
:1042D00007205DE7874201D1002006E01099C91947
:1042E000814201D3C01B00E01098288082B2F068A0
:1042F000C1192046D2E7002F01D00B2048E7F16812
:10430000059800F02BF8022129802070000A6070C7
:104310001AE002202880F06800782070F068407869
:10432000F5E70721F06829800178217041786170F4
:104330008178A1704188090AE17001792171817940
:104340006171C088000AA071009821E70E201FE764
:1043500000280000FFFF0000E636010010B508F05D
:1043600040F8002800D0807810BD00000149487056
:1043700070470000744400207CB51E4605001CD028
:10438000684601808270019500F032FA04001FD166
:10439000002E1DD0688900280FD047210C200EF078
:1043A000EDFC002813D00021016069898180094A51
:1043B0008660D168002903D107E002207CBD114648
:1043C0000A68002AFBD1086002E0D06000E01324F4
:1043D00020467CBD74440020F8B50C4C074660783C
:1043E00015460E46FF280FD00A200EF06BFD010087
:1043F0000AD0B12008704F80002048700871CE802C
:104400000D8160780EF0CCFDF8BD000074440020F2
:1044100070B50C4605460649FFF7A0FF800704D596
:104420002146284600F03EFA70BD012070BD000014
:10443000926200200EB56B461A81FE230022019382
:104440000092022302AA00F001F80EBDFFB583B06E
:10445000174602A90D9E049800F060F804002AD0C7
:104460006846008907F0DCFF002822D04568002D4F
:104470001FD00C98019600903A462146069B03985F
:10448000A847050018D1FE2E16D02078022813D197
:1044900060684178027808020949104388420BD1CC
:1044A0007878397802020A4304990398FFF794FF59
:1044B00002E00E2500E00125284607B0F0BD00000F
:1044C0000229000070B514460E46054607F089FF24
:1044D000002806D13146054807F083FF002803D0A5
:1044E00005808470002070BD112070BDFFFF0000AA
:1044F00010B50178B0290BD14178002908D1017994
:10450000122906D01B2903D14088012100F04AFF5F
:1045100010BD417C0129F7D010BD0000F0B5104A54
:10452000136919E09C686589A84214D39E887219A2
:10453000824210D900220CE017013F197F8987427F
:1045400005D1002900D00D8010010019F0BD521CCA
:1045500092B2B242F0D31B68002BE3D10020F0BD31
:1045600074440020FFB51B4883B0002305692DE08B
:10457000AE68002470890190A888009016E021019F
:1045800088194289039FBA420ED3049FBA420BD8BE
:10459000069A002A0FD01346715C4068059AFDF711
:1045A00062FE002807D10023641CA4B20098844254
:1045B000E5D3002B09D00C98002802D00C99019863
:1045C00008802001801907B0F0BD2D68002DCFD1E3
:1045D0000020F8E774440020FEB5174600256A461F
:1045E0009580044640891D4A1E46904208D001AA83
:1045F0000092401C237880B26268FFF7B3FF054643
:104600002378022116486268FDF72DFE002807D1A5
:104610002378022113486268FDF725FE002801D0A7
:1046200060890EE0237802210F486268FDF71BFEC7
:1046300000280DD0002D03D068468088B84203D0F2
:10464000384608F073FD04E06889401E80B200E03F
:104650006089002E00D030802846FEBDFFFF00009C
:10466000E4360100E6360100EA360100FFB583B00A
:104670000E461D46174601A9039807F075FC040075
:1046800022D1002F0FD0694608803088FFF746FFFF
:104690006946088800F042F901460122039809F0B2
:1046A000DBFF002811D131460398FDF781FE04009D
:1046B0000AD1FF2D08D0019B1E22194604489B1CDD
:1046C00008F03FFD0198C570204607B0F0BD00001E
:1046D00095CF000010B50749FF220A7000224A60FA
:1046E0008A6005490871042100F052FF00F006F8C5
:1046F00010BD0000644400206446002070B5002016
:104700000D4D0E4B0446FF22062141435D52C91850
:10471000CA708A70401C0C710328F5DB0120C0436D
:104720001880074807F01AFE0648FDF7EBFF064819
:104730000AF052F8002070BDFFFF000080620020E8
:10474000DDCF0000BFCF000015CF00007CB50546CF
:104750001248164600780C46022801D216207CBD6D
:1047600001A9284607F000FC1728F8D0002E10D029
:104770000020694608802088FFF7D0FE6946088837
:1047800000F0CCF801460122284609F065FF002818
:10479000E5D121462846FDF721FE7CBD3D450020A0
:1047A00008B5009313460A4601460248007807F010
:1047B000F1FB08BD6444002070B50D46080412D515
:1047C0000A4800790EF0B4FB040008D02078A02835
:1047D00002D1204607F046FD20460EF087FB01205F
:1047E000C003684070BD002070BD0000644600201A
:1047F00070B504464568008800284AD02B7802210D
:1048000025486A68FDF72FFD002807D12B78022183
:1048100022486A68FDF727FD00283AD0A078C01F1B
:10482000092834D81E4EB08800282ED021880818B8
:1048300001210904884228D847210C200EF09EFA55
:10484000050020D0002207E011016368B0880A311A
:104850005852401CB080521C20889042F4DC00204A
:10486000286008222146281D0EF06CFA30690028C5
:1048700001D105E0084601680029FBD1056000E090
:104880003561002070BD132070BD012070BD18205F
:1048900070BD022070BD0000E4360100E636010064
:1048A00074440020FEB50E46074600250223194A2F
:1048B000194901200095FFF755FE040027D0232059
:1048C0000090002304221D21384600F0D3F8029006
:1048D00000281AD06089694688800420C88002991F
:1048E000012008700298334645700299FF208870B5
:1048F00002990022C87001A93846FFF7B7FE0400EC
:1049000006D002980EF078FA02E0152400E00124A7
:104910002046FEBD02370100FFFF000000B507F092
:10492000DFFA002801D0807800BD102000BD00B55E
:1049300007F0D6FA002800D0008800BD7CB50C46F0
:104940000546FDF7E5FE00280AD16846848001A8E7
:10495000009004487F2300222946007807F01AFBC4
:104960007CBD00006444002010B504460B46880658
:104970000DD51046FFF7D2FF01460122204609F06F
:104980006BFE052801D00F2800D1082010BD88201B
:1049900003420CD01046FFF7C1FF0146180701D5AE
:1049A000012200E00022204609F056FE10BD8807D3
:1049B00001D5002010BD032010BD10B50346C80668
:1049C0000DD51046FFF7AAFF01460122184609F04F
:1049D00043FE052801D00F2800D1082010BD48074C
:1049E00005D51046FFF79AFF0146012206E048066A
:1049F00008D51046FFF792FF01460022184609F03D
:104A00002BFE10BDC80701D0002010BD022010BD34
:104A100070B51D4603460C4688060DD51046FFF7B7
:104A20007DFF01460122184609F016FE052801D037
:104A30000F2800D1082070BD8820044214D01046F1
:104A4000FFF76CFF0146200701D5012200E000229C
:104A5000184609F001FE002808D0697A0029EAD03A
:104A6000297A002902D170BD880701D5002070BDC8
:104A7000032070BDF8B5069F1E461546162928D09E
:104A80000CDC09291FD004DC05291CD0062911D112
:104A90001BE0112917D012290CD118E01D2916D0BE
:104AA00004DC172915D01B2904D110E052290ED09F
:104AB000D2290CD00124114A95420CD1FDF768FC93
:104AC000001B85B20BE00224F5E70724F3E703247B
:104AD000F1E70524EFE7D22901D10C35ADB2601919
:104AE00080B2394600F0B0FD002805D0002E00D07D
:104AF000358061420EF0D4F8F8BD0000FFFF0000E1
:104B000010B507F0FDF9002801D00EF075F910BDC1
:104B1000014610B50020C90706D0044B10221846E4
:104B200009219038FFF728FC10BD000054440020F4
:104B300070B51646214A0D46114600241031030077
:104B400004F03EFF0A061338381838212838313867
:104B5000152D2AD81622002119480EF0ABF92A4645
:104B6000314617480EF0EEF825E0022D1DD13088B1
:104B7000508020E0082D18D1104808223146083016
:104B8000FCF7E3FF17E0012D0FD1CA690B4930781C
:104B9000383105E0012D08D1CA6B08493078583109
:104BA00008F09EFB07E0012D01D0182403E03078C7
:104BB000107000E00224204670BD0000B4430020C5
:104BC00090610020704710B500F0FAF810BD10B5E4
:104BD00000F016F910BD10B500F02AF910BD10B59F
:104BE000FDF794F910BD10B500F036F910BD10B501
:104BF00000F052F910BD10B500F068F910BD10B505
:104C0000FDF78EF9002010BD10B5FDF7A3F910BD1A
:104C10007CB5069C079DC0B20195009400F06CF92C
:104C20007CBD10B5FDF7A6F910BDFEB508AF70CF7D
:104C30006F4670C7FDF7AEF9FEBDF0B585B084468E
:104C40000AA8F1C804976F4671C7604600F084F95E
:104C500005B0F0BD38B5049C009400F0B5F938BD3E
:104C600010B5FDF7A7F910BD38B5049C009400F00D
:104C7000C9F938BD7CB5069C079DC0B2019500946A
:104C800000F0DEF97CBDFFB587B094468E4610A8D3
:104C9000F7C806976F4677C762467146079800F0D7
:104CA00005FA0BB0F0BD10B500F052FA10BD10B50A
:104CB00000F06AFA10BD10B5FDF78AF910BD10B505
:104CC000FDF798F910BD10B5FDF7A6F910BD10B5A8
:104CD000FDF7B2F910BD10B500F074FA10BD10B5B3
:104CE00000F08CFA10BDFEB508AF70CF6F4670C7EC
:104CF000FDF7B4F9FEBD38B5049C009400F09CFAB1
:104D000038BD10B5FDF7C4F910BD10B5FDF7D0F9E9
:104D100010BDF0B585B00AACF0CC03976F4670C7F4
:104D2000FDF7D6F905B0F0BD10B5FDF7E7F910BDF8
:104D300010B5FDF7F3F910BD10B5FDF7FFF910BD83
:104D400070B55478157822022A43FDF707FA70BD32
:104D500010B500F08FFA10BD10B5FDF709FA10BDBF
:104D600038B5049C009400F09DFA38BD10B5FDF7ED
:104D700011FA10BD10B500F0B1FA10BD10B5FDF775
:104D80001DFA10BD10B505280ED90C4CA0420BD24F
:104D9000A14209D2814207D3FF20F530824203D2DB
:104DA000092B01D9A34201D3002010BD521C4A4354
:104DB000D8008242F8DA012010BD0000810C00000A
:104DC000F8B50746084616460D460C300EF07AF840
:104DD000040011D0912020700E206070A570204634
:104DE000A7800C302A463146A0600DF0ABFF034887
:104DF000214680780EF0D4F8F8BD0000644600200B
:104E000070B505460C4606200EF05CF801000BD08C
:104E1000912008700F2048708D700120C8700348E1
:104E20008C8080780EF0BCF870BD000064460020D5
:104E300010B5044603200EF045F8010008D091207B
:104E400008701A20487003488C7080780EF0A8F81B
:104E500010BD00006446002070B5064614460D469D
:104E600008200EF02FF801000ED0912008700520C8
:104E700048708E708D8005488C7180780EF090F8A7
:104E800003480449007E087070BD0000644600209D
:104E9000605700203D45002070B5064614460D467B
:104EA00008200EF00FF801000CD0922008703E2070
:104EB0004870082088708D808E710348CC714079CD
:104EC0000EF06EF870BD00006446002070B5054617
:104ED0000C4606200DF0F6FF010009D09120087065
:104EE000302048708D7003488C8080780EF058F820
:104EF00070BD000064460020FFB581B01E460F461D
:104F000031200DF0DFFF040022D0912020703E20E0
:104F100060700220A0700120E07020460830054635
:104F20006060019828706F700622A81C03990DF02C
:104F300009FF2E722846324609300A990DF002FF09
:104F400020350B9828720348214680780EF028F807
:104F500005B0F0BD64460020FFB5074681B01D4690
:104F6000164616200DF0AEFF040029D091202070C7
:104F70003E2060700120A070002F08D03120E0702A
:104F800020460622002108300DF094FF07E00020A3
:104F9000E0702046062208300A990DF0D3FE0298F0
:104FA000A080A671E5710B98E0810C9820820D9885
:104FB00060820E9820750348214680780DF0F0FF3E
:104FC00005B0F0BD64460020F8B507461C461546FE
:104FD0000E460C200DF076FF01000FD091200870D6
:104FE0003E20487003208870CF708E80CD800C8169
:104FF00006984881024880780DF0D2FFF8BD000085
:1050000064460020F8B507461C4615460E460E209D
:105010000DF058FF01000FD0912008703E2048701D
:10502000072088708F80CE800D814C810698888102
:10503000024880780DF0B4FFF8BD000064460020FF
:10504000FFB581B01F4618200DF03CFF050028D0A9
:10505000912028703E2068700B20A87001202C46FB
:105060000834E87000266C60019820700298607027
:105070000622A01C03990DF065FE27722046062229
:1050800009300A990DF05EFE0B98E073761CE87803
:10509000F6B21034B042E7D80348294680780DF0C4
:1050A0007FFF05B0F0BD000064460020FFB581B071
:1050B0001D4616460F4622200DF004FF040042D084
:1050C000912020703E2060700A20A0700198002876
:1050D00014D03120E07020460622002108300DF067
:1050E000E9FE2046062200210E300DF0E3FE2046A8
:1050F0000622002114300DF0DDFE13E00020E070E8
:105100002046062208300A990DF01CFE2046062291
:105110000E300B990DF016FE2046062214300C9925
:105120000DF010FEA780A671E5710D9860830E98B2
:10513000A0830F98E083202110980855034821464A
:1051400080780DF02DFF05B0F0BD00006446002012
:1051500070B505460E4626200DF0B4FE040010D0B2
:10516000912020703E2060700920A070A580202230
:105170003146A01D0DF0E6FD0248214680780DF075
:105180000FFF70BD64460020F8B5064615460F4671
:1051900010200DF097FE040011D0922020703E20C8
:1051A00060700520A070A68008223946A01D0DF071
:1051B000C9FD0348E581407921460DF0F1FEF8BDB7
:1051C0006446002070B505460E4646200DF07AFE76
:1051D000040010D0912020703E2060700820A07044
:1051E000A58040223146A01D0DF0ACFD02482146AD
:1051F00080780DF0D5FE70BD64460020F8B50646F7
:1052000017460D460E200DF05DFE040011D09220D1
:1052100020703E2060700420A070E670A5800822F7
:105220003946A01D0DF08EFD0248214680780DF014
:10523000B7FEF8BD64460020F8B507461C46154683
:105240000E460E200DF03EFE01000FD0912008709A
:105250003E204870062088708F80CE800D814C8162
:1052600006988881024880780DF09AFEF8BD00000B
:105270006446002070B514460D4608200DF022FE4D
:1052800001000BD090200870132048700120887016
:105290008D800348CC8040780DF082FE70BD000008
:1052A00064460020F8B507461C4615460E460C20FD
:1052B0000DF008FE01000DD0912008700C20487000
:1052C0008F708E808D710C8106984881024880789D
:1052D0000DF066FEF8BD000064460020FFB50746ED
:1052E00081B015460E460C200DF0ECFD040014D0E4
:1052F00090202070FF20607067802671E580482133
:1053000028460DF03BFDA0602A4604990DF01AFDD9
:105310000348214640780DF043FE05B0F0BD000083
:105320006446002008B51346034A00920A4601214C
:1053300008F088FF08BD000031D500003EB500230D
:105340000192042402930A460094024B122109F0B0
:105350007BF83EBDD7D5000008B51346034A00923E
:105360000A46132108F06EFF08BD000003D60000B6
:105370001FB56946C8810022FF2103206C4607C47F
:10538000034B03AA0621034809F05EF804B010BDE0
:10539000A7D50000FFFF00000148C088704700004B
:1053A0003C45002013B504480079012803D101AA27
:1053B0006946FFF724FC1CBD3C45002070B522491E
:1053C00030224870002121480DF074FD09F0AAF93F
:1053D0001F4D28782C46083C00280ED000014C2197
:1053E0000DF0CCFC2061002807D06978E1702978A5
:1053F000A1700A0100210DF05DFD1648E1780078EA
:105400004018C0B2207000014C210DF0B7FCE060E4
:10541000002811D021780A0100210DF04BFD002059
:10542000FF2105E0E3680201D218401C5172C0B2AE
:1054300022789042F6D302E000202070E070064807
:1054400009F0CAF970BD000064460020A062002087
:10545000444500205245002075D900000A2A01D099
:10546000012070474A780B7812021A430280CA78EA
:105470008B7812021A4342804A790B7912021A433E
:105480008280CA798B7912021A43C2804A7A0B7AD7
:1054900011021943018100207047042A01D0012024
:1054A00070474A780B7812021A430280CA788B78C8
:1054B00011021943418000207047082A01D00120C1
:1054C00070474A780B7812021A430280CA788B78A8
:1054D00012021A4342804A790B7912021A438280DF
:1054E000CA798B7911021943C180002070470000EE
:1054F000F8B5244C244E0D46080433D52046407898
:105500000DF016FD04000BD02078902805D16078AE
:10551000132808D0204608F095FD20460DF0E6FC43
:105520000120C0032CE0194900208969A778CAB27C
:1055300094460CE04200121992797378D218D2B2D4
:105540007270914201D262467270401CC0B28742B2
:10555000F0D870780028E0D00A48012140780DF09A
:10556000E3FDDAE7E8070CD008F04EFF002806D08C
:105570007078002803D0607801210DF0D5FD01205E
:105580006840F8BD644600203C450020605700207C
:10559000042907D0052905D0062903D0072901D001
:1055A000022070470C22044B4A43D218403A118221
:1055B0009074002070470000A062002070B50C4677
:1055C00009880546042905D0052903D0062901D0FC
:1055D000072929D16068002826D00121284609F032
:1055E0002FF900281ED0284609F0BCF80F498D423B
:1055F0000BD0002809D12189002906D92088062846
:105600000ED10B48008881420AD20A48007800284F
:1056100004D02146284608F057F870BD162070BD0A
:105620001B2070BD142070BD022070BDFEFF000065
:10563000424500203D450020024A001FD0805170A5
:10564000704700003C45002010B5001D80B24C2181
:105650000DF094FB002803D00321C9430DF020FB7B
:1056600010BD000010B5114900204871114C1048C0
:1056700020600A22DE21002000F020F8642232217E
:10568000012000F01BF864223221022000F016F8FD
:105690000A22DE21032000F011F8206841681F2251
:1056A000114341600449C16010BD0000A8570020AB
:1056B00000C20040584600201F03000010B5254BD3
:1056C00020241B68002809D0012816D0022823D0E6
:1056D000032830D0042800D1996510BD18692043F3
:1056E00018611869A043186159619869204398614D
:1056F0009869A0439861DA6110BD186A2043186266
:10570000186AA04318625962986A20439862986A9E
:10571000A0439862DA6210BD186B20431863186BBF
:10572000A04318635963986B20439863986BA04318
:105730009863DA6310BD186C20431864186CA0439A
:1057400018645964986C20439864986CA0439864DA
:10575000DA6410BD58460020FCB535480068816801
:105760005A278B07012500223249002B0DDA836866
:105770000224A34383604368DB0703D14B79FD24F4
:1057800023404B71CD708A7007658368DB070CD0AE
:1057900083685B085B0083600A704D704368DB07B9
:1057A00003D14B795B085B004B718368DB051AD52D
:1057B0008368FF240134A34383600B785B060DD517
:1057C0001D4EB36B0093B36B0193019C009BA342EE
:1057D000F7D11C46174B80331B6A9C660B782B4312
:1057E0000B704A70076583689B0508D583680124A0
:1057F0006402A34383608B782B438B70CA708368E9
:10580000DB0604D583681024A34383604A71836850
:105810005B0704D583680424A34383604A718368CB
:105820001B0704D583680824A34383604A71FCBD29
:1058300058460020A8570020001000401CB51A4A06
:105840005369002B05D09C7C002C02D0DB7C002B04
:1058500011D19369002B05D05C7E002C02D09B7E79
:10586000DB0708D1D369002B07D05C7D002C04D066
:105870009B8B002B01D012201CBD0C4B128E5B6841
:105880001B0A9A420BD26A46507000A806220230C8
:105890000DF058FA684602F023FD012801D00720D8
:1058A0001CBD00201CBD00002858002060570020AF
:1058B000F0B51F4C89B00D4606462146002004F085
:1058C000ADF90028F9D0A042F7D00021044601200C
:1058D00080052746074300910191029103910491AD
:1058E0000591069107916A46D773390A9173390C6D
:1058F0005173304604AA694609F0D5FC6A46907F88
:10590000517F000209044018D17F40182870010A15
:105910006970000CA8700121200A89030843EF7008
:105920002871200C40210843687109B0F0BD0000C7
:10593000FFFF3F000A4A10B51046D16C4030017697
:105940000B0A4376090C8176916CC1760A0A0277BC
:10595000090C417709F0CAF809F07CF810BD000085
:10596000A857002070B51848174A44695569607BEC
:1059700027212035252802D0262822D01EE068794C
:10598000820715D5262060730021FF20913000BFCB
:10599000491C8142FBD3204609F094FA68794007FC
:1059A0000CD50A48228C407808210DF067FD05E0EF
:1059B000400703D56173204609F084FA00F0E8F847
:1059C00070BD6879F4E70000285800201C430020CF
:1059D00070B5112188200DF0D1F904003BD01F4D86
:1059E0008822002120466C610DF064FA01222273A6
:1059F000902060740023A374E86860602869A06048
:105A0000032117486175006A15281DD008DC01289C
:105A10000DD003280ED0072810D00F281BD110E07E
:105A20001D2813D0232813D03F2814D112E01320AF
:105A3000C04301E00D20C04320750CE00720C043A7
:105A4000FAE70220C043F7E7237504E0227502E07D
:105A50000220F1E72175204670BD00002858002083
:105A60006057002010B500F033F982228021002019
:105A700001F084FC10BD0000F8B543484249446978
:105A800080390F462546803160354B69687B583731
:105A900001266E3300280DD02239009101280CD048
:105AA0003E39C97900296DD00021022812D003287F
:105AB00030D052E00622394605E033488038806F06
:105AC000002802D00622184645E02F4906221C393C
:105AD000184640E02973287D002817D020467430EE
