:020000040000FA
:1000000000800020490B0000510B0000530B000042
:1000100000000000000000000000000000000000E0
:10002000000000000000000000000000530B000072
:100030000000000000000000550B0000570B0000FE
:10004000590B0000590B0000590B0000590B000020
:1000500025290000FD580000590B0000590B000035
:10006000590B0000590B0000590B0000590B000000
:1000700095170000590B0000590B0000590B0000A8
:10008000590B0000590B0000590B0000590B0000E0
:100090000348854601F054FC00480047F10A00007F
:1000A0000080002010B586B00446FE4804700A2186
:1000B000059105AA0121FC4803F04AFA4B214901A8
:1000C000022003F001FF4B214901032003F0FCFE55
:1000D0000821152003F0F8FE0821162003F0F4FE95
:1000E0006421192003F0F0FEF04A1521002004F0ED
:1000F000D3FD002005900121049103910321029179
:100100000121019105AA04218120C00003F00AF811
:1001100004AA0121880203F005F803AA0121E2489C
:10012000E73002F0FFFF02AA0121DF48E83002F0C9
:10013000F9FF01AA0121DC48EB3002F0F3FF04F0E3
:1001400065FBD848007804F0F9FB0020C04304F0B8
:1001500093FD0020C04303F08DFF0121D1480078BA
:1001600014F03AF806B010BD08B5D1A000680090B0
:100170000020D0490880D0490880D049088001205B
:10018000CF490870C748037802226946CD480088E5
:1001900004F000FA08BD10B586B00446C8480078DF
:1001A000012842D12079072819D12089002816DD9D
:1001B000E0680078E168497809020843BF4908808F
:1001C000E0688078E168C97809020843BA49088084
:1001D00008460288B9480188BBA009F039FE207999
:1001E000072802D160781A2802D02079012840D14E
:1001F000B248008800283CD00220B1490870AF48BE
:10020000018868460180AC48018868464180022127
:100210000171F1214171FF218171A2480278694683
:10022000A848008804F084FB23E0A5480078022851
:100230001FD12079092819D12089002816DDE0680E
:100240000078E1684978090208439A49088000204B
:10025000A84908701922920120219248007814F0D0
:1002600065F994480188A4A009F0F2FD00209449A2
:10027000087006B010BD70B50446A9480078022881
:1002800000D070BD2079032805D0207901280ED137
:10029000207A02280BD12079012805D1257B294617
:1002A000A0A009F0D5FD00BF002092490870207978
:1002B0007F2803D12189A1A009F0CAFD20790B284C
:1002C00005D02079012814D1207A0A2811D120796B
:1002D000012805D1257B29469BA009F0B9FD04E042
:1002E000E06801789CA009F0B3FD00208149087006
:1002F00025E02079132805D02079012818D1207A0B
:10030000122815D12079012800D100E00020012811
:1003100005D1257B294694A009F09AFD04E0974871
:10032000017897A009F094FD00207249087006E05A
:1003300063480078002802D02046FFF72CFF21797F
:100340002046083004F090FC00BF9AE710B5044640
:100350002078B02803D12046FFF78DFF00BF00BFF3
:1003600010BD7FB506460C460120C0032040002882
:1003700011D04C48007813F033FE051E05D02846F6
:10038000FFF7E4FF284613F009FE20460121C903C8
:10039000484004B070BDE007C00F002809D07C4879
:1003A00003F070F87B4802F01DFE20460121484012
:1003B000EFE708202040002805D0FFF7D5FE2046B3
:1003C00008214840E5E71020204000280DD04B20B0
:1003D000C00000230622114600903A48008803F02E
:1003E000CDF9204610214840D3E7202020400028A6
:1003F00056D040480078002840D16748007800284F
:100400003DD000216846417301732A48018868463F
:1004100081800121C180002000906846C2880023AD
:1004200012212848008804F0D9FB02900298002885
:1004300024D052480078029908701A48027801A91D
:100440002048008804F0C2FB002813D1012029496C
:10045000087051480078002801D1012000E00020F8
:100460004D4908701922920120210E48007814F09D
:100470005DF803E0122101A804F0F6FB97E00D48B7
:10048000008803900748027803A90E48008804F00A
:100490004BFA002805D10120164908703E487DE03E
:1004A00089E083E0004000201B030000B846010003
:1004B000F0FF000012400020104000200E400020FD
:1004C0000D4000200A400020466F756E6420507277
:1004D0006F66696C65205365727669636520686133
:1004E0006E646C65203A202578207E202578200ACD
:1004F0000000000016400020466F756E64204368BF
:100500006172616374657269737469632031206814
:10051000616E646C65203A202578200A0000000096
:100520000C40002045786368616E6765204D545526
:10053000204572726F723A2025780A004D54553A60
:100540002025780A0000000052656164204572721F
:100550006F723A2025780A005265616420727370C8
:100560003A2025780A0000005772697465204572A8
:10057000726F723A2025780A0000000014400020B3
:1005800057726974652073656E743A2025780A0085
:10059000D0460100DC46010015400020007800280C
:1005A00001D1012000E00020C349087000BF2046AF
:1005B00020214840EDE60020EBE670B505460C46EC
:1005C0006142BEA009F044FC70BD38B505460C463A
:1005D0000094BE4802786946BD48008804F00CF8D3
:1005E0002146BCA009F034FC0120BF49087038BD89
:1005F000F0B585B005460E46BC4800780A285ADAA0
:1006000000240DE0E000BA4A8018811C062228462A
:1006100013F0E2FB002801D005B0F0BD601CC4B2AD
:10062000B24800788442EDDBB0490978C900B04A8D
:100630008918881C0622294613F0DCFBAB48007899
:10064000C000AB4940184670A8480078401CA74934
:10065000087008460078401EC000A5494018C079BF
:10066000A2490978491EC900A14A891889799F4A77
:100670001278521ED2009E4BD21852799B4B1B7897
:100680005B1EDB009A4FDB191B79009301920291EC
:10069000039096480078401EC00039464018C37841
:1006A00092480078401EC000401882788F48017838
:1006B00090A009F0CDFB00BFAEE770B50446A0786E
:1006C00006287CD006DC002809D0012815D0052892
:1006D00076D14BE0072874D00D28F9D108E08FA01F
:1006E00009F0B6FB00220121032002F0E9FE9CE0A4
:1006F0002179601DFFF77CFF97E000250CE0E80002
:100700007B4A8018811C0622884813F065FB00286C
:1007100000D005E0681CC5B2744800788542EEDB65
:1007200000BF7248007885420ED181A009F090FB8D
:1007300000206E49087000220121032002F0C0FE53
:1007400076A009F085FB10E07FA009F081FBE800AE
:1007500067494018831CE800401842780021084689
:1007600002F026FE7DA009F073FB5EE060780028B1
:100770002CD102207D4908706089554908800120EC
:10078000594908701922920108215048007813F045
:10079000CDFE77480078002806D01922D20110211A
:1007A0004A48007813F0C2FE72480078002805D04D
:1007B0007D21C9004648008802F090FE02E013E067
:1007C00032E02DE06CA009F043FB0CE0002067490B
:1007D0000870801E3E49088000206B4908706178CF
:1007E0006AA009F035FB20E0002060490870801EF7
:1007F000374908800020644908706C4908803B49EB
:10080000087039490870A17969A009F021FB6FA02F
:1008100009F01EFB00220121032002F051FE04E03A
:100820006EA009F015FB00E000BF00BF70BD70B501
:1008300006460C461546002C04D129466CA009F04A
:1008400007FB1FE0012C09D1002D03D16DA009F099
:10085000FFFA17E070A009F0FBFA13E0022C05D1B3
:10086000002D0FD170A009F0F3FA0BE0032C09D191
:10087000002D03D171A009F0EBFA03E0294674A022
:1008800009F0E6FA70BDF8B507460D461E4613F0AE
:1008900083FC04467449204600F098FF0C46002E65
:1008A00003D0214671A009F0D3FA22460021284640
:1008B00002F03EFAF8BD00001540002052535349A3
:1008C000203A202D2564206442200A0000400020A8
:1008D0000A40002065786368616E6765206D7475F5
:1008E0003A25640A00000000164000200140002064
:1008F00034440020446576696365202564202D20FA
:100900004164647220257820257820257820257878
:10091000202578202578200A0000000044697363B0
:100920006F766572696E672E2E2E0A0002400020D7
:10093000446576696365206E6F7420666F756E64BA
:100940002E2E2E0A0000000044657669636520663D
:100950006F756E642E2E2E0A00000000436F6E6EBF
:10096000656374696E672E2E2E0A00000C4000200D
:100970000940002008400020436F6E6E6563746577
:10098000642E2E2E0A0000000D400020436F6E6E74
:10099000656374204661696C65642E2E2E52656114
:1009A000736F6E3A252D38580A000000124000205F
:1009B000446973636F6E6E65637465642E2E2E5288
:1009C0006561736F6E3A2538780A00004469736375
:1009D0006F766572696E672E2E2E0000506172610F
:1009E0006D205570646174652E2E2E0A0000000083
:1009F00050616972696E6720737461727465643ADC
:100A000025640A0050616972696E672073756363BB
:100A10006573730A0000000050616972696E672097
:100A20006661696C0A000000426F6E64696E67203F
:100A3000737563636573730A00000000426F6E6430
:100A4000207361766520737563636573730A0000B4
:100A5000426F6E642073617665206661696C6564BF
:100A60003A2025640A00000040420F005061737371
:100A7000636F64653A25640A0000000010B5002425
:100A80002046641C09F03AF92046641C00F0FCFD85
:100A90002046641C05F092FE2046641C04F060FDB4
:100AA0002046641C03F0A4F82046641C03F09AFE60
:100AB0002046641C08F0D4FE2046621CD4B202F02A
:100AC0006FF82046621CD4B203F0E4FA2046621CA0
:100AD000D4B202F081FC2046621CD4B2FFF7E2FAE5
:100AE00010480078844202DD0FA009F0B1F910BD72
:100AF0001248806A01214902084310498862032193
:100B00000120400200F0F6FA00F0DBFC0C490DA0D9
:100B100009F09EF900F028FDFFF7B0FF01E009F0B1
:100B200019F9FCE744400020737973206576656EFF
:100B300074206572726F722E0A00000080100040EF
:100B4000E446010025730A00044880470448004732
:100B5000FEE7FEE7FEE7FEE7FEE70000650B0000AC
:100B6000910000005720FA490870A82008708820DA
:100B7000F74940390881704700B5030009F090F942
:100B80000D081A2C37414C56606A75808B96A1006F
:100B90005721EF4A1170A8211170ED492039C97B06
:100BA00004229143EA4A203AD173C821E84A403AE4
:100BB000118187E05721E64A1170A8211170E4499C
:100BC0002039C97B04221143E14A203AD173C8215C
:100BD000DF4A403A118175E05721DD4A1170A821A2
:100BE00011705121C900DA4A403A11816AE0572157
:100BF000D74A1170A8211170D649D54A403A1181BF
:100C000060E05721D24A1170A8211170812189001A
:100C1000CF4A403A118155E05721CD4A1170A821A1
:100C200011708821CA4A403A11814BE05721C84AC5
:100C30001170A82111700221C54A403A118141E08A
:100C40005721C34A1170A82111700421C04A403AAB
:100C5000118137E05721BE4A1170A82111709321EC
:100C60008900BB4A403A11812CE05721B84A1170E3
:100C7000A8211170B7494D31B54A403A118121E0A0
:100C80005721B34A1170A821117095218900B04AEB
:100C9000403A118116E05721AD4A1170A821117018
:100CA0004B21C900AA4A403A11810BE05721A84ABA
:100CB0001170A8211170A7495C31A54A403A1181F1
:100CC00000E000BF00BF00BD5721A14A1170A8215C
:100CD0001170002808D19E49403909895215914365
:100CE0009B4A403A118108E099494039098901221B
:100CF00052021143964A403A118170475721944A53
:100D00001170A8211170002808D191492039C97BA0
:100D1000042291438E4A203AD17307E08C4920394E
:100D2000C97B042211438A4A203AD1737047F8B52F
:100D300004462246864E403E36890096864957260E
:100D4000834F3E70A8263E70824E814F403F3E81C9
:100D500057267F4F3E70A8263E700126BE747F4BFB
:100D60004DE000BF7A4EB67C02273E40002EF9D0FF
:100D7000774E308A00BF764EB67C02273E40002E6A
:100D8000F9D100BF724EB67C02273E40002EF9D04A
:100D90006F4E308A57266E4F3E70A8263E708842AE
:100DA0000ADD6B4E203EB689B618694F203FBE81E2
:100DB0001D46461AB3B209E0654E203EB689B61A02
:100DC000634F203FBE811D460E1AB3B29D4216DA14
:100DD00057265F4F3E70A8263E70884207DD5C4E66
:100DE000203EB689B61A5A4F203FBE8106E0584EC3
:100DF000203EB689B618564F203FBE8100E0B0E7CE
:100E000000BF5726524F3E70A8263E70504F403FBD
:100E1000009E3E8100264E4FBE74F8BDF0B50027FF
:100E20000026002422E0781C87B225460320FFF725
:100E30007EFF474820388489A54206DD281B032809
:100E400001DC012007E0002005E0601B032801DC35
:100E5000012000E00020002802D0701C86B200E0D3
:100E60000026032E01DC052F00DD00E0DBE700BFDC
:100E7000002722E0781C87B225460120FFF757FFA4
:100E8000334820388489A54206DD281B012801DC6F
:100E9000012007E0002005E0601B012801DC0120A3
:100EA00000E00020002802D0701C86B200E000267E
:100EB000022E01DC052F00DD00E0DBE700BFF0BD06
:100EC000F7B584B00D4614461821049800F07EFC56
:100ED00080B203901821049800F078FCE120C00053
:100EE00041431E2068430818E10F091949104018B2
:100EF00087B20194E007C00F002802D00120C00390
:100F000000E0002002903E463104029801430E4664
:100F100057200F490870A82008700D4940390398E0
:100F200048630B482038407C802108430849203919
:100F300048740748403846630846407C40210843CF
:100F400003492039487400200149087007B0F0BDFA
:100F50004010004002020000C4090000FFFF000032
:100F6000F0B585B004460D4616466048C06B800457
:100F7000800C03905D482030408B02905B4820300D
:100F8000008B0190029841000122D2030198904207
:100F900001DB012000E000200F18E12109013846A3
:100FA00000F014FC014618220398504308182060F2
:100FB000E1210901384600F009FC00913C2100982C
:100FC00000F004FC28803C21384600F0FFFB318013
:100FD00005B0F0BD5721454A40321170A82111706B
:100FE0004249486341492031497C402211433F4AEC
:100FF00020325174704700BF3C49886B896B814235
:10100000FAD170475721394A40321170A821117026
:1010100036492031497C17229143344A2032517499
:101020001146497C102202431143304A2032517448
:10103000704700B50346FFF7DEFFC21890B20028E4
:1010400002D00120000412182948824200D3121A4B
:101050005720264940310870A82008702348426371
:1010600022482030407C2021084320492031487408
:1010700000BD014600200022002A01D0202210439A
:10108000CA07D20F002A01D0102210435722174B53
:1010900040331A70A8221A70144A2032527C8243BC
:1010A000124B20335A7470470146002905D10F486E
:1010B0002030007C8022104070470C482030007C9B
:1010C00040221040F8E7002802D001280AD104E0AD
:1010D0002021064A2032117405E01021034A2032F3
:1010E000117400E000BF00BF704700000010004016
:1010F0000000C0A800B50B0008F0D2FE05041220C5
:101100002E3842009B4A526B82439A4B5A631A46CE
:10111000126B82431A631A46126A82431A6230E0E3
:10112000944A526B8243934B5A631A46126B0243A2
:101130001A631A46126A82431A6222E08D4A526B7F
:1011400002438C4B5A631A46126B82431A631A4647
:10115000126A82431A6214E0864A526B8243854BBC
:101160005A631A46126A02431A620AE0814A526BB3
:101170000243804B5A631A46126A02431A6200E025
:1011800000BF00BF00BD00B50B0008F089FE0504DC
:10119000142434404C00774A403252698243754BE4
:1011A00040335A611A46126982431A611A4612681C
:1011B00082431A6038E06F4A4032526982436D4B75
:1011C00040335A611A46126902431A611A4612687C
:1011D00082431A6028E0674A403252690243654BF5
:1011E00040335A611A46126982431A611A461268DC
:1011F00082431A6018E05F4A4032526982435D4B75
:1012000040335A611A46126802431A600CE0594A88
:10121000403252690243574B40335A611A461268B2
:1012200002431A6000E000BF00BF00BD002906D0E5
:1012300001290ED0022916D0032928D11DE04D4ADC
:10124000928A82434B4B9A821A46D26A0243DA62EE
:101250001EE0484A928A8243464B9A821A46926A14
:1012600002439A6214E0434A928A0243414B9A82B3
:101270001A46D26A0243DA620AE03E4A928A02437E
:101280003C4B9A821A46926A02439A6200E000BF7F
:1012900000BF384B98831A46128A02431A8270475D
:1012A000002906D0012911D002291CD0032934D1EC
:1012B00026E0304AD28A82432E4BDA822D4A4032CF
:1012C000D26802432B4B4033DA6027E0294AD28AA6
:1012D0008243284BDA82274A403292680243254BE8
:1012E00040339A601AE0234AD28A0243214BDA82C1
:1012F000204A4032D26802431E4B4033DA600DE090
:101300001C4AD28A02431B4BDA821A4A4032926844
:101310000243184B40339A6000E000BF00BF154BFA
:10132000D8831A46528A02435A827047002807D04F
:10133000104A803A128B0A430E4B803B1A8306E018
:101340000C4A803A128B8A430A4B803B1A837047BF
:10135000002807D0074A803A528B8A43054B803BCE
:101360005A8306E0034A803A528B0A43014B803B82
:101370005A837047801000400146062904D1454831
:1013800000780822104070474248407901228A4084
:101390001040F8E757203F490870A8200870084619
:1013A0008079012108433B49887170473A490968AF
:1013B00001600021C943384A8032116070473649C4
:1013C000086070473548806970475721314A11706D
:1013D000A8211170002806D1114689790422914371
:1013E0002C4A917105E02B49897904221143294A3D
:1013F00091710021274A117070475721254A1170B9
:10140000A8211170002806D1114689790222914342
:10141000204A917105E01F498979022211431D4A32
:10142000917100211B4A11707047572019490870AB
:10143000A820087008468079102108431549887152
:1014400000200870704710B500210AE0022201E078
:1014500000BF00BF1346541EA2B2002BF8D14B1C94
:1014600099B28142F2DB10BD30B50446002505E09B
:101470007D20C000FFF7E7FF681C85B2A542F7DBBF
:1014800030BD00BF064AD27A082AFBD0044B18723E
:10149000704700004010004000E100E000E000E084
:1014A0000034004070B5044621462D4800F08EF906
:1014B00005460A21681D00F089F9054629498D81F4
:1014C00070BD10B5E1204002FFF7ECFF87202549F1
:1014D00088700320C870402048700120887310BDB8
:1014E00020498978C0229143820111431D4A91709D
:1014F000704700280BD01B4A52780A43194B5A7088
:101500001A46127808231A43164B1A7004E0154A3B
:1015100052788A43134B5A707047802011494870A3
:10152000704710B50A4609E00E4BDB7A082B05D050
:1015300003780C4C2372401C531E9AB2002AF3D13C
:1015400010BD0146002005E0064A127A0A70491CC7
:10155000421C90B2034A927A002AF5D170470000EB
:10156000005A62020034004030B593B0122266A1E6
:101570006A4812F031FC002804D169A008F068FC28
:1015800000BFFEE757206B490870A8200870512063
:10159000C000684940390881002066490870482227
:1015A000002101A812F0DEFC634801900320C00274
:1015B0000290624803900198002804D00121090399
:1015C0000298884201D200BFFEE701A801F0D0F9DD
:1015D000C5B2002D04D05AA008F03AFC00BFFEE7C7
:1015E0005C4C601E411C884200D90DE0601E5A49C7
:1015F00048610F210020C04300F04EF800205649FA
:1016000088610720086100BF5348006902218843B0
:1016100051490861514808F08DFB13B030BD70B5D9
:1016200006460C460120C003204000280DD030465D
:1016300012F0D6FC0546002D02D0284612F0AEFC72
:1016400020460121C903484070BDE007C00F0028B3
:1016500003D0204601214840F6E7012080032040C6
:1016600000280FD03EA008F0F3FB7D22D20101211B
:1016700089033C48007812F059FF20460121890374
:101680004840E1E70020DFE710B504463548047024
:1016900000F088F862B610BD10B5002819DA324A99
:1016A00003071B0F083B9B089B00D2588307DC0EE7
:1016B000FF23A3409A430B071B0E8407E40EA340AD
:1016C0001A43294B0407240F083CA408A4001A510C
:1016D00018E0264A03231B02D21883089B00D25825
:1016E0008307DC0EFF23A3409A430B071B0E8407DE
:1016F000E40EA3401A431D4B032424021B19840843
:10170000A4001A5110BD000043483537785F424CA1
:10171000455F4C49425F56312E320000E4460100DD
:10172000686561642066696C65206572726F722EEF
:101730002E2E0A00401000408444002000EE0300DA
:101740004C494220696E6974206572726F722E2E48
:101750002E0A0000FFFFFF0000E000E0C5130000BC
:101760002A200000454000201CED00E000E100E0E0
:1017700081B2002902D00121090440185721104AE2
:101780001170A82111700E494039486300210D4A9B
:101790001160704730200A49203908740120094936
:1017A0000860704710B5FFF739FB074808F0C8FA22
:1017B000002211461046FFF783FB08F00BFB10BD1B
:1017C00040100040484000201D0E000030B50B4680
:1017D000014600202022012409E00D46D5409D420B
:1017E00005D31D469540491B254695404019154691
:1017F000521E002DF1DC30BD70B5002425460028B6
:1018000001DA01244042002901DA01254942FFF7AB
:10181000DDFFAC4200D04042002C00D0494270BDF8
:10182000F0B51FB486B00020009001900290069899
:10183000069980B204900798090C02040014114321
:1018400007900027089D099806913E463C46039064
:101850000398A9B20204000C039004982D0C1543C0
:1018600048430021224600F018F8C719714110348E
:101870000E46402CECDB3846029A00F00EF8009A37
:10188000019B8018009059410298019110300290FC
:101890004028CCDB00980BB0F0BD10B5202A04DB4B
:1018A0000146203A9140002010BD914020239C1A0F
:1018B0000346E3401943904010BD03460B439B078A
:1018C00003D009E008C9121F08C0042AFAD203E0B5
:1018D0000B780370401C491C521EF9D27047F0B5BA
:1018E0001FB40646002082B00546402401910090B6
:1018F0001BE0019922460F46304600F033F8049A67
:10190000059B801A994110D3104619462246FFF7CD
:10191000C4FF361A8F410197224601200021009F03
:10192000FFF7BBFF38184D4100902046641E002889
:10193000DFDC019B00982946324607B0F0BD00006D
:10194000064C0125064E05E0E36807CC2B430C3C12
:1019500098471034B442F7D3FEF79EFB3C47010092
:101960005C47010010B5202A04DB0846203AD0402D
:10197000002110BD0B46D340D0402024A21A914034
:101980000843194610BD70B58C180578401C6B07CC
:101990005B0F01D10378401C2A1106D10278401C4C
:1019A00003E006780E70401C491C5B1EF9D12B0722
:1019B00005D40023521E0DD40B70491CFAE703789E
:1019C000401CCB1A921C03E01D780D70491C5B1C57
:1019D000521EF9D5A142D8D3002070BDF0B5504CAD
:1019E00023681D680626B5431D60467805783602D3
:1019F000AD198678C77836043F06F619AD199D6291
:101A0000467905793602AD198679C77936043F06DD
:101A1000F619AD19DD62467A057A3602AD19867A75
:101A2000C77A36043F06F619AD191D63467B057B60
:101A30003602AD19867BC07B3604000630182818A4
:101A400058634D7808782D0240198D78CE782D0492
:101A50003606AD19401998614D7908792D02401963
:101A60008D79CE792D043606AD194019D8614D7A9D
:101A7000087A2D0240198D7ACE7A2D043606AD19DA
:101A8000401918624D7B087B2D0240198D7BC97B64
:101A90002D040906691840185862586802218843C5
:101AA0005860586801252843586018682843186012
:101AB00058688007FCD5586888435860986910704A
:101AC00020688069000A507020688069000C90705E
:101AD00020688069000ED0702068C1691171C169E9
:101AE000090A5171C169090C9171C169090ED1715D
:101AF000016A1172016A090A5172016A090C917234
:101B0000016A090ED172416A1173416A090A51735F
:101B1000416A090C9173406A000ED0730020F0BD39
:101B2000A4430020024901480860704700C30040F8
:101B3000A443002030B5264B1968C90517D50321E9
:101B4000196001210825491C1C68C9B22C431C607E
:101B500006E01C68A40508D4491CC9B2202904D891
:101B60001C68E405F5D50029EDD10021196019495B
:101B7000136809680B6152684A61174A13688B61E0
:101B80005368CB6193680B62D2684A62124B103380
:101B90001A688A625C68CC629C680C63DB684B6381
:101BA0000D4B20331C688C605B68CB600B68202475
:101BB000C007A343800E03430B600868402318430B
:101BC0000860886A904201D0012030BD002030BDFD
:101BD00080C30040A443002000690020F0B5454BBD
:101BE00000241B681C601C615C618578C4782D0230
:101BF0006419457806782D043606AD1965193E4CF2
:101C0000AE46E5608679C5793602AD194679077921
:101C100036043F06F619AD19A560AC46867AC57A3A
:101C20003602AD19467A077A36043F06F619AD1921
:101C30006560877BC67B3F02F619477B007B3F04CC
:101C400000063818301820609861DD6165461D6215
:101C500075465D624C780878240200198C78CD783E
:101C600024042D06641906192348B4461030066072
:101C70004D790C792D0264198D79CE792D043606B3
:101C8000AD19651945604E7A0C7A3602A4198E7A20
:101C9000CF7A36043F06F619A41984604F7B0E7B79
:101CA0003F02F6198F7BC97B3F040906791871182A
:101CB0006646C1609E62DD621C635963517810788C
:101CC000090240189178D4780904240609190A4CAD
:101CD000401820342060557911792D0249199579E1
:101CE000D2792D041206AA18891861609860D9600B
:101CF000F0BD0000A44300200069002010B504F0EE
:101D000033FC024903F017F8002010BD0604000060
:101D100008B5002808D0002906D0002A04D0108871
:101D2000002801D0002008BD1220694608706A46CC
:101D30000121034802F0FBFF6946087808BD000056
:101D4000350C000008B503F04BFE694608706A4682
:101D50000121034802F0EBFF6946087808BD000046
:101D60001120000008B504F00FF9694608706A46B2
:101D70000121034802F0DBFF6946087808BD000036
:101D800010200000FEB508AF70CF6F4670C704F09A
:101D900021F90446024902F0CEFF2046FEBD0000B4
:101DA0001320000008B504F0CFFB694608706A46AE
:101DB0000121024802F0BBFF002008BD0E200000F8
:101DC000FFB589B016A871C894468E460796159F30
:101DD000129A139904AE31C61498009201910290A0
:101DE000039762467146099804F01CFB04460349B8
:101DF00002F0A1FF20460DB0F0BD00000D20000054
:101E000038B5044604F040FF694608704C70200A5B
:101E100088706A460321024802F089FF002038BD1D
:101E20001B20000038B5044604F044FF69460870E2
:101E30004C70200A88706A460321024802F077FF3E
:101E4000002038BD1A2000000EB500A8013005F0B2
:101E500018FC694608706A460921024802F067FFCB
:101E600000200EBD1820000008B500A8013004F0C5
:101E700097FE694608706A460421034802F057FF3E
:101E80006946087808BD0000022000007FB50446BE
:101E900008A861C8009002960195204605F058FCFC
:101EA000694608734C73200A887303AA0321034808
:101EB00002F03DFF002004B070BD000020200000B3
:101EC00008B506F065F8694608706A4601210348BE
:101ED00002F02DFF6946087808BD000008200000C8
:101EE00008B505F0DFFF694608706A46012103481E
:101EF00002F01DFF6946087808BD00000A200000B6
:101F0000F0B585B00AACF0CC03976F4670C706F009
:101F10005BF86946087404AA0121034802F007FF30
:101F20006946087C05B0F0BD0620000008B506F043
:101F3000A1F8694608706A460121034802F0F7FEDD
:101F40006946087808BD00000520000008B506F0C5
:101F5000D1F8694608706A460121034802F0E7FE9D
:101F60006946087808BD00000C2000001CB5049CE0
:101F7000009406F0FFF86946087101AA01210348A0
:101F800002F0D5FE694608791CBD00000B20000058
:101F900008B506F011F9694608706A460121034840
:101FA00002F0C5FE6946087808BD0000092000005F
:101FB00010B506F0D1FA024902F0BDFE002010BDB6
:101FC000192000001CB500A8013005F069FB694626
:101FD00008706A460721034802F0A9FE694608789E
:101FE0001CBD00000910000038B500A904460331EB
:101FF00005F066FB694608704C70200A88706A46D6
:102000000421024802F093FE002038BD05140000B0
:1020100010B5D2B205F0CDFE10BD0A7802708A78F4
:1020200042704A88120A82700979C1700420704790
:102030000A7802700988090A4170022070470A78FC
:1020400002700988090A41700220704709780170FE
:10205000012070470A7802700A88120A42708A7852
:1020600082704A88120AC2704A7902718A79427172
:102070000889801D80B2704708888004000C704772
:102080000A7802700A88120A42708A788270498837
:10209000090AC170042070478A7802708878012884
:1020A000088804D012214843401C80B27047800049
:1020B000FAE70A7802700A88120A42704888801C7F
:1020C00080B270470A7802700A88120A42708A78D1
:1020D00082704A88120AC2708888001D80B27047D8
:1020E0000A7802700A88120A42708A7882704A88D6
:1020F000120AC2708888001D80B270470A78027088
:102100000A88120A42708A7882704988090AC17066
:1021100004207047088870478A78027008884988C8
:102120004843401C80B2704710B50C4609780170D6
:102130002188090A4170A17881706188090AC170FB
:102140002279611D001D11F055FE2079001D10BD82
:102150008A780270088849884843401C80B27047DA
:10216000088870470A7802700988090A41700220BD
:102170007047088870470A7802700A88120A42700D
:102180004888801C80B270477FB5154604460229F6
:1021900001D0102903D1022B04D0102B02D0002033
:1021A00004B070BD994202D10A46294607E01029C1
:1021B000694607D000F00EF810226946284611F053
:1021C0000BFEEDE7104600F005F8102269462046A8
:1021D000F5E7000070B50C4605000CD0002C0AD0C5
:1021E00010220649204611F005FE287820736878F1
:1021F0006073012070BD002070BD00000047010029
:1022000008B500220B4600920122024908F0E2F8CC
:1022100008BD00001B20000038B5054608880C46A4
:1022200017280DD303F08AF92188884208D30020AB
:102230000090234602220349284608F087F838BD5B
:10224000022038BD3120000008B50A88172A07D3BC
:1022500000220B4600920322024908F0BBF808BD99
:10226000022008BD3F20000008B500220B46009266
:102270001822024908F06AF808BD00004D2000004D
:1022800008B500210B461922009108F0A3F808BDFB
:1022900038B50C46054609790020022901D00220F4
:1022A00038BDE268002A03D00721104611F050FD26
:1022B0000090234606220249284608F047F838BD18
:1022C0005520000038B5054608880C4600280DD07A
:1022D000606800280AD0012111F03AFD00902346E1
:1022E00007220349284608F075F838BD022038BD9A
:1022F0007920000008B500220B4600920422024912
:1023000008F024F808BD00008120000038B505461B
:1023100088780C46012801D0022810D12088002896
:102320000DD0606800280AD0022111F011FD009044
:10233000234605220349284608F04CF838BD022000
:1023400038BD000099200000064910B5884202D12E
:1023500003F0F4F810BD0DF05DFA0028FAD1172053
:1023600010BD0000FEFF000038B505464A68002099
:102370000C46002A03D00321104611F0E9FC00901E
:1023800023461D220249284607F0E0FF38BD000021
:10239000B320000010B5042901D0042010BD01783D
:1023A000117083784478190221435180C0781071EC
:1023B000002010BD0098022B01D0042070475178F6
:1023C000127809021143018000207047022901D0D0
:1023D00004207047417803780802184310800020D9
:1023E00070470098012B01D00420704711780170CC
:1023F00000207047002901D004207047002070475A
:1024000070B5049C1E461546062B1BD368782978A8
:10241000000208432080E878A97800020843608021
:10242000022020710246291D601D11F0E3FCB01F3F
:102430002081062E03D0AD1DE560002070BD002078
:10244000E060FAE7042070BD8B0705D1890803D04E
:102450001180506000207047042070470098042BC2
:1024600001D0042070475178137809021943018084
:10247000D17892780902114341800020704710B54D
:102480000298022B0FD3517814780902214301805E
:10249000991E4180022B02D0921C426001E0002173
:1024A0004160002010BD042010BDF8B584890D46A0
:1024B000002C2BD086683778390601D4002010E034
:1024C0000D2C23D30C3CA4B2311900914088234633
:1024D0003246012107F00AFB002801D0022000E06B
:1024E000012079062870C90FBA066970920EAA7089
:1024F000641E2204120CAA8002D0761CAE6001E099
:102500000022AA60022803D1002901D00120F8BDD1
:102510000020F8BD10B50298042B14D3517814781C
:10252000090221430180D178947809022143418036
:10253000191F8180042B02D0121D826001E000214E
:102540008160002010BD042010BD0098042B01D034
:102550000420704751781378090219430180D1781B
:1025600092780902114341800020704710B502980B
:102570001146062B03D0142B03D0042010BD0222D9
:1025800000E0102202714A780B7812021A4302808E
:10259000CA788B7812021A4342800279401D091DC5
:1025A00011F028FC002010BDF8B51546064600299C
:1025B00012D03478491E6C80CFB2022C0CD3214645
:1025C0003846FFF703F901466143B94204D1288038
:1025D000761C00206E60F8BD0420F8BD0098D90775
:1025E00006D1022B04D05908818002600020704778
:1025F000042070470098022B01D0042070475178C6
:1026000012780902114301800020704711800029CF
:1026100002D05060002070470020FAE710B5029CFD
:10262000022B11D320726172507811780002084396
:102630002080981E6080022B02D0921C626001E014
:1026400000206060002010BD042010BD002901D0D2
:10265000042070470020704738B5054688680C464E
:10266000002802D0052111F073FB009023461622AA
:102670000249284607F06AFE38BD0000C520000068
:1026800038B5054688680C46002802D0052111F0AF
:102690005FFB0090234617220249284607F09AFE66
:1026A00038BD0000E120000008B500220B46009272
:1026B0000C22024907F04AFE08BD0000FD20000080
:1026C00038B5054648680C46002802D0012111F0B3
:1026D0003FFB009023460D220249284607F07AFE70
:1026E00038BD00001521000008B50A79022A03D080
:1026F000102A01D0022008BD00220B4600921022B1
:10270000014907F023FE08BD2921000038B5054620
:1027100008880C4600280DD0606800280AD00221E5
:1027200011F016FB0090234611220349284607F0BA
:1027300051FE38BD022038BD1921000008B50A79C4
:10274000022A03D0102A01D0022008BD00220B4625
:1027500000920822014907F0F9FD08BD2921000077
:1027600038B5054608880C4600280DD0606800285A
:102770000AD0022111F0ECFA009023460922034905
:10278000284607F027FE38BD022038BD5121000041
:1027900038B5054648680C4600280AD0012111F0DA
:1027A000D7FA009023460F220349284607F012FE6D
:1027B00038BD022038BD00006121000008B50022AC
:1027C0000B4600920A22024907F0C0FD08BD000036
:1027D0006521000038B505464A6800200C46002AED
:1027E00003D00121104611F0B3FA009023460B22CA
:1027F0000249284607F0EEFD38BD000073210000B5
:102800000149486070470000C84300200149086042
:1028100070470000C843002070B5054608480C46C4
:10282000854205D0172C03D302F088FEA04201D2C6
:10283000012070BD214628460DF06AF870BD0000E9
:10284000FEFF0000F8B50646087A12250C4601285E
:1028500009D13046FFF778FD61880F38884201DAE8
:102860000220F8BD9225607A012801D1402005435D
:102870006068002802D0032111F06AFA0090234614
:102880002A460249304607F061FDF8BD7721000075
:1028900008B500210B461322009107F09BFD08BDEF
:1028A0000849074848600A78FF2A01D125220A70A2
:1028B000D1B2054A114301600449C162704700006A
:1028C00000C10040A843002080220801384E0100CA
:1028D00030B58006094A800E094C107021684D6899
:1028E000FF2301339D434D6006490843516808604A
:1028F000206841681943416030BD0000A8430020B2
:10290000B84300208022080180060449800E087028
:10291000034A49681043086070470000A84300203C
:10292000C0220801024900204968886370470000FE
:10293000A843002010B5FFF7F5F800F0DFF802F02B
:1029400063FF05F0A3FFFFF7ABFF084C5D20216894
:10295000086506F067F806F083FE06F02BF805F030
:10296000FDFF21680020086510BD0000B443002071
:1029700030B50446482200213A4811F0F3FA2068A5
:1029800000280BD0374D28606068002808D06860A8
:10299000A068A860E068002804D005E0012030BDF0
:1029A000022030BD01204002E8602069012100289A
:1029B00004D028616069002802D002E02961F9E7AB
:1029C0001B206861A069002800D10A20A861E06985
:1029D000002810D0E861206A00280ED08006800E02
:1029E0002862E06B00280AD0E863606A002808D0FB
:1029F000E96B401807E0E961EDE71520F0E71E20DC
:102A0000F2E7E86B46306862A06A002800D0A8624E
:102A1000E06A00280AD0E862206B002800D0286312
:102A20003920005D8009022802D008E00420F2E786
:102A30000C48214606223431343011F0DBF9216C88
:102A4000002907D0606C002804D0800002D52964DA
:102A5000606C03E00448007828640448686400203F
:102A600030BD0000FC5C00204440002018400020E5
:102A700070B500200E210B4B0124A4035A88154683
:102A80002540CD405204120C0543E8B25604D50B44
:102A9000F60F75401543491EC9B25D800629EDD871
:102AA00070BD0000BC43002070B5002008210A4B17
:102AB0004C011A8815462540CD4005435200E8B226
:102AC000550A56097540ED07ED0F1543491E0906D5
:102AD0001D80090EEDD170BDBC43002000220AE02C
:102AE000022101E000BF00BF0B46491E89B2002B46
:102AF000F8D1521C92B28242F2D370470949084879
:102B000008600949CA680261426109698161C1615D
:102B1000826841140A438260C2680A43C2607047F7
:102B200000C00040B0430020C45D00200246FD20EC
:102B300008498C234B723F231B039A4205D24A60FB
:102B4000A6200872887A402250404A7A73231A409D
:102B50004A72704700180040F8B500240E4F264610
:102B60000E206043C5190622FF21284611F0FAF90C
:102B7000A81D0622FF2111F0F5F90848AE8106557F
:102B8000641CE4B2032CEBD3002011F037FB0349A3
:102B9000032014394873F8BD7C68002020430020CE
:102BA00010B50249C87308F093F910BD0C4300201A
:102BB000FFB58FB0054600200C900D900CAA28465A
:102BC00000F01EFA434E0446032855D208F05FF980
:102BD00005463078022819D0002000902A46214668
:102BE000129B119808F01EF81422002101A811F080
:102BF000B9F906202746474338462430C0B201AA17
:102C0000102111F05DFB002802D014E00120E4E760
:102C10001022FF2101A811F0D0F800280BD1253790
:102C2000F8B205AA042111F04BFBE907C90F01AA6C
:102C3000119801F059F97034E0B206AA182111F088
:102C40003FFB002811D106A808F033F9002406AF95
:102C5000A000C0190188002903D08278119801F0E2
:102C600025FC641CE4B2062CF2D3A80707D5F17B3F
:102C7000119801F009FC02E01298082803D012987C
:102C8000042813D022E0307802281FD100222946E0
:102C9000119807F053FFF069002817D04368002B04
:102CA00014D000221146119898470FE0307802287E
:102CB0000CD13079119A002800D0012071780029B8
:102CC00000D004210143104601F0DAF8002013B0CF
:102CD000F0BD00000C43002070B500F099FF002803
:102CE00022D1124C0025207B012806D00F4E002453
:102CF0001436305D01280AD00DE008F002F80B48C8
:102D0000257303220021143011F02CF907E020462E
:102D100008F004F83555641CE4B2032CE9D35020C4
:102D200011F078FA08F0D4F870BD00000C430020D0
:102D300070B50024054600290BD108491046FEF75E
:102D400045FD0846294600F083FF040003D0012119
:102D5000284601F0F1F8204670BD000040420F0007
:102D600070B5264D0C4608040FD5E87B11F038F9F4
:102D7000050006D008F03EF9002802D0284611F0E0
:102D80000DF90120C003604070BDA0070BD50021E4
:102D9000084607F037FE02214C40002825D1E87B89
:102DA00011F01AFA1FE0E00721D0286A808808F0A5
:102DB00053F901214C40002817D0E86900280DD0B4
:102DC0004368002B0AD0286A002280889847E96966
:102DD000286A00224B68808803219847062011F05A
:102DE0004FFA07F001FE204670BD0121D7E76007CA
:102DF00002D50420484070BD002070BD0C43002067
:102E00007FB504468078754D801F030007F048F8B1
:102E10000AE1E4E4941B06DDE469A8E4E86900281B
:102E200008D00668002E05D0637B227B6189E01CF8
:102E3000B047D1E06189A86900F00AFF0028F8D006
:102E400060890121BBE060780026002830D1A0799C
:102E5000C0072DD0286A00282AD10E2200216846FA
:102E600011F080F86169002903D00622684610310C
:102E700007E0A0880CF074FC002870D0811D0622A9
:102E8000684610F0B7FF69468889A1794907C90FDC
:102E900008436946888107F0EDFE032801D1FFF75A
:102EA0005BFE2146684607F0ADFD002812D01526CE
:102EB000E869002853D04368002B50D06278A0887E
:102EC00001219847002E4AD0E969A0884B68324614
:102ED000032171E00221E87B11F07EF9002004B0AB
:102EE00070BD6078062817D1A0880CF039FC060068
:102EF00012D0A87A012804D0022808D003280BD1C8
:102F000014E07179A088002207F018FE04E0A1887F
:102F10003078052201F020F8E86900285CD0436889
:102F2000002B59D06278A088022145E0002211468A
:102F30002B4800F0F7F8EAE7E0780022211D00F0C6
:102F40005FF8032848D20621484325302246C0B204
:102F50000C32042111F0F4F9032011F091F93BE057
:102F60006879002802D0A088A97928E0287800286C
:102F7000A08823D00CF0F4FB06002DD0A07AC00767
:102F80000BD07079002808D0A189890505D46A463C
:102F9000B11D00F035F8002814D022467179A088C0
:102FA000083207F0CBFDE869002815D04368002BF4
:102FB00012D00022A088114698470DE0052100F0AC
:102FC000BBFF09E0A0880321F9E7A08800F06EF9B3
:102FD00002E0A088FFF780FE012080E70C4300207C
:102FE0000904000010B5054CE061E17B262000F0EB
:102FF0006BFFE07B01F0F6F910BD00000C430020F0
:10300000F0B5032485B015460F46002807D00128E7
:1030100005D00326022810D0032847D120E0084617
:1030200007F0F4FE0446032840D2002D3ED00622CD
:103030003946284610F0DEFE38E01E4F002400918D
:103040000E206043C0190622801D009910F0C4FEB6
:10305000002823D1641CE4B2032CF1D334461DE0D4
:1030600000242046062148432330C0B26A4610217E
:1030700011F026F900280CD11022FF21684610F02B
:103080009CFE002805D13946684600F0D5FE002890
:1030900004D0641CE4B2032CE3D3DFE7032C05D295
:1030A000002D03D02946204607F0D6FE204605B065
:1030B000F0BD00007C68002070B50E46174915254C
:1030C000884212D1002432460221204607F0EAFD50
:1030D000002800D00025641CE4B2032CF3D3002E9A
:1030E0001AD00F480CF0B6FB16E00CF039FB0400C8
:1030F00011D060790022A11DFFF782FF032804D2BE
:103100003246022107F0CEFD0025002E04D02046D5
:1031100007F00CFF00E01425284670BDFFFF0000FB
:103120002DAF0000FEB5154601229202821A00243E
:1031300001275B4E130006F0B3FE130B12171E257A
:103140002C343B4048737A828AA896539DA4A800E9
:10315000012973D12878022870D830709DE00229A7
:103160006CD12888308298E0012967D1287801281D
:1031700064D8707091E001297ED1287804287BD82A
:10318000B0708AE0012977D12878012874D8F070CE
:1031900083E0102970D110222946424810F02AFEFF
:1031A0007BE0012968D12878012865D8307174E066
:1031B000012961D12878F0716FE004295CD13A4986
:1031C0002868884258D8B06167E0002954D100F0DF
:1031D0001FFD002801D037735FE007F092FD19E072
:1031E000072949D10622691C684610F0EBFF2878B0
:1031F00000226946FFF704FF054603280ED200F0BF
:1032000007FD002803D026481430475545E02846DE
:1032100007F084FD502010F0FDFF21E002243CE087
:10322000012929D12878012826D8707135E0012993
:1032300022D1287809281FD8B0712EE01CE001297E
:103240001AD12878C11F092916D8307225E0012922
:1032500012D1F17A2878F07200291ED101281CD1F0
:1032600007F036FE19E0012906D12878032803D893
:10327000B07212E0012901D018240EE02878B07352
:103280000BE0002010F0FCFF07E02728C6D202293F
:10329000C4D1298800F018FE04462046FEBD000077
:1032A0000C4300206C6800203F420F00FEB506462C
:1032B00000200190029030460CF052FA040015D024
:1032C000134F3878022811D0607901AAA11DFFF7A9
:1032D00097FE054603280AD207F0D9FD02460120D1
:1032E000009008232946304607F09CFCFEBD387844
:1032F000002807D00128F9D161790022304607F073
:103300001DFCFEBD0521304600F016FEFEBD00008E
:103310000C430020F8B50F46134915251646884280
:103320000DD1002432463946204607F009FE002818
:1033300000D00025641CE4B2032CF3D312E00CF09F
:103340000FFA00280DD04379811D00221846FFF79F
:1033500057FE032806D23246394607F0F1FD002514
:1033600000E014252846F8BDFFFF000010B5044614
:1033700008F020F8002817D0007911F005F90B4A61
:1033800000210620484380184088A04206D1002032
:103390000623C04359438918488003E0491CC9B239
:1033A0000429EED3002010BD122010BDA668002015
:1033B0003EB5084C6D4624782C706870A970EA7090
:1033C0000622194601A810F015FD684600F07CFBA6
:1033D0003EBD00003843002070B50446104800216F
:1033E00004701048104BFF2506224A43D218491C8E
:1033F0005080C9B215710429F6D30C4A102102205D
:1034000010F05EFF0A4A1021032010F059FF04213A
:10341000084A084610F054FF204600F007FD70BD32
:1034200038430020FFFF0000A6680020DD68002070
:10343000ED6800205C43002070B50C4608040DD5F3
:103440000E48007810F0CCFD050004D007F062FFB4
:10345000284610F0A3FD0120C0030BE060040BD54B
:103460000421074A084610F06BFF012010F008FF06
:1034700001208003604070BD002070BD38430020F3
:103480005C4300201CB5002801D0074908600848AB
:10349000009006490848019102780848054B082128
:1034A000007800F0A7FA1CBD344300205C430020E4
:1034B000ED680020DD6800203E43002038430020F6
:1034C00038B5054B6C461B7823706070A170E270B4
:1034D000684600F041FA38BD3843002070B50E460A
:1034E000054601210CF004FA002808D0284607F010
:1034F00061FF040005D0207911F046F817E0122092
:1035000070BD104A104B002006214143891849889C
:10351000994204D1062148438418658004E0401C88
:10352000C0B20428F0D30024002C08D02680231D2C
:1035300032462146054810F0C1FF002070BD15201D
:1035400070BD0000A6680020FFFF0000DDB3000092
:10355000F7B50D468649009816464218854F002457
:103560003878397A130006F09BFC1C0F151CF621E5
:1035700041465A71787F8990F697A3AAB5C0C9F6DB
:10358000F6F6F6D4F6EAF1F6102D76D11022314691
:1035900079486FE0102DF8D177481022314610306D
:1035A00068E0042D69D130687862DAE0012D64D1D9
:1035B000FB783278FA70002B0AD0002A07D1022952
:1035C00003D0062901D0042901D100F053FAC8E044
:1035D000002A0AD0012905D0032903D0052901D0EA
:1035E000042902D1012110F0F7FDBAE0022D44D1E7
:1035F0003088F881B5E01F2D3FD85E481F2200219A
:103600003A3010F0AFFC5B482A4631463A3010F0B1
:10361000F1FB584BBD703A332A46012112E01F2DB1
:103620002BD855481F2200211F3810F09BFC524810
:103630002A4631461F3810F0DDFB4F4B3D711F3BD2
:103640002A460021387800F0CDFC8FE0012D74D19E
:103650003078042871D8787283E0012D6DD13078EC
:1036600003286AD8B8727CE0062D66D1414806224C
:103670003146283010F0BEFB73E05EE0012D5CD1D6
:103680003078072859D8F8726BE0012D55D1307881
:10369000032852D8387364E0022D4ED132887A82E2
:1036A000002A5ED005295CD1022110F03FFF58E0CE
:1036B000012D42D1307801283FD8787151E030880F
:1036C000022D3AD1062838D31921C901884234D8AD
:1036D000B88246E03088022D2FD106282DD319213B
:1036E000C901884229D8F8823BE03088022D24D1D4
:1036F000FF21F531884220D2388332E03088022D14
:103700001BD10A2819D31921C901884215D87883F9
:1037100027E03178012D10D101290ED1082110F0B8
:1037200043FB002801D016241BE0002008F05CFCBD
:103730000421387810F042FF13E0182411E0012D25
:10374000FBD13078B8710CE000E004E0012DF4D139
:103750003078F87105E00098272801D2022D02D0B8
:1037600002242046FEBD318800F0AEFB0446F8E797
:10377000FFFCFFFF38430020DD6800203EB5002439
:10378000069D01940095029401F003FB3EBD0000EC
:10379000F8B50E46040049D020880BF0E1FF050083
:1037A00042D024490878022806D0012804D0287B7A
:1037B000082803D1002E01D0122438E01E4F78696A
:1037C000002801D0112432E047212C2010F02EFBDC
:1037D0007861002826D02C22002110F0C3FB7869E4
:1037E000218841801C22211D001D10F003FB7B69F4
:1037F000022018700F4822888178287B08280FD073
:1038000000201B1D06F02AF90446002E03D0314685
:1038100028460FF025F9002C09D007F035FE06E008
:103820000120EEE7132402E0142400E002242046E5
:10383000F8BD0000C043002090400020FFB51F48A5
:1038400081B000781E4617460D46022818D0012880
:1038500016D0002F30D001980BF082FF040029D041
:10386000A06A002801D010F01FFB1C21384610F080
:10387000CDFAA062011E1BD0207B082803D00DE0EA
:10388000122005B0F0BD002E08D0887E00900B46B7
:1038900012330A8A01980FF0D9FB00E00020217949
:1038A000002D01D0062200E0042211432171E8E737
:1038B0001320E6E71420E4E70220E2E7C0430020FB
:1038C00010B505480078000701D5044800E0002045
:1038D00008F078FB10BD0000C0430020E443002046
:1038E00070B51B4C05460121207807F0F7FD1948FB
:1038F00001780A20014224D0204625700C3008F0BF
:103900005BFB606800281AD1207800281DD00001D8
:10391000072110F08BFA6060002810D021780A018E
:10392000002110F01FFB0020FF222378616803E0D4
:103930000401401C0A55C0B29842F9D305E0132097
:1039400070BD0020207008F037FB002070BD000023
:10395000D0430020C043002038B5234D0446A8685A
:10396000002801D0112038BD20480A2100780842E3
:1039700038D00521042010F059FAA86000282FD073
:103980000422214610F036FA00F042F9002805D052
:103990000C2000F021F905460D2007E06078022890
:1039A00011D0102000F018F90546112000F014F98C
:1039B0000246E078002800D001200D4989780029CE
:1039C00007D0012306E0122000F006F90546132077
:1039D000ECE700230090A078294601F079FA38BD81
:1039E000132038BD122038BDD0430020C043002032
:1039F0000C670020F8B50224079F1D4616460129D2
:103A000006D002290BD0042911D008292FD11EE09D
:103A100000F002F904002AD100F056F927E000F086
:103A2000FBF8040023D13046FFF75AFF1FE000F0F7
:103A3000F3F804001BD13A462846069900F000FA34
:103A400000F042F900F028F905F0BEFF0FE000F0A9
:103A5000E3F804000BD13A462846069900F0F0F945
:103A60003046FFF73DFFFFF72BFF05F007FF20462D
:103A7000F8BD000070B5104C2168002919D00978F4
:103A8000814214D10D4D0221A87810F097FD0C4809
:103A900000264680A878042110F090FD0948467160
:103AA000216803204870002001F0FBF970BD03205D
:103AB00070BD122070BD0000A8400020C04300204F
:103AC000EC4300200C670020F0B504463D488BB065
:103AD0000078000771D53C488068002801D0102488
:103AE0006CE000F095F839490978884262D2384E86
:103AF0003068002801D0112460E006210A2010F06F
:103B000095F93060002853D00A22214610F072F94E
:103B100030684078002805D00E2000F05DF80A904B
:103B20000F2004E00C2000F057F80A900D2000F060
:103B300053F8044627488078002801D0012500E08A
:103B400000251C2000F048F807461B2000F044F830
:103B50000090192000F040F801901A2000F03CF885
:103B60000290162000F038F80890152000F034F884
:103B700009903168C878091D06F019FF0346019ABB
:103B80000299009804910690079705923268099966
:103B90000898161D0096029103900195927821468F
:103BA0000A9801F015F9040008D007F08BFC05E035
:103BB000132403E0152401E0FFE7122420460BB094
:103BC000F0BD0000C0430020D04300200C44002082
:103BD000AC4000200C670020272801D30248704722
:103BE00002494000085A7047FFFF0000BE40002015
:103BF00010B5054AFF21D170044AD170907005219B
:103C000001F098FD10BD00000C670020C0430020AB
:103C100010B50BF007FE10BD70B50E46054620220C
:103C20000021094810F09EF9074C0848E57006701D
:103C300001F064F9002803D000202070122070BD2C
:103C40000121217070BD00000C670020C0430020DE
:103C50007FB504460D4608460BF082FD002817D0BC
:103C60000C48844212D210220021684610F07AF9E2
:103C700069460C70200A4870200C8870200EC870AD
:103C80002946684605F00AFE04B070BD0220FBE735
:103C90001220F9E740420F0010B5084800784007AD
:103CA00007D5074808F09AF900200649C043C880A4
:103CB00010BD002008F092F910BD0000C0430020A4
:103CC000FC4300200C670020F8B51E4C00256068FE
:103CD000002802D010F0E8F86560E068002802D003
:103CE00010F0E2F8E560184E05273078384224D00D
:103CF0001448143008F06CF9307838421BD0472152
:103D0000202010F093F86060002814D020220021B9
:103D100010F028F94721202010F088F8E0600028F2
:103D200005D02022002110F01DF90020F8BD6068A8
:103D300010F0BAF865601320F8BD002008F048F9CB
:103D4000F3E70000EC430020C0430020FEB5344EF2
:103D5000344D0C4608041DD5B07810F041F9070029
:103D600011D03878A22806D0F578384608F032F815
:103D700000280BD101E0ED78F7E7FF2D06D039469A
:103D8000284610F065F90120C00345E0384610F0E0
:103D900005F9F8E7E0070127234A00280AD0506810
:103DA000002804D04168002901D00020884720461F
:103DB0007840FEBD1C48A107C06808D5002804D083
:103DC0004168002901D001208847022024E06107D2
:103DD00024D5697900291ED0491E0906090E69718A
:103DE00019D19169002907D02F71002804D04168AA
:103DF000002901D0012088476946E86805F0BDFC2C
:103E0000684607F085FF1D20FFF7E6FE6871B07871
:103E1000042110F0D3FB04206040FEBD0020FEBD55
:103E2000C04300200C670020904000200149C8706A
:103E300070470000C043002010B505F09FFD10BD85
:103E400070B50E4C0B46626121610546E0601022A0
:103E5000002118460FF0B1FF012803D1102120697D
:103E60000EF0E0FB1022002128460FF0A6FF0128EB
:103E700003D11021E0680EF0D5FB70BD0C67002067
:103E80007FB50C4605460BF06BFC002815D0007B77
:103E9000042802D0122004B070BD094840690028EF
:103EA00000D0847D684621460FF0F8F8054B6A463D
:103EB000022128460FF084F8EDE71420EBE700001C
:103EC000904000209D350100272802D2044A9142EB
:103ED00001D102207047034A400011520020704770
:103EE000FFFF0000BE40002070B50E461149154688
:103EF0000B78022B17D0012B15D0002D17D00BF00B
:103F00002FFC040011D0002E03D020790221084399
:103F1000207120461022294614300FF06BFF2869CB
:103F20006062002070BD122070BD142070BD0220A0
:103F300070BD0000C043002038B50C4605460BF0AC
:103F40000FFC002806D068460470694628460FF02A
:103F500027F838BD142038BDF8B50C46174620495F
:103F600005461E4A12268868944208D1002833D09C
:103F70000268002A30D0214628469047F8BD174AEB
:103F8000521C944219D1002808D00268144E002A0D
:103F900004D0214628469047002806D039462846B6
:103FA00006F0F8FC060004D016E0757037700020AB
:103FB000F8BD0B48457007700EE020460BF0D0FBB3
:103FC000002809D00078A84201D00320F8BD394666
:103FD000204600F0B8FEF8BD3046F8BDFEFF0000F8
:103FE0009040002070B51446204A1E4612780523E2
:103FF0001A4223D01E4D002901D06A6800E0EA6809
:10400000002A1BD0202C2ED2002C01D0002E2AD02A
:104010002870002914D068681F220021401C0FF06E
:10402000A1FF686822463146401C0FF0E3FE696834
:1040300020460C70491C00F030FF70BD122070BD8E
:10404000E8681F220021401C0FF08CFFE868224620
:104050003146401C0FF0CEFEE96820460C70491C2A
:1040600000F03CFF70BD022070BD0000C043002086
:10407000EC430020014610B50020C90706D0044BD0
:10408000102218460421403800F0B2F910BD00009B
:104090008C420020F8B5104E114FB0700F493846D1
:1040A00000F022F800220D481346D238940107533D
:1040B000002124180C254D436519AB80491CEB6089
:1040C0000529F7DB521C032AF0DBB0783070054875
:1040D0000BF0DAFBF8BD0000D84100202E6800206C
:1040E000FFFF000069D4000070B50A4C0025A04213
:1040F00008D1002082008C525218401C9570032871
:10410000F8DB70BD09F081F90028FAD004808570D1
:1041100070BD0000FFFF0000F8B50E460746069987
:1041200000240798002902D00B242046F8BD022B5A
:1041300001D00D24F9E7517812780D021543294674
:10414000814301D08024F0E73846F16800F042F95D
:10415000A842EAD02A463846F16800F0EFF9044652
:10416000E3E7000070B50D4608041AD50E488078C4
:104170000FF036FF04000FD02078B02809D1204678
:1041800009F006FB002804D020462179083000F011
:104190006BFD20460FF002FF01212846C90348406D
:1041A00070BD002070BD0000D8410020FFB585B073
:1041B00000200F9F0090087A0E9D1C460E46C006F8
:1041C0000BD5079809F01AF903007DD00A22314671
:1041D000059898470090002816D13078022815D00D
:1041E000079809F031F90028EFD0006884460028CC
:1041F000EBD01199109822460097029101902B461E
:10420000314664460598A04709B0F0BD7068292280
:1042100041780078090201431202881A91427CD049
:104220000BDC6948081A13D0012811D0022817D0D6
:104230000328D5D1002F53D09BE001287ED002283F
:104240006DD0032877D00428CAD1002F68D090E021
:10425000002F6FD1F068017829800278416884E0EE
:10426000002F67D1F068417800780F0207430420DF
:104270002880F06804A900782070F06840786070A9
:10428000384600F0D3F9060022D06846028A03AB14
:104290004E493046F76800F027FA00280AD13378F3
:1042A00002214B487268FDF76FFF002802D1474892
:1042B00069468881387802280CD10222201D79684D
:1042C0000FF098FD288800E07CE0801C288001E049
:1042D0006846878168468089A070000AE0706FE0B8
:1042E00001202880F0680021007820707089401C2F
:1042F00080B200F09BF9002813D029880278891831
:10430000891C2980817A61704189090AA17002782B
:104310004168E01C0FF06EFD52E00CE00EE026E07C
:104320003BE028880422001D28800021601C0FF03B
:1043300019FE45E01DE0002F27D01AE0F06810F0CC
:104340004EF980B2B84201D207205DE7874201D121
:10435000002006E01099C919814201D3C01B00E07A
:104360001098288082B2F068C1192046D2E7002F49
:1043700001D00B2048E7F168059800F02BF80221E6
:1043800029802070000A60701AE002202880F068FE
:1043900000782070F0684078F5E70721F068298000
:1043A00001782170417861708178A1704188090A93
:1043B000E1700179217181796171C088000AA07171
:1043C000009821E70E201FE700280000FFFF0000F3
:1043D0001647010010B509F018F8002800D08078C1
:1043E00010BD00000149487070470000D84100200E
:1043F0007CB51E4605001CD0684601808270019580
:1044000000F0A2FA04001FD1002E1DD068890028F8
:104410000FD047210C200FF009FD002813D00021F8
:10442000016069898180094A8660D168002903D1C9
:1044300007E002207CBD11460A68002AFBD1086013
:1044400002E0D06000E0132420467CBDD84100206B
:10445000F8B50C4C0746607815460E46FF280FD07D
:104460000A200FF087FD01000AD0B12008704F80AC
:10447000002048700871CE800D8160780FF0E8FD53
:10448000F8BD0000D841002070B50C46054606492D
:10449000FFF7A0FF800704D52146284600F0AEFABA
:1044A00070BD012070BD00002E6800200EB56B4667
:1044B0001A81FE23002201930092022302AA00F037
:1044C00001F80EBDFFB583B0174602A90D9E0498F2
:1044D00000F0ACF804002AD06846008908F0B4FF68
:1044E000002822D04568002D1FD00C98019600901E
:1044F0003A462146069B0398A847050018D1FE2E90
:1045000016D02078022813D160684178027808021A
:104510000949104388420BD17878397802020A435E
:1045200004990398FFF794FF02E00E2500E00125AF
:10453000284607B0F0BD00000229000070B51446FF
:104540000E46054608F061FF002806D131460548B1
:1045500008F05BFF002803D005808470002070BD48
:10456000112070BDFFFF000010B50178B0290BD1FC
:104570004178002908D10179122906D01B2903D1DD
:104580004088012100F0E0FF10BD417C0129F7D0F7
:1045900010BD0000FFB5002489B01E4615460F4629
:1045A000022A05D0102D03D0022420460DB0F0BD04
:1045B000002FFAD007A9099808F05AF90400F4D19D
:1045C000012069468880801EC8800D7202A82A4694
:1045D000394601300FF00EFC01A9099808F0DCF80B
:1045E0000400E2D1034B072201A90096079809F0C5
:1045F000D1FDDAE749240000FEB50E461546074610
:1046000001A908F035F904000CD131463846FDF710
:1046100003FE040006D1044B0322314600950198A5
:1046200009F0B8FD2046FEBDCD230000F0B5104ACC
:10463000136919E09C686589A84214D39E88721991
:10464000824210D900220CE017013F197F8987426E
:1046500005D1002900D00D8010010019F0BD521CB9
:1046600092B2B242F0D31B68002BE3D10020F0BD20
:10467000D8410020FFB51B4883B0002305692DE019
:10468000AE68002470890190A888009016E021018E
:1046900088194289039FBA420ED3049FBA420BD8AD
:1046A000069A002A0FD01346715C4068059AFDF700
:1046B0006BFD002807D10023641CA4B2009884423B
:1046C000E5D3002B09D00C98002802D00C99019852
:1046D00008802001801907B0F0BD2D68002DCFD1D2
:1046E0000020F8E7D8410020FEB5174600256A46AD
:1046F0009580044640891D4A1E46904208D001AA72
:104700000092401C237880B26268FFF7B3FF054631
:104710002378022116486268FDF736FD002807D18C
:104720002378022113486268FDF72EFD002801D08E
:1047300060890EE0237802210F486268FDF724FDAE
:1047400000280DD0002D03D068468088B84203D0E1
:10475000384609F0FFFC04E06889401E80B200E0A2
:104760006089002E00D030802846FEBDFFFF00008B
:1047700014470100164701001A470100FFB583B036
:104780000E461D46174601A9039808F0BBF8040021
:1047900022D1002F0FD0694608803088FFF746FFEE
:1047A0006946088800F066F90146012203980AF07C
:1047B000ABFF002811D131460398FDF7D5FD040069
:1047C0000AD1FF2D08D0019B1E22194604489B1CCC
:1047D00009F0CBFC0198C570204607B0F0BD000081
:1047E000BDDF000010B50749FF220A7000224A60B1
:1047F0008A6005490871042100F09CFF00F044F82C
:1048000010BD0000C0410020C0430020F8B5184F83
:1048100028213878484302210FF008FB154E002864
:10482000706023D00024144D12E02820716860438A
:104830004018058000218170FF224272027281724D
:104840002422115418220C300FF08CFB641CE4B2AB
:1048500038788442E9D3094808F058FD0848FDF744
:10486000CFFF08480BF010F80020F8BD1320F8BD6A
:104870000C440020CC410020FFFF00003DC600009A
:104880001FC6000065C5000070B500200D4D0E4B21
:104890000446FF22062141435D52C918CA708A703E
:1048A000401C0C710328F5DB0120C0431880074829
:1048B00008F032FD0648FDF7A9FF06480AF0E4FFBC
:1048C000002070BDFFFF00001C68002005E0000014
:1048D000E7DF00003DDF000008B5009313460A46FD
:1048E00001460248007808F023F808BDC0410020C6
:1048F00070B50D46080412D50A4800790FF070FB18
:10490000040008D02078A02802D1204608F0F0FB4F
:1049100020460FF043FB0120C003684070BD00201B
:1049200070BD0000C043002010B508F0A1FC10BD10
:1049300010B51346002208F0B5FC10BD01490870FF
:1049400070470000CC41002070B5044645680088DF
:1049500000284AD02B78022125486A68FDF714FC0C
:10496000002807D12B78022122486A68FDF70CFC49
:1049700000283AD0A078C01F092834D81E4EB0882D
:1049800000282ED02188081801210904884228D83F
:1049900047210C200FF04AFA050020D0002207E042
:1049A00011016368B0880A315852401CB080521C13
:1049B00020889042F4DC0020286008222146281D2F
:1049C0000FF018FA3069002801D105E008460168A7
:1049D0000029FBD1056000E03561002070BD132087
:1049E00070BD012070BD182070BD022070BD000098
:1049F0001447010016470100D8410020FEB50E46BD
:104A0000074600250223194A194901200095FFF79E
:104A100031FE040027D023200090002304221D2112
:104A2000384600F0DBF8029000281AD06089694609
:104A300088800420C88002990120087002983346BB
:104A400045700299FF20887002990022C87001A960
:104A50003846FFF793FE040006D002980FF024FAC0
:104A600002E0152400E001242046FEBD324701008B
:104A7000FFFF000000B507F0EBFE002801D08078B2
:104A800000BD102000BD00B507F0E2FE002800D0F8
:104A9000008800BD7CB50C460546FDF7BDFE00282C
:104AA0000AD16846848001A8009004487F23002230
:104AB0002946007807F03CFF7CBD0000C041002083
:104AC00010B504460B4688060DD51046FFF7D2FFF9
:104AD0000146012220460AF017FE052801D00F28C2
:104AE00000D1082010BD882003420CD01046FFF7EB
:104AF000C1FF0146180701D5012200E0002220462F
:104B00000AF002FE10BD880701D5002010BD032069
:104B100010BD10B50346C8060DD51046FFF7AAFF15
:104B20000146012218460AF0EFFD052801D00F28A2
:104B300000D1082010BD480705D51046FFF79AFFA1
:104B40000146012206E0480608D51046FFF792FF0D
:104B50000146002218460AF0D7FD10BDC80701D053
:104B6000002010BD022010BD70B51D4603460C4646
:104B700088060DD51046FFF77DFF01460122184635
:104B80000AF0C2FD052801D00F2800D1082070BD11
:104B90008820044214D01046FFF76CFF014620071E
:104BA00001D5012200E0002218460AF0ADFD0028E0
:104BB00008D0697A0029EAD0297A002902D170BD8B
:104BC000880701D5002070BD032070BD10B50023FB
:104BD0004B720B7209F0FEFA10BD0000F8B5069F8B
:104BE0001E461546162928D00CDC09291FD004DCE6
:104BF00005291CD0062911D11BE0112917D0122933
:104C00000CD118E01D2916D004DC172915D01B295A
:104C100004D110E052290ED0D2290CD00124114A1F
:104C200095420CD1FDF790FB001B85B20BE00224EE
:104C3000F5E70724F3E70324F1E70524EFE7D2299A
:104C400001D10C35ADB2601980B2394600F0CEFD0D
:104C5000002805D0002E00D0358061420FF078F892
:104C6000F8BD0000FFFF000010B507F017FE002898
:104C700001D00FF019F910BD014610B50020C90789
:104C800006D0044B1022184609219038FFF7B0FBDC
:104C900010BD0000B041002070B51646214A0D46F7
:104CA000114600241031030005F0FAF80A06133803
:104CB0003818382128383138152D2AD816220021E5
:104CC00019480FF04FF92A46314617480FF092F86D
:104CD00025E0022D1DD13088508020E0082D18D10C
:104CE0001048082231460830FCF7E7FD17E0012D97
:104CF0000FD1CA690B493078383105E0012D08D150
:104D0000CA6B08493078583109F042FB07E0012DA1
:104D100001D0182403E03078107000E0022420460F
:104D200070BD0000104100202C670020704710B5B6
:104D300000F018F910BD10B500F034F910BD10B531
:104D400000F048F910BD10B5FCF7D8FF10BD10B544
:104D500000F054F910BD10B500F070F910BD10B599
:104D600000F086F910BD10B5FCF7D2FF002010BD91
:104D700010B5FCF7E7FF10BD7CB5069C079DC0B2DF
:104D80000195009400F08AF97CBD10B5FCF7EAFFAC
:104D900010BDFEB508AF70CF6F4670C7FCF7F2FFCD
:104DA000FEBDF0B585B084460AA8F1C804976F46E9
:104DB00071C7604600F0A2F905B0F0BD38B5049C9B
:104DC000009400F0D3F938BD10B5FCF7EBFF10BD2F
:104DD000FFB589B016A871C894468E460796159FF0
:104DE000129A139904AE31C6149800920191029060
:104DF0000397624671460998FCF7E2FF0DB0F0BDDB
:104E000038B5049C009400F0CFF938BD7CB5069C01
:104E1000079DC0B20195009400F0E4F97CBDFFB598
:104E200087B094468E4610A8F7C806976F4677C796
:104E300062467146079800F00BFA0BB0F0BD10B552
:104E400000F058FA10BD10B500F070FA10BD10B5A2
:104E5000FCF7D6FF10BD10B5FCF7E4FF10BD10B590
:104E6000FCF7F2FF10BD10B5FCF7FEFF10BD10B54A
:104E700000F07AFA10BD10B500F092FA10BDFEB540
:104E800008AF70CF6F4670C7FDF700F8FEBD38B5AC
:104E9000049C009400F0A2FA38BD10B5FDF710F89C
:104EA00010BD10B5FDF71CF810BDF0B585B00AAC0B
:104EB000F0CC03976F4670C7FDF722F805B0F0BD40
:104EC00010B5FDF733F810BD10B5FDF73FF810BD74
:104ED00038B5049C0094FDF749F838BD10B5FDF7CE
:104EE00057F810BD70B55478157822022A43FDF7A3
:104EF0005FF870BD10B500F08FFA10BD10B5FDF76A
:104F000061F810BD38B5049C009400F09DFA38BDDE
:104F100010B5FDF769F810BD10B500F0B1FA10BD7D
:104F200010B5FDF775F810BD10B505280ED90C4C5D
:104F3000A0420BD2A14209D2814207D3FF20F53013
:104F4000824203D2092B01D9A34201D3002010BD14
:104F5000521C4A43D8008242F8DA012010BD0000FA
:104F6000810C0000F8B50746084616460D460C3081
:104F70000FF000F8040011D0912020700E20607016
:104F8000A5702046A7800C302A463146A0600EF05E
:104F900031FF0348214680780FF05AF8F8BD000031
:104FA000C043002070B505460C4606200EF0E2FF17
:104FB00001000BD0912008700F2048708D700120E7
:104FC000C87003488C8080780FF042F870BD0000F4
:104FD000C043002010B5044603200EF0CBFF0100B3
:104FE00008D0912008701A20487003488C7080788F
:104FF0000FF02EF810BD0000C043002070B506462B
:1050000014460D4608200EF0B5FF01000ED0912089
:105010000870052048708E708D8005488C718078EE
:105020000FF016F803480449007E087070BD0000B8
:10503000C0430020FC5C0020A142002070B5064661
:1050400014460D4608200EF095FF01000CD092206A
:1050500008703E204870082088708D808E7103484B
:10506000CC7140790EF0F4FF70BD0000C043002009
:1050700070B505460C4606200EF07CFF010009D0F5
:1050800091200870302048708D7003488C808078A3
:105090000EF0DEFF70BD0000C0430020FFB581B000
:1050A0001E460F4631200EF065FF040022D09120ED
:1050B00020703E2060700220A0700120E070204629
:1050C000083005466060019828706F700622A81CA1
:1050D00003990EF08FFE2E722846324609300A9947
:1050E0000EF088FE20350B98287203482146807800
:1050F0000EF0AEFF05B0F0BDC0430020FFB507467F
:1051000081B01D46164616200EF034FF040029D04B
:10511000912020703E2060700120A070002F08D0E8
:105120003120E07020460622002108300EF01AFFE0
:1051300007E00020E0702046062208300A990EF0B1
:1051400059FE0298A080A671E5710B98E0810C9839
:1051500020820D9860820E98207503482146807841
:105160000EF076FF05B0F0BDC0430020F8B507464D
:105170001C4615460E460C200EF0FCFE01000FD01A
:10518000912008703E20487003208870CF708E8078
:10519000CD800C8106984881024880780EF058FF37
:1051A000F8BD0000C0430020F8B507461C46154670
:1051B0000E460E200EF0DEFE01000FD0912008708A
:1051C0003E204870072088708F80CE800D814C81F2
:1051D00006988881024880780EF03AFFF8BD0000FA
:1051E000C0430020FFB581B01F4618200EF0C2FE5C
:1051F000050028D0912028703E2068700B20A870F0
:1052000001202C460834E87000266C60019820705C
:10521000029860700622A01C03990EF0EBFD277225
:105220002046062209300A990EF0E4FD0B98E0733F
:10523000761CE878F6B21034B042E7D80348294625
:1052400080780EF005FF05B0F0BD0000C0430020DF
:10525000FFB581B01D4616460F4622200EF08AFE8D
:10526000040042D0912020703E2060700A20A0707F
:105270000198002814D03120E07020460622002139
:1052800008300EF06FFE2046062200210E300EF090
:1052900069FE20460622002114300EF063FE13E062
:1052A0000020E0702046062208300A990EF0A2FD88
:1052B000204606220E300B990EF09CFD2046062259
:1052C00014300C990EF096FDA780A671E5710D982B
:1052D00060830E98A0830F98E083202110980855D2
:1052E0000348214680780EF0B3FE05B0F0BD000003
:1052F000C043002070B505460E4626200EF03AFE4B
:10530000040010D0912020703E2060700920A07011
:10531000A58020223146A01D0EF06CFD02482146DA
:1053200080780EF095FE70BDC0430020F8B50646AB
:1053300015460F4610200EF01DFE040011D09220DD
:1053400020703E2060700520A070A680082239469B
:10535000A01D0EF04FFD0348E581407921460EF077
:1053600077FEF8BDC043002070B505460E464620C6
:105370000EF000FE040010D0912020703E206070DE
:105380000820A070A58040223146A01D0EF032FDFD
:105390000248214680780EF05BFE70BDC0430020BD
:1053A000F8B5064617460D460E200EF0E3FD040044
:1053B00011D0922020703E2060700420A070E67012
:1053C000A58008223946A01D0EF014FD0248214692
:1053D00080780EF03DFEF8BDC0430020F8B50746CA
:1053E0001C4615460E460E200EF0C4FD01000FD0DF
:1053F000912008703E204870062088708F80CE80F3
:105400000D814C8106988881024880780EF020FE3C
:10541000F8BD0000C043002070B514460D460820BA
:105420000EF0A8FD01000BD09020087013204870EA
:10543000012088708D800348CC8040780EF008FEF3
:1054400070BD0000C0430020F8B507461C46154655
:105450000E460C200EF08EFD01000DD0912008703C
:105460000C2048708F708E808D710C810698488159
:10547000024880780EF0ECFDF8BD0000C04300202B
:10548000FFB5074681B015460E460C200EF072FDA2
:10549000040014D090202070FF2060706780267177
:1054A000E580482128460EF0C1FCA0602A460499F8
:1054B0000EF0A0FC0348214640780EF0C9FD05B06F
:1054C000F0BD0000C043002008B51346034A009217
:1054D0000A46012109F00EFF08BD0000E1E50000C9
:1054E0003EB500230192042402930A460094024B25
:1054F00012210AF001F83EBD87E6000008B5134608
:10550000034A00920A46132109F0F4FE08BD000088
:10551000B3E600001FB56946C8810022FF210320C1
:105520006C4607C4034B03AA0621034809F0E4FFB5
:1055300004B010BD57E60000FFFF00000148C0881E
:1055400070470000A042002013B5044800790128EC
:1055500003D101AA6946FFF706FC1CBDA04200204A
:1055600070B5224930224870002121480EF0FAFC23
:105570000AF030F91F4D28782C46083C00280ED040
:1055800000014C210EF052FC2061002807D0697800
:10559000E1702978A1700A0100210EF0E3FC1648A1
:1055A000E17800784018C0B2207000014C210EF064
:1055B0003DFCE060002811D021780A0100210EF0A6
:1055C000D1FC0020FF2105E0E3680201D218401C55
:1055D0005172C0B222789042F6D302E000202070CF
:1055E000E07006480AF050F970BD0000C04300208A
:1055F0003C680020A84200200C44002025EA00005E
:105600000A2A01D0012070474A780B7812021A4307
:105610000280CA788B7812021A4342804A790B7949
:1056200012021A438280CA798B7912021A43C2800D
:105630004A7A0B7A11021943018100207047042A2B
:1056400001D0012070474A780B7812021A43028079
:10565000CA788B7811021943418000207047082ACC
:1056600001D0012070474A780B7812021A43028059
:10567000CA788B7812021A4342804A790B79120257
:105680001A438280CA798B7911021943C1800020A4
:1056900070470000F8B5244C244E0D46080433D55D
:1056A000204640780EF09CFC04000BD02078902817
:1056B00005D16078132808D0204609F01BFD20464C
:1056C0000EF06CFC0120C0032CE019490020896910
:1056D000A778CAB294460CE0420012199279737806
:1056E000D218D2B27270914201D262467270401CDE
:1056F000C0B28742F0D870780028E0D00A48012173
:1057000040780EF069FDDAE7E8070CD009F0D4FE26
:10571000002806D07078002803D0607801210EF0B0
:105720005BFD01206840F8BDC0430020A04200207E
:10573000FC5C0020042907D0052905D0062903D0E8
:10574000072901D0022070470C22044B4A43D2188B
:10575000403A118290740020704700003C6800209D
:1057600070B50C4609880546042905D0052903D0E3
:10577000062901D0072929D16068002826D00121F7
:1057800028460AF0B5F800281ED028460AF042F84C
:105790000F498D420BD0002809D12189002906D953
:1057A000208806280ED10B48008881420AD20A4878
:1057B0000078002804D02146284608F0DDFF70BD9F
:1057C000162070BD1B2070BD142070BD022070BD5E
:1057D000FEFF0000A6420020A1420020024A001F56
:1057E000D080517070470000A042002010B5001D0D
:1057F00080B24C210EF01AFB002803D00321C943CC
:105800000EF0A6FA10BD000010B511490020487135
:10581000114C104820600A22DE21002000F020F800
:1058200064223221012000F01BF864223221022080
:1058300000F016F80A22DE21032000F011F820689B
:1058400041681F22114341600449C16010BD00003E
:10585000445D002000C20040B44300201F0300004C
:1058600010B5254B20241B68002809D0012816D02C
:10587000022823D0032830D0042800D1996510BD18
:105880001869204318611869A04318615961986923
:10589000204398619869A0439861DA6110BD186A45
:1058A00020431862186AA04318625962986A20431C
:1058B0009862986AA0439862DA6210BD186B204320
:1058C0001863186BA04318635963986B204398635F
:1058D000986BA0439863DA6310BD186C204318647A
:1058E000186CA04318645964986C20439864986CB1
:1058F000A0439864DA6410BDB4430020FCB5354879
:10590000006881685A278B07012500223249002B45
:105910000DDA83680224A34383604368DB0703D165
:105920004B79FD2423404B71CD708A7007658368E5
:10593000DB070CD083685B085B0083600A704D70E6
:105940004368DB0703D14B795B085B004B718368CD
:10595000DB051AD58368FF240134A34383600B78E9
:105960005B060DD51D4EB36B0093B36B0193019C89
:10597000009BA342F7D11C46174B80331B6A9C66E1
:105980000B782B430B704A70076583689B0508D51D
:10599000836801246402A34383608B782B438B705C
:1059A000CA708368DB0604D583681024A343836030
:1059B0004A7183685B0704D583680424A34383602A
:1059C0004A7183681B0704D583680824A343836056
:1059D0004A71FCBDB4430020445D0020001000402B
:1059E0001CB51A4A5369002B05D09C7C002C02D0B0
:1059F000DB7C002B11D19369002B05D05C7E002C41
:105A000002D09B7EDB0708D1D369002B07D05C7DD9
:105A1000002C04D09B8B002B01D012201CBD0C4B02
:105A2000128E5B681B0A9A420BD26A46507000A81D
:105A3000062202300EF0DEF9684602F0C1FE0128AF
:105A400001D007201CBD00201CBD0000C45D00204B
:105A5000FC5C0020F0B51F4C89B00D46064621467F
:105A6000002004F01BFD0028F9D0A042F7D000214F
:105A700004460120800527460743009101910291C9
:105A8000039104910591069107916A46D773390AEB
:105A90009173390C5173304604AA69460AF05BFCD5
:105AA0006A46907F517F000209044018D17F401858
:105AB0002870010A6970000CA8700121200A89036E
:105AC0000843EF702871200C40210843687109B029
:105AD000F0BD0000FFFF3F0070B50025ED4300243E
