:020000040000FA
:100000000080002049090000510900005309000048
:1000100000000000000000000000000000000000E0
:100020000000000000000000000000005309000074
:100030000000000000000000550900005709000002
:10004000DB000000590900005909000059090000AF
:100050005909000059090000590900005909000018
:100060005909000059090000590900005909000008
:1000700059090000590900005909000059090000F8
:1000800059090000590900005909000059090000E8
:100090000348854600F07CFC00480047A5000000AE
:1000A00000800020164880680821084314498860B1
:1000B0000321082000F029FB124800F01FFC124821
:1000C0008078012108431049887000200121814077
:1000D0000E4A116000BF00BFFEE70B488079C007E1
:1000E000C00F0BD008488079012108430649887168
:1000F0000348806808214840014988607047000033
:10010000C010004000D430000020004000E100E0BA
:100110005720FC490870A82008708820F949403908
:100120000881704700B5030000F044FC0D081A2C4C
:1001300037414C56606A75808B96A1005721F14A71
:100140001170A8211170EF492039C97B0422914315
:10015000EC4A203AD173C821EA4A403A118187E03B
:100160005721E84A1170A8211170E6492039C97B4E
:1001700004221143E34A203AD173C821E14A403AAC
:10018000118175E05721DF4A1170A82111705121AA
:10019000C900DC4A403A11816AE05721D94A1170FE
:1001A000A8211170D849D74A403A118160E05721FF
:1001B000D44A1170A821117081218900D14A403A96
:1001C000118155E05721CF4A1170A8211170882163
:1001D000CC4A403A11814BE05721CA4A1170A821FC
:1001E00011700221C74A403A118141E05721C54AA6
:1001F0001170A82111700421C24A403A118137E0E0
:100200005721C04A1170A821117093218900BD4A5D
:10021000403A11812CE05721BA4A1170A82111707F
:10022000B9494D31B74A403A118121E05721B54AC9
:100230001170A821117095218900B24A403A1181AC
:1002400016E05721AF4A1170A82111704B21C90047
:10025000AC4A403A11810BE05721AA4A1170A821FB
:100260001170A9495C31A74A403A118100E000BFF2
:1002700000BF00BD5721A34A1170A82111700028AA
:1002800008D1A04940390989521591439D4A403A05
:10029000118108E09B49403909890122520211432A
:1002A000984A403A118170475721964A1170A82107
:1002B0001170002808D193492039C97B0422914349
:1002C000904A203AD17307E08E492039C97B042235
:1002D00011438C4A203AD1737047F8B50446224640
:1002E000884E403E3689009688495726854F3E7095
:1002F000A8263E70844E834F403F3E815726814F53
:100300003E70A8263E700126BE74814B4AE000BFB5
:100310007C4EB67C02273E42FAD07A4E308A00BF2D
:10032000784EB67C02273E42FAD100BF754EB67CAD
:1003300002273E42FAD0734E308A5726714F3E70E4
:10034000A8263E7088420ADD6E4E203EB689B61859
:100350006C4F203FBE811D46461AB3B209E0694E7C
:10036000203EB689B61A674F203FBE811D460E1A41
:10037000B3B29D4216DA5726624F3E70A8263E70F1
:10038000884207DD5F4E203EB689B61A5D4F203F9A
:10039000BE8106E05B4E203EB689B618594F203F1D
:1003A000BE8100E0B3E700BF5726564F3E70A82637
:1003B0003E70544F403F009E3E810026514FBE7418
:1003C000F8BDF0B500270026002422E0781C87B293
:1003D00025460320FFF781FF4A4820388489A5423B
:1003E00006DD281B032801DC012007E0002005E0D2
:1003F000601B032801DC012000E00020002802D05F
:10040000701C86B200E00026032E01DC052F00DD03
:1004100000E0DBE700BF002722E0781C87B225461A
:100420000120FFF75AFF374820388489A54206DDAE
:10043000281B012801DC012007E0002005E0601BEB
:10044000012801DC012000E00020002802D0701CFF
:1004500086B200E00026022E01DC052F00DD00E060
:10046000DBE700BFF0BDF0B585B004460E4615468B
:100470001821206800F076FA80B2029018212068D6
:1004800000F070FAE120C000414330881E22504342
:1004900008182F88F90FC9194910401880B2019027
:1004A0002878C007C00F02D00120C00300E0002060
:1004B0000090019803900398010400980143039170
:1004C000572010490870A82008700E49403902983A
:1004D00048630C482038407C802108430949203972
:1004E0004874084940390398486306482038407CDE
:1004F000402108430349203948740020014908700D
:1005000005B0F0BD4010004002020000C409000028
:10051000FFFF0000F0B585B004460D46164654486E
:10052000C06B8004800C039051482030408B0290B7
:100530004F482030008B0190029841000122D203E5
:100540000198904201DB012000E000200F18E1211A
:100550000901384600F006FA014618220398504374
:1005600008182060E1210901384600F0FBF90091EC
:100570003C21009800F0F6F928803C21384600F034
:10058000F1F9318005B0F0BD5721394A4032117080
:10059000A82111703649486335492031497C4022F1
:1005A0001143334A2032517470473148816B806B5C
:1005B000884202D02E48806B70470846FCE75721DE
:1005C0002B4A40321170A821117029492031497CF1
:1005D00017229143264A203251741146497C102239
:1005E00002431143224A20325174704700B503463A
:1005F000FFF7DBFFC2181004000C02D0012000043A
:1006000012181C48824200D3121A57201849403150
:100610000870A82008701648426315482030407CB6
:100620002021084312492031487400BD01460029A9
:1006300005D10F482030007C8022104070470C48C4
:100640002030007C40221040F8E7002802D001282A
:100650000AD104E02021064A2032117405E010215D
:10066000034A2032117400E000BF00BF7047000051
:10067000001000400000C0A800B50B0000F09AF97F
:10068000050412202E3842009B4A526B82439A4B3B
:100690005A631A46126B82431A631A46126A8243DD
:1006A0001A6230E0944A526B8243934B5A631A4663
:1006B000126B02431A631A46126A82431A6222E0DC
:1006C0008D4A526B02438C4B5A631A46126B82431B
:1006D0001A631A46126A82431A6214E0864A526BFF
:1006E0008243854B5A631A46126A02431A620AE031
:1006F000814A526B0243804B5A631A46126A024384
:100700001A6200E000BF00BF00BD00B50B0000F0A2
:1007100051F90504142434404C00774A40325269A0
:100720008243754B40335A611A46126982431A61FB
:100730001A46126882431A6038E06F4A40325269A2
:1007400082436D4B40335A611A46126902431A6163
:100750001A46126882431A6028E0674A403252699A
:100760000243654B40335A611A46126982431A614B
:100770001A46126882431A6018E05F4A4032526992
:1007800082435D4B40335A611A46126802431A6035
:100790000CE0594A403252690243574B40335A6188
:1007A0001A46126802431A6000E000BF00BF00BD95
:1007B000002906D001290ED0022916D0032928D1FC
:1007C0001DE04D4A928A82434B4B9A821A46D26A66
:1007D0000243DA621EE0484A928A8243464B9A827A
:1007E0001A46926A02439A6214E0434A928A02438A
:1007F000414B9A821A46D26A0243DA620AE03E4AC2
:10080000928A02433C4B9A821A46926A02439A6247
:1008100000E000BF00BF384B98831A46128A02439B
:100820001A827047002906D0012911D002291CD054
:10083000032934D126E0304AD28A82432E4BDA8211
:100840002D4A4032D26802432B4B4033DA6027E016
:10085000294AD28A8243284BDA82274A4032926858
:100860000243254B40339A601AE0234AD28A02435E
:10087000214BDA82204A4032D26802431E4B403379
:10088000DA600DE01C4AD28A02431B4BDA821A4A14
:10089000403292680243184B40339A6000E000BF38
:1008A00000BF154BD8831A46528A02435A827047BA
:1008B000002807D0104A803A128B0A430E4B803B27
:1008C0001A8306E00C4A803A128B8A430A4B803B1B
:1008D0001A837047002807D0074A803A528B0A4390
:1008E000054B803B5A8306E0034A803A528B8A4389
:1008F000014B803B5A837047801000401149C8600B
:100900000221104A11700421117070470D49C8600E
:1009100002210C4A11701521117070470222094BF7
:100920001A7002010C231A438B011A43054B1A70EB
:1009300070470221034A1170810105221143014AC7
:100940001170704700200040044880470448004769
:10095000FEE7FEE7FEE7FEE7FEE70000110100000C
:100960009100000030B50B460146002020220124F2
:1009700009E00D46D5409D4205D31D469540491BD3
:100980002546954040191546521E002DF1DC30BD1C
:10099000064C0125064E05E02046E36807C82B43B8
:1009A00098471034B442F7D3FFF776FBD009000024
:1009B000D009000030B47446641E2578641CAB4234
:1009C00004D3635D5B00E31830BC18471D46F8E7AD
:040000050000009166
:00000001FF
