:020000040000FA
:1000000000800020591300006113000063130000FA
:1000100000000000000000000000000000000000E0
:10002000000000000000000000000000631300005A
:1000300000000000000000006513000067130000CE
:1000400069130000691300006913000069130000C0
:10005000212F0000555F00006913000069130000A4
:1000600069130000691300006913000069130000A0
:10007000F5200000691300006913000069130000F7
:100080006913000069130000691300006913000080
:100090000348854602F004F900480047950B00002C
:1000A0000080002030B589B00446F748047006216E
:1000B0001F2004F075FA012108916421079107219E
:1000C000069101210591062104910C210391002143
:1000D00002917D21C900019106AA0121C32080005F
:1000E00003F018FE08AA0121E84803F013FE07AA4E
:1000F0000221E648401C03F00DFEE54A1F21612065
:10010000C00003F007FEE34A0721E048801C03F02B
:1001100001FE05AA01213120000103F0FBFD04AA24
:100120000221DA480C3003F0F5FD03AA0221D7487A
:100130000D3003F0EFFD02AA0221D4480E3003F087
:10014000E9FD01AA0221C520800003F0E3FDD24AA7
:100150001521002005F0EAF8A0252946062004F024
:100160001FFA2946072004F01BFA2946082004F04C
:1001700017FA2946092004F013FA002008900121FB
:1001800007910691002105910121049108AA0421FB
:100190008120C00003F0ACFA07AA0121880203F015
:1001A000A7FA06AA0121B948FD3003F0A1FA05AA71
:1001B0000121B648FE3003F09BFA04AA0121B7489A
:1001C00003F096FA0020C04305F0A0F80020C043D9
:1001D00004F0BCFA00F026FD0020C04300F0A7FEAA
:1001E0000020C04300F0F8FF01210891022107918F
:1001F00003210691AAA103C905910490AAA103C9EC
:100200000391029008AA0121002000F0F6FE07AA3F
:100210000121084600F0F1FE06AA0121022000F0AB
:10022000ECFE04AA0821032000F0E7FE02AA052143
:10023000042000F0E2FE9E4800F091FE9D4800F090
:10024000DBFF01219048007813F078FD09B030BD44
:1002500070B504460D46164633462A46214696A0FA
:1002600009F084FF70BD70B504460D462A4621464C
:10027000002001F04EF870BD38B5044668460470A1
:10028000002141700221FFF7EEFF38BD1CB5694621
:10029000032000F0F5FE0446002C04D16A46082134
:1002A000032000F0AAFE1CBD00BF00BF00BF7047C6
:1002B00070B506460C460120C0032040002810D02F
:1002C0007148007813F03EFC051E05D02846FFF764
:1002D000EBFF284613F014FC20460121C9034840D7
:1002E00070BDE007C00F002810D0784803F0D4FCA0
:1002F000774803F05DF97D22D20002216248007840
:1003000013F0C6FE204601214840E9E702202040C4
:1003100000280CD07D22D20002215B48007813F027
:10032000B7FEFFF7B3FF204602214840D8E704207C
:100330002040002833D0674800684002664A1268AF
:1003400081186448026865A009F010FF61490968D6
:100350004902614A1268881801F026FD0546002D01
:1003600006D02846FFF788FF204604214840B7E71B
:1003700058480068401C57490860084600685C49B6
:100380000968884209D35BA009F0F0FE2846FFF710
:1003900073FF204604214840A2E72046A0E7002042
:1003A0009EE71FB50446230009F008FF08620523F5
:1003B000565A27525E6202A9C120800003F0BCFA9F
:1003C0006846017A0170417A4170817A817000211A
:1003D0000171C170417BC171017B8171C17A417131
:1003E0006A460821002000F025FC47A009F0BEFE67
:1003F0003FE049A009F0BAFE3BE0002103910291E1
:10040000019103A92148113003F096FA02A91F486F
:10041000123003F091FA01A96320C00003F08CFAB6
:1004200068468388028981893FA009F09FFE68465B
:1004300080890C280BDD42A009F098FE00207D2366
:10044000DB0002460C210090062003F0E9FB10E0DF
:100450003FA009F08BFE0CE044A009F087FE08E005
:1004600046A009F083FE04E048A009F07FFE00E00A
:1004700000BF00BF1FBD38B50446002C02D0022CBF
:1004800001D191E088E097E00040002005030000E2
:1004900001400020204000202740002006040000EA
:1004A00030313233343536370102030405000000A1
:1004B000684000206C4000207570646174652025E0
:1004C00064202564202564200A0000005840002094
:1004D00060400020504000204840002045524153D9
:1004E000453A25303878206E756D3A25640D0A003E
:1004F0004C400020455241534520436F6D706C6560
:1005000074650D0A00000000496E697469616C69C8
:100510007A65642E2E0A00004164766572746973F0
:10052000696E672E2E0A0000436F6E6E65637465F8
:10053000642E2E2564202564202564200A000000F6
:1005400053656E64205570646174650D0A00000087
:10055000436F6E6E65637465642041647665727482
:100560006973696E672E2E0A000000004469736388
:100570006F6E6E65637465642E2E0A0054696D6536
:1005800064204F75742E2E0A000000004572726FB1
:10059000722E2E0A00000000F6A009F0E7FD694661
:1005A000002000F06DFD08E0F9A009F0DFFD6946CC
:1005B000022000F065FD00E000BF00BF38BD10B5AF
:1005C000FE20FFF759FE10BDF8B505467D26F60260
:1005D000002404E0305DF5490855601C84B2012018
:1005E00040028442F6DB7D20C00201F0DDFBEF48D3
:1005F00005700122520201467D20C00201F008FC74
:100600007D26F60237783946E9A009F0AFFDF8BD3E
:100610000020C043ED4908600020ED4908617047A3
:1006200010B50446EB49206808600846006880471A
:1006300010BD70B586B0E84800788038030009F036
:10064000BDFD05048CCCF1F0EF00E3484078E349B0
:100650000860E1488078E2490860DF48C07800021D
:1006600009680843DE4908600846006880000860A1
:10067000DA48026808460168DAA009F077FD00242C
:100680002EE0A000D449091D085CA100DC4A5050AE
:10069000A00011460858A100491CCF4A121D515C08
:1006A00009020843A100D64A5050A000114608583C
:1006B000A100891CC84A121D515C09040843A1000D
:1006C000CF4A5050A00011460858A100C91CC24A88
:1006D000121D515C09060843A100C94A5050641C10
:1006E000BE4800688008A042CBD8C64800780128E0
:1006F00009D1BA48008882B2C149B948006801F0FE
:1007000087FB054628E0B6480068B44909684018E8
:1007100001214902884213D8002408E0AE48001D98
:10072000005DAF4909680919B74A5054641CAB48C9
:1007300000688442F2D300252846FFF79DFD0BE0B8
:10074000A648008882B2AE49A548006801F060FB67
:1007500005462846FFF790FD09E19F488078A049AB
:1007600008609D48C0780002096808439C490860F9
:10077000084600688000086097480079A34908602F
:1007800095484079000209680843A04908609448E8
:1007900000689F49086000209E4908609E490870D3
:1007A0009A4802688E4801689CA009F0DFFC9548D1
:1007B000007802280BD195480068401E93490860D4
:1007C00093480068FF30FF300230914908600421EF
:1007D0009A48007813F0B2FAC9E000267E484078C3
:1007E0007E4908607C4880787D4908607A48C078F6
:1007F0000002096808437A490860084600688000DA
:10080000086076480268084601688DA009F0AEFCD1
:10081000734805687B480078012822D100240AE04B
:10082000A2E08AE061E0295D6B48001D005D814225
:1008300000D004E0641C694800688442F3D300BF20
:1008400066480068844201D1002600E0FF26724815
:10085000007830437049087008460078FFF70CFDB7
:1008600042E05F4800685D4909684018012149027B
:1008700088421AD800240BE05948006800196249E0
:10088000095C5548001D005D814200D004E0641CF5
:10089000524800688442EFD300BF50480068844249
:1008A00001D1002617E0FF2615E0002407E0295DAE
:1008B0004948001D005D814200D004E0641C4748A7
:1008C00000688442F3D300BF44480068844201D1E9
:1008D000002600E0FF265048007830434E4908705B
:1008E00008460078FFF7C8FC41E05CA009F03EFC38
:1008F0004448007801280BD10220FFF765FEFFF77E
:1009000087FE0A2001F0B8F95748FFF789FE13E087
:100910000120FFF759FEFFF77BFE002001F044FAAB
:10092000012252023849002001F072FA0A2001F037
:10093000A3F90420FFF774FE19E04CA009F016FC9F
:10094000304801786846017100214171F4218171BC
:100950000121C171002101724172022181721421B1
:1009600001A8FFF780FC02E0FFF729FE00BF00BFEF
:1009700006B070BD70726F66696C65204368616E09
:10098000676543422043484152312E2E0A00000041
:1009900070726F66696C65204368616E676543427B
:1009A0002043484152332E2E0A000000F049002017
:1009B000537769746368496D616765466C61673A2E
:1009C0002025303278200D0A0000000080E100E090
:1009D00000E000E044400020C84700203C400020E8
:1009E000404000204941505F50524F4D3A20253041
:1009F0003878206C656E3A2564200D0A00000000EE
:100A0000E047002078400020F04700204C400020C4
:100A10004840002050400020544000204941505F91
:100A200045524153452073746172743A25303878C9
:100A3000206E756D3A25640D0A000000004000200C
:100A40004941505F5645524946593A202530387839
:100A5000206C656E3A2564200D0A00004941505F04
:100A6000454E44200D0A000004F401004941505F46
:100A7000494E464F200D0A0010B5044608A009F063
:100A800075FB10BDF8B50C4615462E462746324676
:100A90003946084812F060FFFFF7CBFDF8BD0000B3
:100AA0004F54412053656E6420436F6D70200D0AD2
:100AB00000000000C847002010B500242046641C38
:100AC00009F0AAFA2046641C01F08EFA2046641C44
:100AD00006F0C2F82046641C05F06EF82046641C3F
:100AE00003F088FB2046641C04F0F2F92046641CE5
:100AF00009F044F82046621CD4B202F04FFB2046B5
:100B0000621CD4B203F042FE2046621CD4B202F052
:100B100087FF2046621CD4B2FFF7C4FA10BD10B59F
:100B20007D24E40220782A490870084600780128CC
:100B300005D008460078022801D00120087024481A
:100B4000017824A009F012FB10BD70B500204568A3
:100B50001F48007802281CD17D208002854218D2CF
:100B60000646002403E0305D1F490855641C01203F
:100B700040028442F7D3002001F016F9012252020C
:100B80001949002001F044F9294618A009F0EEFAAD
:100B900000BF70BD2048806A0121490208431E49F8
:100BA000886203210120400200F0ACFE01F091F8C0
:100BB0001A491BA009F0DAFAFFF7B1FFFFF7C5FFEA
:100BC00001F082F9FFF778FF01E009F051FAFCE744
:100BD00078400020496D61676520466C616720257B
:100BE0003032780A00000000F04B0020496D616748
:100BF000654220766563746F727320656E747279D6
:100C000020636F707920636F6D706C65746520254B
:100C1000303878200A00000080100040CC420100EB
:100C200025730A0010B5AA4B10221321A94803F01E
:100C3000A1FF10BDF8B504460D4616460027002C4E
:100C400005D12A463146A44812F086FE01E002276B
:100C500000BF00BF3846F8BD70B504460D460026FB
:100C6000230009F0ABFA09060C12181E242A3036AC
:100C70003C0008229849284612F06EFE31E00D2211
:100C80009649284612F068FE2BE00E229449284629
:100C900012F062FE25E012229249284612F05CFE14
:100CA0001FE012229049284612F056FE19E0122247
:100CB0008E49284612F050FE13E012228C49284635
:100CC00012F04AFE0DE00E228A49284612F044FE38
:100CD00007E007228849284612F03EFE01E002267E
:100CE00000BF00BF304670BDFFB583B00F461D4644
:100CF0000D9E0C9C002002907868007879684978F5
:100D00000902084301907D4A0198811A904268D0F7
:100D10000ADC7B49401800280FD0012822D0022885
:100D200035D0032872D147E0012973D002296FD052
:100D300003296ED02929F5D1ABE0082C02D3072076
:100D400002900EE00820001BB04201D9304601E0BD
:100D50000820001B28802A885F480119059812F096
:100D6000FBFDB0E00C2C02D3072002900EE00C201B
:100D7000001BB04201D9304601E00C20001B288046
:100D80002A8856480119059812F0E6FD9BE00D2CC3
:100D900002D3072002900EE00D20001BB04201D9C3
:100DA000304601E00D20001B28802A884C4801199C
:100DB000059812F0D1FD86E0112C02D30720029095
:100DC0000EE01120001BB04201D9304601E0112095
:100DD000001B28802A8843480119059812F0BCFDA1
:100DE00071E0112C02D3072002900EE01120001BAD
:100DF000B04201D9304601E01120001B28802A882A
:100E000039480119059812F0A7FD5CE056E001E0B1
:100E100015E029E0112C02D3072002900EE01120EA
:100E2000001BB04201D9304601E01120001B288090
:100E30002A882E480119059812F08EFD43E0112CE6
:100E400002D3072002900EE01120001BB04201D90E
:100E5000304601E01120001B28802A88244801190F
:100E6000059812F079FD2EE00E2C02D30720029097
:100E70000EE00E20001BB04201D9304601E00E20EA
:100E8000001B28802A881B480119059812F064FD70
:100E900019E0072C02D3072002900EE00720001B68
:100EA000B04201D9304601E00720001B28802A8883
:100EB00011480119059812F04FFD04E00020288028
:100EC0000A20029000BF00BF029807B0F0BD0000EA
:100ED000F4410020C4400020AD4000203842010011
:100EE0004542010053420100654201007742010082
:100EF000894201009B420100BD400020272A0000DA
:100F0000DDD5FFFF70B505460C46A44885420DD0DF
:100F1000012C07D0022C09D1012128460EF09AFAA3
:100F2000002803D19E49284603F05AFC70BD70B5D5
:100F3000044600259A499948401C03F051FC994801
:100F40000EF054FAE007C00F002806D0964B10228E
:100F50001121964803F00EFE0546284670BD014655
:100F6000002903D092480160002070471120FCE75F
:100F7000FEB50C4616461D46089F00200190207ABB
:100F800010210840002801D00820FEBD002F01DDFF
:100F90000B20FAE72078022829D160680078616880
:100FA00049780902084300908249009840180028B7
:100FB00006D0012805D0032804D0042810D107E06A
:100FC00000BF00BF01202880E068007830700CE08E
:100FD0000520288005223046E16812F0BDFC04E0BF
:100FE000002028800A20019000BF00BF03E00020FD
:100FF0002880012001900198C7E7FEB506460D46FE
:1010000014460027330009F0D9F805040C141C2CF1
:101010003600012D03D120786749087000E01827B9
:101020002BE0012D03D120786449087000E01827D7
:1010300023E0012D03D120786149087000E01827D2
:101040001BE020785F4908705F48FF211122574B51
:1010500000920191029000225A49514803F0FEFB90
:101060000BE0052D05D105222146584812F074FCED
:1010700000E0182701E0022700BF00BF3846FEBD90
:1010800070B505460C4600262B0009F097F80504BC
:10109000080C10141A0048480078207013E04748E4
:1010A000007820700FE04648007820700BE045483B
:1010B0000078207007E005224449204612F04CFCDD
:1010C00001E0022600BF00BF304670BDFFB585B00D
:1010D0000C4615461E460E9F00200490FF200390EC
:1010E000207A20210840002802D0082009B0F0BD55
:1010F000207802283DD1606800786168497809024B
:1011000008430290324902984018002821D0314902
:101110004018002802D0022826D100E000BF002F8E
:1011200004D1012E04D00D20049001E00B20049086
:10113000049800280CD1E068297801701E4AE16803
:10114000914202D10021039101E00221039100BFED
:101150000DE0012033462A4621460097019005986C
:1011600003F056FB049002E00A20049000BF00BF89
:1011700001E0012004900398FF280DD00C4800687E
:10118000002809D00A4800680068002804D00848F0
:1011900000680168039888470498A7E7FEFF0000ED
:1011A000F04D0020050F0000784300206842002029
:1011B000004200201F00FFFF0542002018420020CF
:1011C0002B4200203E420020710F000051420020BF
:1011D000FED6FFFF2129FFFF70B504460025E0077A
:1011E000C00F002806D0544B10220421534803F0AE
:1011F000C1FC0546284670BD0146002903D0504871
:101200000160002070471120FCE7F8B50D46164636
:101210001C4600272878022831D168680078696860
:101220004978090208430090464900984018002870
:101230001FD1208044480078002819D04248007807
:101240002080414802784149304612F085FB002059
:101250003D4908703A480068002809D038480068BD
:101260000068002804D036480068016800208847DC
:1012700003E0002020800A2700BF00BF02E000201A
:10128000208001273846F8BDF8B50C4615461E46A5
:1012900000272078022821D16068007861684978A9
:1012A000090208430090274900984018002811D1EE
:1012B000002F0ED1264B1E70294600BF04E00A5CA9
:1012C000244B1A54421C90B2214A12789042F6DB09
:1012D00000BF01E00A2700BF00BF00E001271C4853
:1012E0000078002813D01648006800280FD0144852
:1012F0000068406800280AD0114800684368144814
:101300000278144900209847002011490870384697
:10131000F8BDF8B507460D4614460026142C01DD2D
:10132000FE20F8BD0848047002782946074812F0EC
:1013300013FB3046F5E70000D84300209843002017
:10134000844300201F01FFFF96430020004E002031
:1013500097430020144E002004488047044800476B
:10136000FEE7FEE7FEE7FEE7FEE70000751300007C
:10137000910000005720FA490870A82008708820C2
:10138000F74940390881704700B5030008F016FF9F
:101390000D081A2C37414C56606A75808B96A10057
:1013A0005721EF4A1170A8211170ED492039C97BEE
:1013B00004229143EA4A203AD173C821E84A403ACC
:1013C000118187E05721E64A1170A8211170E44984
:1013D0002039C97B04221143E14A203AD173C82144
:1013E000DF4A403A118175E05721DD4A1170A8218A
:1013F00011705121C900DA4A403A11816AE057213F
:10140000D74A1170A8211170D649D54A403A1181A6
:1014100060E05721D24A1170A82111708121890002
:10142000CF4A403A118155E05721CD4A1170A82189
:1014300011708821CA4A403A11814BE05721C84AAD
:101440001170A82111700221C54A403A118141E072
:101450005721C34A1170A82111700421C04A403A93
:10146000118137E05721BE4A1170A82111709321D4
:101470008900BB4A403A11812CE05721B84A1170CB
:10148000A8211170B7494D31B54A403A118121E088
:101490005721B34A1170A821117095218900B04AD3
:1014A000403A118116E05721AD4A1170A821117000
:1014B0004B21C900AA4A403A11810BE05721A84AA2
:1014C0001170A8211170A7495C31A54A403A1181D9
:1014D00000E000BF00BF00BD5721A14A1170A82144
:1014E0001170002808D19E4940390989521591434D
:1014F0009B4A403A118108E0994940390989012203
:1015000052021143964A403A118170475721944A3A
:101510001170A8211170002808D191492039C97B88
:10152000042291438E4A203AD17307E08C49203936
:10153000C97B042211438A4A203AD1737047F8B517
:1015400004462246864E403E3689009686495726F6
:10155000834F3E70A8263E70824E814F403F3E81B1
:1015600057267F4F3E70A8263E700126BE747F4BE3
:101570004DE000BF7A4EB67C02273E40002EF9D0E7
:10158000774E308A00BF764EB67C02273E40002E52
:10159000F9D100BF724EB67C02273E40002EF9D032
:1015A0006F4E308A57266E4F3E70A8263E70884296
:1015B0000ADD6B4E203EB689B618694F203FBE81CA
:1015C0001D46461AB3B209E0654E203EB689B61AEA
:1015D000634F203FBE811D460E1AB3B29D4216DAFC
:1015E00057265F4F3E70A8263E70884207DD5C4E4E
:1015F000203EB689B61A5A4F203FBE8106E0584EAB
:10160000203EB689B618564F203FBE8100E0B0E7B5
:1016100000BF5726524F3E70A8263E70504F403FA5
:10162000009E3E8100264E4FBE74F8BDF0B50027E7
:101630000026002422E0781C87B225460320FFF70D
:101640007EFF474820388489A54206DD281B0328F1
:1016500001DC012007E0002005E0601B032801DC1D
:10166000012000E00020002802D0701C86B200E0BB
:101670000026032E01DC052F00DD00E0DBE700BFC4
:10168000002722E0781C87B225460120FFF757FF8C
:10169000334820388489A54206DD281B012801DC57
:1016A000012007E0002005E0601B012801DC01208B
:1016B00000E00020002802D0701C86B200E0002666
:1016C000022E01DC052F00DD00E0DBE700BFF0BDEE
:1016D000F7B584B00D4614461821049800F026FD95
:1016E00080B203901821049800F020FDE120C00092
:1016F00041431E2068430818E10F0919491040189A
:1017000087B20194E007C00F002802D00120C00377
:1017100000E0002002903E463104029801430E464C
:1017200057200F490870A82008700D4940390398C8
:1017300048630B482038407C802108430849203901
:1017400048740748403846630846407C40210843B7
:1017500003492039487400200149087007B0F0BDE2
:101760004010004002020000C4090000FFFF00001A
:10177000F0B585B004460D4616466048C06B80043F
:10178000800C03905D482030408B02905B482030F5
:10179000008B0190029841000122D20301989042EF
:1017A00001DB012000E000200F18E121090138468B
:1017B00000F0BCFC01461822039850430818206032
:1017C000E1210901384600F0B1FC00913C2100986C
:1017D00000F0ACFC28803C21384600F0A7FC3180AA
:1017E00005B0F0BD5721454A40321170A821117053
:1017F0004249486341492031497C402211433F4AD4
:1018000020325174704700BF3C49886B896B81421C
:10181000FAD170475721394A40321170A82111700E
:1018200036492031497C17229143344A2032517481
:101830001146497C102202431143304A2032517430
:10184000704700B50346FFF7DEFFC21890B20028CC
:1018500002D00120000412182948824200D3121A33
:101860005720264940310870A82008702348426359
:1018700022482030407C20210843204920314874F0
:1018800000BD014600200022002A01D02022104382
:10189000CA07D20F002A01D0102210435722174B3B
:1018A00040331A70A8221A70144A2032527C8243A4
:1018B000124B20335A7470470146002905D10F4856
:1018C0002030007C8022104070470C482030007C83
:1018D00040221040F8E7002802D001280AD104E095
:1018E0002021064A2032117405E01021034A2032DB
:1018F000117400E000BF00BF7047000000100040FE
:101900000000C0A800B50B0008F058FC0504122028
:101910002E3842009B4A526B82439A4B5A631A46B6
:10192000126B82431A631A46126A82431A6230E0CB
:10193000944A526B8243934B5A631A46126B02438A
:101940001A631A46126A82431A6222E08D4A526B67
:1019500002438C4B5A631A46126B82431A631A462F
:10196000126A82431A6214E0864A526B8243854BA4
:101970005A631A46126A02431A620AE0814A526B9B
:101980000243804B5A631A46126A02431A6200E00D
:1019900000BF00BF00BD00B50B0008F00FFC050440
:1019A000142434404C00774A403252698243754BCC
:1019B00040335A611A46126982431A611A46126804
:1019C00082431A6038E06F4A4032526982436D4B5D
:1019D00040335A611A46126902431A611A46126864
:1019E00082431A6028E0674A403252690243654BDD
:1019F00040335A611A46126982431A611A461268C4
:101A000082431A6018E05F4A4032526982435D4B5C
:101A100040335A611A46126802431A600CE0594A70
:101A2000403252690243574B40335A611A4612689A
:101A300002431A6000E000BF00BF00BD002906D0CD
:101A400001290ED0022916D0032928D11DE04D4AC4
:101A5000928A82434B4B9A821A46D26A0243DA62D6
:101A60001EE0484A928A8243464B9A821A46926AFC
:101A700002439A6214E0434A928A0243414B9A829B
:101A80001A46D26A0243DA620AE03E4A928A024366
:101A90003C4B9A821A46926A02439A6200E000BF67
:101AA00000BF384B98831A46128A02431A82704745
:101AB000002906D0012911D002291CD0032934D1D4
:101AC00026E0304AD28A82432E4BDA822D4A4032B7
:101AD000D26802432B4B4033DA6027E0294AD28A8E
:101AE0008243284BDA82274A403292680243254BD0
:101AF00040339A601AE0234AD28A0243214BDA82A9
:101B0000204A4032D26802431E4B4033DA600DE077
:101B10001C4AD28A02431B4BDA821A4A403292682C
:101B20000243184B40339A6000E000BF00BF154BE2
:101B3000D8831A46528A02435A827047002807D037
:101B4000104A803A128B0A430E4B803B1A8306E000
:101B50000C4A803A128B8A430A4B803B1A837047A7
:101B6000002807D0074A803A528B8A43054B803BB6
:101B70005A8306E0034A803A528B0A43014B803B6A
:101B80005A837047801000400146062904D1454819
:101B900000780822104070474248407901228A406C
:101BA0001040F8E757203F490870A8200870084601
:101BB0008079012108433B49887170473A49096897
:101BC00001600021C943384A8032116070473649AC
:101BD000086070473548806970475721314A117055
:101BE000A8211170002806D1114689790422914359
:101BF0002C4A917105E02B49897904221143294A25
:101C000091710021274A117070475721254A1170A0
:101C1000A8211170002806D111468979022291432A
:101C2000204A917105E01F498979022211431D4A1A
:101C3000917100211B4A1170704757201949087093
:101C4000A82008700846807910210843154988713A
:101C500000200870704710B500210AE0022201E060
:101C600000BF00BF1346541EA2B2002BF8D14B1C7C
:101C700099B28142F2DB10BD30B50446002505E083
:101C80007D20C000FFF7E7FF681C85B2A542F7DBA7
:101C900030BD00BF064AD27A082AFBD0044B187226
:101CA000704700004010004000E100E000E000E06C
:101CB0000034004070B5044621462D4800F036FA45
:101CC00005460A21681D00F031FA054629498D8133
:101CD00070BD10B5E1204002FFF7ECFF87202549D9
:101CE00088700320C870402048700120887310BDA0
:101CF00020498978C0229143820111431D4A917085
:101D0000704700280BD01B4A52780A43194B5A706F
:101D10001A46127808231A43164B1A7004E0154A23
:101D200052788A43134B5A7070478020114948708B
:101D3000704710B50A4609E00E4BDB7A082B05D038
:101D400003780C4C2372401C531E9AB2002AF3D124
:101D500010BD0146002005E0064A127A0A70491CAF
:101D6000421C90B2034A927A002AF5D170470000D3
:101D7000005A620200340040514A002105E0137805
:101D80000370521C401C4B1CD9B20829F7DB70476A
:101D90004B4A002105E013780370521C401C4B1C79
:101DA000D9B20629F7DB704701460022C805C00DED
:101DB000002801D001207047424841608C20414BEF
:101DC0005872A62018721846827A80205872402ACB
:101DD00001D10020EFE70120EDE710B50246002316
:101DE0009007800F002801D0012010BD35484260C7
:101DF00001608C20334C60729A2020722046837AD6
:101E000080206072402B01D10020EEE70120ECE73A
:101E1000F7B503460C461946264600259807800F5D
:101E2000002801D00120FEBD8C20264F78720022B0
:101E30000EE02448416001CE224F38609A2038726B
:101E4000091D3846857A402D00D004E0101D82B26D
:101E500002988242EDDB00BF80201A4F7872402D3D
:101E600001D10020DFE70120DDE710B50446E005E1
:101E7000C00D002801D0012010BD0120C002844205
:101E800001D30120F8E77D21C9026018FFF78CFF1C
:101E9000F2E730B504460D46A007800F002801D0B8
:101EA000012030BD0120C002844201D30120F8E7A7
:101EB0007D21C90260182946FFF78FFFF1E7000076
:101EC000080604000018004030B593B0122266A145
:101ED0006A4811F033FD002804D169A008F046F9E2
:101EE00000BFFEE757206B490870A82008705120FA
:101EF000C0006849403908810020664908704822BE
:101F0000002101A811F0E0FD6348019001200003C9
:101F10000290624803900198002804D0012109032F
:101F20000298884201D200BFFEE701A801F01EF826
:101F3000C5B2002D04D05AA008F018F900BFFEE782
:101F40005C4C601E411C884200D90DE0601E5A495D
:101F500048610F210020C04300F04EF80020564990
:101F600088610720086100BF534800690221884347
:101F700051490861514808F06BF813B030BD70B595
:101F800006460C460120C003204000280DD03046F4
:101F900011F0D8FD0546002D02D0284611F0B0FD05
:101FA00020460121C903484070BDE007C00F00284A
:101FB00003D0204601214840F6E70120800320405D
:101FC00000280FD03EA008F0D1F87D22D2010121D7
:101FD00089033C48007812F05BF820460121890310
:101FE0004840E1E70020DFE710B5044635480470BB
:101FF00000F088F862B610BD10B5002819DA324A30
:1020000003071B0F083B9B089B00D2588307DC0E7D
:10201000FF23A3409A430B071B0E8407E40EA34043
:102020001A43294B0407240F083CA408A4001A51A2
:1020300018E0264A03231B02D21883089B00D258BB
:102040008307DC0EFF23A3409A430B071B0E840774
:10205000E40EA3401A431D4B032424021B198408D9
:10206000A4001A5110BD000043483537785F424C38
:10207000455F4C49425F56312E320000CC42010090
:10208000686561642066696C65206572726F722E86
:102090002E2E0A0040100040284E002000EE0300C3
:1020A0004C494220696E6974206572726F722E2EDF
:1020B0002E0A0000FFFFFF0000E000E0D51B00003B
:1020C0002A200000E44300201CED00E000E100E0D5
:1020D00081B2002902D00121090440185721104A79
:1020E0001170A82111700E494039486300210D4A32
:1020F0001160704730200A492039087401200949CD
:102100000860704710B5FFF791FA074807F0A6FF7F
:10211000002211461046FFF7DBFA07F0E9FF10BD79
:1021200040100040E84300202D16000030B50B465B
:10213000014600202022012409E00D46D5409D42A1
:1021400005D31D469540491B254695404019154627
:10215000521E002DF1DC30BD70B50024254600284C
:1021600001DA01244042002901DA01254942FFF742
:10217000DDFFAC4200D04042002C00D0494270BD8F
:10218000F0B51FB486B00020009001900290069830
:10219000069980B204900798090C020400141143B8
:1021A00007900027089D099806913E463C460390FB
:1021B0000398A9B20204000C039004982D0C154357
:1021C00048430021224600F018F8C7197141103425
:1021D0000E46402CECDB3846029A00F00EF8009ACE
:1021E000019B801800905941029801911030029093
:1021F0004028CCDB00980BB0F0BD10B5202A04DBE2
:102200000146203A9140002010BD914020239C1AA5
:102210000346E3401943904010BD03460B439B0720
:1022200003D009E008C9121F08C0042AFAD203E04B
:102230000B780370401C491C521EF9D27047F0B550
:102240001FB40646002082B005464024019100904C
:102250001BE0019922460F46304600F033F8049AFD
:10226000059B801A994110D3104619462246FFF764
:10227000C4FF361A8F410197224601200021009F9A
:10228000FFF7BBFF38184D4100902046641E002820
:10229000DFDC019B00982946324607B0F0BD000004
:1022A000064C0125064E05E0E36807CC2B430C3CA9
:1022B00098471034B442F7D3FDF7EEFE24430100F3
:1022C0004443010010B5202A04DB0846203AD040E0
:1022D000002110BD0B46D340D0402024A21A9140CB
:1022E0000843194610BD70B58C180578401C6B0763
:1022F0005B0F01D10378401C2A1106D10278401CE3
:1023000003E006780E70401C491C5B1EF9D12B07B8
:1023100005D40023521E0DD40B70491CFAE7037834
:10232000401CCB1A921C03E01D780D70491C5B1CED
:10233000521EF9D5A142D8D3002070BDF0B5504C43
:1023400023681D680626B5431D6046780578360269
:10235000AD198678C77836043F06F619AD199D6227
:10236000467905793602AD198679C77936043F0674
:10237000F619AD19DD62467A057A3602AD19867A0C
:10238000C77A36043F06F619AD191D63467B057BF7
:102390003602AD19867BC07B36040006301828183B
:1023A00058634D7808782D0240198D78CE782D0429
:1023B0003606AD19401998614D7908792D024019FA
:1023C0008D79CE792D043606AD194019D8614D7A34
:1023D000087A2D0240198D7ACE7A2D043606AD1971
:1023E000401918624D7B087B2D0240198D7BC97BFB
:1023F0002D0409066918401858625868022188435C
:1024000058605868012528435860186828431860A8
:1024100058688007FCD558688843586098691070E0
:1024200020688069000A507020688069000C9070F4
:1024300020688069000ED0702068C1691171C1697F
:10244000090A5171C169090C9171C169090ED171F3
:10245000016A1172016A090A5172016A090C9172CA
:10246000016A090ED172416A1173416A090A5173F6
:10247000416A090C9173406A000ED0730020F0BDD0
:1024800044470020024901480860704700C30040EB
:102490004447002030B5264B1968C90517D50321DC
:1024A000196001210825491C1C68C9B22C431C6015
:1024B00006E01C68A40508D4491CC9B2202904D828
:1024C0001C68E405F5D50029EDD1002119601949F2
:1024D000136809680B6152684A61174A13688B6177
:1024E0005368CB6193680B62D2684A62124B103317
:1024F0001A688A625C68CC629C680C63DB684B6318
:102500000D4B20331C688C605B68CB600B6820240B
:10251000C007A343800E03430B60086840231843A1
:102520000860886A904201D0012030BD002030BD93
:1025300080C3004044470020606B0020F0B5454B4D
:1025400000241B681C601C615C618578C4782D02C6
:102550006419457806782D043606AD1965193E4C88
:10256000AE46E5608679C5793602AD1946790779B8
:1025700036043F06F619AD19A560AC46867AC57AD1
:102580003602AD19467A077A36043F06F619AD19B8
:102590006560877BC67B3F02F619477B007B3F0463
:1025A00000063818301820609861DD6165461D62AC
:1025B00075465D624C780878240200198C78CD78D5
:1025C00024042D06641906192348B4461030066009
:1025D0004D790C792D0264198D79CE792D0436064A
:1025E000AD19651945604E7A0C7A3602A4198E7AB7
:1025F000CF7A36043F06F619A41984604F7B0E7B10
:102600003F02F6198F7BC97B3F04090679187118C0
:102610006646C1609E62DD621C6359635178107822
:10262000090240189178D4780904240609190A4C43
:10263000401820342060557911792D024919957977
:10264000D2792D041206AA18891861609860D960A1
:10265000F0BD000044470020606B002010B504F07E
:10266000D1F9024902F0B1FE002010BD06040000BD
:1026700008B5002808D0002906D0002A04D0108808
:10268000002801D0002008BD1220694608706A4663
:102690000121034802F095FE6946087808BD000054
:1026A000350C000008B503F0C7FC694608706A469F
:1026B0000121034802F085FE6946087808BD000044
:1026C0001120000008B503F03FFF694608706A4614
:1026D0000121034802F075FE6946087808BD000034
:1026E00010200000FEB508AF70CF6F4670C703F032
:1026F00051FF0446024902F068FE2046FEBD00007C
:102700001320000008B504F06DF9694608706A46A8
:102710000121024802F055FE002008BD0E200000F5
:1027200038B5044604F060FC694608704C70200A15
:1027300088706A460321024802F043FE002038BD3B
:102740001B20000038B5044604F064FC694608709C
:102750004C70200A88706A460321024802F031FE5C
:10276000002038BD1A2000000EB500A8013005F089
:1027700038F9694608706A460921024802F021FECC
:1027800000200EBD1820000008B500A8013004F09C
:10279000B7FB694608706A460421034802F011FE3F
:1027A0006946087808BD0000022000007FB5044695
:1027B00008A861C8009002960195204605F078F9B6
:1027C000694608734C73200A887303AA03210348DF
:1027D00002F0F7FD002004B070BD000020200000D2
:1027E00008B505F085FD694608706A460121034871
:1027F00002F0E7FD6946087808BD000008200000E7
:1028000008B505F0FFFC694608706A4601210348D7
:1028100002F0D7FD6946087808BD00000A200000D4
:10282000F0B585B00AACF0CC03976F4670C705F0E1
:102830007BFD6946087404AA0121034802F0C1FD2A
:102840006946087C05B0F0BD0620000008B505F01B
:10285000C1FD694608706A460121034802F0B1FDD6
:102860006946087808BD00000520000008B505F09D
:10287000F1FD694608706A460121034802F0A1FD96
:102880006946087808BD00000C20000008B505F076
:1028900021FE694608706A460121034802F091FD55
:1028A0006946087808BD00000920000010B505F051
:1028B000E1FF024902F089FD002010BD192000004F
:1028C0001CB500A8013005F09BF8694608706A46FF
:1028D0000721034802F075FD694608781CBD000019
:1028E0000910000038B500A90446033105F098F836
:1028F000694608704C70200A88706A4604210248B4
:1029000002F05FFD002038BD0514000010B5D2B202
:1029100005F0FFFB10BD0A7802708A7842704A8881
:10292000120A82700979C170042070470A78027017
:102930000988090A41700220704708888004000C49
:1029400070478A78027088780128088804D012219C
:102950004843401C80B270478000FAE70A78027052
:102960000A88120A42704888801C80B270470A7830
:1029700002700A88120A42708A7882704A88120AA3
:10298000C2708888001D80B27047088870478A78B6
:102990000270088849884843401C80B270478A7892
:1029A0000270088849884843401C80B270470888F4
:1029B0007047088870477FB515460446022901D044
:1029C000102903D1022B04D0102B02D0002004B018
:1029D00070BD994202D10A46294607E0102969468E
:1029E00007D000F00DF810226946284610F0A6FF27
:1029F000EDE7104600F004F8102269462046F5E79E
:102A000070B50C4605000CD0002C0AD010220649E7
:102A1000204610F0A1FF28782073687860730120A9
:102A200070BD002070BD00001443010008B50022F5
:102A30000B4600920122024907F05AFE08BD000031
:102A40001729000008B50A88172A07D300220B4669
:102A500000920322024907F04BFE08BD022008BD88
:102A60002D29000008B500210B461922009107F01E
:102A70003FFE08BD38B5054608880C4600280DD035
:102A8000606800280AD0012110F014FF009023464E
:102A900007220349284607F02BFE38BD022038BD27
:102AA0003B29000038B5054688780C46012801D03E
:102AB000022810D1208800280DD0606800280AD094
:102AC000022110F0F7FE0090234605220349284614
:102AD00007F00EFE38BD022038BD0000432900007B
:102AE000064910B5884202D103F054F810BD0CF02D
:102AF00043FC0028FAD1172010BD0000FEFF0000A3
:102B000038B505464A6800200C46002A03D0032148
:102B1000104610F0CFFE009023461D2202492846A1
:102B200007F0A2FD38BD00005D29000038B505465C
:102B30004A6800200C46002A03D00321104610F0FA
:102B4000B9FE009023461B220249284607F08CFD5F
:102B500038BD00005D2900000098022B01D0042040
:102B600070475178127809021143018000207047A4
:102B70000098012B01D004207047117801700020CB
:102B8000704770B5049C1E461546062B1BD368780B
:102B90002978000208432080E878A97800020843D9
:102BA0006080022020710246291D601D10F0D4FEB5
:102BB000B01F2081062E03D0AD1DE560002070BD42
:102BC0000020E060FAE7042070BD0098042B01D0DB
:102BD0000420704751781378090219430180D17895
:102BE000927809021143418000207047F8B584892A
:102BF0000D46002C2BD086683778390601D400208A
:102C000010E00D2C23D30C3CA4B231190091408864
:102C100023463246012107F0F7F8002801D00220B0
:102C200000E0012079062870C90FBA066970920E7B
:102C3000AA70641E2204120CAA8002D0761CAE6018
:102C400001E00022AA60022803D1002901D001205E
:102C5000F8BD0020F8BD10B50298042B14D35178AC
:102C60001478090221430180D17894780902214324
:102C70004180191F8180042B02D0121D826001E067
:102C800000218160002010BD042010BD0098042B9D
:102C900001D004207047517813780902194301804C
:102CA000D17892780902114341800020704710B515
:102CB00002981146062B03D0142B03D0042010BD1C
:102CC000022200E0102202714A780B7812021A43A5
:102CD0000280CA788B7812021A4342800279401D22
:102CE000091D10F039FE002010BD0098D90706D14B
:102CF000022B04D059088180026000207047042014
:102D000070470098022B01D0042070475178127848
:102D10000902114301800020704710B5029C022B6C
:102D200011D320726172507811780002084320801C
:102D3000981E6080022B02D0921C626001E000208D
:102D40006060002010BD042010BD000038B50546AD
:102D500088680C46002802D0052110F0ABFD0090D9
:102D6000234617220249284607F0C2FC38BD00005E
:102D70006F29000038B5054648680C46002802D087
:102D8000012110F097FD009023460D2202492846AC
:102D900007F0AEFC38BD00008B29000038B50546B1
:102DA00008880C4600280DD0606800280AD002214F
:102DB00010F080FD0090234611220349284607F0B9
:102DC00097FC38BD022038BD8F29000038B5054674
:102DD00008880C4600280DD0606800280AD002211F
:102DE00010F068FD0090234609220349284607F0A9
:102DF0007FFC38BD022038BD9F29000038B505464C
:102E000048680C4600280AD0012110F053FD0090BC
:102E100023460F220349284607F06AFC38BD0220EA
:102E200038BD0000AF29000038B505464A680020CB
:102E30000C46002A03D00121104610F03BFD009003
:102E400023460B220249284607F052FC38BD0000F9
:102E5000B32900000149086070470000684700205E
:102E600070B5054608480C46854205D0172C03D39B
:102E700002F090FEA04201D2012070BD21462846FA
:102E80000CF0F8FA70BD0000FEFF000008B500214C
:102E90000B461322009107F02BFC08BD0849074898
:102EA00048600A78FF2A01D125220A70D1B2054A6A
:102EB000114301600449C1627047000000C1004035
:102EC0004847002080220801384E010030B58006B6
:102ED000094A800E094C107021684D68FF230133A8
:102EE0009D434D6006490843516808602068416869
:102EF0001943416030BD000048470020584700207A
:102F00008022080180060449800E0870034A49683F
:102F1000104308607047000048470020C0220801A5
:102F20000249002049688863704700004847002034
:102F300010B5FFF7A7FA00F0DFF802F091FF05F0F7
:102F400033FEFFF7ABFF084C5D202168086505F0F4
:102F5000F7FE06F013FD05F0BBFE05F08DFE2168BF
:102F60000020086510BD00005447002030B504461D
:102F7000482200213A4810F0A7FD206800280BD015
:102F8000374D28606068002808D06860A068A86095
:102F9000E068002804D005E0012030BD022030BDEB
:102FA00001204002E86020690121002804D0286146
:102FB0006069002802D002E02961F9E71B206861FE
:102FC000A069002800D10A20A861E069002810D07B
:102FD000E861206A00280ED08006800E2862E06B2F
:102FE00000280AD0E863606A002808D0E96B40181E
:102FF00007E0E961EDE71520F0E71E20F2E7E86B56
:1030000046306862A06A002800D0A862E06A002802
:103010000AD0E862206B002800D028633920005DC8
:103020008009022802D008E00420F2E70C4821467B
:1030300006223431343010F08FFC216C002907D087
:10304000606C002804D0800002D52964606C03E025
:1030500004480078286404486864002030BD0000FB
:10306000A05E0020A84000207C40002070B5002019
:103070000E210B4B0124A4035A8815462540CD4050
:103080005204120C0543E8B25604D50BF60F7540F6
:103090001543491EC9B25D800629EDD870BD0000F8
:1030A0005C47002070B5002008210A4B4C011A88AB
:1030B00015462540CD4005435200E8B2550A560951
:1030C0007540ED07ED0F1543491E09061D80090ED9
:1030D000EDD170BD5C47002000220AE0022101E032
:1030E00000BF00BF0B46491E89B2002BF8D1521C0D
:1030F00092B28242F2D370470949084808600949F0
:10310000CA680261426109698161C16182684114D2
:103110000A438260C2680A43C260704700C0004030
:1031200050470020685F00200246FD2008498C239C
:103130004B723F231B039A4205D24A60A6200872B5
:10314000887A402250404A7A73231A404A72704764
:1031500000180040F8B500240E4F26460E206043AC
:10316000C5190622FF21284610F0AEFCA81D062234
:10317000FF2110F0A9FC0848AE810655641CE4B29A
:10318000032CEBD3002010F0EBFD0349032014398E
:103190004873F8BDF46A0020C446002010B5024907
:1031A000C87308F023F810BDB0460020FFB58FB0FB
:1031B000054600200C900D900CAA284600F006FA57
:1031C000434E0446032855D207F0EFFF05463078FA
:1031D000022819D0002000902A462146129B1198FF
:1031E00007F0AEFE1422002101A810F06DFC0620AD
:1031F0002746474338462430C0B201AA102110F0B8
:1032000011FE002802D014E00120E4E71022FF2183
:1032100001A810F084FB00280BD12537F8B205AACD
:10322000042110F0FFFDE907C90F01AA119801F070
:10323000C7F97034E0B206AA182110F0F3FD002897
:1032400011D106A807F0C3FF002406AFA000C019E3
:103250000188002903D08278119801F0E9FC641CF0
:10326000E4B2062CF2D3A80707D5F17B119801F040
:10327000CDFC02E01298082803D01298042813D03D
:1032800022E0307802281FD100222946119807F049
:10329000E3FDF069002817D04368002B14D000220A
:1032A0001146119898470FE0307802280CD13079F8
:1032B000119A002800D001207178002900D0042143
:1032C0000143104601F048F9002013B0F0BD0000A2
:1032D000B046002070B501F007F8002822D1124C4A
:1032E0000025207B012806D00F4E00241436305DC7
:1032F00001280AD00DE007F092FE0B482573032247
:103300000021143010F0E0FB07E0204607F094FEA7
:103310003555641CE4B2032CE9D3502010F02CFD89
:1033200007F064FF70BD0000B046002070B5264D68
:103330000C4608040FD5E87B10F004FC050006D00D
:1033400007F0E6FF002802D0284610F0D9FB012044
:10335000C003604070BDA0070BD50021084607F0F0
:10336000DFFC02214C40002825D1E87B10F0E6FC70
:103370001FE0E00721D0286A808807F0FBFF0121C9
:103380004C40002817D0E86900280DD04368002B76
:103390000AD0286A002280889847E969286A0022B2
:1033A0004B68808803219847062010F01BFD07F02A
:1033B000A9FC204670BD0121D7E7600702D5042093
:1033C000484070BD002070BDB04600207FB5044667
:1033D0008078754D801F030006F0F0FE0AE1E4E4FA
:1033E000941B06DDE469A8E4E869002808D00668B3
:1033F000002E05D0637B227B6189E01CB047D1E0C1
:103400006189A86900F090FF0028F8D06089012147
:10341000BBE060780026002830D1A079C0072DD00D
:10342000286A00282AD10E220021684610F04CFBA1
:103430006169002903D006226846103107E0A088A0
:103440000BF040FF002870D0811D0622684610F066
:1034500083FA69468889A1794907C90F08436946F3
:10346000888107F095FD032801D1FFF773FE2146FF
:10347000684607F055FC002812D01526E869002898
:1034800053D04368002B50D06278A0880121984720
:10349000002E4AD0E969A0884B683246032171E0CA
:1034A0000221E87B10F04AFC002004B070BD607877
:1034B000062817D1A0880BF005FF060012D0A87AC5
:1034C000012804D0022808D003280BD114E0717918
:1034D000A088002207F0C0FC04E0A1883078052213
:1034E00001F0A6F8E86900285CD04368002B59D0A9
:1034F0006278A088022145E0002211462B4800F0A6
:10350000F7F8EAE7E0780022211D00F05FF80328D1
:1035100048D20621484325302246C0B20C3204214D
:1035200010F0C0FC032010F05DFC3BE0687900283F
:1035300002D0A088A97928E028780028A08823D084
:103540000BF0C0FE06002DD0A07AC0070BD070791A
:10355000002808D0A189890505D46A46B11D00F06C
:1035600035F8002814D022467179A088083207F077
:1035700073FCE869002815D04368002B12D00022A4
:10358000A088114698470DE0052101F041F809E0B7
:10359000A0880321F9E7A08800F06EF902E0A08876
:1035A000FFF798FE012080E7B046002009040000E4
:1035B00010B5054CE061E17B262000F0F1FFE07BD7
:1035C00001F0D2FA10BD0000B0460020F0B503248F
:1035D00085B015460F46002807D0012805D00326E0
:1035E000022810D0032847D120E0084607F09CFDB0
:1035F0000446032840D2002D3ED0062239462846F4
:1036000010F0AAF938E01E4F002400910E2060430C
:10361000C0190622801D009910F090F9002823D1CE
:10362000641CE4B2032CF1D334461DE00024204690
:10363000062148432330C0B26A46102110F0F2FB45
:1036400000280CD11022FF21684610F068F90028EC
:1036500005D13946684600F05BFF002804D0641CA1
:10366000E4B2032CE3D3DFE7032C05D2002D03D013
:103670002946204607F07EFD204605B0F0BD00003B
:10368000F46A002070B50E4617491525884212D1FC
:10369000002432460221204607F092FC002800D088
:1036A0000025641CE4B2032CF3D3002E1AD00F487B
:1036B0000BF082FE16E00BF005FE040011D06079DD
:1036C0000022A11DFFF782FF032804D23246022107
:1036D00007F076FC0025002E04D0204607F0B4FD4C
:1036E00000E01425284670BDFFFF000049B200002D
:1036F000FEB5154601229202821A002401275B4E74
:10370000130006F05BFD130B12171E252C343B40F3
:1037100048737A828AA896539DA4A800012973D180
:103720002878022870D830709DE002296CD1288852
:10373000308298E0012967D12878012864D8707018
:1037400091E001297ED1287804287BD8B0708AE0E6
:10375000012977D12878012874D8F07083E01029E6
:1037600070D110222946424810F0F6F87BE001297A
:1037700068D12878012865D8307174E0012961D1B9
:103780002878F0716FE004295CD13A4928688842B2
:1037900058D8B06167E0002954D100F0A5FD002899
:1037A00001D037735FE007F03AFC19E0072949D1EF
:1037B0000622691C684610F0B7FA2878002269468C
:1037C000FFF704FF054603280ED200F08DFD002808
:1037D00003D026481430475545E0284607F02CFC16
:1037E000502010F0C9FA21E002243CE0012929D13F
:1037F0002878012826D8707135E0012922D128784F
:1038000009281FD8B0712EE01CE001291AD12878B0
:10381000C11F092916D8307225E0012912D1F17A89
:103820002878F07200291ED101281CD107F0DEFC97
:1038300019E0012906D12878032803D8B07212E0D4
:10384000012901D018240EE02878B0730BE0002085
:1038500010F0C8FA07E02728C6D20229C4D1298867
:1038600000F09EFE04462046FEBD0000B04600204B
:10387000E46A00203F420F00FEB50646002001909A
:10388000029030460BF01EFD040015D0134F38781F
:10389000022811D0607901AAA11DFFF797FE054605
:1038A00003280AD207F081FC024601200090082379
:1038B0002946304607F044FBFEBD3878002807D083
:1038C0000128F9D161790022304607F0C5FAFEBD22
:1038D0000521304600F09CFEFEBD0000B0460020F1
:1038E000F8B50F4613491525164688420DD1002418
:1038F00032463946204607F0B1FC002800D00025AA
:10390000641CE4B2032CF3D312E00BF0DBFC0028C0
:103910000DD04379811D00221846FFF757FE03287A
:1039200006D23246394607F099FC002500E01425FE
:103930002846F8BDFFFF000070B50C460146032085
:1039400000020A1A00253448130006F037FC1D1047
:1039500012151C1F2326282C303234383A3C3E40A6
:10396000424446484A4E50525A5456585A0040789B
:1039700011E01022294902E0284910221031204686
:103980000FF0EAFF45E0406A206042E0224906224B
:103990003431F4E7C07820703BE0C08936E01E493E
:1039A00082783A31EBE71D4902791F39E7E7407A1F
:1039B000F1E7807AEFE7184906222831DFE7C07A7D
:1039C000E9E7007BE7E7008A20E0408A1EE04079D3
:1039D0001CE0808A1AE0C08A18E0008B16E0408B59
:1039E00014E00D4906222E31C9E7808B0EE0C08B12
:1039F0000CE0008C0AE0007ACDE78079CBE7C07953
:103A0000C9E7272904D2084600F0E8FB208000E03F
:103A10000225284670BD0000D84600203D6B0020DE
:103A200010B51E49002408701D491E4A0C70611E05
:103A3000118000F067FD1C4904200870102200214D
:103A40001A4810F041F810220021194810F03CF8F3
:103A500018481B4904601848144A04701748047039
:103A600007200870174810210470022010F0DAF9BE
:103A70000F4A1021032010F0D5F910220B491248EB
:103A80000FF06AFF10481022094910300FF064FF50
:103A90000421084A084610F0C5F910BDD846002098
:103AA000E0460020E8460020D94600203D6B00207B
:103AB0004D6B0020FC460020E1460020E24600203D
:103AC000E3460020E4460020C46A0020FEB5444DD1
:103AD0000C4608040CD5287810F034F8050004D002
:103AE00008F0B6FC284610F00BF80120C00373E084
:103AF00060040AD504213B4A084610F0D3F902209D
:103B000010F070F90120800366E03749E2070127D1
:103B10000878364E002A2FD0354A1278002A24D051
:103B2000052825D0334869460078087032480622B7
:103B30000078487000A8314902300FF00DFF30487E
:103B40006946007808722F4800784872287800F09B
:103B500061FB002809D024490720087071680029FA
:103B600003D00968002900D0884720467840FEBD70
:103B7000032069460870E2E7A1070FD505280BD19D
:103B80002148008801F0F0FC20480288002A03D078
:103B90000221287810F07CFA02201DE0600704D58D
:103BA000002008F09BFC042016E0200716D5307892
:103BB000012802D002280ED10BE015480097038897
:103BC00014480288144801881448008800F028F836
:103BD00001E000F089F808206040FEBD0020FEBD35
:103BE000D8460020FC460020E0460020A4460020E5
:103BF000DB460020E1460020E2460020004700208E
:103C0000E3460020E4460020E8460020EA46002083
:103C1000F2460020F0460020EE460020EC46002050
:103C200070B5164C049D2478052C01D0142070BD6D
:103C3000134E841FB4421ED206291CD3B41DA142C8
:103C400019D2FF26F536B24215D20A2B13D3A3425E
:103C500011D20C4C20800C4801800C4802800C488A
:103C60000380284608F03AFC0A480421007810F046
:103C700057FA002070BD182070BD0000E0460020FB
:103C80007A0C0000EC460020EE460020F0460020B2
:103C9000F2460020D84600201CB50C4909780029BE
:103CA00001D011201CBD002801D0094948600A48F4
:103CB000009008490A48019101780A48074B002200
:103CC000007800F021FA00201CBD0000E046002032
:103CD000A4460020FC4600204D6B00203D6B0020D8
:103CE000D9460020D846002010B50748007805289E
:103CF00001D0122010BD0548132201880448007825
:103D000000F096FC10BD0000E0460020E8460020D0
:103D1000D8460020F7B50D46864900981646421849
:103D2000854F00243878397A130006F047FA1C0FC3
:103D3000151CF62141465A71787F8990F697A3AAFF
:103D4000B5C0C9F6F6F6F6D4F6EAF1F6102D76D13E
:103D50001022314679486FE0102DF8D177481022B3
:103D60003146103068E0042D69D130687862DAE0BD
:103D7000012D64D1FB783278FA70002B0AD0002A2A
:103D800007D1022903D0062901D0042901D100F06E
:103D9000FBF9C8E0002A0AD0012905D0032903D085
:103DA000052901D0042902D101210FF0C7FFBAE093
:103DB000022D44D13088F881B5E01F2D3FD85E48F0
:103DC0001F2200213A300FF07FFE5B482A46314621
:103DD0003A300FF0C1FD584BBD703A332A460121ED
:103DE00012E01F2D2BD855481F2200211F380FF03D
:103DF0006BFE52482A4631461F380FF0ADFD4F4B3F
:103E00003D711F3B2A460021387800F057FC8FE0B7
:103E1000012D74D13078042871D8787283E0012D97
:103E20006DD1307803286AD8B8727CE0062D66D14F
:103E300041480622314628300FF08EFD73E05EE0E7
:103E4000012D5CD13078072859D8F8726BE0012D2C
:103E500055D13078032852D8387364E0022D4ED102
:103E600032887A82002A5ED005295CD1022110F0C6
:103E70000FF958E0012D42D1307801283FD87871F0
:103E800051E03088022D3AD1062838D31921C901D2
:103E9000884234D8B88246E03088022D2FD10628D7
:103EA0002DD31921C901884229D8F8823BE03088F6
:103EB000022D24D1FF21F531884220D2388332E00F
:103EC0003088022D1BD10A2819D31921C901884233
:103ED00015D8788327E03178012D10D101290ED132
:103EE00008210FF013FD002801D016241BE000204C
:103EF00008F0F4FA0421387810F012F913E01824CD
:103F000011E0012DFBD13078B8710CE000E004E045
:103F1000012DF4D13078F87105E00098272801D2FE
:103F2000022D02D002242046FEBD318800F038FB6D
:103F30000446F8E7FFFCFFFFD84600203D6B002059
:103F4000F8B50E46040049D020880BF0BBF90500F7
:103F500042D024490878022806D0012804D0287BC2
:103F6000082803D1002E01D0122438E01E4F7869B2
:103F7000002801D0112432E047212C200FF008FD49
:103F80007861002826D02C2200210FF09DFD786951
:103F9000218841801C22211D001D0FF0DDFC7B6962
:103FA000022018700F4822888178287B08280FD0BB
:103FB00000201B1D05F0E0FE0446002E03D0314614
:103FC00028460EF0FFFA002C09D007F02BFB06E084
:103FD0000120EEE7132402E0142400E0022420462E
:103FE000F8BD00006047002030440020FFB51F48A6
:103FF00081B000781E4617460D46022818D00128C9
:1040000016D0002F30D001980BF05CF9040029D0B5
:10401000A06A002801D00FF0F9FC1C2138460FF0EF
:10402000A7FCA062011E1BD0207B082803D00DE056
:10403000122005B0F0BD002E08D0887E00900B46FF
:1040400012330A8A01980EF0B3FD00E000202179B6
:10405000002D01D0062200E0042211432171E8E77F
:104060001320E6E71420E4E70220E2E7604700209F
:1040700010B505480078000701D5044800E000208D
:1040800008F06EF810BD0000604700208447002053
:1040900070B51B4C05460121207807F0EDFA194850
:1040A00001780A20014224D0204625700C3008F007
:1040B00051F8606800281AD1207800281DD000012E
:1040C00007210FF065FC6060002810D021780A01FC
:1040D00000210FF0F9FC0020FF222378616803E043
:1040E0000401401C0A55C0B29842F9D305E01320E0
:1040F00070BD0020207008F02DF8002070BD000079
:104100007047002060470020F8B50224079F1D4635
:104110001646012906D002290BD0042911D00829FE
:104120002FD11EE000F0E4F804002AD100F038F9A5
:1041300027E000F0DDF8040023D13046FFF7A8FFA8
:104140001FE000F0D5F804001BD13A462846069936
:1041500000F0E2F900F024F900F00AF905F0C2FDE0
:104160000FE000F0C5F804000BD13A462846069946
:1041700000F0D2F93046FFF78BFFFFF779FF05F02B
:104180000BFD2046F8BD000070B5104C21680029D9
:1041900019D00978814214D10D4D0221A8780FF071
:1041A000BFFF0C4800264680A87804210FF0B8FF16
:1041B00009484671216803204870002001F0A3F9E6
:1041C00070BD032070BD122070BD00004844002067
:1041D000604700208C470020B0680020272801D3CA
:1041E0000248704702494000085A7047FFFF00002C
:1041F0005E44002010B5054AFF21D170044AD170F9
:104200009070052101F0C2FD10BD0000B0680020D3
:1042100060470020FEB52E4D044628680F46002852
:1042200001D01120FEBD2B4E05213078084201D16E
:104230001220FEBD28494968002905D009780029C7
:1042400002D0C00702D007E01020FEBD00F04CF8FD
:1042500022490978884206D33878022803D00328F7
:1042600001D0122431E047210C200FF091FB28608F
:10427000002829D00470002141700A223946801C90
:104280000FF06AFB164DA878032806D008F0E6FA6E
:1042900004001AD007F0BAF917E007F043FA6946AC
:1042A00005F0F9FB684607F001FE012028711D208A
:1042B000FFF794FF0006000E687106D0B078094A37
:1042C00004210FF0D9FE00E013242046FEBD0000BB
:1042D00048440020604700208C4700204E460020C4
:1042E000B06800200077010010B50BF04DF810BD4C
:1042F00070B50E4605462022002109480FF0E4FB68
:10430000074C0848E570067001F024F9002803D036
:1043100000202070122070BD0121217070BD0000AE
:10432000B0680020604700207FB504460D4608466F
:104330000AF0C8FF002817D00C48844212D210227D
:10434000002168460FF0C0FB69460C70200A4870D7
:10435000200C8870200EC8702946684605F02CFC99
:1043600004B070BD0220FBE71220F9E740420F00C5
:1043700010B508480078400707D5074807F0FCFE4D
:1043800000200649C043C88010BD002007F0F4FE9D
:1043900010BD0000604700209C470020B06800204E
:1043A000F8B51E4C00256068002802D00FF02EFBE7
:1043B0006560E068002802D00FF028FBE560184E29
:1043C00005273078384224D01448143007F0CEFE48
:1043D000307838421BD0472120200FF0D9FA606096
:1043E000002814D0202200210FF06EFB472120204E
:1043F0000FF0CEFAE060002805D0202200210FF057
:1044000063FB0020F8BD60680FF000FB65601320BF
:10441000F8BD002007F0AAFEF3E700008C4700205B
:1044200060470020FEB5344E344D0C4608041DD5BF
:10443000B0780FF087FB070011D03878A22806D09B
:10444000F578384607F094FD00280BD101E0ED78AF
:10445000F7E7FF2D06D0394628460FF0ABFB0120C9
:10446000C00345E038460FF04BFBF8E7E0070127B3
:10447000234A00280AD05068002804D04168002947
:1044800001D00020884720467840FEBD1C48A10787
:10449000C06808D5002804D04168002901D0012057
:1044A0008847022024E0610724D5697900291ED0BD
:1044B000491E0906090E697119D19169002907D0B1
:1044C0002F71002804D04168002901D001208847BD
:1044D0006946E86805F0DFFA684607F0E7FC1D204A
:1044E000FFF77CFE6871B07804210FF019FE0420FC
:1044F0006040FEBD0020FEBD60470020B068002087
:10450000304400200149C870704700006047002017
:1045100010B505F0C1FB10BD70B50E4C0B466261C5
:1045200021610546E0601022002118460FF0F7F9DE
:10453000012803D1102120690DF026FE1022002150
:1045400028460FF0ECF9012803D11021E0680DF0A6
:104550001BFE70BDB06800207FB50C4605460AF012
:10456000B1FE002815D0007B042802D0122004B030
:1045700070BD09484069002800D0847D6846214606
:104580000EF03EFB054B6A46022128460EF0CAFAA1
:10459000EDE71420EBE7000030440020013101007A
:1045A000272802D2044A914201D102207047034ACF
:1045B0004000115200207047FFFF00005E440020C1
:1045C00070B50E46114915460B78022B17D0012BFA
:1045D00015D0002D17D00AF075FE040011D0002E62
:1045E00003D0207902210843207120461022294659
:1045F00014300FF0B1F928696062002070BD1220FC
:1046000070BD142070BD022070BD00006047002006
:1046100038B50C4605460AF055FE002806D0684617
:104620000470694628460EF06DFA38BD142038BD76
:10463000F8B50C461746204905461E4A12268868DA
:10464000944208D1002833D00268002A30D0214695
:1046500028469047F8BD174A521C944219D10028A9
:1046600008D00268144E002A04D0214628469047FC
:10467000002806D03946284606F01AFB060004D06A
:1046800016E0757037700020F8BD0B484570077054
:104690000EE020460AF016FE002809D00078A84255
:1046A00001D00320F8BD3946204600F096FEF8BD43
:1046B0003046F8BDFEFF00003044002070B51446BF
:1046C000204A1E46127805231A4223D01E4D002987
:1046D00001D06A6800E0EA68002A1BD0202C2ED2A4
:1046E000002C01D0002E2AD02870002914D0686830
:1046F0001F220021401C0FF0E7F96868224631466E
:10470000401C0FF029F9696820460C70491C00F024
:10471000F6FE70BD122070BDE8681F220021401C0B
:104720000FF0D2F9E86822463146401C0FF014F928
:10473000E96820460C70491C00F0FCFE70BD0220A8
:1047400070BD0000604700208C470020014610B576
:104750000020C90706D0044B102218460421403817
:1047600000F008FA10BD00002446002010B5002318
:1047700008E01C012418E468944202D119010818C9
:1047800010BD5B1C8B42F4DB002010BDF8B5104E51
:10479000114FB0700F49384600F022F800220D4842
:1047A0001346D23894010753002124180C254D4399
:1047B0006519AB80491CEB600529F7DB521C032A05
:1047C000F0DBB078307005480AF010FEF8BD00004C
:1047D00070450020D2690020FFFF0000DDCF0000FF
:1047E00070B50A4C0025A04208D1002082008C52EE
:1047F0005218401C95700328F8DB70BD08F0BFFB11
:104800000028FAD00480857070BD0000FFFF000012
:10481000F8B50E460746069900240798002902D0ED
:104820000B242046F8BD022B01D00D24F9E7517866
:1048300012780D0215432946814301D08024F0E708
:104840003846F16800F088F9A842EAD02A4638468E
:10485000F16800F035FA0446E3E70000FFB583B0E5
:10486000039800250E9F00283AD00498002837D0DE
:104870000698002834D0002F32D000260398B100CB
:104880000C1821881748814224D0A078002821D014
:10489000049A0C990698FFF769FF0290002819D036
:1048A000A078C00709D00D980090019720880121B9
:1048B000029B059A09F0E4F80543A078800709D522
:1048C0000D980090019720880221029B059A09F01B
:1048D000D7F80543761C032ED0DB284607B0F0BD81
:1048E0000220FBE7FFFF000070B50D4608041AD553
:1048F0000E4880780FF026F904000FD02078B028F9
:1049000009D1204608F0FEFC002804D02046217979
:10491000083000F0F3FC20460FF0F2F801212846A1
:10492000C903484070BD002070BD000070450020E4
:10493000FFB585B000200F9F0090087A0E9D1C46A1
:104940000E46C0060BD5079808F012FB03007DD079
:104950000A223146059898470090002816D13078F1
:10496000022815D0079808F029FB0028EFD000682E
:1049700084460028EBD011991098224600970291A6
:1049800001902B46314664460598A04709B0F0BD1A
:104990007068292241780078090201431202881ABE
:1049A00091427CD00BDC6948081A13D0012811D041
:1049B000022817D00328D5D1002F53D09BE001281F
:1049C0007ED002286DD0032877D00428CAD1002FCA
:1049D00068D090E0002F6FD1F068017829800278CC
:1049E000416884E0002F67D1F068417800780F02B9
:1049F000074304202880F06804A900782070F0683C
:104A000040786070384600F087F9060022D068468A
:104A1000028A03AB4E493046F76800F0DBF9002804
:104A20000AD1337802214B487268FDF7C4FF002891
:104A300002D1474869468881387802280CD1022281
:104A4000201D79680EF088FF288800E07CE0801C3B
:104A5000288001E06846878168468089A070000A46
:104A6000E0706FE001202880F0680021007820705D
:104A70007089401C80B200F04FF9002813D02988BB
:104A800002788918891C2980817A61704189090A14
:104A9000A17002784168E01C0EF05EFF52E00CE06D
:104AA0000EE026E03BE028880422001D288000213B
:104AB000601C0FF009F845E01DE0002F27D01AE038
:104AC000F0680FF03EFB80B2B84201D207205DE7EC
:104AD000874201D1002006E01099C919814201D313
:104AE000C01B00E01098288082B2F068C1192046EF
:104AF000D2E7002F01D00B2048E7F168059800F0BD
:104B00002BF8022129802070000A60701AE0022030
:104B10002880F06800782070F0684078F5E7072179
:104B2000F068298001782170417861708178A170E6
:104B30004188090AE1700179217181796171C08828
:104B4000000AA071009821E70E201FE7002800004E
:104B5000FFFF0000EE42010010B508F010FA002837
:104B600000D0807810BD00000149487070470000F7
:104B7000704500207CB51E4605001CD068460180AB
:104B80008270019500F032FA04001FD1002E1DD072
:104B9000688900280FD047210C200EF0F9FE00286C
:104BA00013D00021016069898180094A8660D1683B
:104BB000002903D107E002207CBD11460A68002AC3
:104BC000FBD1086002E0D06000E0132420467CBDE9
:104BD00070450020F8B50C4C0746607815460E4627
:104BE000FF280FD00A200EF077FF01000AD0B12075
:104BF00008704F80002048700871CE800D81607869
:104C00000EF0D8FFF8BD00007045002070B50C46CE
:104C100005460649FFF7A0FF800704D52146284630
:104C200000F03EFA70BD012070BD0000D269002086
:104C30000EB56B461A81FE230022019300920223D7
:104C400002AA00F001F80EBDFFB583B0174602A915
:104C50000D9E049800F060F804002AD06846008990
:104C600008F0ACF9002822D04568002D1FD00C9820
:104C7000019600903A462146069B0398A8470500F6
:104C800018D1FE2E16D02078022813D16068417802
:104C9000027808020949104388420BD178783978A4
:104CA00002020A4304990398FFF794FF02E00E25DD
:104CB00000E00125284607B0F0BD000002290000F1
:104CC00070B514460E46054608F059F9002806D17D
:104CD0003146054808F053F9002803D00580847058
:104CE000002070BD112070BDFFFF000010B50178DD
:104CF000B0290BD14178002908D10179122906D0B9
:104D00001B2903D14088012100F04AFF10BD417CDE
:104D10000129F7D010BD0000F0B5104A136919E061
:104D20009C686589A84214D39E887219824210D962
:104D300000220CE017013F197F89874205D1002925
:104D400000D00D8010010019F0BD521C92B2B24289
:104D5000F0D31B68002BE3D10020F0BD704500208C
:104D6000FFB51B4883B0002305692DE0AE68002421
:104D700070890190A888009016E021018819428965
:104D8000039FBA420ED3049FBA420BD8069A002A58
:104D90000FD01346715C4068059AFDF70CFE0028A1
:104DA00007D10023641CA4B200988442E5D3002BF1
:104DB00009D00C98002802D00C9901980880200195
:104DC000801907B0F0BD2D68002DCFD10020F8E785
:104DD00070450020FEB5174600256A4695800446BA
:104DE00040891D4A1E46904208D001AA0092401CEC
:104DF000237880B26268FFF7B3FF0546237802216B
:104E000016486268FDF7D7FD002807D123780221F4
:104E100013486268FDF7CFFD002801D060890EE0DD
:104E2000237802210F486268FDF7C5FD00280DD0E8
:104E3000002D03D068468088B84203D0384608F079
:104E40007FFF04E06889401E80B200E06089002E88
:104E500000D030802846FEBDFFFF0000EC4201007C
:104E6000EE420100F2420100FFB583B00E461D463E
:104E7000174601A9039807F045FE040022D1002F30
:104E80000FD0694608803088FFF746FF69460888DA
:104E900000F042F90146012203980AF0E7F90028E0
:104EA00011D131460398FDF72BFE04000AD1FF2DE6
:104EB00008D0019B1E22194604489B1C08F04BFF9A
:104EC0000198C570204607B0F0BD0000A9DB0000C6
:104ED00010B50749FF220A7000224A608A6005491E
:104EE0000871042100F052FF00F006F810BD000028
:104EF000604500206047002070B500200D4D0E4B2E
:104F00000446FF22062141435D52C918CA708A70C7
:104F1000401C0C710328F5DB0120C04318800748B2
:104F200007F0EAFF0648FDF795FF06480AF05EFA2B
:104F3000002070BDFFFF0000C0690020F1DB000011
:104F4000D3DB000029DB00007CB50546124816467D
:104F500000780C46022801D216207CBD01A9284603
:104F600007F0D0FD1728F8D0002E10D00020694699
:104F700008802088FFF7D0FE6946088800F0CCF84A
:104F80000146012228460AF071F90028E5D12146A0
:104F90002846FDF7CBFD7CBD3946002008B50093BF
:104FA00013460A4601460248007807F0C1FD08BDD5
:104FB0006045002070B50D46080412D50A480079F6
:104FC0000EF0C0FD040008D02078A02802D12046B1
:104FD00007F016FF20460EF093FD0120C003684045
:104FE00070BD002070BD00006047002070B5044611
:104FF0004568008800284AD02B78022125486A6835
:10500000FDF7D9FC002807D12B78022122486A68D5
:10501000FDF7D1FC00283AD0A078C01F092834D869
:105020001E4EB08800282ED02188081801210904BE
:10503000884228D847210C200EF0AAFC050020D079
:10504000002207E011016368B0880A315852401C01
:10505000B080521C20889042F4DC00202860082296
:105060002146281D0EF078FC3069002801D105E0AA
:10507000084601680029FBD1056000E03561002089
:1050800070BD132070BD012070BD182070BD0220BE
:1050900070BD0000EC420100EE42010070450020AE
:1050A000FEB50E46074600250223194A194901207C
:1050B0000095FFF755FE040027D023200090002321
:1050C00004221D21384600F0D3F8029000281AD09F
:1050D0006089694688800420C88002990120087090
:1050E0000298334645700299FF2088700299002289
:1050F000C87001A93846FFF7B7FE040006D0029831
:105100000EF084FC02E0152400E001242046FEBDE0
:105110000A430100FFFF000000B507F0AFFC0028C4
:1051200001D0807800BD102000BD00B507F0A6FCBE
:10513000002800D0008800BD7CB50C460546FDF770
:105140008FFE00280AD16846848001A80090044898
:105150007F2300222946007807F0EAFC7CBD00008E
:105160006045002010B504460B4688060DD5104654
:10517000FFF7D2FF0146012220460AF077F8052802
:1051800001D00F2800D1082010BD882003420CD088
:105190001046FFF7C1FF0146180701D5012200E0C4
:1051A000002220460AF062F810BD880701D50020D1
:1051B00010BD032010BD10B50346C8060DD510461E
:1051C000FFF7AAFF0146012218460AF04FF805280A
:1051D00001D00F2800D1082010BD480705D5104682
:1051E000FFF79AFF0146012206E0480608D510465F
:1051F000FFF792FF0146002218460AF037F810BD6B
:10520000C80701D0002010BD022010BD70B51D469A
:1052100003460C4688060DD51046FFF77DFF014674
:10522000012218460AF022F8052801D00F2800D1E3
:10523000082070BD8820044214D01046FFF76CFF90
:105240000146200701D5012200E0002218460AF09D
:105250000DF8002808D0697A0029EAD0297A0029B7
:1052600002D170BD880701D5002070BD032070BD3C
:10527000F8B5069F1E461546162928D00CDC0929CC
:105280001FD004DC05291CD0062911D11BE01129EF
:1052900017D012290CD118E01D2916D004DC1729CB
:1052A00015D01B2904D110E052290ED0D2290CD0E0
:1052B0000124114A95420CD1FDF712FC001B85B266
:1052C0000BE00224F5E70724F3E70324F1E70524C4
:1052D000EFE7D22901D10C35ADB2601980B2394661
:1052E00000F0B0FD002805D0002E00D035806142CE
:1052F0000EF0E0FAF8BD0000FFFF000010B507F067
:10530000CDFB002801D00EF081FB10BD014610B589
:105310000020C90706D0044B1022184609219038F6
:10532000FFF728FC10BD00005045002070B5164660
:10533000214A0D46114600241031030004F03EFFBF
:105340000A0613383818382128383138152D2AD84C
:105350001622002119480EF0B7FB2A46314617489D
:105360000EF0FAFA25E0022D1DD13088508020E0A1
:10537000082D18D11048082231460830FCF74DFF9F
:1053800017E0012D0FD1CA690B493078383105E09B
:10539000012D08D1CA6B08493078583108F0AAFDB0
:1053A00007E0012D01D0182403E03078107000E0F0
:1053B0000224204670BD0000B0440020D0680020C8
:1053C000704710B500F0FAF810BD10B500F016F9EE
:1053D00010BD10B500F02AF910BD10B5FDF73EF96B
:1053E00010BD10B500F036F910BD10B500F052F93F
:1053F00010BD10B500F068F910BD10B5FDF738F913
:10540000002010BD10B5FDF74DF910BD7CB5069C10
:10541000079DC0B20195009400F06CF97CBD10B5F9
:10542000FDF750F910BDFEB508AF70CF6F4670C7DD
:10543000FDF758F9FEBDF0B585B084460AA8F1C85D
:1054400004976F4671C7604600F084F905B0F0BD5F
:1054500038B5049C009400F0B5F938BD10B5FDF7DF
:1054600051F910BD38B5049C009400F0C9F938BD5D
:105470007CB5069C079DC0B20195009400F0DEF952
:105480007CBDFFB587B094468E4610A8F7C8069736
:105490006F4677C762467146079800F005FA0BB071
:1054A000F0BD10B500F052FA10BD10B500F06AFA68
:1054B00010BD10B5FDF734F910BD10B5FDF742F978
:1054C00010BD10B5FDF750F910BD10B5FDF75CF932
:1054D00010BD10B500F074FA10BD10B500F08CFAD4
:1054E00010BDFEB508AF70CF6F4670C7FDF75EF90F
:1054F000FEBD38B5049C009400F09CFA38BD10B590
:10550000FDF76EF910BD10B5FDF77AF910BDF0B5D5
:1055100085B00AACF0CC03976F4670C7FDF780F9F1
:1055200005B0F0BD10B5FDF791F910BD10B5FDF750
:105530009DF910BD10B5FDF7A9F910BD70B55478EF
:10554000157822022A43FDF7B1F970BD10B500F0BD
:105550008FFA10BD10B5FDF7B3F910BD38B5049C36
:10556000009400F09DFA38BD10B5FDF7BBF910BDF1
:1055700010B500F0B1FA10BD10B5FDF7C7F910BDB8
:1055800010B505280ED90C4CA0420BD2A14209D26D
:10559000814207D3FF20F530824203D2092B01D983
:1055A000A34201D3002010BD521C4A43D8008242BE
:1055B000F8DA012010BD0000810C0000F8B50746A4
:1055C000084616460D460C300EF086FA040011D03F
:1055D000912020700E206070A5702046A7800C30AE
:1055E0002A463146A0600EF0B7F90348214680787C
:1055F0000EF0E0FAF8BD00006047002070B50546E7
:105600000C4606200EF068FA01000BD091200870BD
:105610000F2048708D700120C87003488C808078FE
:105620000EF0C8FA70BD00006047002010B50446B7
:1056300003200EF051FA010008D0912008701A20C2
:10564000487003488C7080780EF0B4FA10BD0000EA
:105650006047002070B5064614460D4608200EF03F
:105660003BFA01000ED091200870052048708E7022
:105670008D8005488C7180780EF09CFA03480449AF
:10568000007E087070BD000060470020A05E002012
:105690003946002070B5064614460D4608200EF027
:1056A0001BFA01000CD0922008703E2048700820A0
:1056B00088708D808E710348CC7140790EF07AFA33
:1056C00070BD00006047002070B505460C460620FE
:1056D0000EF002FA010009D09120087030204870C5
:1056E0008D7003488C8080780EF064FA70BD0000E5
:1056F00060470020FFB581B01E460F4631200EF0F6
:10570000EBF9040022D0912020703E20607002202E
:10571000A0700120E07020460830054660600198C6
:1057200028706F700622A81C03990EF015F92E72CE
:105730002846324609300A990EF00EF920350B98AA
:1057400028720348214680780EF034FA05B0F0BD87
:1057500060470020FFB5074681B01D46164616205B
:105760000EF0BAF9040029D0912020703E2060701C
:105770000120A070002F08D03120E07020460622C2
:10578000002108300EF0A0F907E00020E07020466C
:10579000062208300A990EF0DFF80298A080A67160
:1057A000E5710B98E0810C9820820D9860820E982C
:1057B00020750348214680780EF0FCF905B0F0BD55
:1057C00060470020F8B507461C4615460E460C20DB
:1057D0000EF082F901000FD0912008703E20487031
:1057E00003208870CF708E80CD800C810698488110
:1057F000024880780EF0DEF9F8BD00006047002016
:10580000F8B507461C4615460E460E200EF064F904
:1058100001000FD0912008703E204870072088704A
:105820008F80CE800D814C810698888102488078D7
:105830000EF0C0F9F8BD000060470020FFB581B050
:105840001F4618200EF048F9050028D09120287036
:105850003E2068700B20A87001202C460834E870A8
:1058600000266C6001982070029860700622A01CCF
:1058700003990EF071F827722046062209300A9922
:105880000EF06AF80B98E073761CE878F6B21034E4
:10589000B042E7D80348294680780EF08BF905B06E
:1058A000F0BD000060470020FFB581B01D461646E0
:1058B0000F4622200EF010F9040042D091202070F3
:1058C0003E2060700A20A0700198002814D031207A
:1058D000E07020460622002108300EF0F5F8204640
:1058E000062200210E300EF0EFF82046062200219D
:1058F00014300EF0E9F813E00020E0702046062294
:1059000008300A990EF028F8204606220E300B992E
:105910000EF022F82046062214300C990EF01CF8E6
:10592000A780A671E5710D9860830E98A0830F98EB
:10593000E0832021109808550348214680780EF016
:1059400039F905B0F0BD00006047002070B505468C
:105950000E4626200EF0C0F8040010D091202070D2
:105960003E2060700920A070A58020223146A01D35
:105970000DF0F2FF0248214680780EF01BF970BD51
:1059800060470020F8B5064615460F4610200EF079
:10599000A3F8040011D0922020703E2060700520F2
:1059A000A070A68008223946A01D0DF0D5FF03483F
:1059B000E581407921460EF0FDF8F8BD60470020F2
:1059C00070B505460E4646200EF086F8040010D04D
:1059D000912020703E2060700820A070A580402299
:1059E0003146A01D0DF0B8FF0248214680780EF028
:1059F000E1F870BD60470020F8B5064617460D4631
:105A00000E200EF069F8040011D0922020703E2084
:105A100060700420A070E670A58008223946A01DA1
:105A20000DF09AFF0248214680780EF0C3F8F8BDC9
:105A300060470020F8B507461C4615460E460E2066
:105A40000EF04AF801000FD0912008703E204870F7
:105A5000062088708F80CE800D814C8106988881C9
:105A6000024880780EF0A6F8F8BD000060470020DC
:105A700070B514460D4608200EF02EF801000BD02C
:105A80009020087013204870012088708D80034892
:105A9000CC8040780EF08EF870BD0000604700208A
:105AA000F8B507461C4615460E460C200EF014F8B5
:105AB00001000DD0912008700C2048708F708E80EE
:105AC0008D710C8106984881024880780EF072F83A
:105AD000F8BD000060470020FFB5074681B01546BD
