:020000040000FA
:1000000000800020C9110000D1110000D3110000B0
:1000100000000000000000000000000000000000E0
:10002000000000000000000000000000D3110000EC
:100030000000000000000000D5110000D7110000F2
:10004000D9110000D9110000D9110000D911000008
:10005000D9110000D911000039060000D9110000A3
:10006000D9110000D9110000D9110000D9110000E8
:10007000D9110000D9110000D9110000D9110000D8
:10008000D9110000D9110000D9110000D9110000C8
:100090000348854601F0FEF800480047EF050000E0
:1000A0000080002070B5054600240BE0FA48006887
:1000B0004030005DC043C1B2F74800688030015550
:1000C000601CC4B2AC42F1DB284601F069F870BD97
:1000D00070B5054600240AE0F0480068005DC043A2
:1000E000C1B2EE48006840300155601CC4B2AC4259
:1000F000F2DB284601F04AF870BD70B505460024D1
:100100000AE0E7480068005DC043C1B2E448006807
:1001100040300155601CC4B2AC42F2DB284601F00D
:100120002BF870BD70B5054600240AE0DD48006874
:10013000005DC043C1B2DB48006840300155601C1F
:10014000C4B2AC42F2DB284601F00CF870BDF8B541
:100150000027D54885790220054272D0D248C0795F
:100160008006800E20286DD006DC030001F0D6F852
:1001700005F4F3F2F1F0770023286ED004DC212897
:100180006CD022286BD1B8E1242869D03028F9D16D
:10019000C220C54920318870C348047A082C73D125
:1001A000BD480168C879897900020843BF490880C1
:1001B000B94800684078BE490870B74800680678BA
:1001C00000240027B448006800786021084201D06C
:1001D000FF27EFE0B6480078030001F09FF80BD846
:1001E00086E7E7E76607E7707DCCE700AA48016885
:1001F000C8788978000208430012012804D0022838
:1002000007D0032831D109E0AA48AB490860047837
:100210002DE0AA48A8490860847828E09E48016833
:10022000C8788978000208430006000E10D0012823
:1002300002D0022815D106E0A1489F490860047841
:1002400011E09EE1D8E09F489B49086004780AE0ED
:100250009D4899490860047805E063E138E189E147
:100260007BE1FF2700BF00BF01E0FF2700BF00BF09
:100270008E480088A04201DD8C4804808B480088AD
:10028000402802DB402002E093E088480088C4B2A6
:100290002246894801688048006800F0B9FF864816
:1002A000006800198449086082E07B480168C878CA
:1002B000897800020843C0B27C49088078E083480E
:1002C000007875490968087078480088012802DDBF
:1002D0000120764908806BE06F480168C87889780A
:1002E000000208437949087062E06B4800680078B2
:1002F000C006C00E02283CD16748016848790979D8
:1003000000020843C0B2012827D002280DD081285E
:1003100014D082282AD164482030807A432188432F
:10032000801C61492031887222E05F482030807A49
:100330008C2188435C492031887219E05A4820306A
:10034000807943218843801C5749203188710FE010
:10035000F0E0DAE0C4E093E08FE0534820308079A9
:100360008C21884350492031887101E0FF2700BF6C
:1003700000E0FF271CE000204749096808704B484F
:100380000088012802DD01204849088010E0002093
:100390004149096808704049096848704348008825
:1003A000022802DD02204149088001E0FF2700BF4A
:1003B00000E0FF27FF2F04D1CF203B492031887078
:1003C00019E0802006420ED038480088402801DD20
:1003D000402001E035480088C4B234480088001B42
:1003E0003249088000E000242F4820300470C020EB
:1003F0002D4920318870BEE02D480078052825D091
:10040000062831D129480088402801DB402001E03E
:1004100026480088C4B22246274801681E48006862
:1004200000F0F6FE21480088001B20490880224881
:1004300000680019204908601B482030047080784B
:100440004021484018492031887014E01648C0788F
:10045000802108401549097808431349C8700220D3
:1004600011492031887006E000200F4920310870C2
:100470000220887000BF00BF7DE00B48047A7AE05C
:100480000948C0794021084204D00748047A204630
:10049000FFF748FE6FE000000840002014400020F5
:1004A000104000200C40002000800040024000204E
:1004B00001400020D417000004400020E61700008F
:1004C00034180000421800003018000000400020DE
:1004D0005B48807980088000801C594988714AE017
:1004E00057482038C0794021084205D05448203868
:1004F000047A2046FFF701FE3DE05148807A8008EB
:100500008000801C4E49887235E04D482038C07903
:100510004021084205D04A482038047A2046FFF797
:10052000D7FD28E04648807B80088000801C444935
:10053000887320E042482038C079402108420BD01F
:100540003F48807C802148403D4988743C482038A1
:10055000047A2046FFF7A6FD0DE03948807C402153
:100560004840374988740846807C80088000801C99
:10057000887400E000BF00BF022031492039887133
:1005800024E0E807C00F13D000202D492039C8709F
:1005900002202B498870122088718872887328483D
:1005A00020388079012108432549203988710DE0E0
:1005B0000420054207D022482038407904202049F1
:1005C0002039887102E01E4820388571F8BD10B5C9
:1005D0001C48806A0121490208431A4988620321A4
:1005E0000120400200F06AFA00F041FD10BD022037
:1005F00000F04AF81021012000F0D9FB052000F09E
:1006000009FDFFF7E4FF10A000F078FE1048114943
:1006100008601148114908601148124908601248E1
:100620001249086000F076FD062001218140104A41
:10063000116000BF00BFFEE710B5FFF788FD10BDD9
:10064000208000408010004073746172740A0000C2
:100650001C40002008400020DC4000200C4000200E
:100660005C41002010400020DC41002014400020AC
:1006700000E100E05720FC490870A82008708520A0
:10068000F94940390881704700B55721F64A117081
:10069000A8211170030000F041FE0D081522272D3E
:1006A00033383D42484E545A6000EF492039C97BE7
:1006B00004229143EC4A203AD173C521EA4A403AD8
:1006C00011814BE0E8492039C97B04221143E64AF5
:1006D000203AD173C521E44A403A11813EE0E34912
:1006E000E14A403A118139E0E0498339DE4A403A33
:1006F000118133E081218900DB4A403A11812DE0EC
:100700008521D94A403A118128E00221D64A403A4F
:10071000118123E00421D44A403A11811EE0932143
:100720008900D14A403A118118E0D0493639CE4A81
:10073000403A118112E095218900CB4A403A11815B
:100740000CE04B21C900C84A403A118106E0C74974
:100750002739C54A403A118100E000BF00BF00BD03
:100760005721C14A1170A8211170002808D1BE4933
:100770004039098952159143BB4A403A118108E03A
:10078000B94940390989012252021143B64A403A17
:10079000118170475721B44A1170A82111700028A7
:1007A00008D1B1494039098952159143AE4A403ABE
:1007B000118108E0AC4940390989012252021143F4
:1007C000A94A403A1181704770B5A74D403D2C8928
:1007D000A7495725A44E3570A8253570A34D833DF4
:1007E000A14E403E358157259F4E3570A825357066
:1007F0000125B5749F4A4AE000BF9B4DAD7C02269F
:100800003542FAD0984D288A00BF974DAD7C02261C
:100810003542FAD100BF944DAD7C02263542FAD064
:10082000914D288A5725904E3570A82535708842FD
:100830000ADD8D4D203DAD896D1C8B4E203EB5816E
:100840001346451AAAB209E0874D203DAD896D1EB9
:10085000854E203EB58113460D1AAAB2934216DA90
:100860005725814E3570A8253570884207DD7E4DAD
:10087000203DAD896D1E7C4E203EB58106E07A4D4F
:10088000203DAD896D1C784E203EB58100E0B3E778
:1008900000BF5725744E3570A8253570724D403D08
:1008A0002C810025B57470BDF0B585B004460E46A8
:1008B00015461821206800F095FC80B2029018219E
:1008C000206800F08FFCE120C000414330881E22E8
:1008D000504308182F88F90FC9194910401880B2E1
:1008E00001902878C007C00F02D00120C00300E0AB
:1008F00000200090019803900398010400980143A0
:100900000391572058490870A8200870564940396B
:100910000298486354482038407C8021084352495B
:100920002039487450494039039848634E4820386C
:10093000407C402108434C492039487400204A49F2
:10094000087005B0F0BDF0B585B004460D461646FA
:1009500045484038C06B8004800C039042482038E2
:10096000408B029040482038008B01900298410053
:100970000122D2030198904201DB012000E0002017
:100980000F18E1210901384600F02CFC014618221D
:100990000398504308182060E1210901384600F00F
:1009A00021FC00913C21009800F01CFC28803C2197
:1009B000384600F017FC318005B0F0BD57212A4AB7
:1009C0001170A821117028494039486326492039FF
:1009D000497C40221143244A203A51740021224A82
:1009E0001170704720484038816B806B884203D07B
:1009F0001D484038806B70470846FCE757211A4A6B
:100A00001170A821117018492039497C172291438F
:100A1000154A203A51741146497C10220243114371
:100A2000114A203A5174704700B50346FFF7DAFFC8
:100A3000C2181004000C02D00120000412180E4845
:100A4000824200D3121A572007490870A820087064
:100A500005484038426304482038407C2021084340
:100A600001492039487400BD401000408502000053
:100A7000C4090000FFFF00000000C0A801460029D3
:100A800004D10D48007C8022104070470A48007C49
:100A900040221040F9E7002802D0012808D103E0E5
:100AA0002021054A117404E01021034A117400E06A
:100AB00000BF00BF704700002010004000B50B00D1
:100AC00000F02CFC050412202E3842009B4A526B89
:100AD00082439A4B5A631A46126B82431A631A4630
:100AE000126A82431A6230E0944A526B8243934BFB
:100AF0005A631A46126B02431A631A46126A8243F9
:100B00001A6222E08D4A526B02438C4B5A631A469A
:100B1000126B82431A631A46126A82431A6214E005
:100B2000864A526B8243854B5A631A46126A0243C5
:100B30001A620AE0814A526B0243804B5A631A469A
:100B4000126A02431A6200E000BF00BF00BD00B598
:100B50000B0000F0E3FB0504142434404C00774AFA
:100B6000403252698243754B40335A611A461269CA
:100B700082431A611A46126882431A6038E06F4A4B
:100B80004032526982436D4B40335A611A461269B2
:100B900002431A611A46126882431A6028E0674AC3
:100BA000403252690243654B40335A611A4612691A
:100BB00082431A611A46126882431A6018E05F4A3B
:100BC0004032526982435D4B40335A611A46126883
:100BD00002431A600CE0594A403252690243574BB3
:100BE00040335A611A46126802431A6000E000BF9F
:100BF00000BF00BD002906D001290ED0022916D061
:100C0000032928D11DE04D4A928A82434B4B9A8298
:100C10001A46D26A0243DA621EE0484A928A824346
:100C2000464B9A821A46926A02439A6214E0434AF9
:100C3000928A0243414B9A821A46D26A0243DA628E
:100C40000AE03E4A928A02433C4B9A821A46926AD2
:100C500002439A6200E000BF00BF384B98831A46F7
:100C6000128A02431A827047002906D0012911D046
:100C700002291CD0032934D126E0304AD28A82438B
:100C80002E4BDA822D4A4032D26802432B4B40333E
:100C9000DA6027E0294AD28A8243284BDA82274A3F
:100CA000403292680243254B40339A601AE0234A4F
:100CB000D28A0243214BDA82204A4032D268024370
:100CC0001E4B4033DA600DE01C4AD28A02431B4BB4
:100CD000DA821A4A403292680243184B40339A60D3
:100CE00000E000BF00BF154BD8831A46528A02436A
:100CF0005A827047002807D0104A803A128B0A4364
:100D00000E4B803B1A8306E00C4A803A128B8A43D2
:100D10000A4B803B1A837047002807D0074A803A65
:100D2000528B0A43054B803B5A8306E0034A803AC4
:100D3000528B8A43014B803B5A837047801000409E
:100D400010B50446002C11D1572092490870A820F4
:100D500008709048203800880321490288438D4953
:100D60002039088000208B4908701FE057208949EE
:100D70000870A820087087482038008809150843A3
:100D80008449203908800A2000F033F9572081492E
:100D90000870A82008707F4820380088491508434B
:100DA0007C492039088000207A49087010BD5722FC
:100DB000784B1A70A8221A7000281DD18022114287
:100DC00007D0744A403A927B02239A43714B403BCE
:100DD0009A73704A403A927A1C230B409A436D4BA7
:100DE000403B9A726B4A203AD27B8B079B0F9A4307
:100DF000684B203BDA731CE08022114207D0654A21
:100E0000403A927B02231A43624B403B9A73614AF9
:100E1000403A927A1C230B401A435E4B403B9A7235
:100E20005C4A203AD27B8B079B0F1A43594B203BDD
:100E3000DA73704700280CD15722564B1A70A8223B
:100E40001A70544A403AD2680A43524B403BDA6027
:100E50000BE057224F4B1A70A8221A704D4A403AA5
:100E6000D2688A434B4B403BDA60704700280CD174
:100E70005722484B1A70A8221A70464A403A927B71
:100E80008A43444B403B9A730BE05722414B1A7004
:100E9000A8221A703F4A403A927B0A433D4B403B9E
:100EA0009A7370473C480069042188433A490861B5
:100EB00030BF7047572037490870A8200870354860
:100EC0004038C07B0821884332494039C8733248D2
:100ED0000069042108433049086130BF704757203A
:100EE0002C490870A82008702A484038C07B082187
:100EF000084328494039C87327480069042108433A
:100F00002549086130BF70475721224A1170A82136
:100F100011702049203909880322520211401D4ACC
:100F2000203A1180114609881C4A02431143194A8C
:100F3000203A1180174940390989FF2212021140D5
:100F4000491D144A403A118130BF70475721114A58
:100F50001170A82111700F4920390988032252020B
:100F600011400C4A203A1180114609889122120240
:100F700002431143074A203A118006494039098942
:100F8000FF2212021140491D024A403A118130BF2E
:100F9000704700004010004000ED00E004910000A8
:100FA0000146062904D126480078082210407047DF
:100FB0002348407901228A401040F8E75720204911
:100FC0000870A820087008468079012108431C4950
:100FD000887170471B49096801600021C943194A9B
:100FE0008032116070471749086070471648806961
:100FF000704710B500210AE0022201E000BF00BFE7
:101000001346541EA2B2002BF8D14B1C99B2814258
:10101000F2DB10BD30B50446002505E07D20C000A0
:10102000FFF7E7FF681C85B2A542F7DB30BD00BFC4
:10103000064AD27A082AFBD0044B18727047000087
:101040004010004000E100E000E000E0003400401B
:1010500070B5044621462D4800F0C4F805460A2123
:10106000681D00F0BFF8054629498D8170BD10B597
:10107000E1204002FFF7ECFF87202549887003201C
:10108000C870402048700120887310BD20498978BD
:10109000C0229143820111431D4A9170704700287C
:1010A0000BD01B4A52780A43194B5A701A461278D1
:1010B00008231A43164B1A7004E0154A52788A43E3
:1010C000134B5A707047802011494870704710B513
:1010D0000A4609E00E4BDB7A082B05D003780C4C4E
:1010E0002372401C531E9AB2002AF3D110BD014650
:1010F000002005E0064A127A0A70491C421C90B290
:10110000034A927A002AF5D170470000005A620221
:1011100000340040002027490870CC200873487331
:10112000254800880882254800888882244800884D
:10113000088324480088888302201E492031887053
:10114000122088718872887302208874FF201949E0
:101150008871072088700020C870292008708120BD
:1011600048707047134920310871897989088900CE
:10117000104A2032917170470E4920310872897AE5
:10118000890889000B4A2032917270470949203141
:101190000873897B89088900064A20329173704759
:1011A000044920310874897C89088900014A203269
:1011B0009174704700800040084000200C400020DF
:1011C0001040002014400020044880470448004795
:1011D000FEE7FEE7FEE7FEE7FEE70000750600001B
:1011E0009100000030B50B4601460020202201246A
:1011F00009E00D46D5409D4205D31D469540491B4B
:101200002546954040191546521E002DF1DC30BD93
:1012100003460B439B0703D009E008C9121F08C00F
:10122000042AFAD203E00B78491C0370401C521EBA
:10123000F9D27047F0B51FB40646002082B00546CB
:101240004024019100901BE0019922460F46304650
:1012500000F042F8049A059B801A994110D3104679
:101260001946224600F028F8361A8F410197224687
:1012700001200021009F00F01FF838184D41009018
:101280002046641E0028DFDC019B00982946324678
:1012900007B0F0BD064C0125064E05E02046E36888
:1012A00007C82B4398471034B442F7D3FEF7F4FE37
:1012B000501800007018000010B5202A04DB014609
:1012C000203A9140002010BD914020239C1A0346F3
:1012D000E3401943904010BD10B5202A04DB0846B6
:1012E000203AD040002110BD0B46D340D0402024EE
:1012F000A21A91400843194610BD00000FB410B562
:1013000003A9044B044A029800F026F810BC08BC5C
:1013100004B018472F1000001840002030B4744665
:10132000641E2578641CAB4204D3635D5B00E31844
:1013300030BC18471D46F8E702E008C8121F08C174
:10134000002AFAD170477047002001E001C1121F46
:10135000002AFBD170470000FFB591B00F4605464B
:101360000026F9E0252876D100246D1CFB4A009464
:10137000012102942B780846203B984003461342F3
:1013800002D004436D1CF5E728782A280ED00221EC
:1013900028780246303A092A15D8009A0A235A4377
:1013A000303A80180C436D1C0090F1E701CF00909B
:1013B000002805DA012040030443009840420090D1
:1013C000022004436D1C28782E2815D104200443E4
:1013D0006D1C28782A280AD101CF6D1C02900BE0E1
:1013E00002990A225143303940186D1C0290287826
:1013F000014630390929F3D928786C2810D006DC49
:101400004C281AD068280ED06A2817D104E0742816
:1014100013D07A2812D110E00120400504430CE0DB
:101420000121090501E0032109050C436978814286
:1014300003D101206D1C000524186D1C2878039031
:101440006E281FD00DDC632833D005DC00287DD04A
:10145000582812D1BEE010E0642801D069280CD1D0
:1014600081E073282FD004DC6F2870D0702804D15D
:10147000B2E075286CD078286BD0149A13999047F5
:10148000761C68E06002400F022807D003280AD0CB
:10149000042838680AD03F1D06605CE001CFF117D0
:1014A0000660416057E001CF068054E03F1D0670A2
:1014B00051E03878694608740020487404A83F1D3C
:1014C0000390012003E001CF03900020C043610797
:1014D0000FD5002101E00199491C029A0191914226
:1014E00013DA8142F7DB019A0399895C0029F2D172
:1014F0000BE0002101E00199491C01918142FADBD6
:10150000019A0399895C0029F5D101990098139AF1
:10151000401A00902146149B00F046F90199801969
:10152000461807E0039803990078491C0391149A20
:10153000139990470198401E0190401CF2D121461A
:10154000149B139A009800F01FF903E008E04CE0A8
:101550003EE03FE086196D1C2878002800D001E7A6
:10156000304615B0F0BD0A200021049005916002BC
:10157000410F022905D001CFC2179446032907D095
:1015800009E0FF1DFF08FF0079683868083706E0AA
:1015900000B2C2179446042902D140B2C1178C464A
:1015A00000226146944506DA0A46002140429141F4
:1015B0008C462D2102E0210504D52B216A461176A7
:1015C000012103E0E10701D02021F7E7019150E07C
:1015D0000A200BE0102009E01020049000210420D4
:1015E000044308200591029003E0082000210591A2
:1015F00004906002410F022905D001CF00229446D9
:10160000032908D008E0FF1DFF08FF00796838684B
:1016100008378C4603E080B2042900D1C0B2002113
:101620000191210725D5039970292AD0049A102108
:10163000059B4A401A4309D16146014306D0302137
:101640006A4611760399517602210191049A082184
:10165000059B4A401A430CD16146014301D1610701
:1016600007D530216A461176012101910299491E60
:1016700002910399582909D039A103910FA90F911B
:1016800012E040216A4611760121DEE739A1F4E734
:101690006146059B049AFFF7CDFD039B8C469B5C3E
:1016A0000F9A521E0F92137061460143F0D10F98AA
:1016B00007A9081A20300390600704D50120000410
:1016C0008443029801E0012002900399884201DDE1
:1016D000401A00E000204118029001980918009873
:1016E000401A0090E00306D42146149B139A0098F8
:1016F00000F05AF88619002007E006A9085C149A41
:10170000139990470498761C401C019904908842D4
:10171000F3DBE0030CD52146149B139A009800F0EC
:1017200043F8861904E0149A302013999047761CE8
:101730000299481E02900029F5DC08E00F980F99E5
:101740000078491C0F91149A13999047761C0399BD
:10175000481E03900029F1DCF1E600000928010091
:101760003031323334353637383961626364656617
:1017700000000000303132333435363738394142D9
:101780004344454600000000F8B5044600251E46C7
:101790001746880404D405E039462020B0476D1C64
:1017A000641EF9D52846F8BDFFB50446002581B072
:1017B0001E46C80301D5302700E02027880404D541
:1017C00005E038460399B0476D1C641EF9D52846DC
:1017D00005B0F0BD12011001FF8055404843375558
:1017E00000010102000109024A00010100803209E2
:1017F00004000008FF805500070584024000000730
:1018000005040240000007058302400000070503AD
:101810000240000007058202400000070502024066
:10182000000007058102400000070501024000009A
:10183000040309040E037700630068002E006300B0
:101840006E000C03430048003500370078000000AC
:1018500070180000004000201C0000003813000039
:101860008C1800001C4000204002000048130000BB
:101870000000000000000000000000000000000068
:0C1880000000000000000000000000005C
:040000050000009166
:00000001FF
