:020000040000FA
:1000000000800020190200002102000023020000ED
:1000100000000000000000000000000000000000E0
:1000200000000000000000000000000023020000AB
:100030000000000000000000250200002702000070
:100040002902000029020000290200002902000004
:10005000BD1B0000ED440000290200002902000041
:1000600029020000290200002902000029020000E4
:10007000650E00002902000029020000290200008C
:1000800029020000290200002902000029020000C4
:100090000348854600F08CFF00480047D701000068
:1000A000008000207CB504462C4804700121019199
:1000B0006421009101AA0121294802F083FA6A46CD
:1000C00002212748401C02F07DFA264A10216120B7
:1000D000C00002F077FA244A0D212148801C02F06A
:1000E00071FA50252946082002F08EFE2946092083
:1000F00002F08AFE01211948007811F095FD7CBDBF
:1001000000BF00BF00BF704770B506460C46012017
:10011000C0032040002810D01048007811F088FC5F
:10012000051E05D02846FFF7EBFF284611F05EFCC0
:1001300020460121C903484070BDE007C00F0028D8
:1001400006D00A4802F01EFA204601214840F3E793
:100150000020F1E700BF00BF00BF70470040002053
:100160000503000001400020114000202040002035
:1001700010B500242046641C08F00CFA2046641CCC
:1001800000F0EAFD2046641C05F032F82046641CAD
:1001900003F0DEFF2046641C02F084FC2046641C51
:1001A00003F0FAF92046641C07F0A6FF2046621C03
:1001B000D4B201F041FE2046621CD4B202F0D2FE5D
:1001C0002046621CD4B202F063F92046621CD4B20D
:1001D000FFF768FF10BD0D48806A012149020843FE
:1001E0000A49886203210120400200F0EBFA00F086
:1001F000D0FC074907A008F077FA00F01DFDFFF7D3
:10020000B7FF01E008F0F2F9FCE7000080100040C1
:100210000621010025730A0004488047044800476E
:10022000FEE7FEE7FEE7FEE7FEE70000350200001E
:10023000910000005720FA490870A8200870882013
:10024000F74940390881704700B5030008F074FA97
:100250000D081A2C37414C56606A75808B96A100A8
:100260005721EF4A1170A8211170ED492039C97B3F
:1002700004229143EA4A203AD173C821E84A403A1D
:10028000118187E05721E64A1170A8211170E449D5
:100290002039C97B04221143E14A203AD173C82195
:1002A000DF4A403A118175E05721DD4A1170A821DB
:1002B00011705121C900DA4A403A11816AE0572190
:1002C000D74A1170A8211170D649D54A403A1181F8
:1002D00060E05721D24A1170A82111708121890054
:1002E000CF4A403A118155E05721CD4A1170A821DB
:1002F00011708821CA4A403A11814BE05721C84AFF
:100300001170A82111700221C54A403A118141E0C3
:100310005721C34A1170A82111700421C04A403AE4
:10032000118137E05721BE4A1170A8211170932125
:100330008900BB4A403A11812CE05721B84A11701C
:10034000A8211170B7494D31B54A403A118121E0D9
:100350005721B34A1170A821117095218900B04A24
:10036000403A118116E05721AD4A1170A821117051
:100370004B21C900AA4A403A11810BE05721A84AF3
:100380001170A8211170A7495C31A54A403A11812A
:1003900000E000BF00BF00BD5721A14A1170A82195
:1003A0001170002808D19E4940390989521591439E
:1003B0009B4A403A118108E0994940390989012254
:1003C00052021143964A403A118170475721944A8C
:1003D0001170A8211170002808D191492039C97BDA
:1003E000042291438E4A203AD17307E08C49203988
:1003F000C97B042211438A4A203AD1737047F8B569
:1004000004462246864E403E368900968649572647
:10041000834F3E70A8263E70824E814F403F3E8102
:1004200057267F4F3E70A8263E700126BE747F4B34
:100430004DE000BF7A4EB67C02273E40002EF9D038
:10044000774E308A00BF764EB67C02273E40002EA3
:10045000F9D100BF724EB67C02273E40002EF9D083
:100460006F4E308A57266E4F3E70A8263E708842E7
:100470000ADD6B4E203EB689B618694F203FBE811B
:100480001D46461AB3B209E0654E203EB689B61A3B
:10049000634F203FBE811D460E1AB3B29D4216DA4D
:1004A00057265F4F3E70A8263E70884207DD5C4E9F
:1004B000203EB689B61A5A4F203FBE8106E0584EFC
:1004C000203EB689B618564F203FBE8100E0B0E707
:1004D00000BF5726524F3E70A8263E70504F403FF7
:1004E000009E3E8100264E4FBE74F8BDF0B5002739
:1004F0000026002422E0781C87B225460320FFF75F
:100500007EFF474820388489A54206DD281B032842
:1005100001DC012007E0002005E0601B032801DC6E
:10052000012000E00020002802D0701C86B200E00C
:100530000026032E01DC052F00DD00E0DBE700BF15
:10054000002722E0781C87B225460120FFF757FFDD
:10055000334820388489A54206DD281B012801DCA8
:10056000012007E0002005E0601B012801DC0120DC
:1005700000E00020002802D0701C86B200E00026B7
:10058000022E01DC052F00DD00E0DBE700BFF0BD3F
:10059000F7B584B00D4614461821049800F07EFC8F
:1005A00080B203901821049800F078FCE120C0008C
:1005B00041431E2068430818E10F091949104018EB
:1005C00087B20194E007C00F002802D00120C003C9
:1005D00000E0002002903E463104029801430E469E
:1005E00057200F490870A82008700D49403903981A
:1005F00048630B482038407C802108430849203953
:1006000048740748403846630846407C4021084308
:1006100003492039487400200149087007B0F0BD33
:100620004010004002020000C4090000FFFF00006B
:10063000F0B585B004460D4616466048C06B800490
:10064000800C03905D482030408B02905B48203046
:10065000008B0190029841000122D2030198904240
:1006600001DB012000E000200F18E12109013846DC
:1006700000F014FC0146182203985043081820602B
:10068000E1210901384600F009FC00913C21009865
:1006900000F004FC28803C21384600F0FFFB31804C
:1006A00005B0F0BD5721454A40321170A8211170A4
:1006B0004249486341492031497C402211433F4A25
:1006C00020325174704700BF3C49886B896B81426E
:1006D000FAD170475721394A40321170A821117060
:1006E00036492031497C17229143344A20325174D3
:1006F0001146497C102202431143304A2032517482
:10070000704700B50346FFF7DEFFC21890B200281D
:1007100002D00120000412182948824200D3121A84
:100720005720264940310870A820087023484263AA
:1007300022482030407C2021084320492031487441
:1007400000BD014600200022002A01D020221043D3
:10075000CA07D20F002A01D0102210435722174B8C
:1007600040331A70A8221A70144A2032527C8243F5
:10077000124B20335A7470470146002905D10F48A7
:100780002030007C8022104070470C482030007CD4
:1007900040221040F8E7002802D001280AD104E0E6
:1007A0002021064A2032117405E01021034A20322C
:1007B000117400E000BF00BF70470000001000404F
:1007C0000000C0A800B50B0007F0B6FF050412201A
:1007D0002E3842009B4A526B82439A4B5A631A4608
:1007E000126B82431A631A46126A82431A6230E01D
:1007F000944A526B8243934B5A631A46126B0243DC
:100800001A631A46126A82431A6222E08D4A526BB8
:1008100002438C4B5A631A46126B82431A631A4680
:10082000126A82431A6214E0864A526B8243854BF5
:100830005A631A46126A02431A620AE0814A526BEC
:100840000243804B5A631A46126A02431A6200E05E
:1008500000BF00BF00BD00B50B0007F06DFF050431
:10086000142434404C00774A403252698243754B1D
:1008700040335A611A46126982431A611A46126855
:1008800082431A6038E06F4A4032526982436D4BAE
:1008900040335A611A46126902431A611A461268B5
:1008A00082431A6028E0674A403252690243654B2E
:1008B00040335A611A46126982431A611A46126815
:1008C00082431A6018E05F4A4032526982435D4BAE
:1008D00040335A611A46126802431A600CE0594AC2
:1008E000403252690243574B40335A611A461268EC
:1008F00002431A6000E000BF00BF00BD002906D01F
:1009000001290ED0022916D0032928D11DE04D4A15
:10091000928A82434B4B9A821A46D26A0243DA6227
:100920001EE0484A928A8243464B9A821A46926A4D
:1009300002439A6214E0434A928A0243414B9A82EC
:100940001A46D26A0243DA620AE03E4A928A0243B7
:100950003C4B9A821A46926A02439A6200E000BFB8
:1009600000BF384B98831A46128A02431A82704796
:10097000002906D0012911D002291CD0032934D125
:1009800026E0304AD28A82432E4BDA822D4A403208
:10099000D26802432B4B4033DA6027E0294AD28ADF
:1009A0008243284BDA82274A403292680243254B21
:1009B00040339A601AE0234AD28A0243214BDA82FA
:1009C000204A4032D26802431E4B4033DA600DE0C9
:1009D0001C4AD28A02431B4BDA821A4A403292687E
:1009E0000243184B40339A6000E000BF00BF154B34
:1009F000D8831A46528A02435A827047002807D089
:100A0000104A803A128B0A430E4B803B1A8306E051
:100A10000C4A803A128B8A430A4B803B1A837047F8
:100A2000002807D0074A803A528B8A43054B803B07
:100A30005A8306E0034A803A528B0A43014B803BBB
:100A40005A837047801000400146062904D145486A
:100A500000780822104070474248407901228A40BD
:100A60001040F8E757203F490870A8200870084652
:100A70008079012108433B49887170473A490968E8
:100A800001600021C943384A8032116070473649FD
:100A9000086070473548806970475721314A1170A6
:100AA000A8211170002806D11146897904229143AA
:100AB0002C4A917105E02B49897904221143294A76
:100AC00091710021274A117070475721254A1170F2
:100AD000A8211170002806D111468979022291437C
:100AE000204A917105E01F498979022211431D4A6C
:100AF000917100211B4A11707047572019490870E5
:100B0000A82008700846807910210843154988718B
:100B100000200870704710B500210AE0022201E0B1
:100B200000BF00BF1346541EA2B2002BF8D14B1CCD
:100B300099B28142F2DB10BD30B50446002505E0D4
:100B40007D20C000FFF7E7FF681C85B2A542F7DBF8
:100B500030BD00BF064AD27A082AFBD0044B187277
:100B6000704700004010004000E100E000E000E0BD
:100B70000034004070B5044621462D4800F08EF93F
:100B800005460A21681D00F089F9054629498D812D
:100B900070BD10B5E1204002FFF7ECFF872025492A
:100BA00088700320C870402048700120887310BDF1
:100BB00020498978C0229143820111431D4A9170D6
:100BC000704700280BD01B4A52780A43194B5A70C1
:100BD0001A46127808231A43164B1A7004E0154A75
:100BE00052788A43134B5A707047802011494870DD
:100BF000704710B50A4609E00E4BDB7A082B05D08A
:100C000003780C4C2372401C531E9AB2002AF3D175
:100C100010BD0146002005E0064A127A0A70491C00
:100C2000421C90B2034A927A002AF5D17047000024
:100C3000005A62020034004030B593B0122266A11F
:100C40006A4810F0F1FD002804D169A007F04CFDBE
:100C500000BFFEE757206B490870A820087051209C
:100C6000C000684940390881002066490870482260
:100C7000002101A810F09EFE6348019001200003AE
:100C80000290624803900198002804D001210903D2
:100C90000298884201D200BFFEE701A800F0B4FF2D
:100CA000C5B2002D04D05AA007F01EFD00BFFEE71C
:100CB0005C4C601E411C884200D90DE0601E5A4900
:100CC00048610F210020C04300F04EF80020564933
:100CD00088610720086100BF5348006902218843EA
:100CE00051490861514807F071FC13B030BD70B52F
:100CF00006460C460120C003204000280DD0304697
:100D000010F096FE0546002D02D0284610F06EFE2B
:100D100020460121C903484070BDE007C00F0028EC
:100D200003D0204601214840F6E7012080032040FF
:100D300000280FD03EA007F0D7FC7D22D201012170
:100D400089033C48007811F019F9204601218903F4
:100D50004840E1E70020DFE710B50446354804705D
:100D600000F088F862B610BD10B5002819DA324AD2
:100D700003071B0F083B9B089B00D2588307DC0E20
:100D8000FF23A3409A430B071B0E8407E40EA340E6
:100D90001A43294B0407240F083CA408A4001A5145
:100DA00018E0264A03231B02D21883089B00D2585E
:100DB0008307DC0EFF23A3409A430B071B0E840717
:100DC000E40EA3401A431D4B032424021B1984087C
:100DD000A4001A5110BD000043483537785F424CDB
:100DE000455F4C49425F56312E320000062101001A
:100DF000686561642066696C65206572726F722E29
:100E00002E2E0A00401000403844002000EE03005F
:100E10004C494220696E6974206572726F722E2E81
:100E20002E0A0000FFFFFF0000E000E0950A00002E
:100E30002A200000554000201CED00E000E100E009
:100E400081B2002902D00121090440185721104A1B
:100E50001170A82111700E494039486300210D4AD4
:100E60001160704730200A4920390874012009496F
:100E70000860704710B5FFF739FB074807F0ACFB77
:100E8000002211461046FFF783FB07F0EFFB10BD71
:100E90004010004058400020ED04000030B50B46E3
:100EA000014600202022012409E00D46D5409D4244
:100EB00005D31D469540491B2546954040191546CA
:100EC000521E002DF1DC30BD70B5002425460028EF
:100ED00001DA01244042002901DA01254942FFF7E5
:100EE000DDFFAC4200D04042002C00D0494270BD32
:100EF000F0B51FB486B000200090019002900698D3
:100F0000069980B204900798090C0204001411435A
:100F100007900027089D099806913E463C4603909D
:100F20000398A9B20204000C039004982D0C1543F9
:100F300048430021224600F018F8C71971411034C7
:100F40000E46402CECDB3846029A00F00EF8009A70
:100F5000019B801800905941029801911030029035
:100F60004028CCDB00980BB0F0BD10B5202A04DB84
:100F70000146203A9140002010BD914020239C1A48
:100F80000346E3401943904010BD03460B439B07C3
:100F900003D009E008C9121F08C0042AFAD203E0EE
:100FA0000B780370401C491C521EF9D27047000098
:100FB000064C0125064E05E0E36807CC2B430C3CAC
:100FC00098471034B442F7D3FFF766F86021010068
:100FD0008021010070B58C180578401C6B075B0FF1
:100FE00001D10378401C2A1106D10278401C03E08D
:100FF00006780E70401C491C5B1EF9D12B0705D4E6
:101000000023521E0DD40B70491CFAE70378401CD4
:10101000CB1A921C03E01D780D70491C5B1C521EFC
:10102000F9D5A142D8D3002070BD0000F0B5504CD6
:1010300023681D680626B5431D604678057836028C
:10104000AD198678C77836043F06F619AD199D624A
:10105000467905793602AD198679C77936043F0697
:10106000F619AD19DD62467A057A3602AD19867A2F
:10107000C77A36043F06F619AD191D63467B057B1A
:101080003602AD19867BC07B36040006301828185E
:1010900058634D7808782D0240198D78CE782D044C
:1010A0003606AD19401998614D7908792D0240191D
:1010B0008D79CE792D043606AD194019D8614D7A57
:1010C000087A2D0240198D7ACE7A2D043606AD1994
:1010D000401918624D7B087B2D0240198D7BC97B1E
:1010E0002D0409066918401858625868022188437F
:1010F00058605868012528435860186828431860CC
:1011000058688007FCD55868884358609869107003
:1011100020688069000A507020688069000C907017
:1011200020688069000ED0702068C1691171C169A2
:10113000090A5171C169090C9171C169090ED17116
:10114000016A1172016A090A5172016A090C9172ED
:10115000016A090ED172416A1173416A090A517319
:10116000416A090C9173406A000ED0730020F0BDF3
:10117000FC420020024901480860704700C300405B
:10118000FC42002030B5264B1968C90517D503214C
:10119000196001210825491C1C68C9B22C431C6038
:1011A00006E01C68A40508D4491CC9B2202904D84B
:1011B0001C68E405F5D50029EDD100211960194915
:1011C000136809680B6152684A61174A13688B619A
:1011D0005368CB6193680B62D2684A62124B10333A
:1011E0001A688A625C68CC629C680C63DB684B633B
:1011F0000D4B20331C688C605B68CB600B6820242F
:10120000C007A343800E03430B60086840231843C4
:101210000860886A904201D0012030BD002030BDB6
:1012200080C30040FC42002038610020F0B5454BEF
:1012300000241B681C601C615C618578C4782D02E9
:101240006419457806782D043606AD1965193E4CAB
:10125000AE46E5608679C5793602AD1946790779DB
:1012600036043F06F619AD19A560AC46867AC57AF4
:101270003602AD19467A077A36043F06F619AD19DB
:101280006560877BC67B3F02F619477B007B3F0486
:1012900000063818301820609861DD6165461D62CF
:1012A00075465D624C780878240200198C78CD78F8
:1012B00024042D06641906192348B446103006602C
:1012C0004D790C792D0264198D79CE792D0436066D
:1012D000AD19651945604E7A0C7A3602A4198E7ADA
:1012E000CF7A36043F06F619A41984604F7B0E7B33
:1012F0003F02F6198F7BC97B3F04090679187118E4
:101300006646C1609E62DD621C6359635178107845
:10131000090240189178D4780904240609190A4C66
:10132000401820342060557911792D02491995799A
:10133000D2792D041206AA18891861609860D960C4
:10134000F0BD0000FC4200203861002010B503F021
:1013500025FE024902F009FB002010BD0604000032
:1013600008B5002808D0002906D0002A04D010882B
:10137000002801D0002008BD1220694608706A4686
:101380000121034802F0EDFA6946087808BD000023
:10139000350C000008B503F01BF9694608706A4671
:1013A0000121034802F0DDFA6946087808BD000013
:1013B0001120000008B503F093FB694608706A46E7
:1013C0000121034802F0CDFA6946087808BD000003
:1013D00010200000FEB508AF70CF6F4670C703F055
:1013E000A5FB0446024902F0C0FA2046FEBD0000FB
:1013F0001320000008B503F0C1FD694608706A4675
:101400000121024802F0ADFA002008BD0E200000C4
:1014100038B5044604F0B4F8694608704C70200AE8
:1014200088706A460321024802F09BFA002038BD0A
:101430001B20000038B5044604F0B8F8694608706F
:101440004C70200A88706A460321024802F089FA2B
:10145000002038BD1A2000000EB500A8013004F0AD
:101460008CFD694608706A460921024802F079FA43
:1014700000200EBD1820000008B500A8013004F0BF
:101480000BF8694608706A460421034802F069FABD
:101490006946087808BD0000022000007FB50446B8
:1014A00008A861C8009002960195204604F0BEFD90
:1014B000694608734C73200A887303AA0321034802
:1014C00002F04FFA002004B070BD000020200000A0
:1014D00008B505F0CBF9694608706A460121034852
:1014E00002F03FFA6946087808BD000008200000B5
:1014F00008B505F045F9694608706A4601210348B8
:1015000002F02FFA6946087808BD00000A200000A2
:10151000F0B585B00AACF0CC03976F4670C705F004
:10152000C1F96946087404AA0121034802F019FAB6
:101530006946087C05B0F0BD0620000008B505F03E
:1015400007FA694608706A460121034802F009FA61
:101550006946087808BD00000520000008B505F0C0
:1015600037FA694608706A460121034802F0F9F922
:101570006946087808BD00000C20000008B505F099
:1015800067FA694608706A460121034802F0E9F9E2
:101590006946087808BD00000920000010B505F074
:1015A00027FC024902F0E1F9002010BD19200000DB
:1015B0001CB500A8013004F0EFFC694608706A46CB
:1015C0000721034802F0CDF9694608781CBD0000E8
:1015D0000910000010B5D2B205F059F810BD0A7814
:1015E00002708A7842704A88120A82700979C17042
:1015F000042070470A7802700988090A41700220A5
:10160000704708888004000C70478A7802708878D8
:101610000128088804D012214843401C80B270473A
:101620008000FAE70A7802700A88120A4270488835
:10163000801C80B270470A7802700A88120A4270D1
:101640008A7882704A88120AC2708888001D80B227
:101650007047088870478A7802700888498848432C
:10166000401C80B270478A780270088849884843D5
:10167000401C80B2704708887047088870477FB563
:1016800015460446022901D0102903D1022B04D0AB
:10169000102B02D0002004B070BD994202D10A463E
:1016A000294607E01029694607D000F00DF81022FE
:1016B0006946284610F0B8F8EDE7104600F004F847
:1016C000102269462046F5E770B50C4605000CD09F
:1016D000002C0AD010220649204610F0B3F82878D2
:1016E000207368786073012070BD002070BD000019
:1016F0004621010008B500220B4600920122024952
:1017000007F0E4F808BD0000DF15000008B50A88FE
:10171000172A07D300220B4600920322024907F042
:10172000D5F808BD022008BDF515000008B5002158
:101730000B461922009107F0C9F808BD38B50546D7
:1017400008880C4600280DD0606800280AD00121C6
:1017500010F026F80090234607220349284607F098
:10176000B5F838BD022038BD0316000038B505466F
:1017700088780C46012801D0022810D12088002842
:101780000DD0606800280AD0022110F009F80090FE
:10179000234605220349284607F098F838BD022061
:1017A00038BD00000B160000064910B5884202D172
:1017B00002F0BCFC10BD0BF063FD0028FAD117202D
:1017C00010BD0000FEFF000038B505464A68002045
:1017D0000C46002A03D0032110460FF0E1FF0090D1
:1017E00023461D220249284607F02BF838BD000089
:1017F000251600000098022B01D004207047517874
:101800001278090211430180002070470098012BD3
:1018100001D004207047117801700020704770B526
:10182000049C1E461546062B1BD3687829780002B7
:1018300008432080E878A9780002084360800220ED
:1018400020710246291D601D0FF0FCFFB01F208192
:10185000062E03D0AD1DE560002070BD0020E060C5
:10186000FAE7042070BD0098042B01D004207047D3
:1018700051781378090219430180D17892780902CE
:101880001143418000207047F8B584890D46002C33
:101890002BD086683778390601D4002010E00D2C53
:1018A00023D30C3CA4B23119009140882346324620
:1018B000012106F067FD002801D0022000E0012090
:1018C00079062870C90FBA066970920EAA70641E54
:1018D0002204120CAA8002D0761CAE6001E0002225
:1018E000AA60022803D1002901D00120F8BD002000
:1018F000F8BD10B50298042B14D35178147809025E
:1019000021430180D1789478090221434180191F35
:101910008180042B02D0121D826001E000218160D1
:10192000002010BD042010BD0098042B01D004201D
:10193000704751781378090219430180D178927861
:101940000902114341800020704710B502981146EA
:10195000062B03D0142B03D0042010BD022200E07C
:10196000102202714A780B7812021A430280CA7858
:101970008B7812021A4342800279401D091D0FF034
:1019800061FF002010BD0098D90706D1022B04D0BA
:101990005908818002600020704704207047009839
:1019A000022B01D0042070475178127809021143AC
:1019B00001800020704710B5029C022B11D32072C9
:1019C000617250781178000208432080981E608070
:1019D000022B02D0921C626001E0002060600020B7
:1019E00010BD042010BD000038B5054688680C46BF
:1019F000002802D005210FF0D3FE009023461722C5
:101A00000249284606F062FF38BD00003716000084
:101A100038B5054648680C46002802D001210FF071
:101A2000BFFE009023460D220249284606F04EFFD5
:101A300038BD00005316000038B5054608880C462E
:101A400000280DD0606800280AD002210FF0A8FEFF
:101A50000090234611220349284606F037FF38BD7F
:101A6000022038BD5716000038B5054608880C46D8
:101A700000280DD0606800280AD002210FF090FEE7
:101A80000090234609220349284606F01FFF38BD6F
:101A9000022038BD6716000038B5054648680C4678
:101AA00000280AD001210FF07BFE009023460F2270
:101AB0000349284606F00AFF38BD022038BD000061
:101AC0007716000038B505464A6800200C46002A03
:101AD00003D0012110460FF063FE009023460B2235
:101AE0000249284606F0F2FE38BD00007B160000D1
:101AF00001490860704700002043002070B505468A
:101B000008480C46854205D0172C03D302F00EFB83
:101B1000A04201D2012070BD214628460BF02EFCC8
:101B200070BD0000FEFF000008B500210B46132227
:101B3000009106F0CBFE08BD0849074848600A78C6
:101B4000FF2A01D125220A70D1B2054A1143016052
:101B50000449C1627047000000C1004000430020FA
:101B600080220801384E010030B58006094A800EF7
:101B7000094C107021684D68FF2301339D434D606F
:101B8000064908435168086020684168194341606C
:101B900030BD0000004300201043002080220801D7
:101BA00080060449800E0870034A496810430860A3
:101BB0007047000000430020C022080102490020B5
:101BC00049688863704700000043002010B5FFF7A4
:101BD000D1FA00F0DFF802F00FFC05F0A3FAFFF7EE
:101BE000ABFF084C5D202168086505F067FB06F037
:101BF00083F905F02BFB05F0FDFA2168002008654C
:101C000010BD00000C43002030B5044648220021DE
:101C10003A480FF0CFFE206800280BD0374D2860DF
:101C20006068002808D06860A068A860E0680028A4
:101C300004D005E0012030BD022030BD012040026B
:101C4000E86020690121002804D02861606900282B
:101C500002D002E02961F9E71B206861A069002831
:101C600000D10A20A861E069002810D0E861206A4C
:101C700000280ED08006800E2862E06B00280AD073
:101C8000E863606A002808D0E96B401807E0E96162
:101C9000EDE71520F0E71E20F2E7E86B46306862BA
:101CA000A06A002800D0A862E06A00280AD0E86292
:101CB000206B002800D028633920005D80090228AD
:101CC00002D008E00420F2E70C4821460622343115
:101CD00034300FF0B7FD216C002907D0606C00286C
:101CE00004D0800002D52964606C03E004480078C9
:101CF000286404486864002030BD0000B05400200F
:101D0000544000202840002070B500200E210B4BCD
:101D10000124A4035A8815462540CD405204120CD4
:101D20000543E8B25604D50BF60F75401543491E1E
:101D3000C9B25D800629EDD870BD000014430020B3
:101D400070B5002008210A4B4C011A881546254021
:101D5000CD4005435200E8B2550A56097540ED07DB
:101D6000ED0F1543491E09061D80090EEDD170BD0A
:101D70001443002000220AE0022101E000BF00BF5E
:101D80000B46491E89B2002BF8D1521C92B28242F6
:101D9000F2D370470949084808600949CA680261D6
:101DA000426109698161C161826841140A438260AC
:101DB000C2680A43C260704700C000400843002068
:101DC000785500200246FD2008498C234B723F23A2
:101DD0001B039A4205D24A60A6200872887A4022E4
:101DE00050404A7A73231A404A72704700180040E4
:101DF000F8B500240E4F26460E206043C519062272
:101E0000FF2128460FF0D6FDA81D0622FF210FF066
:101E1000D1FD0848AE810655641CE4B2032CEBD317
:101E200000200FF013FF0349032014394873F8BD55
:101E3000CC6000207842002010B50249C87307F03A
:101E4000C3FA10BD6442002070B500F0A5FE002862
:101E500022D1124C0025207B012806D00F4E0024F1
:101E60001436305D01280AD00DE007F0C6F90B48A2
:101E700025730322002114300FF09CFD07E020465B
:101E800007F0C8F93555641CE4B2032CE9D350209F
:101E90000FF0E8FE07F098FA70BD000064420020E1
:101EA00070B5264D0C4608040FD5E87B0FF0C0FD39
:101EB000050006D007F01AFB002802D028460FF0D4
:101EC00095FD0120C003604070BDA0070BD5002127
:101ED000084607F013F802214C40002825D1E87B82
:101EE0000FF0A2FE1FE0E00721D0286A808807F0EB
:101EF0002FFB01214C40002817D0E86900280DD0A5
:101F00004368002B0AD0286A002280889847E96934
:101F1000286A00224B6880880321984706200FF02A
:101F2000D7FE06F0DDFF204670BD0121D7E7600730
:101F300002D50420484070BD002070BD64420020DE
:101F40007FB504468078754D801F030006F0F4FBD2
:101F50000AE1E4E4941B06DDE469A8E4E8690028EA
:101F600008D00668002E05D0637B227B6189E01CC7
:101F7000B047D1E06189A86900F02EFE0028F8D0B2
:101F800060890121BBE060780026002830D1A0796B
:101F9000C0072DD0286A00282AD10E2200216846C9
:101FA0000FF008FD6169002903D006226846103150
:101FB00007E0A0880BF00AF9002870D0811D0622E6
:101FC00068460FF03FFC69468889A1794907C90F27
:101FD00008436946888107F0C9F8032801D1FFF753
:101FE00007FF2146684606F089FF002812D0152613
:101FF000E869002853D04368002B50D06278A0884D
:1020000001219847002E4AD0E969A0884B683246E2
:10201000032171E00221E87B0FF006FE002004B0EE
:1020200070BD6078062817D1A0880BF0CFF80600A5
:1020300012D0A87A012804D0022808D003280BD196
:1020400014E07179A088002206F0F4FF04E0A18872
:102050003078052200F0F8FEE86900285CD043687B
:10206000002B59D06278A088022145E00022114659
:102070002B4800F0E9F8EAE7E0780022211D00F0A3
:1020800051F8032848D20621484325302246C0B2E1
:102090000C3204210FF07CFE03200FF019FE3BE010
:1020A0006879002802D0A088A97928E0287800283B
:1020B000A08823D00BF08AF806002DD0A07AC007A4
:1020C0000BD07079002808D0A189890505D46A460B
:1020D000B11D00F027F8002814D022467179A0889D
:1020E000083206F0A7FFE869002815D04368002BE6
:1020F00012D00022A088114698470DE0052100F07B
:1021000093FE09E0A0880321F9E7A08800F060F9B8
:1021100002E0A088FFF798FE012080E764420020DB
:1021200009040000F0B5032485B015460F460028C9
:1021300007D0012805D00326022810D0032847D154
:1021400020E0084607F0DEF80446032840D2002DC0
:102150003ED00622394628460FF074FB38E01E4F69
:10216000002400910E206043C0190622801D0099B2
:102170000FF05AFB002823D1641CE4B2032CF1D3E6
:1021800034461DE000242046062148432330C0B2D7
:102190006A4610210FF0BCFD00280CD11022FF214F
:1021A00068460FF032FB002805D13946684600F03A
:1021B00007FE002804D0641CE4B2032CE3D3DFE75D
:1021C000032C05D2002D03D02946204607F0C0F885
:1021D000204605B0F0BD0000CC60002070B50E4672
:1021E00017491525884212D1002432460221204683
:1021F00006F0D4FF002800D00025641CE4B2032CB4
:10220000F3D3002E1AD00F480BF05AF816E00AF05C
:10221000DDFF040011D060790022A11DFFF782FFCD
:10222000032804D23246022106F0B8FF0025002E12
:1022300004D0204607F0F6F800E01425284670BDCB
:10224000FFFF000025940000FEB515460122920212
:10225000821A002401275B4E130006F06DFA130B5F
:1022600012171E252C343B4048737A828AA8965355
:102270009DA4A800012973D12878022870D8307055
:102280009DE002296CD12888308298E0012967D12D
:102290002878012864D8707091E001297ED12878CF
:1022A00004287BD8B0708AE0012977D128780128EA
:1022B00074D8F07083E0102970D11022294642486A
:1022C0000FF0C0FA7BE0012968D12878012865D891
:1022D000307174E0012961D12878F0716FE0042930
:1022E0005CD13A492868884258D8B06167E0002933
:1022F00054D100F051FC002801D037735FE006F0A4
:102300007CFF19E0072949D10622691C68460FF0B5
:1023100081FC287800226946FFF704FF0546032860
:102320000ED200F039FC002803D02648143047555F
:1023300045E0284606F06EFF50200FF093FC21E0A8
:1023400002243CE0012929D12878012826D870717F
:1023500035E0012922D1287809281FD8B0712EE054
:102360001CE001291AD12878C11F092916D830721A
:1023700025E0012912D1F17A2878F07200291ED1C6
:1023800001281CD107F020F819E0012906D128788E
:10239000032803D8B07212E0012901D018240EE0FE
:1023A0002878B0730BE000200FF092FC07E027289C
:1023B000C6D20229C4D1298800F026FD0446204651
:1023C000FEBD000064420020BC6000203F420F00C0
:1023D000FEB5064600200190029030460AF0F6FE57
:1023E000040015D0134F3878022811D0607901AA63
:1023F000A11DFFF797FE054603280AD206F0C3FF8A
:1024000002460120009008232946304606F086FE49
:10241000FEBD3878002807D00128F9D16179002263
:10242000304606F007FEFEBD0521304600F0FCFCFC
:10243000FEBD000064420020F8B50F461349152583
:10244000164688420DD1002432463946204606F011
:10245000F3FF002800D00025641CE4B2032CF3D362
:1024600012E00AF0B3FE00280DD04379811D00224E
:102470001846FFF757FE032806D23246394606F0C3
:10248000DBFF002500E014252846F8BDFFFF000013
:1024900010B50A490A4A087000211170094B01223F
:1024A0001A70094B03221A70084A094B117007224F
:1024B0001A70084A117000F07DFC10BD9042002097
:1024C0009842002091420020994200209A42002028
:1024D0009B4200209C4200203EB5214D0C46080442
:1024E00011D528780FF0A4FA050009D001789129B8
:1024F00003D0D02901D107F033FF28460FF076FA38
:102500000120C0032AE0E00729D0164800780028FF
:1025100023D01548694600780870144806220078D0
:10252000487000A8124902300FF08CF91148694632
:1025300000780872104800784872287800F0C2FAD3
:1025400000280AD00D49072008700D4909680029A4
:1025500003D00968002900D08847012060403EBDB3
:102560009042002093420020994200209A4200208D
:10257000B84200209B4200209C420020984200204C
:102580008C4200201CB50B490978002901D011208C
:102590001CBD002801D008490860002000900346B7
:1025A00002460190054801780548007800F004FAD9
:1025B00000201CBD984200208C4200209142002047
:1025C00090420020F7B50D468649009816464218FD
:1025D000854F00243878397A130006F0ADF81C0FC7
:1025E000151CF62141465A71787F8990F697A3AA67
:1025F000B5C0C9F6F6F6F6D4F6EAF1F6102D76D1A6
:102600001022314679486FE0102DF8D1774810221A
:102610003146103068E0042D69D130687862DAE024
:10262000012D64D1FB783278FA70002B0AD0002A91
:1026300007D1022903D0062901D0042901D100F0D5
:10264000FBF9C8E0002A0AD0012905D0032903D0EC
:10265000052901D0042902D101210FF0E5FABAE0E1
:10266000022D44D13088F881B5E01F2D3FD85E4857
:102670001F2200213A300FF09DF95B482A4631466F
:102680003A300FF0DFF8584BBD703A332A4601213B
:1026900012E01F2D2BD855481F2200211F380FF0A4
:1026A00089F952482A4631461F380FF0CBF84F4B74
:1026B0003D711F3B2A460021387800F00BFC8FE06B
:1026C000012D74D13078042871D8787283E0012DFF
:1026D0006DD1307803286AD8B8727CE0062D66D1B7
:1026E00041480622314628300FF0ACF873E05EE036
:1026F000012D5CD13078072859D8F8726BE0012D94
:1027000055D13078032852D8387364E0022D4ED169
:1027100032887A82002A5ED005295CD102210FF02E
:102720002DFC58E0012D42D1307801283FD8787136
:1027300051E03088022D3AD1062838D31921C90139
:10274000884234D8B88246E03088022D2FD106283E
:102750002DD31921C901884229D8F8823BE030885D
:10276000022D24D1FF21F531884220D2388332E076
:102770003088022D1BD10A2819D31921C90188429A
:1027800015D8788327E03178012D10D101290ED199
:1027900008210FF031F8002801D016241BE000209A
:1027A00007F05CFE042138780FF030FC13E01824A9
:1027B00011E0012DFBD13078B8710CE000E004E0AD
:1027C000012DF4D13078F87105E00098272801D266
:1027D000022D02D002242046FEBD318800F014FBF9
:1027E0000446F8E7FFFCFFFF90420020156100203F
:1027F000F8B50E46040049D020880AF0E7FC050031
:1028000042D024490878022806D0012804D0287B29
:10281000082803D1002E01D0122438E01E4F786919
:10282000002801D0112432E047212C200FF026F897
:102830007861002826D02C2200210FF0BBF878699F
:10284000218841801C22211D001D0EF0FBFF7B69A9
:10285000022018700F4822888178287B08280FD022
:1028600000201B1D05F046FD0446002E03D0314616
:1028700028460DF02BFE002C09D006F0C1FF06E023
:102880000120EEE7132402E0142400E00224204695
:10289000F8BD000018430020A0400020FFB51F48ED
:1028A00081B000781E4617460D46022818D0012830
:1028B00016D0002F30D001980AF088FC040029D0EF
:1028C000A06A002801D00FF017F81C2138460EF03E
:1028D000C5FFA062011E1BD0207B082803D00DE09D
:1028E000122005B0F0BD002E08D0887E00900B4667
:1028F00012330A8A01980EF0DFF800E000202179F7
:10290000002D01D0062200E0042211432171E8E7E6
:102910001320E6E71420E4E70220E2E71843002052
:1029200010B505480078000701D5044800E00020F4
:1029300007F004FD10BD0000184300202C440020C7
:1029400070B51B4C05460121207806F083FF19481D
:1029500001780A20014224D0204625700C3007F06F
:10296000E7FC606800281AD1207800281DD00001FB
:1029700007210EF083FF6060002810D021780A0143
:1029800000210FF017F80020FF222378616803E090
:102990000401401C0A55C0B29842F9D305E0132047
:1029A00070BD0020207007F0C3FC002070BD000047
:1029B0001844002018430020F8B50224079F1D4644
:1029C0001646012906D002290BD0042911D0082966
:1029D0002FD11EE000F0E4F804002AD100F038F90D
:1029E00027E000F0DDF8040023D13046FFF7A8FF10
:1029F0001FE000F0D5F804001BD13A46284606999E
:102A000000F0E2F900F024F900F00AF905F028FCE2
:102A10000FE000F0C5F804000BD13A4628460699AD
:102A200000F0D2F93046FFF78BFFFFF779FF05F092
:102A300071FB2046F8BD000070B5104C21680029DC
:102A400019D00978814214D10D4D0221A8780FF0D8
:102A5000DDFA0C4800264680A87804210FF0D6FA4B
:102A600009484671216803204870002001F01BF8D6
:102A700070BD032070BD122070BD0000B840002062
:102A80001843002028430020C05E0020272801D3DF
:102A90000248704702494000085A7047FFFF000093
:102AA000CE40002010B5054AFF21D170044AD170F4
:102AB0009070052101F036FC10BD0000C05E0020C2
:102AC00018430020FEB52E4D044628680F46002806
:102AD00001D01120FEBD2B4E05213078084201D1D6
:102AE0001220FEBD28494968002905D0097800292F
:102AF00002D0C00702D007E01020FEBD00F04CF865
:102B000022490978884206D33878022803D003285E
:102B100001D0122431E047210C200EF0AFFE2860D6
:102B2000002829D00470002141700A223946801CF7
:102B30000EF088FE164DA878032806D007F04EFE4A
:102B400004001AD006F050FE17E006F0D9FE6946E0
:102B500005F05FFA684607F097FA012028711D20FA
:102B6000FFF794FF0006000E687106D0B078094A9E
:102B700004210FF0F7F900E013242046FEBD000009
:102B8000B840002018430020284300200E420020B7
:102B9000C05E00200077010010B50AF079FB10BD7F
:102BA00070B50E4605462022002109480EF002FFAE
:102BB000074C0848E570067000F09CFF002803D021
:102BC00000202070122070BD0121217070BD000016
:102BD000C05E0020184300207FB504460D4608461D
:102BE0000AF0F4FA002817D00C48844212D21022BE
:102BF000002168460EF0DEFE69460C70200A48701F
:102C0000200C8870200EC8702946684605F092FA9C
:102C100004B070BD0220FBE71220F9E740420F002C
:102C200010B508480078400707D5074807F092FB21
:102C300000200649C043C88010BD002007F08AFB71
:102C400010BD00001843002038430020C05E002063
:102C5000F8B51E4C00256068002802D00EF04CFE2E
:102C60006560E068002802D00EF046FEE560184E70
:102C700005273078384224D01448143007F064FB1C
:102C8000307838421BD0472120200EF0F7FD6060DD
:102C9000002814D0202200210EF08CFE4721202095
:102CA0000EF0ECFDE060002805D0202200210EF09F
:102CB00081FE0020F8BD60680EF01EFE65601320E6
:102CC000F8BD002007F040FBF3E700002843002098
:102CD00018430020FEB5344E344D0C4608041DD573
:102CE000B0780EF0A5FE070011D03878A22806D0E3
:102CF000F578384607F02AFA00280BD101E0ED7884
:102D0000F7E7FF2D06D0394628460EF0C9FE012010
:102D1000C00345E038460EF069FEF8E7E0070127FA
:102D2000234A00280AD05068002804D041680029AE
:102D300001D00020884720467840FEBD1C48A107EE
:102D4000C06808D5002804D04168002901D00120BE
:102D50008847022024E0610724D5697900291ED024
:102D6000491E0906090E697119D19169002907D018
:102D70002F71002804D04168002901D00120884724
:102D80006946E86805F045F9684607F07DF91D20B9
:102D9000FFF77CFE6871B07804210FF037F904204A
:102DA0006040FEBD0020FEBD18430020C05E002034
:102DB000A04000200149C87070470000184300205F
:102DC00010B505F027FA10BD70B50E4C0B466261C8
:102DD00021610546E0601022002118460EF015FD25
:102DE000012803D1102120690DF052F91022002191
:102DF00028460EF00AFD012803D11021E0680DF0ED
:102E000047F970BDC05E0020272802D2044A9142D3
:102E100001D102207047034A400011520020704740
:102E2000FFFF0000CE40002038B50C4605460AF0F2
:102E3000CDF9002806D068460470694628460DF092
:102E4000E5FD38BD142038BDF8B50C4617462049BD
:102E500005461E4A12268868944208D1002833D0BD
:102E60000268002A30D0214628469047F8BD174A0C
:102E7000521C944219D1002808D00268144E002A2E
:102E800004D0214628469047002806D039462846D7
:102E900005F0FCFF060004D016E0757037700020C6
:102EA000F8BD0B48457007700EE020460AF08EF919
:102EB000002809D00078A84201D00320F8BD394687
:102EC000204600F05AFDF8BD3046F8BDFEFF000078
:102ED000A040002070B51446204A1E4612780523F3
:102EE0001A4223D01E4D002901D06A6800E0EA682A
:102EF000002A1BD0202C2ED2002C01D0002E2AD04C
:102F00002870002914D068681F220021401C0EF090
:102F100051FD686822463146401C0EF093FC6968FA
:102F200020460C70491C00F0BAFD70BD122070BD27
:102F3000E8681F220021401C0EF03CFDE868224694
:102F40003146401C0EF07EFCE96820460C70491C9E
:102F500000F0C0FD70BD022070BD000018430020CD
:102F600028430020F8B5104E114FB0700F49384675
:102F700000F022F800220D481346D238940107537E
:102F8000002124180C254D436519AB80491CEB60CA
:102F90000529F7DB521C032AF0DBB07830700548B6
:102FA0000AF0A8F9F8BD000030410020CA5F0020F7
:102FB000FFFF00005DAF000070B50A4C0025A04285
:102FC00008D1002082008C525218401C95700328B2
:102FD000F8DB70BD07F093FF0028FAD004808570FD
:102FE00070BD0000FFFF0000F8B50E4607460699C9
:102FF00000240798002902D00B242046F8BD022B9C
:1030000001D00D24F9E7517812780D0215432946B5
:10301000814301D08024F0E73846F16800F042F99E
:10302000A842EAD02A463846F16800F0ADF90446D5
:10303000E3E7000070B50D4608041AD50E48807805
:103040000EF0F6FC04000FD02078B02809D12046FD
:1030500008F018F9002804D020462179083000F043
:103060002DFC20460EF0C2FC01212846C903484031
:1030700070BD002070BD000030410020FFB585B05C
:1030800000200F9F0090087A0E9D1C460E46C00639
:103090000BD5079807F02CFF03007DD00A2231469C
:1030A000059898470090002816D13078022815D04E
:1030B000079807F043FF0028EFD0006884460028F7
:1030C000EBD01199109822460097029101902B465F
:1030D000314664460598A04709B0F0BD70682922C2
:1030E00041780078090201431202881A91427CD08B
:1030F0000BDC6948081A13D0012811D0022817D018
:103100000328D5D1002F53D09BE001287ED0022880
:103110006DD0032877D00428CAD1002F68D090E062
:10312000002F6FD1F068017829800278416884E02F
:10313000002F67D1F068417800780F020743042020
:103140002880F06804A900782070F06840786070EA
:10315000384600F045F9060022D06846028A03ABE3
:103160004E493046F76800F099F900280AD13378C3
:1031700002214B487268FEF782FA002802D14748C4
:1031800069468881387802280CD10222201D79688E
:103190000EF058FB288800E07CE0801C288001E0CD
:1031A0006846878168468089A070000AE0706FE0F9
:1031B00001202880F0680021007820707089401C70
:1031C00080B200F00DF9002813D029880278891800
:1031D000891C2980817A61704189090AA17002786D
:1031E0004168E01C0EF02EFB52E00CE00EE026E001
:1031F0003BE028880422001D28800021601C0EF07E
:10320000D9FB45E01DE0002F27D01AE0F0680EF052
:103210000EFF80B2B84201D207205DE7874201D19C
:10322000002006E01099C919814201D3C01B00E0BB
:103230001098288082B2F068C1192046D2E7002F8A
:1032400001D00B2048E7F168059800F02BF8022127
:1032500029802070000A60701AE002202880F0683F
:1032600000782070F0684078F5E70721F068298041
:1032700001782170417861708178A1704188090AD4
:10328000E1700179217181796171C088000AA071B2
:10329000009821E70E201FE700280000FFFF000034
:1032A0002021010010B507F02AFE002800D0807808
:1032B00010BD0000F8B50C4C0746607815460E4668
:1032C000FF280FD00A200EF07DFB01000AD0B120AC
:1032D00008704F80002048700871CE800D816078A2
:1032E0000EF0DEFBF8BD00003041002070B50C464A
:1032F00005460649FFF7D6FF800704D52146284634
:1033000000F0AEF970BD012070BD0000CA5F002062
:10331000FFB583B0174602A90D9E049800F060F82F
:1033200004002AD06846008907F008FE002822D051
:103330004568002D1FD00C98019600903A46214612
:10334000069B0398A847050018D1FE2E16D02078BA
:10335000022813D1606841780278080209491043B5
:1033600088420BD17878397802020A43049903988D
:10337000FFF7A0FF02E00E2500E00125284607B078
:10338000F0BD00000229000070B514460E46054647
:1033900007F0B5FD002806D13146054807F0AFFD1E
:1033A000002803D005808470002070BD112070BDFE
:1033B000FFFF000010B50178B0290BD1417800293A
:1033C00008D10179122906D01B2903D14088012197
:1033D00000F0B2FE10BD417C0129F7D010BD000005
:1033E000F0B5104A136919E09C686589A84214D3A6
:1033F0009E887219824210D900220CE017013F19F1
:103400007F89874205D1002900D00D801001001965
:10341000F0BD521C92B2B242F0D31B68002BE3D134
:103420000020F0BD30410020FFB51B4883B00023D1
:1034300005692DE0AE68002470890190A88800908D
:1034400016E0210188194289039FBA420ED3049FD6
:10345000BA420BD8069A002A0FD01346715C406816
:10346000059AFEF70CF9002807D10023641CA4B2CA
:1034700000988442E5D3002B09D00C98002802D094
:103480000C99019808802001801907B0F0BD2D68C3
:10349000002DCFD10020F8E730410020FEB51746BF
:1034A00000256A469580044640891D4A1E46904282
:1034B00008D001AA0092401C237880B26268FFF70E
:1034C000B3FF05462378022116486268FEF7D7F855
:1034D000002807D12378022113486268FEF7CFF84D
:1034E000002801D060890EE0237802210F4862682D
:1034F000FEF7C5F800280DD0002D03D0684680885F
:10350000B84203D0384608F09FFB04E06889401EAB
:1035100080B200E06089002E00D030802846FEBDD9
:10352000FFFF00001E2101002021010024210100D5
:10353000FFB583B00E461D46174601A9039807F054
:10354000A1FA040022D1002F0FD0694608803088EC
:10355000FFF746FF6946088800F0BEF801460122E1
:10356000039809F007FE002811D131460398FEF7B1
:103570002BF904000AD1FF2D08D0019B1E22194609
:1035800004489B1C08F06BFB0198C570204607B0EF
:10359000F0BD0000B1BA000010B50749FF220A7063
:1035A00000224A608A6005490871042100F0BAFED1
:1035B00000F006F810BD0000204100201843002054
:1035C00070B500200D4D0E4B0446FF2206214143ED
:1035D0005D52C918CA708A70401C0C710328F5DB53
:1035E0000120C0431880074807F046FC0648FEF754
:1035F0007FFA064809F07EFE002070BDFFFF000044
:10360000B85F0020F9BA0000DBBA000031BA000050
:1036100008B5009313460A4601460248007807F0B1
:1036200047FA08BD2041002070B50D46080412D5A8
:103630000A4800790EF0FCF9040008D02078A02890
:1036400002D1204607F09CFB20460EF0CFF9012066
:10365000C003684070BD002070BD0000184300200A
:10366000FEB50E46074600250223194A19490120D6
:103670000095FFF7D9FE040027D0232000900023F7
:1036800004221D21384600F0D3F8029000281AD0F9
:103690006089694688800420C880029901200870EA
:1036A0000298334645700299FF20887002990022E3
:1036B000C87001A93846FFF73BFF040006D0029806
:1036C0000EF01AF902E0152400E001242046FEBDA8
:1036D0003C210100FFFF000000B507F08FF9002832
:1036E00001D0807800BD102000BD00B507F086F93C
:1036F000002800D0008800BD7CB50C460546FEF7CA
:10370000FDF900280AD16846848001A80090044889
:103710007F2300222946007807F0CAF97CBD00000B
:103720002041002010B504460B4688060DD51046F2
:10373000FFF7D2FF01460122204609F01BFD0528B4
:1037400001D00F2800D1082010BD882003420CD0E2
:103750001046FFF7C1FF0146180701D5012200E01E
:103760000022204609F006FD10BD880701D5002083
:1037700010BD032010BD10B50346C8060DD5104678
:10378000FFF7AAFF01460122184609F0F3FC0528BD
:1037900001D00F2800D1082010BD480705D51046DC
:1037A000FFF79AFF0146012206E0480608D51046B9
:1037B000FFF792FF01460022184609F0DBFC10BD1E
:1037C000C80701D0002010BD022010BD70B51D46F5
:1037D00003460C4688060DD51046FFF77DFF0146CF
:1037E0000122184609F0C6FC052801D00F2800D197
:1037F000082070BD8820044214D01046FFF76CFFEB
:103800000146200701D5012200E00022184609F0F8
:10381000B1FC002808D0697A0029EAD0297A002969
:1038200002D170BD880701D5002070BD032070BD96
:10383000F8B5069F1E461546162928D00CDC092926
:103840001FD004DC05291CD0062911D11BE0112949
:1038500017D012290CD118E01D2916D004DC172925
:1038600015D01B2904D110E052290ED0D2290CD03A
:103870000124114A95420CD1FDF796FF001B85B239
:103880000BE00224F5E70724F3E70324F1E705241E
:10389000EFE7D22901D10C35ADB2601980B23946BB
:1038A00000F09CFD002805D0002E00D0358061423C
:1038B0000DF076FFF8BD0000FFFF000010B507F027
:1038C000ADF8002801D00EF017F810BD70B51646FF
:1038D000214A0D46114600241031030004F02CFF4C
:1038E0000A0613383818382128383138152D2AD8C7
:1038F0001622002119480EF05DF82A463146174875
:103900000DF0A0FF25E0022D1DD13088508020E071
:10391000082D18D11048082231460830FDF735FB34
:1039200017E0012D0FD1CA690B493078383105E015
:10393000012D08D1CA6B08493078583108F05EFA79
:1039400007E0012D01D0182403E03078107000E06A
:103950000224204670BD000048430020686100201A
:10396000704710B500F0F6F810BD10B500F012F970
:1039700010BD10B500F026F910BD10B5FDF7E6FC3E
:1039800010BD10B500F032F910BD10B500F04EF9C1
:1039900010BD10B500F064F910BD10B5FDF7E0FCE6
:1039A000002010BD10B5FDF7F5FC10BD7CB5069CE0
:1039B000079DC0B20195009400F068F97CBD10B578
:1039C000FDF7F8FC10BDFEB508AF70CF6F4670C7AD
:1039D000FDF700FDFEBDF0B585B084460AA8F1C82C
:1039E00004976F4671C7604600F080F905B0F0BDDE
:1039F00038B5049C009400F0B1F938BD10B5FDF75E
:103A0000F9FC10BD38B5049C009400F0C5F938BD30
:103A10007CB5069C079DC0B20195009400F0DAF9D0
:103A20007CBDFFB587B094468E4610A8F7C80697B0
:103A30006F4677C762467146079800F001FA0BB0EF
:103A4000F0BD10B500F04EFA10BD10B500F066FAEA
:103A500010BD10B5FDF7DCFC10BD10B5FDF7EAFC9C
:103A600010BD10B5FDF7F8FC10BD10B5FDF704FD55
:103A700010BD10B500F070FA10BD10B500F088FA56
:103A800010BDFEB508AF70CF6F4670C7FDF706FDDD
:103A9000FEBD38B5049C009400F098FA38BD10B50E
:103AA000FDF716FD10BD10B5FDF722FD10BDF0B5F8
:103AB00085B00AACF0CC03976F4670C7FDF728FDC0
:103AC00005B0F0BD10B5FDF739FD10BD10B5FDF71F
:103AD00045FD10BD10B5FDF751FD10BD70B5547812
:103AE000157822022A43FDF759FD70BD10B500F08C
:103AF0008BFA10BD10B5FDF75BFD10BD38B5049C09
:103B0000009400F099FA38BD10B500F0B1FA10BD7C
:103B100010B5FDF75FFD10BD10B505280ED90C4C92
:103B2000A0420BD2A14209D2814207D3FF20F53037
:103B3000824203D2092B01D9A34201D3002010BD38
:103B4000521C4A43D8008242F8DA012010BD00001E
:103B5000810C0000F8B50746084616460D460C30A5
:103B60000DF030FF040011D0912020700E20607005
:103B7000A5702046A7800C302A463146A0600DF083
:103B800061FE0348214680780DF08AFFF8BD0000F1
:103B90001843002070B505460C4606200DF012FFB4
:103BA00001000BD0912008700F2048708D7001200B
:103BB000C87003488C8080780DF072FF70BD0000E3
:103BC0001843002010B5044603200DF0FBFE010051
:103BD00008D0912008701A20487003488C708078B3
:103BE0000DF05EFF10BD00001843002070B50646C2
:103BF00014460D4608200DF0E5FE01000ED0912080
:103C00000870052048708E708D8005488C71807812
:103C10000DF046FF03480449007E087070BD0000A7
:103C200018430020B0540020F941002070B506462A
:103C300014460D4608200DF0C5FE01000CD0922060
:103C400008703E204870082088708D808E7103486F
:103C5000CC7140790DF024FF70BD000018430020A6
:103C600070B505460C4606200DF0ACFE010009D0EB
:103C700091200870302048708D7003488C808078C7
:103C80000DF00EFF70BD000018430020FFB581B09D
:103C90001E460F4631200DF095FE040022D09120E3
:103CA00020703E2060700220A0700120E07020464D
:103CB000083005466060019828706F700622A81CC5
:103CC00003990DF0BFFD2E722846324609300A993D
:103CD0000DF0B8FD20350B982872034821468078F6
:103CE0000DF0DEFE05B0F0BD18430020FFB507461D
:103CF00081B01D46164616200DF064FE040029D042
:103D0000912020703E2060700120A070002F08D00C
:103D10003120E07020460622002108300DF04AFED6
:103D200007E00020E0702046062208300A990DF0D6
:103D300089FD0298A080A671E5710B98E0810C982E
:103D400020820D9860820E98207503482146807865
:103D50000DF0A6FE05B0F0BD18430020F8B50746EB
:103D60001C4615460E460C200DF02CFE01000FD00F
:103D7000912008703E20487003208870CF708E809C
:103D8000CD800C8106984881024880780DF088FE2D
:103D9000F8BD000018430020F8B507461C4615463C
:103DA0000E460E200DF00EFE01000FD0912008707F
:103DB0003E204870072088708F80CE800D814C8116
:103DC00006988881024880780DF06AFEF8BD0000F0
:103DD00018430020FFB581B01F4618200DF0F2FDFA
:103DE000050028D0912028703E2068700B20A87014
:103DF00001202C460834E87000266C600198207081
:103E0000029860700622A01C03990DF01BFD27721A
:103E10002046062209300A990DF014FD0B98E07334
:103E2000761CE878F6B21034B042E7D80348294649
:103E300080780DF035FE05B0F0BD0000184300207D
:103E4000FFB581B01D4616460F4622200DF0BAFD83
:103E5000040042D0912020703E2060700A20A070A3
:103E60000198002814D03120E0702046062200215D
:103E700008300DF09FFD2046062200210E300DF087
:103E800099FD20460622002114300DF093FD13E029
:103E90000020E0702046062208300A990DF0D2FC7E
:103EA000204606220E300B990DF0CCFC204606224F
:103EB00014300C990DF0C6FCA780A671E5710D9821
:103EC00060830E98A0830F98E083202110980855F6
:103ED0000348214680780DF0E3FD05B0F0BD0000F9
:103EE0001843002070B505460E4626200DF06AFDE9
:103EF000040010D0912020703E2060700920A07036
:103F0000A58020223146A01D0DF09CFC02482146D0
:103F100080780DF0C5FD70BD18430020F8B5064649
:103F200015460F4610200DF04DFD040011D09220D3
:103F300020703E2060700520A070A68008223946BF
:103F4000A01D0DF07FFC0348E581407921460DF06E
:103F5000A7FDF8BD1843002070B505460E46462063
:103F60000DF030FD040010D0912020703E206070D4
:103F70000820A070A58040223146A01D0DF062FCF3
:103F80000248214680780DF08BFD70BD184300205B
:103F9000F8B5064617460D460E200DF013FD040039
:103FA00011D0922020703E2060700420A070E67036
:103FB000A58008223946A01D0DF044FC0248214688
:103FC00080780DF06DFDF8BD18430020F8B5074668
:103FD0001C4615460E460E200DF0F4FC01000FD0D5
:103FE000912008703E204870062088708F80CE8017
:103FF0000D814C8106988881024880780DF050FD33
:10400000F8BD00001843002070B514460D46082086
:104010000DF0D8FC01000BD09020087013204870E0
:10402000012088708D800348CC8040780DF038FDE9
:1040300070BD000018430020F8B507461C46154621
:104040000E460C200DF0BEFC01000DD09120087032
:104050000C2048708F708E808D710C81069848817D
:10406000024880780DF01CFDF8BD000018430020C8
:10407000FFB5074681B015460E460C200DF0A2FC98
:10408000040014D090202070FF206070678026719B
:10409000E580482128460DF0F1FBA0602A460499EE
:1040A0000DF0D0FB0348214640780DF0F9FC05B037
:1040B000F0BD00001843002008B51346034A0092E3
:1040C0000A46012108F04CFE08BD00004DC000006A
:1040D0003EB500230192042402930A460094024B49
:1040E000122108F03FFF3EBDF3C0000008B51346A3
:1040F000034A00920A46132108F032FE08BD000070
:104100001FC100001FB56946C8810022FF2103209E
:104110006C4607C4034B03AA0621034808F022FF9C
:1041200004B010BDC3C00000FFFF00000148C088FC
:1041300070470000F841002013B5044800790128B9
:1041400003D101AA6946FFF728FC1CBDF8410020F5
:1041500070B5224930224870002121480DF02AFC18
:1041600009F06EF81F4D28782C46083C00280ED028
:1041700000014C210DF082FB2061002807D06978F6
:10418000E1702978A1700A0100210DF013FC164896
:10419000E17800784018C0B2207000014C210DF089
:1041A0006DFBE060002811D021780A0100210DF09C
:1041B00001FC0020FF2105E0E3680201D218401C49
:1041C0005172C0B222789042F6D302E000202070F3
:1041D000E070064809F08EF870BD0000184300201A
:1041E000D85F0020004200200E42002091C4000051
:1041F0000A2A01D0012070474A780B7812021A432C
:104200000280CA788B7812021A4342804A790B796D
:1042100012021A438280CA798B7912021A43C28031
:104220004A7A0B7A11021943018100207047042A4F
:1042300001D0012070474A780B7812021A4302809D
:10424000CA788B7811021943418000207047082AF0
:1042500001D0012070474A780B7812021A4302807D
:10426000CA788B7812021A4342804A790B7912027B
:104270001A438280CA798B7911021943C1800020C8
:1042800070470000F8B5244C244E0D46080433D581
:10429000204640780DF0CCFB04000BD0207890280D
:1042A00005D16078132808D0204608F059FC204634
:1042B0000DF09CFB0120C0032CE019490020896906
:1042C000A778CAB294460CE042001219927973782A
:1042D000D218D2B27270914201D262467270401C02
:1042E000C0B28742F0D870780028E0D00A48012197
:1042F00040780DF099FCDAE7E8070CD008F012FEE0
:10430000002806D07078002803D0607801210DF0D5
:104310008BFC01206840F8BD18430020F8410020C4
:10432000B0540020042907D0052905D0062903D060
:10433000072901D0022070470C22044B4A43D218AF
:10434000403A11829074002070470000D85F00202E
:1043500070B50C4609880546042905D0052903D007
:10436000062901D0072929D16068002826D001211B
:10437000284608F0F3FF00281ED0284608F080FFEA
:104380000F498D420BD0002809D12189002906D977
:10439000208806280ED10B48008881420AD20A489C
:1043A0000078002804D02146284607F01BFF70BD86
:1043B000162070BD1B2070BD142070BD022070BD82
:1043C000FEFF0000FE410020F9410020024A001FCC
:1043D000D080517070470000F841002010B5001DDA
:1043E00080B24C210DF04AFA002803D00321C943C2
:1043F0000DF0D6F910BD000010B51149002048712C
:10440000114C104820600A22DE21002000F020F824
:1044100064223221012000F01BF8642232210220A4
:1044200000F016F80A22DE21032000F011F82068BF
:1044300041681F22114341600449C16010BD000062
:10444000F854002000C200400C4300201F0300006D
:1044500010B5254B20241B68002809D0012816D050
:10446000022823D0032830D0042800D1996510BD3C
:104470001869204318611869A04318615961986947
:10448000204398619869A0439861DA6110BD186A69
:1044900020431862186AA04318625962986A204340
:1044A0009862986AA0439862DA6210BD186B204344
:1044B0001863186BA04318635963986B2043986383
:1044C000986BA0439863DA6310BD186C204318649E
:1044D000186CA04318645964986C20439864986CD5
:1044E000A0439864DA6410BD0C430020FCB5354845
:1044F000006881685A278B07012500223249002B6A
:104500000DDA83680224A34383604368DB0703D189
:104510004B79FD2423404B71CD708A700765836809
:10452000DB070CD083685B085B0083600A704D700A
:104530004368DB0703D14B795B085B004B718368F1
:10454000DB051AD58368FF240134A34383600B780D
:104550005B060DD51D4EB36B0093B36B0193019CAD
:10456000009BA342F7D11C46174B80331B6A9C6605
:104570000B782B430B704A70076583689B0508D541
:10458000836801246402A34383608B782B438B7080
:10459000CA708368DB0604D583681024A343836054
:1045A0004A7183685B0704D583680424A34383604E
:1045B0004A7183681B0704D583680824A34383607A
:1045C0004A71FCBD0C430020F8540020001000404C
:1045D0001CB51A4A5369002B05D09C7C002C02D0D4
:1045E000DB7C002B11D19369002B05D05C7E002C65
:1045F00002D09B7EDB0708D1D369002B07D05C7DFE
:10460000002C04D09B8B002B01D012201CBD0C4B26
:10461000128E5B681B0A9A420BD26A46507000A841
:10462000062202300DF00EF9684602F015FD012851
:1046300001D007201CBD00201CBD000078550020C3
:10464000B0540020F0B51F4C89B00D4606462146F7
:10465000002004F09FF90028F9D0A042F7D00021F3
:1046600004460120800527460743009101910291ED
:10467000039104910591069107916A46D773390A0F
:104680009173390C5173304604AA694609F099FBBD
:104690006A46907F517F000209044018D17F40187C
:1046A0002870010A6970000CA8700121200A890392
:1046B0000843EF702871200C40210843687109B04D
:1046C000F0BD0000FFFF3F000A4A10B51046D16C54
:1046D000403001760B0A4376090C8176916CC176E5
:1046E0000A0A0277090C417708F08EFF08F040FFB4
:1046F00010BD0000F854002070B51848174A4469EE
:104700005569607B27212035252802D0262822D014
:104710001EE06879820715D5262060730021FF20EE
:10472000913000BF491C8142FBD3204609F058F963
:10473000687940070CD50A48228C407808210DF092
:104740001DFC05E0400703D56173204609F048F9D8
:1047500000F0E8F870BD6879F4E7000078550020B3
:104760008840002070B5112188200DF087F80400E2
:104770003BD01F4D8822002120466C610DF01AF9B4
:1047800001222273902060740023A374E8686060A3
:104790002869A060032117486175006A15281DD09B
:1047A00008DC01280DD003280ED0072810D00F28D0
:1047B0001BD110E01D2813D0232813D03F2814D17B
:1047C00012E01320C04301E00D20C04320750CE02F
:1047D0000720C043FAE70220C043F7E7237504E04F
:1047E000227502E00220F1E72175204670BD00002D
:1047F00078550020B054002010B500F033F9822223
:104800008021002001F076FC10BD0000F8B543487F
:104810004249446980390F462546803160354B69ED
:10482000687B583701266E3300280DD0223900915D
:1048300001280CD03E39C97900296DD00021022809
:1048400012D0032830D052E00622394605E0334822
:104850008038806F002802D00622184645E02F4994
:1048600006221C39184640E02973287D002817D0FD
:104870002046743001F0B6FCA06600280DD00AF086
:10488000CDFAA16E887A002807D00220287320462E
:1048900006226E300C310CF0D5FF287B022826D082
:1048A0002E73062239461EE02973287D002817D072
:1048B0002046743001F096FCA06600280DD00AF066
:1048C000ADFAA16E887A002807D00220287320460E
:1048D00006226E300C310CF0B5FF287B022806D082
:1048E0002E730099062220466E300CF0ABFF00209C
:1048F000401CC0B20628FBD30020401CC0B20628D2
:10490000FBD3A674E08BA18B4218054804214078A4
:104910000DF034FB0020F8BD1220F8BD78550020C2
:1049200088400020F8B5464892250646803E4469F6
:104930007EE095280DD0932828D0942858D096282A
:104940007AD1B078C0076ED09120607404F0DCF8A2
:104950006CE0F078C00713D00027F77022461632BB
:104960003946A06803F0CEFF3071002801D03771BE
:1049700004E0204608F038FF002857D06574E5E7CA
:10498000B079012852D10020B071F7E727462037CF
:104990007879C10701D0252006E0810701D52620BE
:1049A00002E0400701D527206073228C002A04D042
:1049B0002448082140780DF0E1FA3879012804D024
:1049C0000A21012003F0F4FFE083E08BA18B421861
:1049D0001C48042140780DF0D1FA00207D21C90047
:1049E00000BF401C8842FBD3204608F0F9FF1DE0C1
:1049F000B078C00711D0A07B010705D00007000FD9
:104A0000012801D00628B9D1952060740E4803F022
:104A100061FD80B204F00CFA08E0B0790128ADD055
:104A200004E009E0FFE7B079012806D004F014FAA9
:104A3000607C932800D37CE7F8BD0020B07183E749
:104A400078550020884000203A03000010B5044843
:104A5000446909F0F3F993206074FFF763FF10BD18
:104A60007855002010B50B48446904F04DF800203B
:104A7000A07420736074084C042160780DF0C6FAAD
:104A8000607808210DF0C2FA607810210DF0BEFAAE
:104A900010BD0000785500208840002070B5064603
:104AA0000821203631734468002C17D00546762142
:104AB0008035095A2A8A89180A31A9860121A170EC
:104AC00001460522AF31E01C0CF0BCFEA88E20721E
:104AD000000A60722220F075002070BD012070BDB8
:104AE00010B511484169002905D08A7C002A02D0FE
:104AF000C97C002911D18169002905D04A7E002A8C
:104B000002D0897EC90708D1C069002807D0417D3D
:104B1000002904D0808B002801D0122010BD02F0A3
:104B2000CDFA002010BD000078550020F8B51E46D3
:104B300015460C46079F00F0C1F9264AA11F914275
:104B400046D2511D8D4243D8A54241D3FF22F432B3
:104B500096423DD8069A8A423AD8711CD2006143E7
:104B60008A4235DD002833D0014620318C46097E4B
:104B7000C9072DD1826C51072AD4910728D4014648
:104B800080318C84CD840F85089B4B854E81069B9C
:104B90008B816346DE790223012E06D0FF21A531E9
:104BA000095C890712D41A20F8BDFF26A536365CA9
:104BB000B6070BD463195B080B811B09CB8001235B
:104BC0004B7104210A4382640020F8BD1A43FAE7BE
:104BD0001220F8BD7B0C0000014680682031CA7AA3
:104BE000007853070007DB0FC00F834204D1042075
:104BF0004240CA7200207047012070470146806819
:104C00002031CA7A007813074007DB0FC00F8342B8
:104C100004D008204240CA7200207047012070472B
:104C2000C11DF931CA68521CCA6002D10A69521CFE
:104C30000A610A7C120603D50122CA6000220A61B9
:104C4000E030017E8A0702D50422114301767047C5
:104C500070B51D4D04462868002801D002F05EFAA8
:104C6000E068002806D08168E160F7E78168A1610B
:104C700002F054FAA0690028F8D16068002801D039
:104C800002F04CFA696A0020A14203D1686203F085
:104C900005FD03E02862002003F006FD8120005D91
:104CA000FF2801D00DF098F92546E035687EFF28F1
:104CB00001D00DF091F9A87EFF2801D00DF08CF9FC
:104CC000A08C00F0D5F870BD7855002070B5044672
:104CD00080690D46002804D0A08C0022802101F0BC
:104CE00009FA5620005B002804D0A08C13228121F1
:104CF00001F000FAA08C0522812101F0FBF9204689
:104D000000212030C171C1756034A577084670BD9F
:104D1000C11DF9314A68521C4A6002D18A68521C8E
:104D20008A600A7A120603D501224A6000228A604C
:104D3000F821095C89070BD576210A5A0146C03152
:104D4000CB8FD2188A870122816C920291438164B1
:104D50007047F8B505462E4618202036307368682F
:104D6000002828D00F212C4681708034A18CC1707E
:104D7000090A0171E18C4171090A81716189C1716E
:104D8000090A0172A1894172090A8172217DC172E9
:104D9000E18A0173090A417329460C2298310E30C9
:104DA0000CF050FD7D214902284608F0D9FF9220E1
:104DB000F0750020F8BD0120F8BD70B501460C4625
:104DC0001820203420734868002822D00B46102277
:104DD000827080339A8CC270120A0271DA8C42712E
:104DE000120A82715A89C271120A02729A89427237
:104DF000120A82721A7DC272DA8A0273120A42732E
:104E00000C220E3098310CF01DFD9720E07500202B
:104E100070BD012070BD10B502460C212032117307
:104E20004168002922D076231B5A8030048A1B193E
:104E3000DB1DC38100238B704379CB70C3880B715A
:104E40001B0A4B7103898B711B0ACB7143890B724F
:104E50001B0A4B7283898B721B0ACB72C089087341
:104E6000000A48731220D075002010BD012010BD2B
:104E700070B5114C0246A06A0021034618E0FF25D8
:104E8000D9352D5A954211D1002904D0E26A8242C7
:104E900004D1E16204E01968A16201E002680A60DD
:104EA00002F03CF9E16A0020086070BD014600682C
:104EB0000028E4D170BD0000785500200146064866
:104EC000806A05E0FF22D932125A8A4202D0006875
:104ED0000028F7D1704700007855002010B508224F
:104EE000002102480CF066FD10BD0000A055002016
:104EF00070B5FF25DD35102128460CF0BFFC0446B7
:104F00002A4600210CF056FD002C0BD01A4A956A57
:104F1000002D09D0D06AFF30C130018B2846491CD2
:104F200089B209E0002070BD01210AE0FF23D933D6
:104F30001B5A8B4203D000680028F7D101E00028FB
:104F4000ECD12046FF30C130018300290ED0002D66
:104F500010D0D16A0C600021D4622160008BA08443
:104F6000204620308171C174A08C70BD204602F0B3
:104F7000D5F8F9E79462EEE77855002010B50648B9
:104F8000C069002806D0407D002803D000F03AFA1E
:104F9000002010BD0C2010BD7855002010B50C4627
:104FA000FFF78CFF002811D00246203291790429A6
:104FB00001D0022010BD6030C477D079012803D021
:104FC0003120D075002010BD3020FAE7122010BD2E
:104FD00070B5064617212036044631734068002814
:104FE00028D003218170054621460822B931C01C12
:104FF0000CF028FC2046C1304178007809020143BA
:10500000E972090A2973214628460822C3310D3066
:105010000CF018FC214628460422CB3115300CF048
:1050200011FC7D214902204608F09AFE4220F075CD
:10503000002070BD012070BD70B506460D212036E0
:10504000044631734068002813D005460420A87038
:1050500021460822D231E81C0CF0F4FB21462846F8
:105060000422DA310B300CF0EDFB4420F075002007
:1050700070BD012070BD10B508F0A3FE002010BD6A
:1050800070B505460921203504462973406800287B
:1050900012D0082181700A4621466068FF3195319F
:1050A000C01C0CF0CFFB7D214902204608F058FEC1
:1050B0006220E875002070BD012070BD014610B56A
:1050C000203109230A460B734168002912D08B70E6
:1050D000D1794368012908D001460822FF319D316A
:1050E000D81C0CF0AFFB002010BD01460822FF3198
:1050F0009531F5E7012010BD10B50179C906C90E3B
:105100000024017122462146435C002B02D0521C30
:10511000D2B21C46022A08D2491CC9B20529F3D3CF
:10512000002A04D0601E044201D0012010BD0020DE
:1051300010BDFEB500252C4604212A0E240243187A
:1051400014432A0240331D7B491E154349B20029EE
:10515000F3DA0146203100914030497D407C081847
:10516000C7B2252F01D3253FFFB200983A464775B5
:1051700001200021FBF7F9FE28402140084302D01E
:1051800000980775FEBD00200646019032460120BA
:105190000021FBF7EAFE28402140084303D0019894
:1051A000401CC0B20190761C76B2252EEEDB38464C
:1051B0000199FBF773FE00273E460191324601201C
:1051C0000021FBF7D2FE28402140084307D0019878
:1051D000874202D100980675FEBD7F1C7FB2761C07
:1051E00076B2252EEADBFEBD0021203041757047E6
:1051F00070B53549C0224870002134480CF0DAFB04
:105200003349487E0C468009203C022809D0314AA7
:105210000020231815782033401C521C1D750628C9
:10522000F7D3487D8A7D0002120480180A7D2A4D3A
:105230008018264AD064087E4B7E00021B04C018EA
:10524000C97D264B4018906408209085D58511466D
:105250001386203188749386C874D58613870846D0
:10526000FF2520300574002343748374C3740375D1
:1052700043758375C3750D704D708D70CD701F2390
:105280000B7101238B71A18AD187CB00703303800E
:10529000418083801B205087FF2049309087104831
:1052A0001146C031906208464038C1600D49016125
:1052B00008F08CFDFFF712FE01F006F901F00EFF79
:1052C00000F06EFF70BD000088400020F854002000
:1052D000D054002008060400D70700000380000017
:1052E00000F91500B85D002070B52B480546C4696B
:1052F000803D207DB12802D0B3281CD045E028781D
:10530000C00742D022463C320021A06803F0FAFADE
:10531000002804D1204608F041FF002835D003F0D2
:10532000F3FB1E49592009680865E27B1C491D48AA
:1053300003F06CFB29E06878002821D00020687019
:1053400003F0E2FB00F066F9FFF7B8FDE16AC16324
:10535000216B0164A18E802211540146E28E4031FE
:105360000A83228F4A83628C8A83A28CCA833A2260
:10537000125D4A7400F042FA204608F053FF04E040
:10538000A879012801D1B120207503F065FD207DA9
:10539000B328AED0C0B270BD785500200C430020B9
:1053A00055555500D6BE898E10B51148C46908F010
:1053B00045FD207DBF2801D003F0A6FBB12020755C
:1053C00025200C49E073096859200865E27B0A49E9
:1053D0000A4803F01BFBE28A094C01216078C902EC
:1053E0000CF0CCFD0121607809030CF01DFC10BD10
:1053F000785500200C43002055555500D6BE898EA7
:105400008840002010B50648C46903F07DFB2046A3
:1054100008F008FFA0898122802100F06BFE10BDFA
:105420007855002070B51748C469A07B00281AD0B1
:10543000E07B0125144EED02272815D203F064FB12
:10544000E07B1249401CE073096859200865E27B43
:105450000F49104803F0DAFAB1202075E28A70781B
:1054600029460CF08BFD70BD03F04EFBBF2020756C
:10547000707829460CF0CAFD0121707809030CF000
:10548000C5FD70BD78550020884000200C430020E9
:1054900055555500D6BE898E0449C98F017000212B
:1054A00041700349097E817000207047F854002044
:1054B000B0540020F8B50446092120342173416816
:1054C00000292BD003461422FF338A70A4335A7D5F
:1054D0001E7D15023543CD702D0ACA1C0D7116466E
:1054E0009D1E6A7E2F7E12023A434A71120A8A7109
:1054F0005A7E1B7E12021A433271120A72716A7F3F
:105500002B7F12021A434A72120A8A727D214902C3
:1055100008F026FCB220E0750020F8BD0120F8BD9F
:1055200030B509222C210A544168002926D01522C1
:105530008A700246FF32A4321346547D127D240243
:105540001443CC70CA1C240AFF300C71A230447E74
:10555000057E24022C434C71240A8C715C7E1D7ED6
:1055600023022B43CB711B0A5371427F037F10022E
:1055700018434872000A8872002030BD012030BDF7
:1055800010B5FFF79BFC002807D001462031CA79EF
:10559000022A02D1CA7D442A01D0022010BD06226F
:1055A0006030C2774620C875002010BDF8B50E46A1
:1055B000FFF784FC040004D025462035E879022852
:1055C00001D00120F8BDE87D442821D12046FF30DC
:1055D00015301022314600900CF034F900210F26CE
:1055E000701A62180019FF32FF3001320130137D4A
:1055F000077D491C1775C9B203750829F0D32246E7
:105600002046DE32E630009908F0F0FB5020E875C5
:105610000020F8BD70B5FFF76BFC050013D0FFF755
:105620004DFC040011D0204604212030817101215D
:10563000C171B021C1740021C175204608F0F2FF8C
:105640002046FFF7D1FD284670BD002070BD000048
:10565000F8B50546FF3005302E462F466036E03758
:105660002C4620340090BAE0C42802D0C22873D05F
:10567000B3E05D48C178C9076FD00021C1702846EA
:1056800007F08AFE284603F0A3F9012866D1607C62
:10569000002802D1E07AC00660D5307F80075DD453
:1056A000284608F0D9FD207B03F018FBB87D800761
:1056B0000ED5207B00280BD07A210120009A08F01B
:1056C000B3FB002808D003F01FFAB020E074F8BD47
:1056D00046485A2100680165207B4549C0004018B2
:1056E00002F0FEFE80B203F0A3FBC220E074207B38
:1056F0003A2872D93F4802683F4881688902890E7A
:105700003E29FAD08168090CC94389060DD0816809
:105710008902890E332903D28168090C8906ECD1EC
:1057200003F0F2F9B020E07457E03021314BC94367
:10573000803319608168090CC9438906FAD08168F1
:105740008902890E302904D381688902890E3329A0
:10575000F0D32848026040E01EE017E0707F400769
:105760000CD57A210120009A08F05EFB03F0CCF9F9
:105770003D212846FFF7AAFAF077F8BD03F0C4F9F7
:10578000B020E074284609F0A7F926E081790129C4
:1057900023D100218171C3E713488178C90719D04B
:1057A000B87DC0070BD02A46FF320D327921002088
:1057B00008F030FB002806D003F0A6F903E00B4800
:1057C000592100680165C420E0747420405B03F037
:1057D0002FFB02E081790029DBD103F03DFBE07C67
:1057E000B02800D040E7F8BDF85400200C4300205A
:1057F0001202000000E100E000C2004070B5044663
:10580000FF202D3002F06CFE254640356886802052
:10581000005D298B4008401C081802F043FE064634
:1058200002F0AEFB17498019884201D34942401863
:105830002066688B02F036FEE0662046FF30C430FA
:10584000417B027B0802104302F04AFE698E490048
:105850004018A8860C4844620C4802F01FFF002143
:105860007F200155204608F0EDF9E88B0005010C7A
:10587000204608F069FAA08C0122802100F03AFC51
:1058800070BD00000000C0A8785500201044002022
:1058900010B50146203101220C460A7341680029E7
:1058A00009D00A228A707D21490208F059FA722033
:1058B000E075002010BD012010BD014601222031FD
:1058C0000A734068002805D00B2282707420C875C6
:1058D0000020704701207047014610B52031012398
:1058E0000A460B734168002909D012238B70A2214C
:1058F000D1757D21490208F033FA002010BD012046
:1059000010BD01222C210A544068002803D0132125
:1059100081700020704701207047000070B50C4670
:105920000146200412D508460CF082F805000AD082
:105930002878802801D0812802D1284600F078F804
:1059400028460CF053F80120C00369E0600703D536
:10595000FFF77CF8042063E0200705D5FEF7CCFEB6
:1059600020460821484070BDE00603D5FEF744FFFD
:10597000102055E0200603D500F04EFE80204FE0B9
:10598000600603D500F00AFE402049E0E00506D598
:1059900000F0A0FD002837D1FF20013040E02005B5
:1059A00004D5FFF73FFD0120C00239E0600504D5B2
:1059B000FFF7FAFC0120800232E0E00406D5FFF791
:1059C00093FC002820D10120000329E0A004164DFB
:1059D00000281BDA1548006B002801D0FEF786FD71
:1059E000114880384078C0070ED00F48032210308D
:1059F0004178491D1143405CC00602D42889401CEF
:105A00002881287900F0D8FA204670BD600409D5B5
:105A1000EB79AA796979287901F076FA0120800377
:105A2000604070BD002070BD78550020B05400204B
:105A3000F0B5017800268DB0802902D081297DD073
:105A400034E2FF4C417825468035062977D006DCC4
:105A50000B0002F071FE061138F2F1F0EFEE0929A9
:105A60006ED004DC07296CD00829E9D1EFE1812947
:105A700068D08229E4D107E14088FFF71FFA0400CB
:105A80007ED0A06900281AD0036882790179A08CA1
:105A90009B1CFEF739F8A0698168A16101F03EFB0B
:105AA00021464031888A002801D0401E8882A069A2
:105AB000002805D0A08C0022802100F01BFB5AE2B8
:105AC0002034667257E24088FFF7F8F90700D7D014
:105AD0002720C05D022839D0ED69002DD0D0607E2E
