:020000040000FA
:100000000080002099020000A1020000A30200006D
:1000100000000000000000000000000000000000E0
:10002000000000000000000000000000A30200002B
:100030000000000000000000A5020000A702000070
:10004000A9020000A9020000A9020000A902000004
:1000500085190000C9220000A9020000A9020000C1
:10006000A9020000A9020000A9020000A9020000E4
:10007000150F0000A9020000A9020000A90200005B
:10008000A9020000A9020000A9020000A9020000C4
:100090000348854601F03EFA004800475702000039
:1000A00000800020F8B507460D460120C003284017
:1000B00000284AD0384608F0A7FB0446002C3FD061
:1000C0002078C02837D126463446F078C007C00FC4
:1000D00000282FD04248007800281AD141480078E3
:1000E000401C4049087001203D4908707D235B0198
:1000F0001E22FF2100F0A5FF3A4800784207520F68
:1001000015231421002001F0C5FB37A005F006FAE5
:100110000BE00020324908700021012000F051FF5F
:1001200001F09AFB36A005F0F9F901213848007872
:1001300008F02EFD00E000BF00BF204608F042FBA3
:1001400028460121C9034840F8BDE807C00F002830
:1001500035D023480078002821D122480078401C5F
:100160002049087001201E4908707D235B011E2272
:10017000FF2100F066FF1B4800784207520F15234D
:100180001421002001F086FB7D221202012120486B
:10019000007808F0B5FC1FA005F0C0F90BE00020C6
:1001A0000F4908700021012000F00BFF01F054FB03
:1001B0001CA005F0B3F9284601214840C4E70020FF
:1001C000C2E710B5044612480470007801F0C5F883
:1001D0007D22D20001210E48007808F091FC10BD6C
:1001E0000140002002400020286B65792974657366
:1001F00074207374617274202E2E2E0A0000000089
:10020000202020286B657929656E64210A00000092
:100210000040002074657374207374617274202E22
:100220002E2E0A00202020656E64210A00000000A6
:1002300010B500242046641C05F0D0F82046641C4C
:1002400000F0DCFD2046641C02F0CEFC2046641C5D
:10025000FFF7B7FF10BD0D48806A0121490208432E
:100260000A49886203210120400200F0EBFA00F005
:10027000D0FC074907A005F051F900F01DFDFFF77C
:10028000D7FF01E005F0CCF8FCE70000801000404B
:10029000648C000025730A00044880470448004726
:1002A000FEE7FEE7FEE7FEE7FEE70000B50200001E
:1002B000910000005720FA490870A8200870882093
:1002C000F74940390881704700B5030005F04EF941
:1002D0000D081A2C37414C56606A75808B96A10028
:1002E0005721EF4A1170A8211170ED492039C97BBF
:1002F00004229143EA4A203AD173C821E84A403A9D
:10030000118187E05721E64A1170A8211170E44954
:100310002039C97B04221143E14A203AD173C82114
:10032000DF4A403A118175E05721DD4A1170A8215A
:1003300011705121C900DA4A403A11816AE057210F
:10034000D74A1170A8211170D649D54A403A118177
:1003500060E05721D24A1170A821117081218900D3
:10036000CF4A403A118155E05721CD4A1170A8215A
:1003700011708821CA4A403A11814BE05721C84A7E
:100380001170A82111700221C54A403A118141E043
:100390005721C34A1170A82111700421C04A403A64
:1003A000118137E05721BE4A1170A82111709321A5
:1003B0008900BB4A403A11812CE05721B84A11709C
:1003C000A8211170B7494D31B54A403A118121E059
:1003D0005721B34A1170A821117095218900B04AA4
:1003E000403A118116E05721AD4A1170A8211170D1
:1003F0004B21C900AA4A403A11810BE05721A84A73
:100400001170A8211170A7495C31A54A403A1181A9
:1004100000E000BF00BF00BD5721A14A1170A82114
:100420001170002808D19E4940390989521591431D
:100430009B4A403A118108E09949403909890122D3
:1004400052021143964A403A118170475721944A0B
:100450001170A8211170002808D191492039C97B59
:10046000042291438E4A203AD17307E08C49203907
:10047000C97B042211438A4A203AD1737047F8B5E8
:1004800004462246864E403E3689009686495726C7
:10049000834F3E70A8263E70824E814F403F3E8182
:1004A00057267F4F3E70A8263E700126BE747F4BB4
:1004B0004DE000BF7A4EB67C02273E40002EF9D0B8
:1004C000774E308A00BF764EB67C02273E40002E23
:1004D000F9D100BF724EB67C02273E40002EF9D003
:1004E0006F4E308A57266E4F3E70A8263E70884267
:1004F0000ADD6B4E203EB689B618694F203FBE819B
:100500001D46461AB3B209E0654E203EB689B61ABA
:10051000634F203FBE811D460E1AB3B29D4216DACC
:1005200057265F4F3E70A8263E70884207DD5C4E1E
:10053000203EB689B61A5A4F203FBE8106E0584E7B
:10054000203EB689B618564F203FBE8100E0B0E786
:1005500000BF5726524F3E70A8263E70504F403F76
:10056000009E3E8100264E4FBE74F8BDF0B50027B8
:100570000026002422E0781C87B225460320FFF7DE
:100580007EFF474820388489A54206DD281B0328C2
:1005900001DC012007E0002005E0601B032801DCEE
:1005A000012000E00020002802D0701C86B200E08C
:1005B0000026032E01DC052F00DD00E0DBE700BF95
:1005C000002722E0781C87B225460120FFF757FF5D
:1005D000334820388489A54206DD281B012801DC28
:1005E000012007E0002005E0601B012801DC01205C
:1005F00000E00020002802D0701C86B200E0002637
:10060000022E01DC052F00DD00E0DBE700BFF0BDBE
:10061000F7B584B00D4614461821049800F0F0FE9A
:1006200080B203901821049800F0EAFEE120C00097
:1006300041431E2068430818E10F0919491040186A
:1006400087B20194E007C00F002802D00120C00348
:1006500000E0002002903E463104029801430E461D
:1006600057200F490870A82008700D494039039899
:1006700048630B482038407C8021084308492039D2
:1006800048740748403846630846407C4021084388
:1006900003492039487400200149087007B0F0BDB3
:1006A0004010004002020000C4090000FFFF0000EB
:1006B000F0B585B004460D4616466048C06B800410
:1006C000800C03905D482030408B02905B482030C6
:1006D000008B0190029841000122D20301989042C0
:1006E00001DB012000E000200F18E121090138465C
:1006F00000F086FE01461822039850430818206037
:10070000E1210901384600F07BFE00913C21009870
:1007100000F076FE28803C21384600F071FE3180E2
:1007200005B0F0BD5721454A40321170A821117023
:100730004249486341492031497C402211433F4AA4
:1007400020325174704700BF3C49886B896B8142ED
:10075000FAD170475721394A40321170A8211170DF
:1007600036492031497C17229143344A2032517452
:100770001146497C102202431143304A2032517401
:10078000704700B50346FFF7DEFFC21890B200289D
:1007900002D00120000412182948824200D3121A04
:1007A0005720264940310870A8200870234842632A
:1007B00022482030407C20210843204920314874C1
:1007C00000BD014600200022002A01D02022104353
:1007D000CA07D20F002A01D0102210435722174B0C
:1007E00040331A70A8221A70144A2032527C824375
:1007F000124B20335A7470470146002905D10F4827
:100800002030007C8022104070470C482030007C53
:1008100040221040F8E7002802D001280AD104E065
:100820002021064A2032117405E01021034A2032AB
:10083000117400E000BF00BF7047000000100040CE
:100840000000C0A800B50B0004F090FE05041220C3
:100850002E3842009B4A526B82439A4B5A631A4687
:10086000126B82431A631A46126A82431A6230E09C
:10087000944A526B8243934B5A631A46126B02435B
:100880001A631A46126A82431A6222E08D4A526B38
:1008900002438C4B5A631A46126B82431A631A4600
:1008A000126A82431A6214E0864A526B8243854B75
:1008B0005A631A46126A02431A620AE0814A526B6C
:1008C0000243804B5A631A46126A02431A6200E0DE
:1008D00000BF00BF00BD00B50B0004F047FE0504DB
:1008E000142434404C00774A403252698243754B9D
:1008F00040335A611A46126982431A611A461268D5
:1009000082431A6038E06F4A4032526982436D4B2D
:1009100040335A611A46126902431A611A46126834
:1009200082431A6028E0674A403252690243654BAD
:1009300040335A611A46126982431A611A46126894
:1009400082431A6018E05F4A4032526982435D4B2D
:1009500040335A611A46126802431A600CE0594A41
:10096000403252690243574B40335A611A4612686B
:1009700002431A6000E000BF00BF00BD002906D09E
:1009800001290ED0022916D0032928D11DE04D4A95
:10099000928A82434B4B9A821A46D26A0243DA62A7
:1009A0001EE0484A928A8243464B9A821A46926ACD
:1009B00002439A6214E0434A928A0243414B9A826C
:1009C0001A46D26A0243DA620AE03E4A928A024337
:1009D0003C4B9A821A46926A02439A6200E000BF38
:1009E00000BF384B98831A46128A02431A82704716
:1009F000002906D0012911D002291CD0032934D1A5
:100A000026E0304AD28A82432E4BDA822D4A403287
:100A1000D26802432B4B4033DA6027E0294AD28A5E
:100A20008243284BDA82274A403292680243254BA0
:100A300040339A601AE0234AD28A0243214BDA8279
:100A4000204A4032D26802431E4B4033DA600DE048
:100A50001C4AD28A02431B4BDA821A4A40329268FD
:100A60000243184B40339A6000E000BF00BF154BB3
:100A7000D8831A46528A02435A827047002807D008
:100A8000104A803A128B0A430E4B803B1A8306E0D1
:100A90000C4A803A128B8A430A4B803B1A83704778
:100AA000002807D0074A803A528B8A43054B803B87
:100AB0005A8306E0034A803A528B0A43014B803B3B
:100AC0005A837047801000400146062904D14548EA
:100AD00000780822104070474248407901228A403D
:100AE0001040F8E757203F490870A82008700846D2
:100AF0008079012108433B49887170473A49096868
:100B000001600021C943384A80321160704736497C
:100B1000086070473548806970475721314A117025
:100B2000A8211170002806D1114689790422914329
:100B30002C4A917105E02B49897904221143294AF5
:100B400091710021274A117070475721254A117071
:100B5000A8211170002806D11146897902229143FB
:100B6000204A917105E01F498979022211431D4AEB
:100B7000917100211B4A1170704757201949087064
:100B8000A82008700846807910210843154988710B
:100B900000200870704710B500210AE0022201E031
:100BA00000BF00BF1346541EA2B2002BF8D14B1C4D
:100BB00099B28142F2DB10BD30B50446002505E054
:100BC0007D20C000FFF7E7FF681C85B2A542F7DB78
:100BD00030BD00BF064AD27A082AFBD0044B1872F7
:100BE000704700004010004000E100E000E000E03D
:100BF0000034004070B5044621462D4800F000FC4A
:100C000005460A21681D00F0FBFB054629498D8138
:100C100070BD10B5E1204002FFF7ECFF87202549A9
:100C200088700320C870402048700120887310BD70
:100C300020498978C0229143820111431D4A917055
:100C4000704700280BD01B4A52780A43194B5A7040
:100C50001A46127808231A43164B1A7004E0154AF4
:100C600052788A43134B5A7070478020114948705C
:100C7000704710B50A4609E00E4BDB7A082B05D009
:100C800003780C4C2372401C531E9AB2002AF3D1F5
:100C900010BD0146002005E0064A127A0A70491C80
:100CA000421C90B2034A927A002AF5D170470000A4
:100CB000005A62020034004030B593B0122271A194
:100CC000754807F0ACFC002804D174A004F026FCA1
:100CD00000BFFEE7572076490870A8200870512011
:100CE000C0007349403908810020714908704822CA
:100CF000002101A807F04AFD6E4801900120000381
:100D000002906D4803900198002804D00121090346
:100D10000298884201D200BFFEE701A800F058FE09
:100D2000C5B2002D04D065A004F0F8FB00BFFEE7BB
:100D3000674C601E411C884200D90DE0601E654969
:100D400048610F210020C04300F064F80020614991
:100D500088610720086100BF5E480069022188435E
:100D60005C4908615C4804F055FB13B030BD70B5B8
:100D700006460C460120C003204000280DD0304616
:100D800007F042FD0546002D02D0284607F01AFD67
:100D900020460121C903484070BDE007C00F00286C
:100DA00005D000F0B3F9204601214840F4E70220C5
:100DB000204000280BD000F0DEFA484800780028D8
:100DC00005D1A02202214648007807F099FE0120B3
:100DD0008003204000280FD042A004F09FFB7D221A
:100DE000D201012189033E48007807F089FE2046A0
:100DF000012189034840CFE70020CDE710B5044624
:100E00003748047000F08EF800F069F900F08AFAB3
:100E100062B610BD10B5002819DA334A03071B0F5C
:100E2000083B9B089B00D2588307DC0EFF23A3409E
:100E30009A430B071B0E8407E40EA3401A432A4B68
:100E40000407240F083CA408A4001A5118E0274AFC
:100E500003231B02D21883089B00D2588307DC0EA1
:100E6000FF23A3409A430B071B0E8407E40EA34005
:100E70001A431E4B032424021B198408A4001A5190
:100E800010BD000043483537785F424C455F4C4900
:100E9000425F56312E320000648C00006865616448
:100EA0002066696C65206572726F722E2E2E0A00A4
:100EB00040100040CC40002000EE03004C4942208E
:100EC000696E6974206572726F722E2E2E0A000090
:100ED000FFFFFF0000E000E0150B000020400020B5
:100EE000154000202A2000001CED00E000E100E099
:100EF00081B2002902D00121090440185721164A65
:100F00001170A82111701449403948630021134A17
:100F100011607047302010492039087401200F49B2
:100F20000860704710B557200B490870A82008705A
:100F300009482038C07B0721084307492039C87376
:100F4000002005490870002211461046FFF760FB9B
:100F500004F0A6FA10BD0000401000401840002028
:100F6000C207D20F002A0DD0012905D1C54A9268C7
:100F70008A43C44B9A6005E0C24A926801231A432F
:100F8000C04B9A6002220240002A00D000BF042217
:100F90000240002A00D000BF08220240002A00D0F0
:100FA00000BF002905D0B84A12780243B64B1A7028
:100FB00006E0FF224240B44B1B781A40B24B1A7035
:100FC0007047F8B505460E46330004F0CFFA09170E
:100FD0001606360E3636361836007D23DB0005221F
:100FE0000121284600F02DF828E07D23DB000522B2
:100FF0003221284600F025F820E000BF00BF01277D
:101000002D072D0FA14C15E02846384000280ED0A2
:10101000082E01D0267003E020780121484020707E
:1010200021783846FFF79CFF284678400546780629
:10103000070E0C34002DE7D100E000BF00BF0020F8
:10104000F8BDFFB581B005461746002D41D0002FF1
:101050003FD0049800283CD0642F35DA01262D07B4
:101060002D0F8A4C27E028463040002820D03046FB
:1010700085490978084086490978084384490870F9
:10108000002020700498A080A770029860700298D9
:10109000002803D1207804210843207004F08EF941
:1010A000A060207802210843207028467040054641
:1010B0007006060E0C34002DD5D100220121754892
:1010C000007807F01DFD08E001212846FFF779FFB1
:1010D00003E000212846FFF774FF05B0F0BD10B50E
:1010E00068480068012108436649086000210F2014
:1010F000FFF767FF7D235B011E220A210120FFF716
:10110000A0FF002161482030017410BDFEB500270A
:1011100001250F2001905D4C20462030007C0028E6
:101120007ED178E001982840002871D020780221F3
:101130000840002869D004F041F90646A168B14290
:1011400056D82078C007C00F00281FD0A07864218F
:10115000081AC0B202902078400840002070002198
:101160002846FFF7FDFE207804210840002816D10C
:101170006078FF2802D06078401E60706078002898
:101180000DD1207802214840207008E0A07802901C
:1011900020780121084320702846FFF7E1FE2078DF
:1011A0000221084000280CD0A188029A5143084629
:1011B000642100F025F980B2009000983018A060FA
:1011C0001AE000200090324800782840002801D022
:1011D000012000E0002001462846FFF7F2FE2846E5
:1011E000FF2148402A49097808402949087003E04E
:1011F0002089801B80B20090002F05D00098002825
:1012000003D00098B84200DA009F0198684001902E
:101210006806050E0C340198002883D1002F00E0E9
:1012200006E005D03A4601211A48007807F068FC2C
:10123000FEBD15480078704700B5012113482030E5
:1012400001740020144908700846007808700846A8
:101250000078087008460078087008460078087022
:1012600000210F20FFF77CFE00BD10B501210A48C8
:101270000078FFF775FEFFF749FF00210348203093
:10128000017410BDC01000401C400020CC50002054
:101290001E400020154000201D40002070B505466E
:1012A0000E464F480078FF2810D0042007F076FA49
:1012B0000446002C08D0C0202070A670E57021469E
:1012C0004748007807F0D8FA002070BD0120FCE7FD
:1012D00070B504460D4629462046FFF7DFFF00287B
:1012E00000D000BF70BD70B505460C463D48057086
:1012F0003D4804603B480078002809D03B4800780E
:1013000001280BD102213A48007807F041FC05E0A2
:10131000642202213648007807F0F2FB01203349AD
:10132000087070BD10B50020324908702E49086061
:101330002E490870304800680121890588432E49EC
:101340000860084600690121890508432A490861A7
:101350002A490020FFF7C7FF10BD214908707047D8
:10136000002025494968012292051140002901D138
:1013700001210843704710B500241F48406801212F
:1013800089050840002801D1012004431548007850
:10139000002806D117480078844200D110BD1548B6
:1013A0000470002C08D010480068002804D00021E8
:1013B00020460D4A1268904700BFEFE700207047B3
:1013C00010B50024002C05D019220221084800780D
:1013D00007F096FB10BD704700B5FFF7C1FF00BDD9
:1013E00021400020204000202440002023400020F5
:1013F0001540002022400020C0100040D112000003
:1014000030B50B46014600202022012409E00D469C
:10141000D5409D4205D31D469540491B2546954024
:1014200040191546521E002DF1DC30BD70B5002468
:101430002546002801DA01244042002901DA01256D
:101440004942FFF7DDFFAC4200D04042002C00D003
:10145000494270BDF0B51FB486B0002000900190E5
:1014600002900698069980B204900798090C02042D
:101470000014114307900027089D099806913E46E5
:101480003C4603900398A9B20204000C0390049810
:101490002D0C154348430021224600F018F8C719C7
:1014A000714110340E46402CECDB3846029A00F0B5
:1014B0000EF8009A019B8018009059410298019102
:1014C000103002904028CCDB00980BB0F0BD10B576
:1014D000202A04DB0146203A9140002010BD9140B3
:1014E00020239C1A0346E3401943904010BD034655
:1014F0000B439B0703D009E008C9121F08C0042A48
:10150000FAD203E00B780370401C491C521EF9D23A
:1015100070470000064C0125064E05E0E36807CC45
:101520002B430C3C98471034B442F7D3FEF7B4FD7C
:10153000788C0000988C0000F0B5504C23681D6832
:101540000626B5431D60467805783602AD198678C3
:10155000C77836043F06F619AD199D6246790579BC
:101560003602AD198679C77936043F06F619AD19EA
:10157000DD62467A057A3602AD19867AC77A360474
:101580003F06F619AD191D63467B057B3602AD1982
:10159000867BC07B360400063018281858634D78C7
:1015A00008782D0240198D78CE782D043606AD19B5
:1015B000401998614D7908792D0240198D79CE79BD
:1015C0002D043606AD194019D8614D7A087A2D02DE
:1015D00040198D7ACE7A2D043606AD19401918625D
:1015E0004D7B087B2D0240198D7BC97B2D0409069C
:1015F0006918401858625868022188435860586832
:1016000001252843586018682843186058688007E7
:10161000FCD55868884358609869107020688069C4
:10162000000A507020688069000C90702068806902
:10163000000ED0702068C1691171C169090A517129
:10164000C169090C9171C169090ED171016A1172E8
:10165000016A090A5172016A090C9172016A090E44
:10166000D172416A1173416A090A5173416A090CC6
:101670009173406A000ED0730020F0BD7C400020C2
:10168000024901480860704700C300407C400020C8
:1016900030B5264B1968C90517D5032119600121FA
:1016A0000825491C1C68C9B22C431C6006E01C6854
:1016B000A40508D4491CC9B2202904D81C68E40533
:1016C000F5D50029EDD10021196019491368096881
:1016D0000B6152684A61174A13688B615368CB618A
:1016E00093680B62D2684A62124B10331A688A629E
:1016F0005C68CC629C680C63DB684B630D4B2033E9
:101700001C688C605B68CB600B682024C007A34317
:10171000800E03430B600868402318430860886A02
:10172000904201D0012030BD002030BD80C3004078
:101730007C400020885B0020F0B5454B00241B68EE
:101740001C601C615C618578C4782D026419457841
:1017500006782D043606AD1965193E4CAE46E56097
:101760008679C5793602AD194679077936043F0680
:10177000F619AD19A560AC46867AC57A3602AD1960
:10178000467A077A36043F06F619AD196560877BFD
:10179000C67B3F02F619477B007B3F0400063818E2
:1017A000301820609861DD6165461D6275465D6296
:1017B0004C780878240200198C78CD7824042D0602
:1017C000641906192348B446103006604D790C7927
:1017D0002D0264198D79CE792D043606AD1965195F
:1017E00045604E7A0C7A3602A4198E7ACF7A360486
:1017F0003F06F619A41984604F7B0E7B3F02F61951
:101800008F7BC97B3F040906791871186646C16051
:101810009E62DD621C63596351781078090240189A
:101820009178D4780904240609190A4C4018203408
:101830002060557911792D0249199579D2792D04B5
:101840001206AA18891861609860D960F0BD00007E
:101850007C400020885B002038B500A8013002F0F1
:10186000CBFC694608706A460321084800F0A5F9D8
:10187000074C01216078490307F08AF9012160785B
:10188000890307F085F9002038BD00001D20000005
:1018900054400020F8B51D4616460C46074600F099
:1018A00085FD144800210181077144718671C5715D
:1018B0002B4632462146384602F0ACFC6946087099
:1018C0006A4601210C4800F078F9252C01D8012244
:1018D00008E0732C01D8022204E0C12C01D80322B5
:1018E00000E00422054801214078890307F0FCF854
:1018F0000020F8BD405200201E200000544000206F
:101900000849074848600A78FF2A01D125220A7051
:10191000D1B2054A114301600449C1627047000019
:1019200000C100408040002080220801384E0100A4
:1019300030B58006094A800E094C107021684D6848
:10194000FF2301339D434D600649084351680860F9
:10195000206841681943416030BD0000804000208C
:10196000904000208022080180060449800E087003
:10197000034A496810430860704700008040002017
:10198000C0220801024900204968886370470000AE
:101990008040002010B5FFF773FE00F0DFF800F084
:1019A00019FC02F003FDFFF7ABFF084C5D20216836
:1019B000086502F0C7FD03F0E3FB02F08BFD02F0C7
:1019C0005DFD21680020086510BD00008C400020EE
:1019D00030B50446482200213A4806F0D7FE206878
:1019E00000280BD0374D28606068002808D0686058
:1019F000A068A860E068002804D005E0012030BDA0
:101A0000022030BD01204002E86020690121002849
:101A100004D028616069002802D002E02961F9E75A
:101A20001B206861A069002800D10A20A861E06934
:101A3000002810D0E861206A00280ED08006800EB1
:101A40002862E06B00280AD0E863606A002808D0AA
:101A5000E96B401807E0E961EDE71520F0E71E208B
:101A6000F2E7E86B46306862A06A002800D0A862FE
:101A7000E06A00280AD0E862206B002800D02863C2
:101A80003920005D8009022802D008E00420F2E736
:101A90000C48214606223431343006F0CEFD216C4C
:101AA000002907D0606C002804D0800002D529648A
:101AB000606C03E0044800782864044868640020EF
:101AC00030BD000078510020144000200440002068
:101AD00070B500200E210B4B0124A4035A88154633
:101AE0002540CD405204120C0543E8B25604D50BF4
:101AF000F60F75401543491EC9B25D800629EDD821
:101B000070BD00009440002070B5002008210A4BF1
:101B10004C011A8815462540CD4005435200E8B2D5
:101B2000550A56097540ED07ED0F1543491E090684
:101B30001D80090EEDD170BD9440002000220AE006
:101B4000022101E000BF00BF0B46491E89B2002BF5
:101B5000F8D1521C92B28242F2D370470949084828
:101B600008600949CA680261426109698161C1610D
:101B7000826841140A438260C2680A43C2607047A7
:101B800000C0004088400020405200200246FD2056
:101B900008498C234B723F231B039A4205D24A60AB
:101BA000A6200872887A402250404A7A73231A404D
:101BB0004A72704700180040704710B500F070F886
:101BC00010BD10B500F08CF810BD10B500F09CF8F9
:101BD00010BD10B500F0B8F810BD10B500F0CEF88B
:101BE00010BD7CB5069C079DC0B20195009400F025
:101BF000DBF87CBDF0B585B084460AA8F1C804972F
:101C00006F4671C7604600F0FFF805B0F0BD38B50B
:101C1000049C009400F030F938BD38B5049C009461
:101C200000F048F938BD7CB5069C079DC0B201950F
:101C3000009400F05DF97CBDFFB587B094468E46F8
:101C400010A8F7C806976F4677C76246714607988F
:101C500000F084F90BB0F0BD10B500F0D1F910BD63
:101C600010B500F0E9F910BD10B500F003FA10BD91
:101C700010B500F01BFA10BD38B5049C009400F0BC
:101C800033FA38BD10B500F04DFA10BD38B5049CDC
:101C9000009400F05FFA38BD10B500F077FA10BD7F
:101CA000F8B50746084616460D460C3006F076FD98
:101CB000040011D0912020700E206070A570204685
:101CC000A7800C302A463146A06006F0B6FC0348D7
:101CD0002146807806F0D0FDF8BD0000AC40002021
:101CE00010B50446032006F059FD010008D09120EC
:101CF00008701A20487003488C70807806F0BCFD8C
:101D000010BD0000AC40002070B5064614460D46DC
:101D1000082006F043FD01000ED091200870052038
:101D200048708E708D8005488C71807806F0A4FD17
:101D300003480449007E087070BD0000AC400020DC
:101D400078510020B540002070B5064614460D4677
:101D5000082006F023FD01000CD0922008703E20E0
:101D60004870082088708D808E710348CC7140794E
:101D700006F082FD70BD0000AC40002070B5054645
:101D80000C46062006F00AFD010009D091200870DB
:101D9000302048708D7003488C80807806F06CFD90
:101DA00070BD0000AC400020FFB581B01E460F465C
:101DB000312006F0F3FC040022D0912020703E2058
:101DC00060700220A0700120E070204608300546B7
:101DD0006060019828706F700622A81C039906F0B5
:101DE0002CFC2E722846324609300A9906F025FC52
:101DF00020350B98287203482146807806F03CFD78
:101E000005B0F0BDAC400020FFB5074681B01D46CF
:101E10001646162006F0C2FC040029D0912020703E
:101E20003E2060700120A070002F08D03120E070AB
:101E3000204606220021083006F0A8FC07E000201A
:101E4000E0702046062208300A9906F0F6FB029858
:101E5000A080A671E5710B98E0810C9820820D9806
:101E600060820E98207503482146807806F004FDB4
:101E700005B0F0BDAC400020F8B507461C4615463D
:101E80000E460C2006F08AFC01000FD0912008704D
:101E90003E20487003208870CF708E80CD800C81EA
:101EA000069848810248807806F0E6FCF8BD0000FC
:101EB000AC400020F8B507461C4615460E460E20DD
:101EC00006F06CFC01000FD0912008703E20487095
:101ED000072088708F80CE800D814C810698888184
:101EE0000248807806F0C8FCF8BD0000AC40002035
:101EF000FFB581B01F46182006F050FC050028D021
:101F0000912028703E2068700B20A87001202C467C
:101F10000834E87000266C600198207002986070A8
:101F20000622A01C039906F088FB27722046062291
:101F300009300A9906F081FB0B98E073761CE8786B
:101F4000F6B21034B042E7D803482946807806F04C
:101F500093FC05B0F0BD0000AC400020FFB581B09F
:101F60001D4616460F46222006F018FC040042D0FB
:101F7000912020703E2060700A20A07001980028F7
:101F800014D03120E070204606220021083006F0EF
:101F9000FDFB2046062200210E3006F0F7FB20460E
:101FA00006220021143006F0F1FB13E00020E0705F
:101FB0002046062208300A9906F03FFB20460622FA
:101FC0000E300B9906F039FB2046062214300C998E
:101FD00006F033FBA780A671E5710D9860830E981B
:101FE000A0830F98E08320211098085503482146CC
:101FF000807806F041FC05B0F0BD0000AC40002048
:1020000070B505460E46262006F0C8FB040010D029
:10201000912020703E2060700920A070A5802022B1
:102020003146A01D06F009FB02482146807806F0E3
:1020300023FC70BDAC400020F8B5064615460F469F
:10204000102006F0ABFB040011D0922020703E203F
:1020500060700520A070A68008223946A01D06F0F9
:10206000ECFA0348E5814079214606F005FCF8BD0D
:10207000AC40002070B505460E46462006F08EFBAB
:10208000040010D0912020703E2060700820A070C5
:10209000A58040223146A01D06F0CFFA0248214615
:1020A000807806F0E9FB70BDAC400020F8B506462C
:1020B00017460D460E2006F071FB040011D0922049
:1020C00020703E2060700420A070E670A580082279
:1020D0003946A01D06F0B1FA02482146807806F084
:1020E000CBFBF8BDAC400020F8B507461C461546B2
:1020F0000E460E2006F052FB01000FD09120087012
:102100003E204870062088708F80CE800D814C81E3
:10211000069888810248807806F0AEFBF8BD000082
:10212000AC40002070B514460D46082006F036FB82
:1021300001000BD090200870132048700120887097
:102140008D800348CC80407806F096FB70BD00007F
:10215000AC400020F8B507461C4615460E460C203C
:1021600006F01CFB01000DD0912008700C20487077
:102170008F708E808D710C8106984881024880781E
:1021800006F07AFBF8BD0000AC400020FFB5074622
:1021900081B015460E460C2006F000FB040014D05A
:1021A00090202070FF20607067802671E5804821B4
:1021B000284606F04FFAA0602A46049906F03DFA38
:1021C00003482146407806F057FB05B0F0BD0000FB
:1021D000AC40002010B5114900204871114C104846
:1021E00020600A22DE21002000F020F86422322143
:1021F000012000F01BF864223221022000F016F8C2
:102200000A22DE21032000F011F8206841681F2215
:10221000114341600449C16010BD0000C05100205D
:1022200000C200408C4000201F03000010B5254B69
:1022300020241B68002809D0012816D0022823D0AA
:10224000032830D0042800D1996510BD18692043B7
:1022500018611869A0431861596198692043986111
:102260009869A0439861DA6110BD186A204318622A
:10227000186AA04318625962986A20439862986A63
:10228000A0439862DA6210BD186B20431863186B84
:10229000A04318635963986B20439863986BA043DD
:1022A0009863DA6310BD186C20431864186CA0435F
:1022B00018645964986C20439864986CA04398649F
:1022C000DA6410BD8C400020FCB535480068816898
:1022D0005A278B07012500223249002B0DDA83682B
:1022E0000224A34383604368DB0703D14B79FD24B9
:1022F00023404B71CD708A7007658368DB070CD073
:1023000083685B085B0083600A704D704368DB077D
:1023100003D14B795B085B004B718368DB051AD5F1
:102320008368FF240134A34383600B785B060DD5DB
:102330001D4EB36B0093B36B0193019C009BA342B2
:10234000F7D11C46174B80331B6A9C660B782B43D6
:102350000B704A70076583689B0508D58368012464
:102360006402A34383608B782B438B70CA708368AD
:10237000DB0604D583681024A34383604A71836815
:102380005B0704D583680424A34383604A71836890
:102390001B0704D583680824A34383604A71FCBDEE
:1023A0008C400020C051002000100040034800680D
:1023B0004168490849004160704700008C40002096
:1023C0000A4A10B51046D16C403001760B0A4376AC
:1023D000090C8176916CC1760A0A0277090C417763
:1023E00003F044FD03F0F6FC10BD0000C0510020D6
:1023F00070B51848174A44695569607B2721203514
:10240000252802D0262822D01EE06879820715D51B
:10241000262060730021FF20913000BF491C8142BB
:10242000FBD3204603F00EFF687940070CD50A481D
:10243000228C4078082106F063FB05E0400703D5B5
:102440006173204603F0FEFE00F012F870BD68795B
:10245000F4E70000405200205440002010B500F086
:10246000A7F882228021002001F056FA10BD00005A
:10247000F8B5464892250646803E44697EE0952898
:102480000DD0932828D0942858D096287AD1B078A7
:10249000C0076ED09120607403F0EEF96CE0F07824
:1024A000C00713D00027F770224616323946A068BD
:1024B00003F0E1F83071002801D0377104E02046C4
:1024C00003F0C4FD002857D06574E5E7B079012812
:1024D00052D10020B071F7E7274620377879C1073D
:1024E00001D0252006E0810701D5262002E0400723
:1024F00001D527206073228C002A04D024480821AB
:10250000407806F0FDFA3879012804D00A2101202C
:1025100003F007F9E083E08BA18B42181C480421EB
:10252000407806F0EDFA00207D21C90000BF401C74
:102530008842FBD3204603F085FE1DE0B078C0073B
:1025400011D0A07B010705D00007000F012801D0A2
:102550000628B9D1952060740E4802F0CFFE80B2F3
:1025600003F01EFB08E0B0790128ADD004E009E0DB
:10257000FFE7B079012806D003F026FB607C9328A2
:1025800000D37CE7F8BD0020B07183E74052002003
:10259000544000203A03000010B50448446904F098
:1025A0007FF893206074FFF763FF10BD4052002056
:1025B00010B50B48446903F05FF90020A074207344
:1025C0006074084C0421607806F0E2FA6078082113
:1025D00006F0DEFA6078102106F0DAFA10BD00008D
:1025E000405200205440002070B506460821203695
:1025F00031734468002C17D0054676218035095A7E
:102600002A8A89180A31A9860121A170014605226A
:10261000AF31E01C06F011F8A88E2072000A60723B
:102620002220F075002070BD012070BD0146806839
:102630002031CA7A007853070007DB0FC00F8342AE
:1026400004D104204240CA72002070470120704724
:10265000014680682031CA7A007813074007DB0FF3
:10266000C00F834204D008204240CA720020704745
:1026700001207047C11DF931CA68521CCA6002D1DD
:102680000A69521C0A610A7C120603D50122CA603B
:1026900000220A61E030017E8A0702D5042211433C
:1026A0000176704770B51D4D04462868002801D09A
:1026B00001F078FEE068002806D08168E160F7E765
:1026C0008168A16101F06EFEA0690028F8D1606800
:1026D000002801D001F066FE696A0020A14203D102
:1026E000686202F0F5FE03E02862002002F0F6FEC8
:1026F0008120005DFF2801D006F030FA2546E03544
:10270000687EFF2801D006F029FAA87EFF2801D0B4
:1027100006F024FAA08C00F0D5F870BD40520020DD
:1027200070B5044680690D46002804D0A08C0022B4
:10273000802101F0F1F85620005B002804D0A08C25
:102740001322812101F0E8F8A08C0522812101F0FB
:10275000E3F8204600212030C171C1756034A577AF
:10276000084670BDC11DF9314A68521C4A6002D149
:102770008A68521C8A600A7A120603D501224A60CE
:1027800000228A60F821095C89070BD576210A5A54
:102790000146C031CB8FD2188A870122816C920208
:1027A000914381647047F8B505462E4618202036BF
:1027B00030736868002828D00F212C46817080343F
:1027C000A18CC170090A0171E18C4171090A817102
:1027D0006189C171090A0172A1894172090A817274
:1027E000217DC172E18A0173090A417329460C22D5
:1027F00098310E3005F021FF7D214902284603F073
:10280000E1FE9220F0750020F8BD0120F8BD70B502
:1028100001460C461820203420734868002822D036
:102820000B461022827080339A8CC270120A027199
:10283000DA8C4271120A82715A89C271120A0272CA
:102840009A894272120A82721A7DC272DA8A0273FD
:10285000120A42730C220E30983105F0EEFE9720DA
:10286000E075002070BD012070BD10B502460C213E
:10287000203211734168002922D076231B5A803000
:10288000048A1B19DB1DC38100238B704379CB7035
:10289000C3880B711B0A4B7103898B711B0ACB71A7
:1028A00043890B721B0A4B7283898B721B0ACB7292
:1028B000C0890873000A48731220D075002010BD2B
:1028C000012010BD70B5114C0246A06A00210346DC
:1028D00018E0FF25D9352D5A954211D1002904D091
:1028E000E26A824204D1E16204E01968A16201E077
:1028F00002680A6001F056FDE16A0020086070BDC0
:10290000014600680028E4D170BD0000405200205C
:1029100001460648806A05E0FF22D932125A8A42EF
:1029200002D000680028F7D1704700004052002014
:1029300010B508220021024805F028FF10BD000054
:102940006852002070B5FF25DD351021284605F0BE
:1029500081FE04462A46002105F018FF002C0BD00A
:102960001A4A956A002D09D0D06AFF30C130018B18
:102970002846491C89B209E0002070BD01210AE007
:10298000FF23D9331B5A8B4203D000680028F7D1AC
:1029900001E00028ECD12046FF30C130018300293E
:1029A0000ED0002D10D0D16A0C600021D4622160BD
:1029B000008BA084204620308171C174A08C70BD32
:1029C000204601F0EFFCF9E79462EEE74052002068
:1029D00070B506461721203604463173406800283A
:1029E00028D003218170054621460822B931C01C38
:1029F00005F023FE2046C1304178007809020143EA
:102A0000E972090A2973214628460822C3310D308C
:102A100005F013FE214628460422CB31153005F07F
:102A20000CFE7D214902204603F0CCFD4220F075CA
:102A3000002070BD012070BD70B506460D21203606
:102A4000044631734068002813D005460420A8705E
:102A500021460822D231E81C05F0EFFD2146284628
:102A60000422DA310B3005F0E8FD4420F075002037
:102A700070BD012070BD70B50546092120350446A2
:102A800029734068002812D0082181700A46214627
:102A90006068FF319531C01C05F0CFFD7D214902F2
:102AA000204603F08FFD6220E875002070BD0120F4
:102AB00070BD014610B5203109230A460B734168E9
:102AC000002912D08B70D1794368012908D00146C2
:102AD0000822FF319D31D81C05F0AFFD002010BD4C
:102AE00001460822FF319531F5E7012010BD10B5F0
:102AF0000179C906C90E0024017122462146435CB2
:102B0000002B02D0521CD2B21C46022A08D2491C09
:102B1000C9B20529F3D3002A04D0601E044201D0B3
:102B2000012010BD002010BDFEB500252C4604215B
:102B30002A0E2402431814432A0240331D7B491EE7
:102B4000154349B20029F3DA0146203100914030A3
:102B5000497D407C0818C7B2252F01D3253FFFB21D
:102B600000983A46477501200021FEF7B0FC284046
:102B70002140084302D000980775FEBD002006469C
:102B80000190324601200021FEF7A1FC284021409F
:102B9000084303D00198401CC0B20190761C76B265
:102BA000252EEEDB38460199FEF72AFC00273E462B
:102BB0000191324601200021FEF789FC2840214086
:102BC000084307D00198874202D100980675FEBDE0
:102BD0007F1C7FB2761C76B2252EEADBFEBD00217B
:102BE000203041757047000070B53549C0224870EB
:102BF0000021344805F0CAFD3349487E0C4680095F
:102C0000203C022809D0314A0020231815782033AF
:102C1000401C521C1D750628F7D3487D8A7D000292
:102C2000120480180A7D2A4D8018264AD064087E36
:102C30004B7E00021B04C018C97D264B40189064CF
:102C400008209085D5851146138620318874938697
:102C5000C874D58613870846FF25203005740023E5
:102C600043748374C374037543758375C3750D70A2
:102C70004D708D70CD701F230B7101238B71A18A54
:102C8000D187CB0070330380418083801B20508725
:102C9000FF204930908710481146C03190620846A5
:102CA0004038C1600D49016103F0C2FCFFF740FEEE
:102CB00000F0CEFF01F056FB00F084FE70BD000076
:102CC00054400020C0510020985100200806040004
:102CD000D70700000380000000F91500805A00208B
:102CE00070B52B480546C469803D207DB12802D0CF
:102CF000B3281CD045E02878C00742D022463C3299
:102D00000021A06802F0B7FC002804D1204603F09F
:102D100077FE002835D002F0AFFD1E495920096822
:102D20000865E27B1C491D4802F028FD29E068780F
:102D3000002821D00020687002F09EFD00F0FEF80F
:102D4000FFF7E6FDE16AC163216B0164A18E802279
:102D500011540146E28E40310A83228F4A83628CED
:102D60008A83A28CCA833A22125D4A7400F0DAF98F
:102D7000204603F089FE04E0A879012801D1B120A2
:102D8000207502F021FF207DB328AED0C0B270BD07
:102D9000405200208C40002055555500D6BE898EEB
:102DA00010B51148C46903F07BFC207DBF2801D019
:102DB00002F062FDB120207525200C49E0730968FE
:102DC00059200865E27B0A490A4802F0D7FCE28AEA
:102DD000094C01216078C90205F092FE012160785A
:102DE000090305F003FE10BD405200208C40002076
:102DF00055555500D6BE898E5440002070B51748F1
:102E0000C469A07B00281AD0E07B0125144EED0296
:102E1000272815D202F030FDE07B1249401CE073F8
:102E2000096859200865E27B0F49104802F0A6FCAA
:102E3000B1202075E28A7078294605F061FE70BDE8
:102E400002F01AFDBF2020757078294605F0A0FE1B
:102E500001217078090305F09BFE70BD40520020EF
:102E6000544000208C40002055555500D6BE898E18
:102E7000F8B50446092120342173416800292BD07C
:102E800003461422FF338A70A4335A7D1E7D150237
:102E90003543CD702D0ACA1C0D7116469D1E6A7EE3
:102EA0002F7E12023A434A71120A8A715A7E1B7EA1
:102EB00012021A433271120A72716A7F2B7F120258
:102EC0001A434A72120A8A727D21490203F07AFB80
:102ED000B220E0750020F8BD0120F8BD30B5092210
:102EE0002C210A544168002926D015228A700246F6
:102EF000FF32A4321346547D127D24021443CC7059
:102F0000CA1C240AFF300C71A230447E057E2402C4
:102F10002C434C71240A8C715C7E1D7E23022B4352
:102F2000CB711B0A5371427F037F10021843487212
:102F3000000A8872002030BD012030BD70B5FFF757
:102F400001FD050013D0FFF7E3FC040011D020467B
:102F50000421203081710121C171B021C17400218F
:102F6000C175204603F090FF2046FFF738FE284643
:102F700070BD002070BD0000F8B50546FF3005307B
:102F80002E462F466036E0372C4620340090BAE0BB
:102F9000C42802D0C22873D0B3E05D48C178C90705
:102FA0006FD00021C170284602F028FE284602F0AA
:102FB000C7FB012866D1607C002802D1E07AC006F8
:102FC00060D5307F80075DD4284603F077FD207BF5
:102FD00002F03CFDB87D80070ED5207B00280BD089
:102FE0007A210120009A03F051FB002808D002F05A
:102FF00043FCB020E074F8BD46485A2100680165E2
:10300000207B4549C000401802F07EF980B202F0F2
:10301000C7FDC220E074207B3A2872D93F4802687D
:103020003F4881688902890E3E29FAD08168090CDF
:10303000C94389060DD081688902890E332903D2DC
:103040008168090C8906ECD102F016FCB020E0740E
:1030500057E03021314BC943803319608168090C36
:10306000C9438906FAD081688902890E302904D3C0
:1030700081688902890E3329F0D32848026040E034
:103080001EE017E0707F40070CD57A210120009ADE
:1030900003F0FCFA02F0F0FB3D212846FFF740FB6D
:1030A000F077F8BD02F0E8FBB020E074284604F0A9
:1030B00045F926E08179012923D100218171C3E7F7
:1030C00013488178C90719D0B87DC0070BD02A46AC
:1030D000FF320D327921002003F0CEFA002806D00D
:1030E00002F0CAFB03E00B48592100680165C420C7
:1030F000E0747420405B02F053FD02E08179002906
:10310000DBD102F061FDE07CB02800D040E7F8BDE3
:10311000C05100208C4000201202000000E100E0BD
:1031200000C2004070B50446FF202D3002F0ECF8DC
:103130002546403568868020005D298B4008401C6C
:10314000081802F0C3F8064602F05EF81749801925
:10315000884201D3494240182066688B02F0B6F8D5
:10316000E0662046FF30C430417B027B08021043FA
:1031700002F0CAF8698E49004018A8860C484462DB
:103180000C4802F0A5F900217F200155204603F0EC
:103190008BF9E88B0005010C204603F007FAA08CA0
:1031A0000122802100F0B8FB70BD00000000C0A823
:1031B00040520020A440002010B5014620310122D9
:1031C0000C460A734168002909D00A228A707D21C1
:1031D000490203F0F7F97220E075002010BD0120CC
:1031E00010BD0146012220310A734068002805D035
:1031F0000B2282707420C875002070470120704730
:10320000014610B5203101230A460B73416800299D
:1032100009D012238B70A221D1757D21490203F0C0
:10322000D1F9002010BD012010BD01222C210A542B
:103230004068002803D013218170002070470120CE
:103240007047000070B50C460146200412D50846B0
:1032500005F0DAFA05000AD02878802801D0812804
:1032600002D1284600F078F8284605F0ABFA012094
:10327000C00369E0600703D5FFF78EF9042063E01F
:10328000200705D5FFF7B4F820460821484070BD57
:10329000E00603D5FFF7E2F8102055E0200603D53D
:1032A00000F072FD80204FE0600603D500F03AFD8B
:1032B000402049E0E00506D500F0D0FC002837D1D9
:1032C000FF20013040E0200504D5FFF797FD0120E5
:1032D000C00239E0600504D5FFF762FD01208002DD
:1032E00032E0E00406D5FFF7FBFC002820D10120E6
:1032F000000329E0A004164D00281BDA1548006BD6
:10330000002801D0FEF7E0FF114880384078C00760
:103310000ED00F48032210304178491D1143405C04
:10332000C00602D42889401C2881287900F0B9FA07
:10333000204670BD600409D5EB79AA7969792879AE
:1033400000F068FF01208003604070BD002070BD68
:103350004052002078510020F0B5017800268DB051
:10336000802902D081297DD034E2FF4C4178254666
:103370008035062977D006DC0B0002F0F7F806113D
:1033800038F2F1F0EFEE09296ED004DC07296CD099
:103390000829E9D1EFE1812968D08229E4D107E148
:1033A0004088FFF7B5FA04007ED0A06900281AD043
:1033B000036882790179A08C9B1CFEF76DFCA069E3
:1033C0008168A16100F0EEFF21464031888A002823
:1033D00001D0401E8882A069002805D0A08C002260
:1033E000802100F099FA5AE22034667257E2408850
:1033F000FFF78EFA0700D7D02720C05D022839D00A
:10340000ED69002DD0D0607E800778D53E20405DEC
:10341000022875D00622002107A805F0B7F92C462E
:103420004034A07B02286CD00622002109A805F0B8
:10343000ADF92946062250310BA805F0FEF83846B2
:103440004030C18B828B408B05910492039006968D
:1034500009A807A90BAA009201910290B98CE37BFD
:10346000603704E0A3E14CE193E15FE18DE0F87F98
:103470000022AEE06D69002D96D0607E800741D5B8
:103480002C466034207B022814D00622002107A895
:1034900005F07CF9607F022813D3294606227E318D
:1034A00009A805F0CAF800E0EBE0A96E06220BA817
:1034B000091D0FE0294606226E3107A805F0BDF868
:1034C000E8E70622002109A805F060F9294606224E
:1034D0007E310BA805F0B1F838464030C37CC28B72
:1034E000818B408B03AD0FC509AA07A90BA86B46BA
:1034F00007C3B98C6037637FF87F012269E031E050
:1035000012E018E038464030C37CC28B818B408B80
:1035100001AC0FC428467E3000906035B98C60370E
:103520006B7FF87F012263E029460622403107A81D
:1035300005F083F873E729460622503109A805F003
:103540007CF8296E06220BA8091D05F076F8286E76
:103550000221C0780843E07371E73BE1BFE0A5E0DA
:1035600093E048E038464030C18B828B408B01901D
:103570002846503004960292039100904035B98C51
:103580006037EB7BF87F002232E0E869002878D0D2
:10359000818C428C038F039101465031029200913D
:1035A0000496019340300022C37B114602201FE0A5
:1035B00068690028EBD0617E89070DD50023059648
:1035C000069603960496009601961A4619463C20E4
:1035D0000296FEF731FB62E10146763100910196D9
:1035E0000296039660300496437D002211463C20EB
:1035F000FEF700FB53E1A869046B2EE02079002858
:103600000AD001280AD0022815D0062815D004288F
:1036100015D0012F03D013E0002711E00127A8697E
:10362000807E80070CD5237B002B09D0A07C8009ED
:1036300001281AD004E0032702E0022700E0042753
:10364000342108572146143101900091E37C6179BF
:10365000A21D78B2FEF7C5FA2468002CCED1A86965
:10366000817F00290ED0066319E1342108572146D5
:103670000D31019000916179A21D0120FEF7D3FA6E
:10368000EAE773E004F02CF909E14088FFF740F91C
:1036900000286BD0014680318A8900924B890A89C3
:1036A000818C6030C07FFEF7B2FAF8E04088FFF707
:1036B0002FF900285AD02721095C0229818C08D0D3
:1036C0007F22135C0246FF329D321846FEF7D0FA85
:1036D000E5E07F22135C0246FF329532F5E7408831
:1036E000FFF716F9002841D00146C1314A78097820
:1036F00012020A43838C0146B9311846FEF7B0FA2C
:10370000CDE04088FFF704F904002FD02046803038
:10371000818900914389C28C818CA08CFEF7ACFA20
:103720002034207E042108432076B8E04088FFF74B
:10373000EFF800281AD00146FF31C4314B7B0A460E
:103740000C7B1902214300910146FF31C2314B7BB2
:103750000C7B1B022343547C157C22022A434C7CA5
:103760000D7C2102294302E0C05100207CE0808CC6
:10377000FEF753FA93E04088FFF7CAF8002873D0A9
:10378000818CCAB20146FF3135311046FEF76CFA22
:1037900085E04088FFF7BCF800287BD07F210A5CD9
:1037A0000146FF3175311046FEF756FA77E0417851
:1037B0001A295AD008DC05290FD008291DD00C2958
:1037C0002DD0132906D13EE0302958D0572963D097
:1037D000FF2964D001200DB0F0BD4088FFF798F8B4
:1037E000040057D020466030827FA18CC07FFEF756
:1037F000ECF92046FEF756FF51E04088FFF788F8C5
:10380000002847D0F621095C002901D0012200E000
:103810000022818C6030C07FFEF7DBF93FE04088FA
:10382000FFF776F8002835D00146FF3181314A8E06
:1038300000920B8EFF21B0310A5C818C6030C07F1A
:10384000FEF724FA2BE04088FFF762F8002821D029
:1038500001464031CA8A0C46002A20D0818C0120C2
:10386000FEF710FAE6821AE014E04088FFF750F8FD
:1038700000280FD06030C07FFEF7A3F90FE040882A
:10388000FFF746F8002805D0818C6030C07FFEF736
:10389000A4F904E002209EE74088FEF78DF900209D
:1038A00099E710B5002803D00B2803D8401E06E086
:1038B00025200CE00C2804D0262804D8801EC0B295
:1038C00005E0262003E0272801D0122010BD01F0DA
:1038D000B1FF002010BD02222C210A5441680029AA
:1038E00007D00D228A707F21095C4068C1700020DA
:1038F00070470120704703232C2213544268002A8A
:1039000007D011239370D1706030C07F10710020F8
:10391000704701207047000070B5064614460D46FA
:10392000042004F03BFF010007D00D704C700448E8
:103930004E80407804F0A0FF70BD042070BD0000F0
:1039400054400020F7B50E4815466E46C46B0CE097
:1039500068464078E178884206D10622211DB01CD5
:1039600004F05DFE012804D0E46B002CF0D10020AF
:10397000FEBD204629461A3003F058FEFEBD000069
:1039800040520020F7B50E4815466E46C46B0CE059
:1039900068464078E178884206D10622211DB01C95
:1039A00004F03DFE012804D0E46B002CF0D100208F
:1039B000FEBD204629462A3003F038FEFEBD000039
:1039C0004052002010B50449002008762039C86311
:1039D000FEF7F6FC10BD00006052002070B50546F1
:1039E0000848C46B07E02046A91C1A3003F01EFEED
:1039F000012804D0E46B002CF5D1002070BD2046D6
:103A000070BD00004052002070B505460B48C46BE5
:103A10000DE06878E178C007C00F884206D1062221
:103A2000211DA81C04F0FBFD012804D0E46B002C30
:103A3000EFD1002070BD204670BD00004052002034
:103A400070B505460848C46B07E02046A91C2A301B
:103A500003F0ECFD012804D0E46B002CF5D100202C
:103A600070BD204670BD000040520020F8B581684E
:103A7000324C0A79CB7812021A43CD1C931FA34211
:103A800027D28C794E792402344319264B1CF60137
:103A9000B4421ED894421CD36F792E793F0237432B
:103AA000FF26F436BE46B74213D85F7A1E7A3F022D
:103AB00037431926F601BC46B7420AD87646761C2B
:103AC0005643FF00BE4204DACE7A002E03D0A6424F
:103AD00001D91E20F8BD002600960646403637461E
:103AE000768B964209D1A64207D1BC8B744504D18E
:103AF000FE8B664501D10124009404468034A284E3
:103B00005A791E7912023243E2846A792D791202BF
:103B10002A4362815A7A1B7A12021A43A281CA7A14
:103B2000A2824A7B0B7B12021A43E2820C2298305B
:103B30000E3104F082FD0098F8BD00007B0C0000FF
:103B4000F8B581680A79CD7813022B43264DCC1C39
:103B50009A1FAA4226D28D794E792D023543192615
:103B60004A1CF601B5421DD89D421BD367792679C0
:103B70003F023743FF26F436BC46B74212D8567A86
:103B8000177A36023E431927FF01BE420AD867461C
:103B90007F1C5F43F600B74204DCCE7A002E03D0D0
:103BA000AE4201D91E20F8BD05468035AB8453795D
:103BB00016791B023343EB84637924791B02234378
:103BC0006B81537A147A1A022243AA81CA7AAA8292
:103BD0004A7B0B7B12021A43EA820C2298300E3188
:103BE00004F02BFD0020F8BD7B0C000070B583684D
:103BF000DA1C197914460A02DD780146FF312A439E
:103C0000C1314A805A1C9B7915791B022B438B804A
:103C1000637924791B022343CB80537A147A1A02E6
:103C200022430A8102F0D7FB70BD8168FF22CB7866
:103C3000B03213544A790B791202FF301A438130A3
:103C40000286CA798B7911021943418670470000B8
:103C5000014800218161704740520020F8B52D488D
:103C6000982203468469803BD258217D59262A4FE9
:103C700018781532A42904D0A1291DD0A3293BD03E
:103C800044E0C00712D001250021A06801F0F3FC38
:103C9000002803D1204603F033FE054601F0ECFD79
:103CA000002D21D1204603F0EBFC1DE0987901287E
:103CB0002CD1A120207529E0C00727D001250021A3
:103CC000A06801F0D8FC002803D1204603F018FEBC
:103CD0000546280601D401F0CFFD680702D1204631
:103CE00003F0CEFC280611D438680665E27B0B4948
:103CF0000B4801F043FD09E05878002806D0A420C5
:103D0000207500209871142001F04AFF01F05CFF3B
:103D1000207DF8BD405200208C40002055555500B4
:103D2000D6BE898E70B51348134D84696878228C8D
:103D3000402104F0E5FEA28C6878802104F0E0FECA
:103D4000FF216878013104F051FE02F0A9FC252022
:103D5000E073207DAF2801D001F08EFD0749592086
:103D600009680865E27B0649064801F007FDA120C5
:103D7000207570BD40520020544000208C4000202F
:103D800055555500D6BE898E70B51248124D8469BE
:103D9000E07B27280CD2401CC0B2E073A121217522
:103DA00002F066FCA28C6878802104F0A9FE70BD48
:103DB00001F062FDAF2020756878802104F0E8FEF4
:103DC000E06A0028F3D0A08902228021FFF7A4FD39
:103DD00070BD0000405200205440002001460022E7
:103DE00020310A73CA7A0123920892001A43CA72D8
:103DF0004068002801D00020704701207047000073
:103E000070B5014620310A46097B114C491D114D00
:103E10008908E3682D6A8E009D51127A002A02D02B
:103E2000C268126800E04268491E20CA090420C323
:103E3000090CF9D1E26823301168090C09041160FA
:103E4000437AE268047A180220430143116070BD8E
:103E5000405200207851002070B5FEF773FD050038
:103E600013D0FEF755FD040011D020460421203068
:103E700081710221C171B021C1740121C175204637
:103E800004F01CF82046FEF7AAFE284670BD01206B
:103E900070BD70B505460921203504462973406878
:103EA000002812D00E21817021466068FF3108225F
:103EB0009D31C01C04F0C1FB7D214902204602F067
:103EC00081FB6220E875002070BD012070BD0000FC
:103ED000F8B505460746E0302E46403760362C469A
:103EE00020340090EAE0D12802D0D2287BD0E3E051
:103EF00075480078C00778D0284601F0EDFE2846C6
:103F000003F082FD207B02F0A9FB207B002810D06B
:103F10000098807D80070CD5EA1DFD327A210020B3
:103F200002F0B4FB002808D001F0A6FCB020E07439
:103F3000F8BD66485A2100680165207B3A2814D9EB
:103F400063480268634881688902890E162911D086
:103F500081688902890E1A2903D28168090C8906B1
:103F6000F1D101F089FCB020E074574801790029B3
:103F70000DD02CE03021564BC94380331960816845
:103F80008902890E1A29FAD351480260EDE70078B8
:103F900000061CD5696EA86E401A798E4A008242CE
:103FA00002D8A27A032A10D381420BD0814204D2D4
:103FB000411A286E01F0EEF803E0091A286E01F0AC
:103FC000FDF828660020A07201E0521CA272207B3E
:103FD0005521C000C900401801F093F980B201F0EA
:103FE000DFFDD22067E01EE0FFE737488179012935
:103FF00062D10021817101F03FFCB020E0743248B1
:104000000078000658D5788E398F4843143080B236
:104010003886E96ECA08904202D94803010C3986F5
:1040200002F03EFB48E02848417800293BD0607C04
:10403000002802D1E07AC00602D5307F40080AD0BD
:1040400001F01AFC707F400727D53D212846FEF776
:1040500067FBF077F8BD0098807DC00707D02A463F
:10406000FF320D327921012002F006FB03E01748F0
:10407000592100680165D120E0742846FF30C43022
:10408000417B027B08024B211043C900401801F01C
:1040900038F980B201F084FD0EE0B020E0742846CB
:1040A00004F0F2F808E08179012905D1002181713D
:1040B00001F0E2FBB020E07401F086FDE07CB02866
:1040C00000D010E7F8BD0000C05100208C40002057
:1040D00000E100E000C2004070B50446C06E01F08F
:1040E00017F925492546898D403540186886288B63
:1040F000401C01F0D3F8698E461A01F077F81F4989
:104100008019884201D3494240182066688B01F02B
:10411000C5F8E0662046FF30C430417B027B0802D0
:10412000104301F0EEF8698E49004018A8868020FF
:10413000005D01F0B3F8A98E00264018A88620463D
:10414000012120308176032181720D482E86046280
:104150000C4801F0C3F97F200655204602F0A4F96F
:10416000E88B0005010C204602F020FAA08C012209
:104170008021FFF7D1FB70BD785100200000C0A85E
:1041800040520020984000200146012220310A734D
:104190004068002805D0052282705220C875002092
:1041A0007047012070470146012220310A734068A0
:1041B000002805D0062282705420C8750020704760
:1041C0000120704710B50146203102220C460A73C7
:1041D000416800290DD08A707F22125CCA705E216E
:1041E000095A0905090C02F0EDF93220E0750020AA
:1041F00010BD072010BD000010B505490A7A0270F5
:104200000989090A417001F037FB002010BD000048
:1042100040520020FFB53C4C81B01646051E03D02D
:104220000B2D03D8451E06E025250AE00C2D04D0F1
:10423000262D04D8851EEDB203E0262501E0272DAA
:104240000FD1002E10D0012E19D0022E1AD0032E1D
:104250001BD0042E24D0052E25D0062E26D0072EC6
:1042600027D0122005B0F0BD002704E0FDF74CFC7C
:10427000E11988707F1C02988742F7DB1EE0F0216D
:10428000029A18E0AA21029A15E0002704E0FDF73F
:104290001FFCE11988707F1C02988742F7DB0DE054
:1042A000FF21029A07E00021029A04E00F21029AFE
:1042B00001E0029A5521A01C04F068FA3007000FB3
:1042C000207002986070029801F0C0FB0298049977
:1042D000401D80088000FF2908D021540021284675
:1042E00001F0BEFB08488C38C07804E0232121543B
:1042F0000121F4E700BF0028FCD003480C380189F5
:10430000491C01810020ADE74C52002002232C22E1
:1043100013544268002A05D0072393704068C17087
:104320000020704701207047024606212032117399
:104330004168002912D00C20094B8870988DC870F4
:10434000D88D0871000A4871188E8871000AC871EA
:10435000907D4006400E9075002070470720704702
:10436000C0510020024800214163018670470000CF
:104370004052002073B50A486D46446B0CE0694614
:1043800060784978884206D10622A91CA01C04F056
:1043900046F9012803D0A468002CF0D100207CBD90
:1043A0004052002010B504F093F910BD70B53249A9
:1043B000304808600921C9018162826C0721090720
:1043C00003238A435B07D2188264836C0F22120393
:1043D0000324934364031B198364836CC404234341
:1043E0008364C36C0C15A343C364436D80242343CF
:1043F0004365C36B934322029A18C263C36B0A11CD
:104400009343A4041B19C363C36B8404DB00DB0860
:104410001B19C363C36D0B43C365C36D0D122B43DF
:10442000C365C36D0E133343C365C36D9343C36547
:10443000C36AAB4365125B19C362C36A9343052227
:1044400012069A18C262C26A03231B031A43C2628D
:10445000C26A1B011A43C262026B12091201026393
:10446000026BF0239A430263026B8A4311190163C2
:1044700070BD000000D0004090400020144800684B
:10448000C268FF2101318A43C260826D0B029A43E8
:10449000826542681A43426082681A438260C26839
:1044A0000A43C26001468031CA68D205FCD500BF0C
:1044B00000BF00BFC968426809079A434260826D25
:1044C0000F23DB019A43490D0A43826570470000C0
:1044D0009040002010B51A480068016D01231B04AC
:1044E0009943016581685C0121438160C2681021A4
:1044F0000A43C260C2688A43C26000BF00BF00BFF7
:10450000C2680A43C260416801221203114341603C
:1045100001468031CA69D205FCD500BF00BF00BF8B
:10452000C969026DC906C90E1A430265026D5209B6
:1045300052010A4302658168A143816010BD0000F9
:1045400090400020F0B5FF4895B005686868FF21ED
:10455000013188436860A86A09018843A862E86A53
:1045600010218843E862A8684A031043A86068687D
:10457000084368606868400840006860A86BF24EB5
:104580000321304089034018A86368680122104362
:1045900068602C46803420694001C10F2069800189
:1045A000C00F0029F7D00028F5D020698306606984
:1045B0009B0EC003400E049068684008400068608D
:1045C000A86B6321304049024018A8636868104313
:1045D000686020694001C10F20698001C00F002977
:1045E000F7D00028F5D020698006800E1090606911
:1045F000C003400E01906868400840006860A86BE6
:104600003321304089024018A8636868104368600D
:1046100020694001C10F20698001C00F0029F7D037
:104620000028F5D020698006800E0E906069C003D6
:10463000400E07906868400840006860A86BE7215A
:10464000304009024018A863686810436860206918
:104650004001C10F20698001C00F0029F7D0002858
:10466000F5D020698006800E0B906069C003400E73
:1046700009906868400840006860A86BDD21304000
:1046800009024018A8636868104368602069400107
:10469000C10F20698001C00F0029F7D00028F5D094
:1046A00020698006800E0D906069C003400E139053
:1046B0006868400840006860A86BD3213040090258
:1046C0004018A86368681043686020694001C10F02
:1046D00020698001C00F0029F7D00028F5D020699B
:1046E0008006800E0A9060692721C003400E089062
:1046F0000A981E1A272070430396FCF797FE0007BE
:10470000216A000F0909090108432062262070432D
:104710002721FCF78BFE0007216A000EF027B94322
:1047200008432062252070432721FCF77FFE000705
:10473000226A000D39018A4310432062242070430D
:104740002721FCF773FE0007226A000C39028A4316
:1047500010432062232070432721FCF767FE0007E7
:10476000216A000B3A0391430843206222207043E0
:104770002721FCF75BFE0007216A000A3A049143F7
:1047800008432062700130182721FCF74FFE000714
:10479000216A00093A0591430843206270012721EC
:1047A000FCF744FE216A0007090109090843206259
:1047B0007001801B2721FCF739FE0007616A000F9A
:1047C00009090901084360621E2070432721FCF794
:1047D0002DFE0007616A000EB943084360621D2088
:1047E00070432721FCF722FE0007616A000D3A01A1
:1047F0009143084360621C2070432721FCF716FE9A
:104800000007616A000C3A029143084360621B2072
:1048100070432721FCF70AFE0007010B606A3A0388
:1048200090430143616210990A98081A06461A21BA
:1048300000904843FCF7FAFD0007616A000A3A0459
:104840009143084360623046192148431A21FCF71E
:10485000EDFD0007616A00093A0591430843606273
:104860003046182148431A21FCF7E0FD616A000731
:1048700009010909084360623046172148431A219B
:10488000FCF7D4FD0007A16A000F090909010843DC
:10489000A0623046162148431A21FCF7C7FD0007E5
:1048A000A16A000EB9430843A0623046152148436F
:1048B0001A21FCF7BBFD0007A16A000D3A019143E4
:1048C0000843A0623046142148431A21FCF7AEFD8C
:1048D0000007A26A010C380282431143A1623046EC
:1048E000132148431A21FCF7A1FD0007A26A000B1F
:1048F00039038A431043A0623046122148431A21EB
:10490000FCF794FD0007A26A010A380482431143B0
:10491000A162300130181A21FCF788FD0007A26A55
:10492000000939058A431043A06200981A2100014A
:10493000FCF77CFDA16A0007090109090843A06290
:10494000009803E090400020FF00FEFF0101081ADC
:104950001A21FCF76BFD0007E16A000F0909090144
:104960000843E06200980E2148431A21FCF75EFDDF
:104970000007E16A000EF02291430843E0620A99C1
:104980000E98461A0D2070430D210696FCF74EFD39
:104990000007010DE06A3A0190430143E1620C20F7
:1049A00070430D21FCF742FD0007E26A000C39025A
:1049B0008A431043E0620B2070430D21FCF736FD63
:1049C0000007E26A010B380382431143E1620A20C7
:1049D00070430D21FCF72AFD0007010AE06A3A0442
:1049E00090430143E162F00030180D21FCF71EFDF9
:1049F0000007E26A000939058A431043E062F000CB
:104A00000D21FCF713FDE16A0007090109090843BC
:104A1000E062F000801B0D21FCF708FD0007216B10
:104A2000000F0909090108432063062070430D2186
:104A3000FCF7FCFC0007226B000EF0218A431043B8
:104A40002063B00030180D21FCF7F0FC0007226B4A
:104A5000000D39018A4310432063B0000D21FCF79B
:104A6000E5FC0007226B010C3802824311432163ED
:104A7000700030180D21FCF7D9FC0007226B000BE9
:104A800039038A431043206370000D21FCF7CEFCEC
:104A90000007226B000A39048A4310432063304622
:104AA0000D21FCF7C3FC0007226B000939058A437E
:104AB00010432063206B0001000920630D990A98C0
:104AC000471A14213846FCF7B1FC0007616B000F50
:104AD000090909010843606378001421FCF7A6FC6A
:104AE0000007616B000EF022914308436063780079
:104AF00038181421FCF79AFC0007626B000D0F2197
:104B000009028A4310436063B8001421FCF78EFC4D
:104B10000007626B000C0F2109038A431043606396
:104B2000B80038181421FCF781FC0007626B010BF8
:104B30000F2000048243114361630620784314214F
:104B4000FCF774FC0007626B010A0F20000582432A
:104B500011436163F800C01B1421FCF767FC0007D8
:104B6000626B00090F2109068A4310436063F80055
:104B70001421FCF75BFC616B00070901090908437C
:104B80006063F80038181421FCF750FC0007A16B93
:104B9000000F090909010843A06338460A21484368
:104BA0001421FCF743FC0007A26B010EF0208243A6
:104BB0001143A16338460B2148431421FCF736FC0E
:104BC0000007A26B000D0F2109028A431043A06366
:104BD00038460C2148431421FCF728FC0007A26B3F
:104BE000000C0F2109038A431043A06338460D21AE
:104BF00048431421FCF71AFC0007A26B000B0F219D
:104C000009048A431043A06338460E214843142107
:104C1000FCF70CFC0007A26B010A0F200005824381
:104C20001143A1633801C01B1421FCF7FFFB0007EF
:104C3000A26B00090F2109068A431043A0633801C3
:104C40001421FCF7F3FBA16B0007090109090843D4
:104C5000A063380138181421FCF7E8FB0007E16B6A
:104C6000000F090909010843E0633846122148434F
:104C70001421FCF7DBFB0007E26B000EF0218A43F6
:104C80001043E0633846132148431421FCF7CEFB60
:104C90000007E26B010D0F20000282431143E16324
:104CA0000B990A98461A142070432821FCF7BEFB82
:104CB0000007E16B000C0F22120391430843E063ED
:104CC000152070432821FCF7B1FB0007E16B000BB6
:104CD0000F22120491430843E063162070432821F9
:104CE000FCF7A4FB0007E16B000A0F2212059143B9
:104CF0000843E063172070432821FCF797FB000767
:104D0000E26B00090F2109068A431043E063182073
:104D100070432821FCF78AFBE16B000709010909B0
:104D20000843E063192070432821FCF77FFB00074C
:104D3000216C000F09090901084320641A207043FF
:104D40002821FCF773FB0007226C000EF0218A4338
:104D5000104320641B2070432821FCF767FB0007E9
:104D6000226C000D0F2109028A43104320641C208D
:104D700070432821FCF75AFB0007216C000C0F221E
:104D800012039143084320641D2070432821FCF73F
:104D90004DFB0007226C000B0F2109048A431043CE
:104DA00020641E2070432821FCF740FB0007226C82
:104DB000000A0F2109058A43104320647001801BFB
:104DC0002821FCF733FB0007226C00090F2109069C
:104DD0008A431043206470012821FCF727FB216CD3
:104DE00000070901090908432064700130182821CF
:104DF000FCF71CFB0007616C000F0909090108435F
:104E000060643046222148432821FCF70FFB00074D
:104E1000626C000EF0218A43104360643046232107
:104E200048432821FCF702FB0007626C000D0F21AC
:104E300009028A43104360643046242148432821F4
:104E4000FCF7F4FA0007626C000C0F2109038A4397
:104E5000104360643046252148432821FCF7E6FAD8
:104E60000007626C000B0F2109048A431043606441
:104E70003046262148432821FCF7D8FA0007626C07
:104E8000000A0F2109058A43104360643046272138
:104E900048432821FCF7CAFA0007626C01090F2079
:104EA0000006824311436164304628214843FCF7E1
:104EB000BDFA616C000709010909084360643046C6
:104EC000292148432821FCF7B1FA0007A16C000F03
:104ED000090909010843A06430462A2148432821D2
:104EE000FCF7A4FA0007A26C000EF0218A431043DD
:104EF000A064099A08983146801A0A220290504309
:104F0000FCF794FA082108430007A16C000D0F225A
:104F1000120291430143A16402983146C2008018F5
:104F2000FCF784FA082108430007A16C000C0F224B
:104F3000120391430143A16402983146C000FCF77B
:104F400075FA082108430007A16C000B0F22120418
:104F500091430143A16402983146C200101AFCF744
:104F600065FA082108430007A16C000A0F22120508
:104F700091430143A1640298062231465043FCF755
:104F800055FA082108430007A16C00090F221206F8
:104F900091430143A164139A08983946861AB000D8
:104FA0003018FCF743FA08210843A16C00070901F7
:104FB00009090143A1643946B000FCF737FA08211A
:104FC00008430007E16C000F090909010143E1648E
:104FD000700039463018FCF729FA08210843000709
:104FE000E16C000EF02291430143E1643946700008
:104FF000FCF71CFA082108430007E16C000D0F22A2
:10500000120291430143E16439463046FCF70EFA3F
:10501000082108430007E16C000C0F2212039143A2
:105020000143E16400200699FCF700FA0007E16CF7
:10503000000B0F22120491430143E164089A079880
:105040000699861A3046FCF7F1F90007E16C000A70
:105050000F22120591430143E16470000699FCF7A9
:10506000E5F90007E16C00090F22120691430143A4
:10507000E164700030180699FCF7D8F9E16C00077C
:10508000090109090143E164089A01980099861A07
:10509000B000FCF7CBF90007216D000F09090901E9
:1050A00001432165B00030180099FCF7BFF90007F3
:1050B000216D000EF02291430143216506207043CB
:1050C0000099FCF7B3F90007216D000D0F221202C1
:1050D000914301432165089A04980399861AF000C8
:1050E000801BFCF7A3F90007216D000C0F221203AF
:1050F000914301432165F0000399FCF797F90007FC
:10510000216D000B0F221204914301432165F00031
:1051100030180399FCF78AF90007216D000A0F2265
:1051200012059143014321650A2070430399FCF75E
:105130007DF90007216D00090F22120691430143FA
:1051400021656968102081436960696849084900E0
:105150006960A96A02021143A962E96A0143E9622E
:10516000A86B81090A9889010143A963A86B7F2173
:1051700009068843089909060843A86315B0F0BDDD
:10518000034800684168FF220132114341607047C3
:105190009040002040180349884201D349424018FA
:1051A000704700000000C0A840180349884201D39E
:1051B00049424018704700000000C0A80246401A4B
:1051C0008A4201D201494018704700000000C0A87F
:1051D0000CB50548816B0091816B0191019A009992
:1051E0009142F7D108460CBD001000400CB50548AF
:1051F000816B0091816B0191019A00999142F7D1E5
:1052000008460CBD001000400CB50548816B0091AC
:10521000816B0191019A00999142F7D108460CBD2A
:10522000001000401CB51348816B0091816B019107
:10523000019A00999142F7D1084600F079F8009060
:1052400000200D4C0190E0680099884210D0814206
:1052500001D3081A0AE0401A0001000F08D00748DD
:1052600000F066F8E168401A009940180190E1608A
:1052700001981CBD001000405C4000200000C0A848
:10528000002908D0002A02D105E008C808C2491E3A
:10529000FBD200207047FD207047000010B509497F
:1052A000896A002902D02821484310BD064900F030
:1052B00045F901235B020022C01851418905800A8B
:1052C000084310BD78510020D7A3000010B509494C
:1052D000896A002902D02821484310BD064900F000
:1052E0002DF901235B020022C01851418905800A73
:1052F000084310BD78510020D7A300001F3040099B
:1053000070471F30400970471F3040097047000048
:105310000549896A002902D0FF30400A02E00349AA
:105320004018C00AC01C704778510020FF070000D9
:1053300010B50849896A002905D0074900F0FEF830
:105340008904800B04E0192100F0F8F8C905400A2F
:10535000084310BD785100203303000070B50C469F
:10536000090403D50120C003604070BD61041ED054
:10537000002632462146D140C90712D00D4909788E
:10538000081A0101081A80180B49C00045180120AD
:10539000904086B229686868884700202860686065
:1053A00002E0521C0F2AE5D32046704070BD002059
:1053B00070BD0000544000200051002010B5064C84
:1053C0006068002805D08047002802D0616A08186C
:1053D0006062606A10BD00002840002010B5002106
:1053E0000A4C4A1E2262224661622C321070A1626F
:1053F00003F0A4F906485421006C4004000C03F0AB
:1054000029F9206103F010FB10BD000028400020A6
:105410007851002001498860704700002840002032
:10542000F8B51C4CA069002804D00168002901D0FF
:1054300068468847E069002804D00168002901D047
:1054400068468847144F2269396C20784300D35A44
:10545000002B04D1401CC0B220708842F5D3C0B2EA
:10546000002581420ED94300D15AD5520B4B820000
:105470009A5890472278236951005E5A06435E523B
:10548000521C22702178386C884200D8257003F0B5
:105490001FFAF8BD28400020785100200440002069
:1054A00010B5064C6068002800D08047FFF7BAFEB0
:1054B000E060034800F006F810BD00005C400020EA
:1054C0002552000001494860704700002840002034
:1054D0000149886170470000284000200149C861E7
:1054E0007047000028400020F0B50346FD200A4C1C
:1054F0008C2565729A25402607E0636001CA20600A
:105500002572A07A704002D11B1D491EF5D2617A26
:10551000732211406172F0BD001800400FB410B545
:1055200003A9044B044A029800F03CF810BC08BCE4
:1055300004B01847D30B0000C8400020F8B5040C95
:105540008BB2264682B25E430D0C1046370C584390
:10555000360480190021794116466E43370C360413
:105560008019794126466E438919F8BD30B47446D6
:10557000641E2578641CAB4200D21D46635D5B004F
:10558000E31830BC184702E008C8121F08C1002AFF
:10559000FAD170477047002001E001C1121F002AB4
:1055A000FBD17047FFB581B00546002706E02528EE
:1055B0000AD0049A039990476D1C7F1C2878002814
:1055C000F5D1384605B0F0BD002269786D1C104653
:1055D0002E2913D1697804226D1C2A2909D1029938
:1055E0006D1C01C9029109E00A235843303808189C
:1055F0006D1C29780B46303B092BF5D92B78002BF5
:10560000DFD0632B07D0732B10D0049A1846039970
:1056100090477F1C2DE002996C460B782370091D82
:105620000291002161706E46012104E0029940C997
:1056300002910021C94352070AD5002400E0641CEE
:1056400084420DDA8C42FADB325D002AF7D107E0A2
:10565000002400E0641C8C42FCDB305D0028F9D1A2
:105660003F1904E03078049A761C03999047641E31
:10567000F8D26D1CA2E730B5437803245B1D2343A9
:10568000C45CE50601D5012030BDC90703D0210661
:1056900001D5022030BD002A24D0C0182038C17F97
:1056A000C843C0B20A291AD94B2801D9133815E0CA
:1056B000372801D9123811E02C2801D911380DE012
:1056C000242802D94008801D09E0212801D90C387E
:1056D00004E01E2801D90B3800E00A38C0B2C043EC
:1056E000401C1070002030BD70B50D46044603F01C
:1056F00067F92D1B02460023E9172846FBF7AAFE8F
:10570000081980B270BD70B50D46044603F058F913
:1057100000232D1B024628461946FBF79BFE08195D
:1057200070BD70B50D46044603F04AF92D1B0246C4
:105730000023E9172846FBF78DFE0819C0B270BD9B
:105740001CB574210C5A0B498A6B00928A6B01922A
:10575000019B009A9A42F7D11119074A914201D34D
:1057600052428918006E884201D800201CBD0120D9
:105770001CBD0000001000400000C0A8F8B5294F73
:10578000054678790C4680074AD1274800680068AA
:10579000800745D1254E3068C36A072109058B4330
:1057A000012149055918C162C36A072109068B43C3
:1057B000052109065918C1621046FCF7B9F81C48C2
:1057C0000068856005614460C46038468030C06808
:1057D000FF220168120291430160387801254008D8
:1057E0004000387078792843787100243068803020
:1057F0000069C0010BD53068C16A07221205114348
:10580000C162C26A072109068A43C26205E00A2012
:10581000FCF794F9641C082CE8DB03480068056079
:10582000F8BD0000C05100208C40002090400020B6
:105830008440002010B50B4C592122681165FCF7FB
:1058400093F80A480849006801610949C16009499B
:1058500000204870206841684908490041600121E2
:10586000016010BD8C4000202941767184400020E9
:1058700055555500C051002010B50E4908220E4C58
:105880004A712068036DDB08DB000365036813437E
:1058900003604879002809D000BF00BF0748006BAB
:1058A000002801D0FCF710FD00BF00BF00202168D8
:1058B000086510BDC05100208C40002078510020A8
:1058C000F8B55C4E054670790C4680077ED15A4883
:1058D00000680068800779D1584F3868C16A07238B
:1058E0001B05994301235B05C918C162C16A0723DF
:1058F0001B06994305231B06C918C1621046FCF715
:1059000017F84F480068856005614460C460B0784E
:10591000022540084000B07070792843707100265D
:10592000386880300069C0010BD53868C16A072229
:1059300012051143C162C26A072109068A43C26285
:105940000AE00A20FCF7FAF8761C082EE8D305E0F6
:105950000A20FCF7F3F8761C082EF9D339480168C1
:105960008968CA04D20C38493A2A05D90C68302211
:10597000354BD24380331A602F4A12681560006895
:105980008068C004C00C3A2852D900BF00BF00BFD5
:1059900000BF00BF00BF00BF00BF00BF00BF00BF0F
:1059A00000BF00BF00BF00BF00BF00BF00BF00BFFF
:1059B00000BF00BF00BF00BF00BF00BF00BF00BFEF
:1059C00000BF00BF00BF00BF00BF00E030E000BF6D
:1059D00000BF00BF00BF00BF00BF00BF00BF00BFCF
:1059E00000BF00BF00BF00BF00BF00BF00BF00BFBF
:1059F00000BF00BF00BF00BF00BF00BF00BF00BFAF
:105A000000BF00BF00BF00BF00BF00BF00BF00BF9E
:105A100000BF00BF00BF00BF00BF00BF00BF00BF8E
:105A200000BF00BF00BF00BF00BF00BF00BF0C60D1
:105A3000F8BD0000C05100208C40002090400020A4
:105A4000844000208840002000E100E0034909680C
:105A50008A68520B520302438A60704788400020D4
:105A6000F8B5484E727992077ED1474D2A6813687F
:105A70009B0779D15A231365444F002903D0FBF7C4
:105A800073FF434803E0FBF753FF4148C0433968C5
:105A9000886039683F4848600020F0702868416895
:105AA0004908490041603C4E306880683B4FC00463
:105AB000C00C3A2805D93C6830203849C0438031B1
:105AC00008605020FCF73AF8296802200860306826
:105AD0008068C004C00C3A2852D900BF00BF00BF84
