:020000040000FA
:1000000000800020050F00000D0F00000F0F000002
:1000100000000000000000000000000000000000E0
:100020000000000000000000000000000F0F0000B2
:100030000000000000000000110F0000130F00007E
:10004000150F0000150F0000150F0000150F000020
:10005000150F0000150F0000150F0000150F000010
:10006000150F0000150F0000150F0000150F000000
:10007000150F0000150F0000150F0000150F0000F0
:10008000150F0000150F0000150F0000150F0000E0
:100090000348854600F08AFF00480047CD00000075
:1000A0000080002010B52448806A012149020843DD
:1000B000214988620121080200F068FC0321012027
:1000C000400200F063FC00F0CAFE10BD142000F0F6
:1000D00099FEFFF7E7FF19A000F09CFF002403E062
:1000E0001D490C55601C84B2E01FFF38FA38F7D167
:1000F00000F06AF9002000F067F8174A0121490270
:10010000032000F0D3F8144A01214902002000F036
:1001100012F9002406E01048015D10A000F07AFFFB
:10012000601C84B2E01FFF38FA38F4D10DA000F053
:1001300071FF00BFFEE700008010004053504931BE
:1001400020466C6173682064656D6F207374617202
:1001500074202E2E2E0A0000044000202530327814
:1001600020000000646F6E650A00000010B5A94809
:10017000C06A08210843A749C862052000F0ADFD08
:1001800000F0BAFD0446A348806A08210843A1494B
:100190008862204610BD10B500BFFFF7E7FFC0071B
:1001A000C00FFAD110BD10B59A48C06A08210843A3
:1001B0009849C862062000F090FD9648806A0821A0
:1001C00008439449886210BD10B50446FFF7EBFF61
:1001D000FFF7E1FF8F48C06A082108438D49C862D4
:1001E000202000F07AFD2102080E00F076FD2104A7
:1001F000080E00F072FDE0B200F06FFD8548806AE5
:100200000821084383498862FFF7C5FF10BD10B578
:100210000446FFF7C8FFFFF7BEFF7E48C06A08210B
:1002200008437C49C862522000F057FD2102080EA5
:1002300000F053FD2104080E00F04FFDE0B200F085
:100240004CFD7448806A0821084372498862FFF7B0
:10025000A2FF10BDF8B504460E461746FFF7A3FFF0
:100260006C48C06A082108436A49C862022000F04D
:1002700034FD2102080E00F030FD2104080E00F0CC
:100280002CFDE0B200F029FD002504E0785D00F0CF
:1002900024FD681C85B2B542F8D15E48806A082109
:1002A00008435C498862FFF776FFF8BDF8B506465B
:1002B0000C461746F0B2FF2101310D1AAC4200DCAA
:1002C000254612E03A4629463046FFF7C3FFAC42C6
:1002D00000D10BE07F197619601B84B2FF2001303A
:1002E000844201DD054600E02546EBE700BFF8BD8E
:1002F00070B504460E4615464648C06A08210843B4
:100300004449C862032000F0E8FC2102080E00F016
:10031000E4FC2104080E00F0E0FCE0B200F0DDFC9B
:100320003146284600F018FD3A48806A0821084303
:100330003849886270BD70B504460E46154635488A
:10034000C06A082108433349C8620B2000F0C5FC8D
:100350002102080E00F0C1FC2104080E00F0BDFCD3
:10036000E0B200F0BAFC002000F0B7FC31462846AD
:1003700000F0F2FC2748806A08210843254988627A
:1003800070BD10B500242348C06A082108432149E4
:10039000C862902000F0A1FC002000F09EFC00202C
:1003A00000F09BFC002000F098FC00F0A5FC044647
:1003B000240200F0A1FC04431648806A0821084387
:1003C00014498862204610BD10B51248806A0B217E
:1003D00008431049886203210B2000F0D7FA0D482A
:1003E000806A042108430B4988620121042000F03F
:1003F000CDFA00F00DFC032000F02FFC042000F0EB
:100400001AFCFFF7BEFF0446214603A000F002FEDF
:1004100010BD00008010004069643A307825303407
:10042000780A00005720FC490870A820087088202E
:10043000F94940390881704700B5030000F0FAFD22
:100440000D081A2C37414C56606A75808B96A100B6
:100450005721F14A1170A8211170EF492039C97B49
:1004600004229143EC4A203AD173C821EA4A403A27
:10047000118187E05721E84A1170A8211170E649DF
:100480002039C97B04221143E34A203AD173C821A1
:10049000E14A403A118175E05721DF4A1170A821E5
:1004A00011705121C900DC4A403A11816AE057219C
:1004B000D94A1170A8211170D849D74A403A118100
:1004C00060E05721D44A1170A82111708121890060
:1004D000D14A403A118155E05721CF4A1170A821E5
:1004E00011708821CC4A403A11814BE05721CA4A09
:1004F0001170A82111700221C74A403A118141E0D0
:100500005721C54A1170A82111700421C24A403AEE
:10051000118137E05721C04A1170A8211170932131
:100520008900BD4A403A11812CE05721BA4A117026
:10053000A8211170B9494D31B74A403A118121E0E3
:100540005721B54A1170A821117095218900B24A2E
:10055000403A118116E05721AF4A1170A82111705D
:100560004B21C900AC4A403A11810BE05721AA4AFD
:100570001170A8211170A9495C31A74A403A118134
:1005800000E000BF00BF00BD5721A34A1170A821A1
:100590001170002808D1A0494039098952159143AA
:1005A0009D4A403A118108E09B494039098901225E
:1005B00052021143984A403A118170475721964A96
:1005C0001170A8211170002808D193492039C97BE6
:1005D00004229143904A203AD17307E08E49203992
:1005E000C97B042211438C4A203AD1737047F8B575
:1005F00004462246884E403E368900968849572652
:10060000854F3E70A8263E70844E834F403F3E810A
:100610005726814F3E70A8263E700126BE74814B3E
:100620004AE000BF7C4EB67C02273E42FAD07A4EAA
:10063000308A00BF784EB67C02273E42FAD100BF16
:10064000754EB67C02273E42FAD0734E308A57264A
:10065000714F3E70A8263E7088420ADD6E4E203EE5
:10066000B689B6186C4F203FBE811D46461AB3B2FC
:1006700009E0694E203EB689B61A674F203FBE8119
:100680001D460E1AB3B29D4216DA5726624F3E70CF
:10069000A8263E70884207DD5F4E203EB689B61A16
:1006A0005D4F203FBE8106E05B4E203EB689B61806
:1006B000594F203FBE8100E0B3E700BF5726564F99
:1006C0003E70A8263E70544F403F009E3E8100265B
:1006D000514FBE74F8BDF0B500270026002422E07B
:1006E000781C87B225460320FFF781FF4A4820384F
:1006F0008489A54206DD281B032801DC012007E0D0
:10070000002005E0601B032801DC012000E0002040
:10071000002802D0701C86B200E00026032E01DC07
:10072000052F00DD00E0DBE700BF002722E0781C9A
:1007300087B225460120FFF75AFF374820388489C1
:10074000A54206DD281B012801DC012007E000206E
:1007500005E0601B012801DC012000E000200028EA
:1007600002D0701C86B200E00026022E01DC052FAC
:1007700000DD00E0DBE700BFF0BDF0B585B004466A
:100780000E4615461821206800F0CAFB80B2029080
:100790001821206800F0C4FBE120C00041433088EC
:1007A0001E22504308182F88F90FC9194910401804
:1007B00080B201902878C007C00F02D00120C0038A
:1007C00000E0002000900198039003980104009835
:1007D00001430391572010490870A82008700E4962
:1007E0004039029848630C482038407C80210843F7
:1007F0000949203948740849403903984863064834
:100800002038407C402108430349203948740020A7
:100810000149087005B0F0BD401000400202000020
:10082000C4090000FFFF0000F0B585B004460D4686
:1008300016465448C06B8004800C03905148203009
:10084000408B02904F482030008B0190029841006D
:100850000122D2030198904201DB012000E0002038
:100860000F18E1210901384600F05AFB0146182211
:100870000398504308182060E1210901384600F030
:100880004FFB00913C21009800F04AFB28803C215E
:10089000384600F045FB318005B0F0BD5721394A9C
:1008A00040321170A8211170364948633549203112
:1008B000497C40221143334A2032517470473148F9
:1008C000816B806B884202D02E48806B704708464F
:1008D000FCE757212B4A40321170A8211170294999
:1008E0002031497C17229143264A20325174114607
:1008F000497C102202431143224A2032517470472E
:1009000000B50346FFF7DBFFC2181004000C02D04D
:100910000120000412181C48824200D3121A5720EA
:10092000184940310870A8200870164842631548DD
:100930002030407C2021084312492031487400BDFA
:100940000146002905D10F482030007C802210404C
:1009500070470C482030007C40221040F8E7002807
:1009600002D001280AD104E02021064A2032117465
:1009700005E01021034A2032117400E000BF00BFDF
:1009800070470000001000400000C0A800B50B0038
:1009900000F050FB050412202E3842009B4A526B97
:1009A00082439A4B5A631A46126B82431A631A4661
:1009B000126A82431A6230E0944A526B8243934B2C
:1009C0005A631A46126B02431A631A46126A82432A
:1009D0001A6222E08D4A526B02438C4B5A631A46CC
:1009E000126B82431A631A46126A82431A6214E037
:1009F000864A526B8243854B5A631A46126A0243F7
:100A00001A620AE0814A526B0243804B5A631A46CB
:100A1000126A02431A6200E000BF00BF00BD00B5C9
:100A20000B0000F007FB0504142434404C00774A07
:100A3000403252698243754B40335A611A461269FB
:100A400082431A611A46126882431A6038E06F4A7C
:100A50004032526982436D4B40335A611A461269E3
:100A600002431A611A46126882431A6028E0674AF4
:100A7000403252690243654B40335A611A4612694B
:100A800082431A611A46126882431A6018E05F4A6C
:100A90004032526982435D4B40335A611A461268B4
:100AA00002431A600CE0594A403252690243574BE4
:100AB00040335A611A46126802431A6000E000BFD0
:100AC00000BF00BD002906D001290ED0022916D092
:100AD000032928D11DE04D4A928A82434B4B9A82CA
:100AE0001A46D26A0243DA621EE0484A928A824378
:100AF000464B9A821A46926A02439A6214E0434A2B
:100B0000928A0243414B9A821A46D26A0243DA62BF
:100B10000AE03E4A928A02433C4B9A821A46926A03
:100B200002439A6200E000BF00BF384B98831A4628
:100B3000128A02431A827047002906D0012911D077
:100B400002291CD0032934D126E0304AD28A8243BC
:100B50002E4BDA822D4A4032D26802432B4B40336F
:100B6000DA6027E0294AD28A8243284BDA82274A70
:100B7000403292680243254B40339A601AE0234A80
:100B8000D28A0243214BDA82204A4032D2680243A1
:100B90001E4B4033DA600DE01C4AD28A02431B4BE5
:100BA000DA821A4A403292680243184B40339A6004
:100BB00000E000BF00BF154BD8831A46528A02439B
:100BC0005A827047002807D0104A803A128B0A4395
:100BD0000E4B803B1A8306E00C4A803A128B8A4304
:100BE0000A4B803B1A837047002807D0074A803A97
:100BF000528B0A43054B803B5A8306E0034A803AF6
:100C0000528B8A43014B803B5A83704780100040CF
:100C100004205E49C87002200870602008700846F1
:100C200040781021084359494870084640784008E8
:100C3000400048707047022806D154494978402244
:100C40001143524A517005E050494978402291437E
:100C50004E4A51704D49C8707047002806D001288F
:100C600011D002281CD0032834D126E04749097846
:100C700008229143454A11701146497820221143B8
:100C8000424A517027E041490978082291433F4A7E
:100C9000117011464978202291433C4A51701AE064
:100CA0003A49097808221143384A117011464978A7
:100CB00020221143354A51700DE034490978082249
:100CC0001143324A117011464978202291432F4A2C
:100CD000517000E000BF00BF70472C490978102216
:100CE00091432A4A11701146087100BF274989793A
:100CF00040221142FAD070472448007810218843DE
:100D000022490870FF20087100BF204880794021E7
:100D10000842FAD01D480079704710B50A461B4BAF
:100D20001B781024A343194C237023469A81012376
:100D3000A37109E0154BDB79082B05DA0378134C16
:100D40002374401C531E9AB2002AF3D100BF0F4BEC
:100D5000DB79002BFBD110BD10B50A460B4B1B787D
:100D600010242343094C2370234699810123A37146
:100D700009E0064BDB79002B05D0044B1B7C03708C
:100D8000401C531E9AB2002AF3D110BD004400400B
:100D90000146062904D126480078082210407047F1
:100DA0002348407901228A401040F8E75720204923
:100DB0000870A820087008468079012108431C4962
:100DC000887170471B49096801600021C943194AAD
:100DD0008032116070471749086070471648806973
:100DE000704710B500210AE0022201E000BF00BFF9
:100DF0001346541EA2B2002BF8D14B1C99B281426B
:100E0000F2DB10BD30B50446002505E07D20C000B2
:100E1000FFF7E7FF681C85B2A542F7DB30BD00BFD6
:100E2000064AD27A082AFBD0044B18727047000099
:100E30004010004000E100E000E000E0003400402D
:100E400070B5044621462D4800F06AF805460A218F
:100E5000681D00F065F8054629498D8170BD10B503
:100E6000E1204002FFF7ECFF87202549887003202E
:100E7000C870402048700120887310BD20498978CF
:100E8000C0229143820111431D4A9170704700288E
:100E90000BD01B4A52780A43194B5A701A461278E3
:100EA00008231A43164B1A7004E0154A52788A43F5
:100EB000134B5A707047802011494870704710B525
:100EC0000A4609E00E4BDB7A082B05D003780C4C60
:100ED0002372401C531E9AB2002AF3D110BD014662
:100EE000002005E0064A127A0A70491C421C90B2A2
:100EF000034A927A002AF5D170470000005A620234
:100F0000003400400448804704480047FEE7FEE7FD
:100F1000FEE7FEE7FEE70000250400009100000068
:100F200030B50B46014600202022012409E00D4681
:100F3000D5409D4205D31D469540491B2546954009
:100F400040191546521E002DF1DC30BDF0B51FB41E
:100F50000646002082B005464024019100901BE027
:100F6000019922460F46304600F042F8049A059B4C
:100F7000801A994110D310461946224600F028F8ED
:100F8000361A8F410197224601200021009F00F070
:100F90001FF838184D4100902046641E0028DFDC01
:100FA000019B00982946324607B0F0BD064C01254A
:100FB000064E05E02046E36807C82B4398471034E7
:100FC000B442F7D3FFF768F8EC1400000C150000EA
:100FD00010B5202A04DB0146203A9140002010BDC4
:100FE000914020239C1A0346E3401943904010BDD2
:100FF00010B5202A04DB0846203AD040002110BD5D
:101000000B46D340D0402024A21A914008431946F1
:1010100010BD00000FB410B503A9044B044A029898
:1010200000F026F810BC08BC04B018471F0E0000E2
:101030000040002030B47446641E2578641CAB4226
:1010400004D3635D5B00E31830BC18471D46F8E726
:1010500002E008C8121F08C1002AFAD17047704781
:10106000002001E001C1121F002AFBD170470000DF
:10107000FFB591B00F4605460026F9E0252876D148
:1010800000246D1CFB4A0094012102942B78084631
:10109000203B98400346134202D004436D1CF5E701
:1010A00028782A280ED0022128780246303A092AC8
:1010B00015D8009A0A235A43303A80180C436D1C05
:1010C0000090F1E701CF0090002805DA01204003ED
:1010D0000443009840420090022004436D1C28788D
:1010E0002E2815D1042004436D1C28782A280AD103
:1010F00001CF6D1C02900BE002990A225143303956
:1011000040186D1C02902878014630390929F3D91E
:1011100028786C2810D006DC4C281AD068280ED00D
:101120006A2817D104E0742813D07A2812D110E06D
:101130000120400504430CE00121090501E00321E1
:1011400009050C436978814203D101206D1C00051B
:1011500024186D1C287803906E281FD00DDC63289E
:1011600033D005DC00287DD0582812D1BEE010E035
:10117000642801D069280CD181E073282FD004DCC9
:101180006F2870D0702804D1B2E075286CD0782810
:101190006BD0149A13999047761C68E06002400F58
:1011A000022807D003280AD0042838680AD03F1D37
:1011B00006605CE001CFF1170660416057E001CFA7
:1011C000068054E03F1D067051E038786946087487
:1011D0000020487404A83F1D0390012003E001CFC4
:1011E00003900020C04361070FD5002101E0019961
:1011F000491C029A0191914213DA8142F7DB019A6C
:101200000399895C0029F2D10BE0002101E00199EA
:10121000491C01918142FADB019A0399895C0029FA
:10122000F5D101990098139A401A00902146149B19
:1012300000F046F901998019461807E003980399D0
:101240000078491C0391149A139990470198401E05
:101250000190401CF2D12146149B139A009800F093
:101260001FF903E008E04CE03EE03FE086196D1C0A
:101270002878002800D001E7304615B0F0BD0A20DC
:101280000021049005916002410F022905D001CF91
:10129000C2179446032907D009E0FF1DFF08FF008D
:1012A00079683868083706E000B2C2179446042906
:1012B00002D140B2C1178C4600226146944506DA3D
:1012C0000A460021404291418C462D2102E0210531
:1012D00004D52B216A461176012103E0E10701D0F4
:1012E0002021F7E7019150E00A200BE0102009E0EF
:1012F000102004900021042004430820059102904E
:1013000003E008200021059104906002410F0229AA
:1013100005D001CF00229446032908D008E0FF1D24
:10132000FF08FF007968386808378C4603E080B210
:10133000042900D1C0B200210191210725D50399CC
:1013400070292AD0049A1021059B4A401A4309D1DA
:101350006146014306D030216A46117603995176E1
:1013600002210191049A0821059B4A401A430CD19D
:101370006146014301D1610707D530216A461176E4
:10138000012101910299491E02910399582909D01E
:1013900039A103910FA90F9112E040216A461176FD
:1013A0000121DEE739A1F4E76146059B049AFFF7C6
:1013B000CDFD039B8C469B5C0F9A521E0F921370BF
:1013C00061460143F0D10F9807A9081A2030039015
:1013D000600704D5012000048443029801E0012045
:1013E00002900399884201DD401A00E00020411874
:1013F0000290019809180098401A0090E00306D462
:101400002146149B139A009800F05AF88619002080
:1014100007E006A9085C149A139990470498761C73
:10142000401C019904908842F3DBE0030CD521466F
:10143000149B139A009800F043F8861904E0149A5C
:10144000302013999047761C0299481E029000297B
:10145000F5DC08E00F980F990078491C0F91149A59
:1014600013999047761C0399481E03900029F1DCDC
:10147000F1E60000092801003031323334353637C7
:1014800038396162636465660000000030313233D0
:101490003435363738394142434445460000000070
:1014A000F8B5044600251E461746880404D405E016
:1014B00039462020B0476D1C641EF9D52846F8BD7A
:1014C000FFB50446002581B01E46C80301D530276C
:1014D00000E02027880404D505E038460399B0478A
:1014E0006D1C641EF9D5284605B0F0BD0C15000032
:1014F0000040002004000000501000001015000003
:101500000440002000020000601000000000000005
:040000050000009166
:00000001FF
