:020000040000FA
:1000000000800020AD050000B5050000B705000028
:1000100000000000000000000000000000000000E0
:10002000000000000000000000000000B705000014
:100030000000000000000000B9050000BB05000042
:10004000BD050000BD050000BD050000BD050000A8
:10005000BD050000BD050000BD050000BD05000098
:10006000BD050000BD050000BD050000BD05000088
:10007000BD050000BD050000BD050000BD05000078
:10008000BD050000BD050000BD050000BD05000068
:100090000348854600F0AEFA00480047A50000007E
:1000A000008000202A484068000A00022949097897
:1000B00008432749486008464068FF2109028843F1
:1000C00024494978090208432149486008464068A4
:1000D000FF21090488431F498978090408431C4902
:1000E0004860084640680002000A1A49C9780906B3
:1000F00008431749486008468068000A000215490D
:10010000097908431249886008468068FF2109027E
:10011000884310494979090208430D498860084617
:100120008068FF21090488430A4989790904084342
:1001300007498860084680680002000A0549C979B5
:10014000090608430249886000F02AFA00BFFEE76A
:1001500000600040340600005720FC490870A820C9
:1001600008708520F94940390881704700B557214A
:10017000F64A1170A8211170030000F04DFA0D0825
:100180001522272D33383D42484E545A6000EF491E
:100190002039C97B04229143EC4A203AD173C5210E
:1001A000EA4A403A11814BE0E8492039C97B0422F0
:1001B0001143E64A203AD173C521E44A403A1181FD
:1001C0003EE0E349E14A403A118139E0E0498339B0
:1001D000DE4A403A118133E081218900DB4A403A0E
:1001E00011812DE08521D94A403A118128E0022170
:1001F000D64A403A118123E00421D44A403A118181
:100200001EE093218900D14A403A118118E0D0497B
:100210003639CE4A403A118112E095218900CB4A05
:10022000403A11810CE04B21C900C84A403A118183
:1002300006E0C7492739C54A403A118100E000BFAE
:1002400000BF00BD5721C14A1170A82111700028BC
:1002500008D1BE494039098952159143BB4A403AF9
:10026000118108E0B949403909890122520211433C
:10027000B64A403A118170475721B44A1170A821FB
:100280001170002808D1B1494039098952159143AC
:10029000AE4A403A118108E0AC494039098901224F
:1002A00052021143A94A403A1181704770B5A74DD7
:1002B000403D2C89A7495725A44E3570A825357097
:1002C000A34D833DA14E403E358157259F4E35704D
:1002D000A82535700125B5749F4A4AE000BF9B4DA3
:1002E000AD7C02263542FAD0984D288A00BF974D42
:1002F000AD7C02263542FAD100BF944DAD7C02267A
:100300003542FAD0914D288A5725904E3570A82550
:10031000357088420ADD8D4D203DAD896D1C8B4EB8
:10032000203EB5811346451AAAB209E0874D203D0B
:10033000AD896D1E854E203EB58113460D1AAAB2B9
:10034000934216DA5725814E3570A82535708842BC
:1003500007DD7E4D203DAD896D1E7C4E203EB58172
:1003600006E07A4D203DAD896D1C784E203EB5816A
:1003700000E0B3E700BF5725744E3570A8253570EF
:10038000724D403D2C810025B57470BDF0B585B02F
:1003900004460E4615461821206800F015F980B273
:1003A00002901821206800F00FF9E120C0004143BD
:1003B00030881E22504308182F88F90FC919491098
:1003C000401880B201902878C007C00F02D00120E9
:1003D000C00300E0002000900198039003980104FE
:1003E000009801430391572058490870A8200870CD
:1003F000564940390298486354482038407C80214F
:100400000843524920394874504940390398486399
:100410004E482038407C402108434C4920394874DC
:1004200000204A49087005B0F0BDF0B585B004461B
:100430000D46164645484038C06B8004800C03903A
:1004400042482038408B029040482038008B019071
:10045000029841000122D2030198904201DB012061
:1004600000E000200F18E1210901384600F0ACF847
:10047000014618220398504308182060E121090121
:10048000384600F0A1F800913C21009800F09CF85B
:1004900028803C21384600F097F8318005B0F0BD47
:1004A00057212A4A1170A821117028494039486300
:1004B00026492039497C40221143244A203A51746C
:1004C0000021224A1170704720484038816B806BB0
:1004D000884203D01D484038806B70470846FCE7CF
:1004E00057211A4A1170A821117018492039497CE6
:1004F00017229143154A203A51741146497C102223
:1005000002431143114A203A5174704700B5034623
:10051000FFF7DAFFC2181004000C02D0012000041B
:1005200012180E48824200D3121A57200749087049
:10053000A820087005484038426304482038407CB1
:100540002021084301492039487400BD4010004073
:1005500085020000C4090000FFFF00000000C0A8E1
:100560000146002904D10D48007C802210407047CC
:100570000A48007C40221040F9E7002802D00128F8
:1005800008D103E02021054A117404E01021034A38
:10059000117400E000BF00BF704700002010004051
:1005A00057200149087070470060004004488047A8
:1005B00004480047FEE7FEE7FEE7FEE7FEE700002F
:1005C000590100009100000030B50B4601460020A3
:1005D0002022012409E00D46D5409D4205D31D4649
:1005E0009540491B2546954040191546521E002D41
:1005F000F1DC30BD064C0125064E05E02046E368DF
:1006000007C82B4398471034B442F7D3FFF744FD93
:10061000400600004006000030B47446641E257891
:10062000641CAB4204D3635D5B00E31830BC184725
:100630001D46F8E77D603E7A635B5F707F9B00003C
:040000050000009166
:00000001FF
