:020000040000FA
:10000000008000201D0900002509000027090000CC
:1000100000000000000000000000000000000000E0
:1000200000000000000000000000000027090000A0
:100030000000000000000000290900002B0900005A
:100040002D0900002D0900002D0900002D090000D8
:100050002D0900002D0900002D0900002D090000C8
:100060002D0900002D0900002D0900002D090000B8
:100070002D0900002D0900002D0900002D090000A8
:100080002D0900002D0900002D0900002D09000098
:100090000348854600F066FC00480047A5000000C4
:1000A000008000200321402000F070FA032180200E
:1000B00000F06CFA0321012000F0B1FA03210220C4
:1000C00000F0ADFA0321042000F0A9FA0321082072
:1000D00000F0A5FA03210120800300F0A0FA04201B
:1000E0001749C87000F094FB01231A4610211846E6
:1000F00000F0D9FB01231A461021022000F0D3FBA7
:1001000001231A461021042000F0CDFB01231A46DA
:100110001021082000F0C7FB01231A4610210846D1
:1001200000F0C1FB01231A461021202000F0BBFB88
:1001300001231A461021402000F0B5FB00BFFEE766
:10014000005000405720FC490870A8200870852006
:10015000F94940390881704700B55721F64A1170B6
:10016000A8211170030000F00FFC0D081522272DA7
:1001700033383D42484E545A6000EF492039C97B1C
:1001800004229143EC4A203AD173C521EA4A403A0D
:1001900011814BE0E8492039C97B04221143E64A2A
:1001A000203AD173C521E44A403A11813EE0E34947
:1001B000E14A403A118139E0E0498339DE4A403A68
:1001C000118133E081218900DB4A403A11812DE021
:1001D0008521D94A403A118128E00221D64A403A85
:1001E000118123E00421D44A403A11811EE0932179
:1001F0008900D14A403A118118E0D0493639CE4AB7
:10020000403A118112E095218900CB4A403A118190
:100210000CE04B21C900C84A403A118106E0C749A9
:100220002739C54A403A118100E000BF00BF00BD38
:100230005721C14A1170A8211170002808D1BE4968
:100240004039098952159143BB4A403A118108E06F
:10025000B94940390989012252021143B64A403A4C
:10026000118170475721B44A1170A82111700028DC
:1002700008D1B1494039098952159143AE4A403AF3
:10028000118108E0AC494039098901225202114329
:10029000A94A403A1181704770B5A74D403D2C895D
:1002A000A7495725A44E3570A8253570A34D833D29
:1002B000A14E403E358157259F4E3570A82535709B
:1002C0000125B5749F4A4AE000BF9B4DAD7C0226D4
:1002D0003542FAD0984D288A00BF974DAD7C022652
:1002E0003542FAD100BF944DAD7C02263542FAD09A
:1002F000914D288A5725904E3570A8253570884233
:100300000ADD8D4D203DAD896D1C8B4E203EB581A3
:100310001346451AAAB209E0874D203DAD896D1EEE
:10032000854E203EB58113460D1AAAB2934216DAC5
:100330005725814E3570A8253570884207DD7E4DE2
:10034000203DAD896D1E7C4E203EB58106E07A4D84
:10035000203DAD896D1C784E203EB58100E0B3E7AD
:1003600000BF5725744E3570A8253570724D403D3D
:100370002C810025B57470BDF0B585B004460E46DD
:1003800015461821206800F0D7FA80B20290182193
:10039000206800F0D1FAE120C000414330881E22DD
:1003A000504308182F88F90FC9194910401880B216
:1003B00001902878C007C00F02D00120C00300E0E0
:1003C00000200090019803900398010400980143D5
:1003D0000391572058490870A820087056494039A1
:1003E0000298486354482038407C80210843524991
:1003F0002039487450494039039848634E482038A2
:10040000407C402108434C492039487400204A4927
:10041000087005B0F0BDF0B585B004460D4616462F
:1004200045484038C06B8004800C03904248203817
:10043000408B029040482038008B01900298410088
:100440000122D2030198904201DB012000E000204C
:100450000F18E1210901384600F06EFA0146182212
:100460000398504308182060E1210901384600F044
:1004700063FA00913C21009800F05EFA28803C214C
:10048000384600F059FA318005B0F0BD57212A4AAC
:100490001170A82111702849403948632649203934
:1004A000497C40221143244A203A51740021224AB7
:1004B0001170704720484038816B806B884203D0B0
:1004C0001D484038806B70470846FCE757211A4AA0
:1004D0001170A821117018492039497C17229143C5
:1004E000154A203A51741146497C102202431143A7
:1004F000114A203A5174704700B50346FFF7DAFFFE
:10050000C2181004000C02D00120000412180E487A
:10051000824200D3121A572007490870A820087099
:1005200005484038426304482038407C2021084375
:1005300001492039487400BD401000408502000088
:10054000C4090000FFFF00000000C0A80146002908
:1005500004D10D48007C8022104070470A48007C7E
:1005600040221040F9E7002802D0012808D103E01A
:100570002021054A117404E01021034A117400E09F
:1005800000BF00BF704700002010004000B50B0006
:1005900000F0FAF9050412202E3842009B4A526BF3
:1005A00082439A4B5A631A46126B82431A631A4665
:1005B000126A82431A6230E0944A526B8243934B30
:1005C0005A631A46126B02431A631A46126A82432E
:1005D0001A6222E08D4A526B02438C4B5A631A46D0
:1005E000126B82431A631A46126A82431A6214E03B
:1005F000864A526B8243854B5A631A46126A0243FB
:100600001A620AE0814A526B0243804B5A631A46CF
:10061000126A02431A6200E000BF00BF00BD00B5CD
:100620000B0000F0B1F90504142434404C00774A63
:10063000403252698243754B40335A611A461269FF
:1006400082431A611A46126882431A6038E06F4A80
:100650004032526982436D4B40335A611A461269E7
:1006600002431A611A46126882431A6028E0674AF8
:10067000403252690243654B40335A611A4612694F
:1006800082431A611A46126882431A6018E05F4A70
:100690004032526982435D4B40335A611A461268B8
:1006A00002431A600CE0594A403252690243574BE8
:1006B00040335A611A46126802431A6000E000BFD4
:1006C00000BF00BD002906D001290ED0022916D096
:1006D000032928D11DE04D4A928A82434B4B9A82CE
:1006E0001A46D26A0243DA621EE0484A928A82437C
:1006F000464B9A821A46926A02439A6214E0434A2F
:10070000928A0243414B9A821A46D26A0243DA62C3
:100710000AE03E4A928A02433C4B9A821A46926A07
:1007200002439A6200E000BF00BF384B98831A462C
:10073000128A02431A827047002906D0012911D07B
:1007400002291CD0032934D126E0304AD28A8243C0
:100750002E4BDA822D4A4032D26802432B4B403373
:10076000DA6027E0294AD28A8243284BDA82274A74
:10077000403292680243254B40339A601AE0234A84
:10078000D28A0243214BDA82204A4032D2680243A5
:100790001E4B4033DA600DE01C4AD28A02431B4BE9
:1007A000DA821A4A403292680243184B40339A6008
:1007B00000E000BF00BF154BD8831A46528A02439F
:1007C0005A827047002807D0104A803A128B0A4399
:1007D0000E4B803B1A8306E00C4A803A128B8A4308
:1007E0000A4B803B1A837047002807D0074A803A9B
:1007F000528B0A43054B803B5A8306E0034A803AFA
:10080000528B8A43014B803B5A83704780100040D3
:1008100000B5030000F0B8F808050C141C242C34B3
:100820003C443D498978F02211403B4A917038E0C0
:1008300039498978F0221140491C374A917030E0DB
:1008400035498978F0221140091D334A917028E01A
:1008500031498978F0221140491D2F4A917020E0DA
:100860002D498978F022114008312B4A917018E007
:1008700029498978F02211400931274A917010E006
:1008800025498978F02211400C31234A917008E003
:1008900021498978F02211400D311F4A917000E002
:1008A00000BF00BF00BD70B50C46002B05D11A4D2E
:1008B0002D788543184E35701FE0002A05D0164D5F
:1008C0006D780543144E757004E0134D6D788543C3
:1008D000114E7570002109E005460D41ED07ED0F41
:1008E00002D00D4D4D192C714D1CE9B20829F3DBD6
:1008F000094D2D780543084E357070BD002905D18E
:10090000054A92788243044B9A7004E0024A927836
:100910000243014B9A7070470050004004488047E2
:1009200004480047FEE7FEE7FEE7FEE7FEE70000BB
:10093000450100009100000030B50B460146002043
:100940002022012409E00D46D5409D4205D31D46D5
:100950009540491B2546954040191546521E002DCD
:10096000F1DC30BD064C0125064E05E02046E3686B
:1009700007C82B4398471034B442F7D3FFF78CFBDA
:10098000A4090000A409000030B47446641E257850
:10099000641CAB4204D3635D5B00E31830BC1847B2
:0409A0001D46F8E711
:040000050000009166
:00000001FF
